:100000000C94B70A0C94DE250C94B7250C94DF0AE7
:100010000C94DF0A0C94DF0A0C94DF0A0C94692418
:100020000C94DF0A0C94DF0A0C94DF0A0C94DE0EA9
:100030000C94DF0A0C94DF0A0C94DF0A0C94DF0A9C
:100040000C946D250C94DF0A0C94DE230C94B823D9
:100050000C94DF0A0C94DF0A0C94DF0A0C94DF0A7C
:100060000C9405260C94DF0AE92BEE2BF12BF42BD4
:10007000F72BFA2BFD2B002C052C082C0B2C0E2C0F
:10008000052D2F2C3A2C7C2C802C052D832C902C8C
:10009000CD2CD12CF32CD52C18000404040401021F
:1000A000050D0B00FE08FE08FE000000EE014441B5
:1000B000098ADD5462A11C2E420E86BD42220A210D
:1000C000214A0892E800430C56BF20440419312409
:1000D0008408440F7AE5284E12318244081B180C1C
:1000E00000450888CD904C9E25461188CD904C0443
:1000F00009112444901041425802470788CDF00767
:1001000004480899D5A04EBE53491399D5A04E4432
:1001100009112544941051424409710A4A0799DD96
:10012000F00F0C4B0A88C57022D45CA9384C0C889F
:10013000CD7022D488F94AC5014D0A88CD70E2C13C
:1001400007230E4E0B99D58022D83C5B81004F13BC
:1001500099D58022D8081223488C203182C4B0154A
:1001600008500A99D580E2C10F4620511088CD422F
:1001700026508860320B11280C1100521588CD4290
:1001800026508820529010414288901081C2100160
:10019000530D88CD42C6C4830722CC100161138A57
:1001A000DD232E44B0200705860862244440510018
:1001B000621598CD232A4898402182111912519036
:1001C000404102110166148DDD54484DC03001C319
:1001D0000459113084C0206A006706B191B00068EC
:1001E0001299D5141E48C040214A040A181E4820FE
:1001F000000000000020002020002E000000000071
:10020000000000E0FFFFFF03001F00FEFFFFFF3FB5
:100210000000000EC06000FFFFFFFF1F0E38E0303F
:10022000300880FFFFFFFF0F0E38E04008149FFFEB
:10023000FFFFFF5F0000008004148F0FECDBEF4D29
:100240004E203CC0041487F7EF9BEF5DC42042C0F2
:1002500002148BFBDF9DEF2DC4204280020E89FB30
:10026000DF5DEF3D44218180010590FBBF5EEF1D06
:1002700044218180010590F77FDFEE1544228180C3
:100280008104900F7FDFEE0944228140811E90FFA0
:100290007EDFED1944248140812690FF7DDFEB0550
:1002A00044288140922488FF7DDFEB2D4428814043
:1002B0001A1588FF7DDFE72D443042401C1E84FF65
:1002C0007EDFE75D443042401E0584037FDFEF4D53
:1002D0004E203C401F0582FFFFFFFF1F0000004033
:1002E000008281FFFFFFFFCF00000040C06000FFE1
:1002F000FFFFFFFFFFFFFF43001F00FEFFFFFF3F69
:100300000200004E0000000000000000020000702B
:1003100000002A40000000000100004000002140D1
:10032000000000000100002000002B4B9D0D67071E
:1003300002000010000029D5541415051C00000C03
:10034000000049555D541707E000C003000000009D
:100350000000000400FF3F00000000000000000358
:1003600000000000456E633A20001000103C00467B
:10037000604363219851D82A6007B81ACC3F86069B
:10038000427B221B526A2C28FEFF07FFFF0FA7DAD1
:100390000CBB520F774B0F6F5B0F73DB0CFFFF0F24
:1003A000FEFF0703000F003F00FF00FF01FF003FBB
:1003B000000F000300E7E7E7E7E7E7E7E7434D441F
:1003C0005F5245534554415544494F00434D445FA6
:1003D000444F4E455F504C4159494E4700434D44B0
:1003E0005F53544152544D41524B5F48495400436E
:1003F0004D445F545241434B5F4C4F414445440090
:10040000434D445F53484F575F4552524F523A2035
:1004100000434D445F4F4F53594E433A2000434DE4
:10042000445F464F554E445F545241434B4C454EFA
:100430004754483A2000434D445F50524F4A5F5062
:100440004C415900434D445F50524F4A5F50415513
:10045000534500434D445F43555252454E545F410E
:100460005544494F5345433A2000434D445F464F5E
:10047000554E445F4650533A2000434D445F464F2B
:10048000554E445F464D540012020605060601050E
:1004900007233E00F32EF531F40000000004C020D5
:1004A0000DA57F947FF0FFFFFF7F1A002A50A57FE4
:1004B000947FF0B1487778E75142622441521CC6DC
:1004C000412047614292A1201283098A80317E40F7
:1004D000905CD29325DB923598631DC1511DC331C9
:1004E0001DC5112105F22007D22009C22009C21C16
:1004F000CBE1100D1109CEF083FFF3002B18A57F7F
:10050000947FF0B5C667FE933EE3BFC9F8CCFFFB0E
:10051000C1FF7C002C25A67F987FF0FFFFAF244011
:10052000C44B38855BB615A77489877C06687CC682
:100530007778679F11126460012D11A67F987FF074
:10054000FF784EE1EF07FFFFF3012E1AA57F947F9E
:10055000F0FFFFA7131FD2219CB2A97148877CC46A
:100560000FBE04002F57A57F94B7801C42E33B3A8F
:10057000A43B3AA43B3AA43B3AA43BBCA33BBCA358
:100580003BBCA33BBCA343BAA343BAA343BAA34314
:10059000BAA343BAA343BAA343BAC33BBAC33BBA51
:1005A000C33B3AA43B3AA43B3AA43B3AA43B3AA40B
:1005B0003B3AA43BC042147EF04D003093A47F90A0
:1005C0007F506870CBE554D02445D4B30889931884
:1005D000479320078324C7822C87822C87722C099B
:1005E000822C09722C0A72280B722446501C486215
:1005F0000486812086601807620C86711C066118CB
:10060000C75114867118466118476118867114C560
:10061000611807512086710C066218876024868154
:100620000485621C8C721C8C6220CB62200A6324BD
:1006300008732408632889722C8862300972340A8E
:10064000813C15344512F5584D96FCE08702312463
:10065000A57F947FD06974C8A664CCE5541015A317
:1006600092E0A888E2A802E4F0CEFFFFFF7F3FF807
:10067000D900323CA57F947F5089684E154D146493
:100680003918B30CCB92208A7230C86234083338E0
:1006900048233C8777AE3BBCA34338A44338B42DF2
:1006A000FDE3D0BA334950B684BF1FFC5800335223
:1006B000A67F987F508A6CCD155153643DD8930C1A
:1006C000CC5324093430081434C877CE43BCC34318
:1006D0003A6453ACE772300783AC8853BCE443BE42
:1006E000E343BEF31CC1419AC14118A2419843495A
:1006F00098C45018ADC11E2BA22808637EF0470095
:10070000344CA57F947F106B78A70EE1529BA2AD6D
:1007100032066B5D467058867058867054C67050AD
:1007200006714C07714C467148867144877144C606
:100730007140C7713C07723C467238477234877209
:10074000349EF11F7678E77F3FF8C500354BA67FD2
:10075000987F908839F89AAC39BEF32720D5345564
:1007600091055D4ED62C03C32049C21C4BD2100DFF
:10077000F2040FE221DFF939C1833084832C8573C1
:100780002C0783248A92288BA13099833D563455B7
:1007900010C6FCE06F00003673A67F987F108B6C4C
:1007A000CE055154643D97C30CC89320C5832CC318
:1007B0008334018478878778C7771A12E9101AE89A
:1007C0000820276B34665B9A2259162451920551F2
:1007D00090E6509006498EE7488EE7488EE7488EAF
:1007E000E74810E7500EE7500EE7500EE7501006AE
:1007F000590EE6601005611224699422792CC88A8A
:10080000A849B21C4DF9C1DF0000374AA57F947F8B
:10081000D0B629FB14CD3BBAC33B3AA43B3AA43B28
:10082000BCA33BBCA343BAC33BBAC33B3AA43BBC47
:10083000A33BBCA343BAC33B3AA43BBCA343BAA368
:1008400043BAC33B3AA43BBCA343BAC33B3AA43B21
:100850007EF0EB013878A57F947F50896C8D154D23
:1008600053543D96B3084B831C098328C8722CC887
:100870007230C77230C77230C77230C78228478360
:1008800024478320C7931408940C88245190E5547E
:10089000D1444108A138C89130488230C7822847E6
:1008A0007328478320C77320C77320C77320C7737B
:1008B000208873204883200983248982288BA12CD7
:1008C00059733D55344DD1B5FCE05703396AA57FC6
:1008D000947F507970CCF554924441D5A30C8A830F
:1008E0001C09832408732C07735210E6508EE650BF
:1008F0000EE7480EE7480EE7480EE74890E64890B6
:10090000E6500E0651102585284B52308BC6640DDB
:10091000E65C4F231C12421CDEA93BBC537778C710
:10092000332C884328887318C96339D6534912F584
:1009300060CB0F7E37003A27A57F947FF03F8DF87C
:10094000900EE1944D8D433AE4237EF0A7101FD220
:10095000219CB2A97148877CC40FBE04000000002E
:1009600000120205040506010406132000F918FA16
:1009700019F9000000000263200A141CF487FFFF2D
:10098000A3002A28141CF4873D02696A0C3244290A
:100990006188321E10C5A9F24C438B0892C820A86A
:1009A00010728819291CF1E187002B18151CF58796
:1009B0003C89F4AD070479409007842291BE0FBFB3
:1009C0000B002C15141CF487FFCF0D589E71E615F3
:1009D00048E004091C0A002D0E141CF4879F79E5D9
:1009E000FBF0BF0A002E10151CF587FFEF11689E63
:1009F00005C9875B002F27141CB40B7340EA11480C
:100A0000E080040E483D02C923903C02C923903C7B
:100A100002C923903C02C923717C58053042151C41
:100A2000752F2EAD954C28891472882986986248B6
:100A30003185984348198110428620848C310821E1
:100A4000630C428818840AA310720C29C510530C39
:100A500031C590430A412698B45672E5C303311557
:100A6000141C7427CE30A4D42281AC4008A4FFFF0C
:100A70003EDC05321C141C342F2D25868A30863A24
:100A80000211487B049247FF2049A1FC3E9C04339D
:100A900027141CF4362C25868A30489802698FB0BA
:100AA000B310432CC10AD24E40C40C438C11E6B0A3
:100AB000A498F9701800342E141CF4076140F22A2F
:100AC00067DAC546208B04B286206A0CA2C620696C
:100AD000108208216814721E08E481401E088D40AF
:100AE0007A1FAE023524141CF475C63304D2C195A6
:100AF000186A879462C6219140BA320E29E4907236
:100B000084310DAD753EDC053635131CF32E2CA556
:100B1000754C28871471C8238E3C120C6AC6153395
:100B20004AA9083984904308398490430839A410AD
:100B3000434A21E41451CE4A89950F0701371F1308
:100B40001CB375C57BE3518E3CF2C6A31C79E48DC2
:100B500047BDF1A8371EE5C8231F6E023834141CA8
:100B6000F4364C25868A28879462E83B8410540426
:100B70005189A14542498490430C29041142102116
:100B80000411421021C5106384392C29663EDC050E
:100B90003933131CB32E2CA5754C288714CA9042E8
:100BA0000E21E410420E21E410520C296598E24C0B
:100BB00043269047BDF1C811859C228A61482DF3D8
:100BC000E122003A16151CF5876F11689E05C9874A
:100BD000970834CF82E4C32D00000000005F0003BB
:100BE0000204040305050E0FFFFD0BFD0BFD019E26
:100BF000039D050B2005008C142107B186140745C1
:100C0000220733C51589252315A784784998844977
:100C1000344C499844C39484499864002417E77479
:100C200078E1A0449114496192AE49184991541950
:100C3000C438032519BB843C63944559299C722C04
:100C4000877228C7A231CA4A59142E002613A885D4
:100C50005A6A1446A95C89922C294659126D0127BB
:100C60000631C51303280CE36D55499444FD166500
:100C700001290DE36D15599445FD122511002A0A2D
:100C800055B55795CAD214012B0B778D79716D1814
:100C9000B2B8062C0742743315052D0613A41403AD
:100CA0002E06218513022F0CB48474A5AC9495B242
:100CB0001A00300CB685384312FAC7644800310870
:100CC000B3865843D43F320DB6853843128A69D86B
:100CD0006B3A0C3310B6853843128A69694E453138
:100CE0001912003412B785B8A99864512D099330B0
:100CF000198634AE00350FB6851887B43AC8692A0C
:100D00008AC99000360FB685384312AA9545131D3F
:100D1000932101370EB68518D7300DD3300DD3226D
:100D200000380FB6853843123A2643123A2643025A
:100D30003910B6853843123A26839A8A62322400E3
:100D40003A07818513A2003B0AA27434752849141E
:100D5000003C0856959892D9003D07369D19E761E9
:100D60003E08569518B2C9083F0DB68558A6514C95
:100D7000C37630CD00401DCB7D9D432A4A39525366
:100D8000122D8AA42C92B2488A949AA2E5989A0EBF
:100D90001A004116B9849939302771926661568DCF
:100DA00086214A931CD081004211B785199770356E
:100DB00026831426A9711814004313B8857A9B253D
:100DC000D5811CC8811CC89134D1B4094410B885A0
:100DD0001A83162A6912FB9A84CAA001450DB785A9
:100DE0001907B97958E2E66108460CB7851807B9C2
:100DF0007958E2CE004715B9857B43262AB18EE4A7
:100E00004838E8800E2471A29D02480BB8851AB1BB
:100E1000E7E1107B0E4907B186140F024A0BB68436
:100E2000B7FD2A8AC990004B14B885196912465932
:100E3000294CD2350AB362942671004C09B6861843
:100E400069FF3A0C4D1BBB841C39B403430E2C695B
:100E5000A2A489944552166949A62599188A054E77
:100E600014B8851AAA122AA19449991669919888EA
:100E700089BA0A4F16B9857BA326A5490EE8800ECC
:100E8000E8800E2469A4891B00500DB7851997705E
:100E9000350E831277065116B9857BA326A5490E18
:100EA000E8800E68991825A1A4895300520FB885CF
:100EB0001A87249DADC930A549EC1C5310B785593C
:100EC00093B6EA800EE880AC6ED2045415B984194A
:100ED0008F3992233992233992233992233912027E
:100EE000550CB8851AB17F4EC26C88005616B9846D
:100EF0001939A003491AA591A615B33489931CC8C2
:100F000091105720BD841D69AAA6621226599245E8
:100F1000599245599255B2244CB2244CB2242DA773
:100F200019005817B984193990A45935C9811CC9B9
:100F30008124CDAA519AE440005915B9841939B0D9
:100F40002A6956CCD224DE811CC9911C09015A0E93
:100F5000B785198738ADAA55B53C0C015B09E36D1F
:100F60001443D4FF345C0BB48414599815B36256FF
:100F70005D09E36C1453FFD3105E0A55B55759123F
:100F800025352D5F07186C180701600722CD155114
:100F900000611087853843648E06454BC244921623
:100FA00001620DB6851769CB228D8ED3B200630D19
:100FB0008685374322AD8D93322400640CB685B804
:100FC0002DA7D171529600650F86853843228DC3B7
:100FD000A0A692322400660BB484544A164D599F41
:100FE00000670EB66D38A7D17152967452860468A8
:100FF0000BB6851869CB228D3E066908B18513CAE8
:1010000030086A0AE36B53D5A83F2D006B10B685F4
:1010100017695B12553231C9A25A12066C07B185A5
:10102000130F026D1189851B89A448B64CCBB44CB3
:10103000CBB44C2B6E0A868518C9228D3E066F0DE7
:1010400086853843228D8E93322400700EB66D183B
:10105000C9228D8ED3B2A45500710CB66D38A7D1BC
:10106000715296B401720A848515C91065BD017369
:101070000B8585374B368EB66401740AA4843459C7
:1010800034653D0A750A868517A18F93B2047610E0
:10109000878417A99A6451166595304933007710F3
:1010A00089841A59A6655A25EA4B5B318B00780E64
:1010B0008784179A9255D2384DB28A267911B76C27
:1010C00017E998645156CA92548D5351047A09868F
:1010D0008417D7B0D7617B0BE56C7552D8562D7647
:1010E000157C07E16D131F047D0CE56C156AD85A59
:1010F0002B76D2007E09369D3892625200000000A5
:10110000005F00030204040204050B0BFFFE08FE4F
:1011100008FE015502BF03F6200500E60421068102
:10112000E3C4252207233B45A204231076A255924F
:1011300025D12025C920255912012410A59E55B678
:1011400054946C4BA244A96C1100251188628ED472
:1011500092293910E740A225514901260D86238E98
:1011600016B56951A2259129270621BA8400280BBA
:10117000A31A551225515B9405290CA31B4516652E
:10118000514B9444002A07333645D2012B0A55A609
:1011900055180D5218012C0732DA4CA2002D0613F7
:1011A0002EC5002E0611E344002F0A83E254256A5F
:1011B000892200300A85A2CD92F9962C003107824F
:1011C000A3CDD207320C85A2CD928525290B07012C
:1011D000330C85A2CD9285911A6AC902340E85A27C
:1011E0005D262551524A062D4C00350C85A2CD9026
:1011F00084E11A6AC902360C85A2CD92894392D93C
:101200009205370B85A2C52066C52CAC01380C852C
:10121000A2CD9269C992D99205390C85A2CD92D9F5
:101220009221D492053A0661E344183B0982DA4CD4
:101230000E250A003C0753A755522B3D08346AC5BA
:10124000100E013E0853A7455629013F0C84A38D7B
:101250001265512D07220040169ADEDE20A651A409
:10126000245249C92225AA448A96638306410E87DF
:10127000E25D9C2661929506255503420D85E3C5E6
:101280009064DAA064B64101430C8623CE90846A50
:10129000C7644800440D8623C6106549E82D19220D
:1012A00000450A85E3C5311CC6E220460A85A3C570
:1012B000311C92B011470C8623CE90846A6D149332
:1012C00041480A862346681C06D131490681E3C499
:1012D000414A0984625D6F52A2004B0D85E34526A9
:1012E00025A5A9122599164C0884A345D6B7214DEA
:1012F00010876346BA0DD952512A52244552014EE5
:101300000F862386B6299112498994689B004F0B5A
:101310008623CE90843E264302500C85E3C590641C
:10132000DAA0848D005112971FCE10854998844908
:101330009844494D1A7420520C85E3C59064DAA094
:10134000646E01530C85E3CD92A9ABA6250B005426
:10135000098562C520857D02550A862346E8C76453
:101360004800560F87E245AA2659944559254CD284
:101370000C5710896246966995A82F6DC52CCC2212
:1013800000580D85E345A625B54A94D4B400590EFE
:1013900087E2459A645156099334AE015A0B85E3AE
:1013A000C52066C5AC38085B08A2DBC4D22F025C3E
:1013B0000A83E24494456D51005D08A2DA84D22F7D
:1013C000035E0A55AE55982551520B5F06169AC515
:1013D00001600622FE4414610C6562C51A2D51128B
:1013E000454A00620C85A245583169DAA428006399
:1013F0000A64628D1269A54401640A85A265C5B4B8
:10140000991425650B64628D120D5B942800660AA1
:10141000842295124D592700670C859A8D693329CE
:101420004A982C00680A85A2455831696E016907FF
:1014300081A244320C6A09A2994C96F4A2006B0C6A
:10144000846245565212292949016C0681A2C44181
:101450006D0E6722C6A244911449911449056E0984
:1014600065A24562D2DC026F0A65A2CD92B9250B56
:1014700000700C859A4562D2B44951C210710A8538
:101480009A8D6933294A587209632245B2444D0046
:10149000730B64628D1225A2942800740A83224D76
:1014A000942C5193007508646245E42919760C6503
:1014B000A245A625A5240B2300770E6722461449D2
:1014C00095A6A496844904780A65A24596D42A353F
:1014D0002D790E85594D94444929C9B430D2007AEA
:1014E0000A6462C590456D43007B0AA3DA54125525
:1014F000B2A82D7C07A1DBC443007D0BA3DA441600
:10150000D592A825027E0726EE8D6401000000001A
:1015100000000000250028002B0002010204081032
:10152000204080010204081020010204081020005D
:10153000000000230026002900040404040404041D
:101540000402020202020203030303030300000079
:1015500000240027002A000000000800020100000B
:1015600003040700000000000000000058311124AF
:101570001FBECFEFD8E0DEBFCDBF14E0A0E0B1E0EA
:10158000E4EAFCE602C005900D92AE3AB107D9F745
:1015900027E0AEEAB4E001C01D92A53FB207E1F733
:1015A0001AE0C7EBDAE004C02197FE010E9426335F
:1015B000C63BD107C9F70E943D2A0C9450360C94C3
:1015C00000000895CF92DF92EF92FF920F931F9346
:1015D000CF93DF936C01EB017B01E40EF51E00E07D
:1015E00010E0CE15DF0561F06991D601ED91FC9117
:1015F0000190F081E02DC6010995080F191FF1CF68
:10160000C801DF91CF911F910F91FF90EF90DF9074
:10161000CF900895089580E090E00895CF92DF92F2
:10162000EF92FF92CF93DF93EC01683109F456C03B
:1016300038F46431C9F0673109F0A6C0F9010DC072
:10164000693109F48EC0603209F09EC06AE497C027
:101650000DB407FEFDCF8EB54150442309F492C06E
:1016600081918EBD0000F4CFE881F981418169E468
:101670000E945427CFB7F8948091D504811127C0D8
:10168000E3E4F5E18491E5E2F5E19491E82FF0E0FF
:10169000EE0FFF1FE35BFA4EA591B491EC91E923A5
:1016A00021F461E08AE00E94392461E08AE00E942E
:1016B000EB248CB580618CBD8CB580648CBD61E001
:1016C0008DE00E94EB2461E08BE00E94EB2480918E
:1016D000D5048F5F8093D504CFBF54C0A881B98152
:1016E0001C96EC911C97E150E33028F4F0E0EE5E9C
:1016F000FE4F808101C080E01896CD90DD90ED9086
:10170000FC901B9720E040E052E16AE770E0C416CD
:10171000D506E606F70640F4769567955795479502
:101720002F5F2630A1F727E091E092278C7080652B
:10173000292F2695822B91708CBD9DBDE881F98162
:10174000408169E4CE010E945427A881B981EA85CD
:10175000FB8520E030E012964C916CE2CE010995B9
:1017600011C0A881B981EA85FB8520E030E013969D
:101770004C916CE20995E881F981418169E4CE01DF
:101780000E94542781E001C080E0DF91CF91FF905B
:10179000EF90DF90CF9008951F93CF93DF93EC01EC
:1017A000962F642F9C3270F49A3208F058C0983209
:1017B00089F0993209F03EC070E080E090E00E942C
:1017C00027254DC09D32B1F0A8F184EB890F8230FE
:1017D00000F130C06B9610E089918F3F39F01031E5
:1017E00010F461E001C062E00E94EB241F5F16313B
:1017F00099F735C0433018F082E090E002C085E0F0
:1018000090E0880F991F880F991F05970197F1F7AE
:1018100026C09F73C90FD11D411107C061E08B8D98
:101820000E94EB2460E08B8D10C062E08B8D0E94E3
:10183000EB2415C09034A8F09F73FE01E90FF11D51
:10184000838D8F3F61F0903118F40E94392407C0D6
:101850000E94102421E0892B09F420E02E8B81E0E6
:1018600001C080E0DF91CF911F9108950F931F93E6
:10187000CF93DF938C01C0E0D0E0F80161918F013C
:1018800080EE860F8F3528F48AE795E00E94512379
:1018900004C08AEF91E00E94C8282196C031D1058A
:1018A00051F0C830D10549F76AE372E08AE795E064
:1018B0000E94B623E2CFDF91CF911F910F9108953F
:1018C000CF93DF930597A0F087E196E00E94D222A4
:1018D00080935E05CAE5D5E087E196E00E94D222BA
:1018E000899385E0CE35D807B9F781E080935F050D
:1018F000DF91CF9108950F931F93CF93DF93EC0166
:101900008C010C5F1F4FFC01E958FF4F0190F081E3
:10191000E02DC80109958E3F2FEF920780F4FE015C
:10192000E658FF4FC758DF4F9C0140816881C801CE
:101930000E94951E288190E0820F911D888381E08E
:1019400090E0DF91CF911F910F910895DC01D8961F
:101950006C93D897D396ED91FC91D4970190F08138
:10196000E02D0994BF92CF92DF92EF92FF920F93F6
:101970001F93CF93DF9300D000D01F92CDB7DEB777
:101980008C01DC01D796BC90D797D896DC90D8977D
:10199000ED91FC91C188E12CF12CD801ED91FC91E5
:1019A00011978089D5964D915C91D6971C829D2D7B
:1019B0009E0D9D838B83B8E08B9FC00111248E9D6B
:1019C00090018F9D300D9E9D300D1124CA01820F14
:1019D000931F9A838983D8011496ED91FC911597F2
:1019E0009E012F5F3F4F41E06FE0C801099581E004
:1019F0008E0D8B1538F4BFEFEB1AFB0A8D2D8E0D73
:101A00008C1558F20F900F900F900F900F90DF9160
:101A1000CF911F910F91FF90EF90DF90CF90BF90EB
:101A20000895FC01A081B18150969C9147A9949F93
:101A3000A001112483E0440F551F8A95E1F760E06F
:101A400070E085A996A90C945F33CF93DF93EC01E6
:101A5000FC01EE58FF4F8081882319F0CE010E94CF
:101A6000110D60E0CE01DF91CF910C94A60C4F9246
:101A70005F926F927F928F929F92AF92BF92EF92FE
:101A8000FF920F931F93CF93DF93D82FC62F490157
:101A90005A018BE396E00E94250DC501B40128E5AB
:101AA00032E040E050E00E94E5322B013C011FE0B3
:101AB00083E2F82E8DED9BE00E9415281093B0066E
:101AC000F092B10665EE74E087E396E00E94B623DB
:101AD000D13009F046C020E9421621E052066104E7
:101AE000710410F0EE20F9F0C03239F46EEA71E0C2
:101AF00087E396E00E94B62316C0CF3779F488E9D1
:101B000090E00E94152860EB71E087E396E00E9468
:101B1000B6238DED9BE00E94152805C06C2F87E34E
:101B200096E00E94512381E091E10E941528C03285
:101B300029F442EB51E067E38DE25CC0CF3729F432
:101B40004AEB51E067E382E255C0002329F048ECFC
:101B500051E067E380E14EC04DED51E067E38EE078
:101B600049C0D230E9F581E091E10E94152844EFA7
:101B700051E067E38BE00E9498170E946125DC0129
:101B8000CB0188199909AA09BB098D3D9540A1058A
:101B9000B10590F142E350E060E070E08DE298E042
:101BA0000E94251562E370E080E090E00E94272506
:101BB00042E350E060E070E080E49CE00E94251584
:101BC00062E370E080E090E00E94272542E350E06D
:101BD00060E070E08AE590E10E94251581E01CC07C
:101BE000D33051F481E091E10E9415284BE052E09E
:101BF00067E389E20E94981744E152E06EE083E1D6
:101C00000E9498178DED9BE00E9415288BE396E0CB
:101C10000E94CC2081114ECFDF91CF911F910F9167
:101C2000FF90EF90BF90AF909F908F907F906F90BC
:101C30005F904F900895AF92BF92CF92DF92EF9254
:101C4000FF920F931F93CF93DF931F92CDB7DEB711
:101C50005C017B018B016C0183E1C80ED11CF80192
:101C600061918F01C50169830E94AF326981681754
:101C700019F0C5010E94B732FFEFAF1ABF0AAC14CA
:101C8000BD0469F7C7010F90DF91CF911F910F91AC
:101C9000FF90EF90DF90CF90BF90AF900895CF92DC
:101CA000DF92EF92FF920F931F93CF93DF93EB019D
:101CB0007B0123E1E20EF11C8B016C01C61AD70AED
:101CC000C601800F911F0E94AF32F80181938F01EE
:101CD000EE15FF05A9F7CE01DF91CF911F910F916E
:101CE000FF90EF90DF90CF9008950C94B7320C9452
:101CF000AF3243E050E060E070E088E998E00C9497
:101D0000251560E086E00E94392460E087E00E94AB
:101D100039248BE396E00E94250DD9E1C3E28DEDD5
:101D20009BE00E941528D093B006C093B10667E2ED
:101D300072E087E396E00E94B6238BE396E00E9470
:101D4000CC208111ECCF6AEF70E080E090E00E943F
:101D5000272548EC50E060E070E08AE590E10E94C1
:101D6000251568EC70E080E090E00E94272548ECA3
:101D700050E060E070E080E49CE00E94251568EC93
:101D800070E080E090E00E94272544EF51E060E0A1
:101D900070E08DE298E00E94251560E27EE480E02C
:101DA00090E00E9427250E9461256093270670938A
:101DB00028068093290690932A06EFCF1F920F9250
:101DC0000FB60F9211240F931F932F933F934F93AE
:101DD0005F936F937F938F939F93AF93BF93EF9393
:101DE000FF930E9483172091D3043091D40489017A
:101DF000330F220B330B601771078207930781F0B3
:101E00000E94612560932706709328068093290617
:101E100090932A060E9483177093D4046093D3048E
:101E20000E9461250091270610912806209129061D
:101E300030912A06DC01CB01801B910BA20BB30B66
:101E4000813C9742A940B10560F00E9461256093F2
:101E50002706709328068093290690932A060E94ED
:101E6000810EFF91EF91BF91AF919F918F917F91E3
:101E70006F915F914F913F912F911F910F910F9013
:101E80000FBE0F901F9018955F926F927F928F9266
:101E90009F92AF92BF92CF92DF92EF92FF920F93F9
:101EA0001F93CF93DF93CDB7DEB764970FB6F89447
:101EB000DEBF0FBECDBF00E010E0CE0101967C0179
:101EC00081E3882E82E0982E9CE3692E92E0792EA1
:101ED0005E0191E1A90EB11CC8010E94770E582E37
:101EE000C80187709927892B21F487EF91E00E9420
:101EF000C82868018FE0C822DD24C114D10401F58F
:101F00000115110519F0C7010E94360C1F930F939C
:101F10009F928F92FF92EF920E947833B7018AE7E7
:101F200095E00E94B62340E150E060E270E0C70116
:101F30000E945F330F900F900F900F900F900F90B3
:101F4000F701EC0DFD1D50821F925F927F926F9200
:101F5000BF92AF920E947833B5018AE795E00E9464
:101F6000B6230F5F1F4F0F900F900F900F900F90A1
:101F70000F900038110509F0AFCF85EF91E00E9476
:101F8000C82885EF91E00E94C828C7010E94360C3E
:101F900062E472E08AE795E00E94582364960FB6E7
:101FA000F894DEBF0FBECDBFDF91CF911F910F918F
:101FB000FF90EF90DF90CF90BF90AF909F908F9069
:101FC0007F906F905F900895CF92DF92EF92FF9293
:101FD000CF93DF930E9483176B017C01F594E79404
:101FE000D794C79484E00E94102420910501309179
:101FF0000601C216D30644F40E94790ED09206015F
:10200000C092050184E51EC02C153D0544F40E94D4
:10201000790ED0920601C092050185E513C0892B87
:1020200081F445E050E060E070E080EA9FE00E94CB
:10203000251562E370E080E090E00E94272580E5AE
:1020400001C080E0DF91CF91FF90EF90DF90CF90C3
:102050000895CF93DF9300D000D01F92CDB7DEB7A5
:1020600089834A835B836C837D8381E080936407EB
:1020700088E08093D2041092DA041092D90441E0EF
:1020800050E0BE016F5F7F4F87E196E00E94EE2235
:1020900044E050E0BE016E5F7F4F87E196E00E9412
:1020A000EE229091D9048091D204913208F046C07A
:1020B0002091D8042111FCCF22E02093D80421E004
:1020C0002093D7042FEF20936507109287079093F2
:1020D0008607A4E4B7E046E657E0FA012E2F241B5A
:1020E000291718F42D912193F9CF10928807909118
:1020F0008807880F892B809388078091D6048130C8
:1021000061F41092D604809188078093BB0080917F
:10211000BC0083FDF8CF85EC01C085EE8093BC0048
:102120008091D8048230E1F3809165078F3F31F0D0
:1021300080916507803211F0809165071092DA0472
:102140001092D9041092640764E170E080E090E09E
:102150000E9427250F900F900F900F900F90DF9106
:10216000CF9108954F925F926F927F928F929F923C
:10217000AF92BF92CF92DF92EF92FF920F931F9395
:10218000CF93DF93EC01C62E8BE396E00E94250DE2
:1021900088E0B82E9AE5892E2E010D2E000C6608D7
:1021A000770822E6922E3EE3A32ED12CE12CF12CCF
:1021B00081E091E10E9415281092B006B092B1061C
:1021C00065EE74E087E396E00E94B6238092B00645
:1021D000B092B10665E472E087E396E00E94B62310
:1021E000CA30D1053CF46BE472E087E396E00E94CC
:1021F000B62303C0C436D10534F46BE472E087E340
:1022000096E00E94B623B301A20187E396E00E9404
:1022100096289092B006A092B1062AE0B701A601D6
:1022200087E396E00E946D236DE472E087E396E019
:102230000E94B6238DED9BE00E94152842E552E0F6
:102240006CE18EE10E9498174EE552E06EE289E162
:102250000E94981705EB13E028E048E066E38CE362
:102260000E94CC198BE396E00E94CC208111A0CF74
:10227000DF91CF911F910F91FF90EF90DF90CF9062
:10228000BF90AF909F908F907F906F905F904F9096
:10229000089584E00E941024892BD9F30895EF92C9
:1022A000FF920F931F93CF93DF9300D000D0CDB751
:1022B000DEB78C0181E091E14B835C8369837A8393
:1022C0000E94152887EAE82E86E0F82E82E0F701C2
:1022D00080830E94461A2CE632E04B815C81698142
:1022E0007A81C8010E94E9280E9449118DED9BE086
:1022F0000E941528F70110820F900F900F900F90F9
:10230000DF91CF911F910F91FF90EF900C94461A9F
:10231000AF92BF92CF92DF92FF920F931F93CF9312
:10232000DF93CDB7DEB763970FB6F894DEBF0FBE6D
:10233000CDBF1092F20480E090E00E94770EF82E5C
:1023400081E090E00E94770E8093090182E0C82E20
:10235000D12C00E010E0AF2CB12C81E0A81AB1081C
:102360000F15E0F4BE016F5F7F4FC6010E944F0E54
:10237000BE01695F7F4F82EF94E00E9466330A15C9
:102380001B0534F463E472E082EF94E00E9466334C
:102390000F5F1F4F83E1C80ED11CE2CF8F2D6396D4
:1023A0000FB6F894DEBF0FBECDBFDF91CF911F9166
:1023B0000F91FF90DF90CF90BF90AF9008951F9343
:1023C000CF93DF93CDB7DEB763970FB6F894DEBF38
:1023D0000FBECDBF282F30E02150310943E1429F8D
:1023E000C001439F900D1124BE016F5F7F4F029685
:1023F0000E944F0E1A81109304018B818093030178
:102400008C81809302018D81809301018E81809364
:102410000001BE01695F7F4F85EE94E00E94713339
:10242000412F50E060E070E082E00E9429104B8173
:1024300050E060E070E083E00E9429104C8150E0A1
:1024400060E070E084E00E9429104D8150E060E07F
:1024500070E085E00E9429104E8150E060E070E05D
:1024600086E00E942910698181E090E00E94750E4B
:102470000E94440F63960FB6F894DEBF0FBECDBF27
:10248000DF91CF911F9108953F924F925F926F928B
:102490007F928F929F92AF92BF92CF92DF92EF92F4
:1024A000FF920F931F93CF93DF93CDB7DEB729979A
:1024B0000FB6F894DEBF0FBECDBF0E9483172B016D
:1024C0003C0180910A01E5EEF4E0833009F059C047
:1024D00001900020E9F7E25FF44089F58091F00473
:1024E0001092F0049FEB980F9A3138F4F894082E6C
:1024F000000C990B8150914E15C09FE9980F9A31AD
:1025000038F4F894082E000C990B8750914E0AC0AD
:1025100090ED980F9A3068F4F894082E000C990BFF
:102520008B5B904E880F991F092E000CAA0BBB0BDA
:102530000BC0F89488EE9EE3A0E0B0E005C0F894EC
:102540008EEF9EE3A0E0B0E08093320690933306D6
:10255000A0933406B09335067894E5EEF4E001904C
:102560000020E9F73197E55EF4403E2EEF5FEC3056
:1025700030F4AE2FB0E0AB51BB4F1C92F7CF10E060
:1025800015C08CE08E0F11928E13FDCFF89480E869
:102590009EE3A0E0B0E08093320690933306A093D0
:1025A0003406B0933506789411E0312CD12CF12CFF
:1025B0009BE0931508F487C0F11085C0CA2C84E015
:1025C0000E941024019709F05BC00E948317959523
:1025D00087957795679520E430E040E050E00E94D1
:1025E00007334B015C018D819E81AF81B8858816D0
:1025F0009906AA06BB0641F069870E94790EEE246F
:10260000E394D12C698501C0E12C9AE189169104EB
:10261000A104B10418F4E1E4CE2E1DC0D501C4011B
:102620004A97A109B1094A97A105B10518F477E4C1
:10263000C72E11C0A4E38A169104A104B10469F065
:10264000D501C401C597A109B1090A97A105B10532
:1026500038F45BEFC52EC60E05C040E2C42E02C0A2
:102660003FE7C32E0E9461259B01AC01012F6C2D19
:1026700081E00E94370D8D829E82AF82B8869FCF07
:10268000AC2C0E94612569837A838B839C83B12C57
:1026900084E00E941024892B79F4B1100DC07EC013
:1026A000BB2009F4CAC0E12C012F20E030E0A901D1
:1026B0006C2D83E00E94370D84E00E941024892B4A
:1026C00009F08AC0EDCF84E00E941024892BD9F351
:1026D000E32DF0E0EB51FB4F1082F8946624772451
:1026E000409232065092330660923406709235065C
:1026F000789443E752E0609104018BE792E00E94F6
:10270000D918809304010E9449118CE8E82E82E0D8
:10271000F82E03E02FEF41E063E071E084E992E0FE
:102720000E94DF170E94491194E4E92E92E0F92EED
:1027300002E023E640E062E071E087EA92E00E9476
:10274000DF170E94491123E640E061E071E085EB6C
:1027500092E00E94DF170E94491123E640E060E00A
:1027600071E08FEB92E00E94DF1729960FB6F89484
:10277000DEBF0FBECDBFDF91CF911F910F91FF90B4
:10278000EF90DF90CF90BF90AF909F908F907F9011
:102790006F905F904F903F900C944911D11008C0FA
:1027A00045E050E060E070E080EA9FE00E9425157F
:1027B00062E370E080E090E00E942725E12C012F89
:1027C00029813A814B815C816C2D82E00E94370D1A
:1027D000B82EDD24D3945CCFAFE7CA120DC0B11080
:1027E00026C031103A94832D0E94F929E32DF0E0A0
:1027F000EB51FB4F10821CC0B1101DC0E32DF0E067
:10280000EB51FB4FC0823394112309F4D1CEF894DD
:1028100084EB9EE3A0E0B0E0809332069093330611
:10282000A0933406B0933506789410E0C1CEFB2C0B
:102830002FE7A22EBDCEFB2CBBCEBFE7CB12DECF47
:10284000D0CF0F931F93CF93DF93CDB7DEB76397AE
:102850000FB6F894DEBF0FBECDBF182F80E090E01A
:102860000E94770E082F809104018A8380910301D2
:102870008B83809102018C83809101018D838091F3
:1028800000018E8365EE74E0CE0107960E947133DD
:1028900011111AC011E0100F612F80E090E00E942A
:1028A000750E612F81E090E00E94750E198323E17F
:1028B000029FC0011124BE016F5F7F4F02960E94EC
:1028C0001B0E0E94440F3BC01983612F81E090E0F2
:1028D0000E94750E612F70E06150710923E1269FFF
:1028E000C001279F900D1124BE016F5F7F4F02969C
:1028F0000E941B0E0E94440F4A8150E060E070E08D
:1029000082E00E9429104B8150E060E070E083E09B
:102910000E9429104C8150E060E070E084E00E9449
:1029200029104D8150E060E070E085E00E942910A0
:102930004E8150E060E070E086E00E9429106396CE
:102940000FB6F894DEBF0FBECDBFDF91CF911F91C0
:102950000F910895DC01ED91FD918081ED91FD9144
:102960009081ED91FD916C9163708E2309F064600C
:102970009F2309F06860E7ECF4E1E60FF11D65952F
:1029800065956D936D917D918D919D91099423C075
:102990001AC012C016C010C01EC009C014C013C097
:1029A00006C019C009C00DC007C00DC014C06250D8
:1029B0007040804090400BC061507040804090401B
:1029C00006C06E5F01C06F5F7F4F8F4F9F4F9E931A
:1029D0008E937E936E93089580912506909126069E
:1029E0000C94AA1480912306909124060C94AA14A6
:1029F000CF92EF920F931F93CF93DF93D62F942F05
:102A0000C091A806CF5F4091A906C41BEE24E394B1
:102A10009813E12CB901892F0E943327009711F4F4
:102A200084E492E0209179062250CE2C8C014D2F27
:102A300061E08BE396E00E94DB1F8C2FDF91CF914A
:102A40001F910F91EF90CF9008953F924F925F9218
:102A50006F927F928F929F92AF92BF92CF92DF92AE
:102A6000EF92FF920F931F93CF93DF9300D000D08C
:102A7000CDB7DEB720910D01253021F02F3F09F0B1
:102A80002CC204C0EAE1F5E1349076C025E0209341
:102A90000D01EAE1F5E1E491EF3F09F41EC2E130F6
:102AA00011F1E23009F443C0E11165C014BC15BC5A
:102AB00024B5226024BD25B5216025BDEEE3F5E1F6
:102AC000E491F0E0EE0FFF1FE05FFA4E25913491A4
:102AD0003093BB062093BA06E0E2F5E1E491E0937F
:102AE000B906312C4BC010928000109281002091C9
:102AF0008100286020938100209181002160209333
:102B00008100EEE3F5E1E491F0E0EE0FFF1FE05FFE
:102B1000FA4E259134913093B8062093B706E0E23F
:102B2000F5E1E491E093B6063324339427C0109284
:102B3000B0001092B1002091B00022602093B0004C
:102B40002091B10021602093B100EEE3F5E1E49122
:102B5000F0E0EE0FFF1FE05FFA4E259134913093C5
:102B6000750520937405E0E2F5E1E491E0937305C7
:102B7000B2E03B2E03C03E2E37FCAFC12A013B0121
:102B80008C0161E085E00E94EB244801A12CB12C6E
:102B9000832D8D7F09F0BBC060E072E18AE790E091
:102BA000A50194010E94073329833A834B835C83F8
:102BB00069017A0121E0C21AD108E108F1088FEF1A
:102BC000C816D104E104F10409F008F44CC060E433
:102BD00072E48FE090E0A50194010E94073369013F
:102BE0007A01E1E0CE1AD108E108F108F2E03F12E3
:102BF00020C02FEFC216D104E104F10409F008F45B
:102C00006AC160E970ED83E090E0A50194010E9443
:102C1000073369017A0181E0C81AD108E108F10897
:102C2000EFEFCE16D104E104F10409F0D0F583E012
:102C300067C0FFEFCF16D104E104F104B1F0A8F0B2
:102C400068E478EE81E090E0A50194010E940733EA
:102C500069017A0181E0C81AD108E108F10833203E
:102C600009F4DFC02FC181E001C082E03320A1F070
:102C700047C089819A81AB81BC812AE0B595A7952F
:102C8000979587952A95D1F76C017D0121E0C21AAD
:102C9000D108E108F10885E095B5987F892B85BDBD
:102CA0006FC068E478EE81E090E0A50194010E9495
:102CB000073369017A01F1E0CF1AD108E108F10880
:102CC0002FEFC216D104E104F10409F008F4A7C003
:102CD00064E274EF80E090E0A50194010E94073364
:102CE00069017A01E1E0CE1AD108E108F108FFEFAD
:102CF000CF16D104E104F10411F008F0B4C085E06E
:102D00009091B100987F892B8093B10039C060E029
:102D100072E18AE790E0A50194010E9407336901FE
:102D20007A0181E0C81AD108E108F108C114D10480
:102D3000E1E0EE06F10488F068E478EE81E090E0EE
:102D4000A50194010E94073369017A01F1E0CF1ACD
:102D5000D108E108F10893E001C091E021E03212CE
:102D60000FC080918100887F892B8093810041145E
:102D700051046104710449F42FEF3FEFA9012DC004
:102D8000411451046104710471F0D801AA0FBB1FF2
:102D9000A30192010E942C3328EE33E040E050E082
:102DA0000E94E53203C02FEF3FEFA90181E0381602
:102DB000A1F0E2E03E1619F131108FC0C7BC20939C
:102DC000C0063093C1064093C2065093C30680915B
:102DD0006E00826080936E0080C0D0928900C092A5
:102DE00088002093BC063093BD064093BE065093E6
:102DF000BF0680916F00826080936F006EC0C092AA
:102E0000B30020937605309377054093780550936F
:102E10007905809170008260809370005EC084E0CC
:102E20006FCFFFEFCF16D104E104F104D1F0C8F069
:102E300062E17AE780E090E0A50194010E94073307
:102E400069017A0181E0C81AD108E108F108EFEFC1
:102E5000CE16D104E104F10411F008F00ACF84E0A9
:102E60001BCF83E019CF62E17AE780E090E0A50113
:102E700094010E94073369017A0181E0C81AD108E0
:102E8000E108F108EFEFCE16D104E104F104C1F03E
:102E9000B8F089819A81AB81BC814AE0B595A7954C
:102EA000979587954A95D1F76C017D0121E0C21A6B
:102EB000D108E108F108332009F4EDCE87E020CFF6
:102EC00086E0D4CEFFEFCF16D104E104F10409F07F
:102ED00050F684E0CBCE82E013CF0F900F900F908E
:102EE0000F90DF91CF911F910F91FF90EF90DF90A6
:102EF000CF90BF90AF909F908F907F906F905F909A
:102F00004F903F90089580913606823030F4F894C7
:102F10008BE296E00E94AA1401C0F89460913206F8
:102F20007091330680913406909135067894089517
:102F30009A0140ED5AE150933E0640933D06462FDC
:102F4000682F8BE396E00C94961F7F928F929F924E
:102F5000AF92BF92CF92DF92EF92FF920F931F93A7
:102F6000CF93DF934C01D62F742EF22E5801C80157
:102F70000E944727D82EC0E0CD1581F0B5018C2FD7
:102F80000E943327C12CE12C8C01272D4D2F60E0AE
:102F9000C4010E94DB1FDF0DCF5FEECFCF9D802DE0
:102FA0001124DF91CF911F910F91FF90EF90DF904F
:102FB000CF90BF90AF909F908F907F9008952F9269
:102FC0003F924F925F926F927F928F929F92AF92B9
:102FD000BF92CF92DF92EF92FF920F931F93CF9306
:102FE000DF934C013B01542E422EFB01C081109215
:102FF0008F0686EE9BE19093820680938106209057
:10300000A8068091A906281AC4010E944727F22D1C
:10301000829DF00D1124D0917A06FD1718F4DF1B64
:10302000D69501C0D0E09BE8C92E9AE1D92ED09266
:103030003E06C0923D0664E472E08BE396E00E9497
:10304000151EB82ED0923E06C0923D066BE472E08B
:103050008BE396E00E94151E182FD0923E06C09278
:103060003D06B7018BE396E00E94151E8B0D109F65
:10307000800D112430907906831518F4381A36948F
:1030800001C0312C83E0C82EC01A8C2D90E09C0129
:103090002E54394F69018BE8A82E8AE1B82E8BE3B4
:1030A00096E00E94250D8401222D409179066D2F16
:1030B0008BE396E00E94A517182F1D0FB0923E06D5
:1030C000A0923D0624E432E0412F632D8BE396E08D
:1030D0000E94961F082F030D9C2F80E3943618F052
:1030E00094568F5FFBCF8093B20680E39A3018F03E
:1030F0009A508F5FFBCF8093B30680E3913018F036
:1031000091508F5FFBCF8093B4061092B506B092BA
:103110003E06A0923D069601412F602F8BE396E07C
:103120000E94961FB0923E06A0923D06682F600F47
:103130009701412F8BE396E00E94961F8BE396E068
:103140000E94CC20082F8111AECF8BE396E00E9425
:10315000E40F803521F4F301C08301E016C083350C
:10316000A1F0823511F0853531F4C41510F0C52D6C
:1031700096CFCF5F94CF813511F0843531F75C164F
:1031800010F0C42D8CCFC1508ACF802FDF91CF910A
:103190001F910F91FF90EF90DF90CF90BF90AF9075
:1031A0009F908F907F906F905F904F903F902F9067
:1031B00008952F923F924F925F926F927F928F92DB
:1031C0009F92AF92BF92CF92DF92EF92FF920F93B6
:1031D0001F93CF93DF9300D01F92CDB7DEB76C0162
:1031E0006B835A01E090A806E3948091A906E81A3F
:1031F000C6010E944727682E2B81222311F02150FF
:103200002B8380917A06662049F090E003976E2D1B
:1032100070E00E94D132F62EF61804C06E2D0E9486
:10322000C532F82EC5010E944727782E5B815817BA
:1032300018F08FEF870D8B838F2C912C2B81822F91
:1032400090E0881599052CF0822F8F198F5F8A8363
:1032500001C01A8286EE9BE19093820680938106DC
:1032600044244A94470C372C3F1881E0582E5F18AD
:103270008BE396E00E94250D2090A806662049F178
:1032800086012E2D40917906622D8BE396E00E94F7
:10329000A517280E10917906022D0E198091A90606
:1032A000081B31E0300F0E5F212F432F60E08BE3CE
:1032B00096E039830E94881D3981882341F000E01F
:1032C000212F432F60E08BE396E00E94AE1D53E078
:1032D000250E00E00F1551F04A81400F9501622D37
:1032E0008B810E94F814280E0F5FF4CF8BE396E0D9
:1032F0000E94CC20082F8111BFCF8BE396E00E9463
:10330000E40F982F803519F40B810F5F2EC08335A1
:1033100061F18B7F8135B1F44B814F5F471520F010
:1033200040E01A824B83A4CF842F90E00196940151
:103330005A81250F311D82179307A4F3552D540F81
:103340005A83F0CF923511F09435B9F68B81811103
:1033500005C0442DF71428F73A82E4CF4B81415041
:103360005A814517F8F64A83DDCF802F0F900F90D2
:103370000F90DF91CF911F910F91FF90EF90DF9011
:10338000CF90BF90AF909F908F907F906F905F9005
:103390004F903F902F9008955F926F927F928F92FF
:1033A0009F92AF92BF92CF92DF92EF92FF920F93D4
:1033B0001F93CF93DF93C82EC62FD42F5801D62E3C
:1033C000D20E942E980E0D2D292D462F682F8BE3AB
:1033D00096E00E94881D882309F448C0D95FD695DD
:1033E000D695D695ED2EF12CCD1509F43FC08090E1
:1033F000AC06552453945C0E052D292D4C2F6C2DB5
:103400008BE396E00E94881D882361F13501DC2D55
:1034100011E0D91529F1F3018491812319F08092EB
:10342000AC0609C08091AB06811113C081E0811008
:1034300080E08093AC06E0916E06F0916F0602800A
:10344000F381E02D00E021E04C2F6D2F8BE396E01F
:103450000995DF5F110FE9F6FFEF6F1A7F0AD8CFEA
:103460008092AC06AE0CBF1CC52DBECFDF91CF91B4
:103470001F910F91FF90EF90DF90CF90BF90AF9092
:103480009F908F907F906F905F90089580917F06BE
:1034900090918006892BA1F180919D068093A806CA
:1034A00040919E064093A9069091A706992341F169
:1034B000913069F490919F06891714F49093A806AF
:1034C0008091A0068417E4F48093A90608953091B2
:1034D0009A0620919C06082E000C990B622F022E52
:1034E000000C770B630F711D37FD7A9586179707D0
:1034F0001CF4320F3093A806241714F42093A90665
:103500000895462FDC011896ED91FC91199720E063
:1035100030E060E20994FC016623D9F16A30C9F118
:103520008589811124C06C3F20F085E0858B617016
:103530001AC0683F20F084E0858B637014C0603F40
:1035400020F083E0858B67700EC0603E20F082E043
:10355000858B6F7008C0603C20F081E0858B6F71B7
:1035600002C070E01BC070E07787668715C081508D
:10357000858B6F732685378596E0220F331F9A95CA
:10358000E1F7A901462BBA0177876687811104C04C
:1035900005C06FEF7FEF02C06EEF7FEFCB010895A4
:1035A000662329F06A3019F0862F90E008958FEF96
:1035B0009FEF08950F93DC01D8963C91B8EF3B9FA5
:1035C000400D1124FC0131AD213061F4631708F086
:1035D00047C022AD421708F043C001A8F2A9E02D70
:1035E00021E03DC0023019F4621B6F5F04C003305C
:1035F00011F4421B4F5FDC01DA965C91702F717001
:1036000000FD14C0451760F5260F261730F4631728
:1036100018F42FEF230F03C060E0631708F522238F
:10362000F9F0321708F4232F261B13C06317C0F4D8
:10363000240F241730F4451718F42FEF250F05C079
:1036400040E0451768F4222359F0521708F4252F5B
:10365000241BDC01D196ED91FC91D297072F09959F
:103660000F910895CF93DF93FC0127A9822F880F34
:10367000880F880F82AFA081B18150968C915097AE
:10368000803208F08FE1880F880F880F81AF30AD4E
:10369000932F990F990F990F93AF51966C91519762
:1036A000432F50E0420F511DC62FD0E0C417D5075D
:1036B00014F4262F231B94AF492F38E0239F400D8D
:1036C0001124242F45AF30EF36AF54964D915C91C5
:1036D0005597413F510508F446AF56963C9137AF98
:1036E000DF01A05CBF4F1C9211968C9311969C93A6
:1036F000ED5BFF4F2083DF91CF910895EF92FF9212
:103700000F931F93CF93DF93DC01942F9770E1E029
:10371000F0E0092E01C0EE0F0A94EAF71E2FED012A
:10372000CF58DF4F8881823028F47E2F813019F402
:1037300010E001C070E050E0487FD596ED90FC901D
:10374000D697ED91FC9111978089849FF001859F18
:10375000F00D1124E60FF11DEE0DFF1D01110CC03F
:103760002E0F8081872B812781932E13FACF1DC0C6
:10377000770F110F2223C9F03081372B3127308387
:103780009F5F977021509111F3CFD9968C91D99763
:10379000E80FF11D8881823020F4813021F011E0A2
:1037A00002C011E0E7CF71E0E5CFDF91CF911F912B
:1037B0000F91FF90EF900895FC01EF58FF4F633099
:1037C00010F46083089581E08083089580E0089577
:1037D0009C01FC01EC5BFF4F8081918147966F3F1C
:1037E000710509F018F56136710510F0B49606C040
:1037F0006134710538F0F901EA59FF4F20813181B8
:10380000820F931F9C012F5F3F4FF9014491442386
:1038100051F1FC01449150E04617570711F402960C
:103820000895F9012491820F911DECCFF901E65919
:10383000FF4F20813181820F931FFC01249130E0E2
:10384000322F22273196E4912E2B2115310559F084
:103850002617370711F403960895FC013296E49178
:103860008E0F911DEACF80E090E00895213039F06D
:1038700020F0223031F4861B0895860F0895841BB2
:103880000895840F0895213039F020F0223031F46A
:10389000841B0895840F0895860F0895861B08954C
:1038A000DC0118964C911897ED91FC911197249199
:1038B00030E0042E02C0359527950A94E2F7862F52
:1038C000840F883010F4E22F0EC031961196FC93CD
:1038D000EE939491E92F98E0941B01C0EE0F9A9516
:1038E000EAF7E22B885018968C9381E090E001C0B3
:1038F000880F6A95EAF781508E2308950F931F93DE
:10390000CF93DF938C01EC01C85BDF4F7983688331
:103910001886FC01E75AFF4F6081CE010E94501CBF
:103920008E83F801E65AFF4F6081CE010E94501C41
:103930008F83F801EF58FF4F90819A8781E09111B2
:1039400080E08B87DF91CF911F910F910895CF93E6
:10395000C62F0E94501CC15021E030E001C0220F50
:10396000CA95EAF7821BCF910895CF93DF931F92F8
:10397000CDB7DEB76983BE016F5F7F4F0E94342AE7
:103980000F90DF91CF910895EF92FF920F931F93C5
:10399000CF93DF9300D0CDB7DEB77C01162F042F75
:1039A000663159F028F46431C9F0653131F027C02F
:1039B000673169F06A3118F511C060E0C7010E94F3
:1039C000811A602FC7010E94B51C81E019C061E017
:1039D00029833A830E94811A3A812981D701189656
:1039E000ED91FC911997402F612FC7010F900F9017
:1039F000DF91CF911F910F91FF90EF90099480E09C
:103A00000F900F90DF91CF911F910F91FF90EF904A
:103A10000895DC011696ED91FC91179720E030E0B7
:103A200040E069E10994DC011696ED91FC9117974D
:103A300020E030E040E068E109949A01DC0116964C
:103A4000ED91FC911797462F67E10994EF92FF9251
:103A50000F931F93CF93DF931F92CDB7DEB77C01F7
:103A60008B01D8016C916731E1F078F46531A0F1F8
:103A7000F80141814983D7011696ED91FC91179782
:103A800020E030E0C701099524C06A31A8F06E3FFC
:103A900019F5F8014181498369E2C7010E94542761
:103AA00018C0F80181818983AE014F5F5F4F61E0EB
:103AB000C7010E941D1D0DC00F5F1F4FD701169635
:103AC000ED91FC91179720E030E040E0C7010995A7
:103AD000C8CF0E5F1F4FC5CF0F90DF91CF911F91C1
:103AE0000F91FF90EF900895462FDC011696ED910F
:103AF000FC91179720E030E066E10994462FDC0145
:103B00001696ED91FC91179720E030E065E109945D
:103B10000F93FC01EE5BFF4F3081319650814517CA
:103B200028F4301730F0041720F010C03017D8F305
:103B30000DC0FC01E05CFF4F308131968081681739
:103B400038F4321740F081E0261730F080E004C0EE
:103B50003217C8F3FBCF81E00F9108950F93222312
:103B600049F0DC01D396ED91FC91D4970280F3816A
:103B7000E02D09950F9108955F926F927F928F9239
:103B80009F92AF92BF92CF92DF92EF92FF920F93EC
:103B90001F93CF93DF935C01F62E642EEC01C85B7C
:103BA000DF4F1C81DD804C0181E7880E911CEE8087
:103BB000E11ACE2CFE1408F4CF2C5B800C85202F4C
:103BC0004D2D612F8A810E94361C782E202F4D2D7D
:103BD000612F852D0E94431C482F662011F09A8585
:103BE00004C09985911108C09B85F40190832C2D08
:103BF000672DC5010E94AE1DFE1420F0FE18D3945F
:103C000010E0D5CF1F0D1C83DD82DF91CF911F9176
:103C10000F91FF90EF90DF90CF90BF90AF909F906B
:103C20008F907F906F905F9008952F923F924F9268
:103C30005F926F927F928F929F92AF92BF92CF923C
:103C4000DF92EF92FF920F931F93CF93DF932C019C
:103C50007C012EE4E20EF11CD7011C92FC01158AB6
:103C6000EB01312C212C8C01085B1F4F3C01FBE543
:103C70006F0E711C6C012FE6C20ED11C5C018CE52D
:103C8000A80EB11C4201ADE58A0E911C6991D201CA
:103C90001296ED91FC911397C20109958F3FBFEFEA
:103CA0009B0721F18E3FEFEF9E0781F3BC01C2011C
:103CB0000E94E81B0097B1F0BC01C2010E947E1C6B
:103CC000D3016C91C8010E94A71CF6018083D50125
:103CD0006C91C8010E94A71CF4016081C8010E9478
:103CE000A71C01C080E0382E280ED0CFD7019C91B0
:103CF000992339F0F201E159FF4F8081890F280E95
:103D00002318822DDF91CF911F910F91FF90EF909B
:103D1000DF90CF90BF90AF909F908F907F906F90EB
:103D20005F904F903F902F9008956F927F928F9267
:103D30009F92AF92BF92CF92DF92EF92FF920F933A
:103D40001F93CF93DF931F92CDB7DEB73C01062FB1
:103D5000142F7901FC01EC5AFF4F80818130C9F0AA
:103D600070F0823001F1833039F5F301EA5BFF4FE7
:103D70000190F081E02DC3010995080F1DC0F301EA
:103D8000EA5BFF4F0190F081E02DC3010995180F08
:103D900013C0F301EA5BFF4F0190F081E02DC301F6
:103DA0000995081B09C0F301EA5BFF4F0190F08100
:103DB000E02DC3010995181BF301E65BFF4F00835B
:103DC00031961083B701C3010E94E81B009709F4E4
:103DD0009CC0730128E4E20EF11CBC01C3010E94E7
:103DE0007E1CF301E15BFF4FD0803C966081C701F0
:103DF0000E94A71CA82EF301E45AFF4F6081C7015F
:103E00000E94A71CC82EF301E35AFF4F6081C7012F
:103E10000E94A71CB82EF701068110160CF073C083
:103E20009485CD0CC194292F4C2D6A2D82819983C4
:103E30000E94361C182FF70182839981292F4C2D5F
:103E40006A2D83810E94431C482FF7018383998147
:103E5000913091F060F09230A1F09330E9F4212F8D
:103E60002D0D801B01E0040F41E0480F17C0212FEA
:103E7000200F082F0D0D12C09D1921E0210F080FF2
:103E800009C081E0982F901B21E0210F8D1901E0DE
:103E9000040F480F190F02C0082F212F612FC301F3
:103EA0000E94881D882379F1F7011482158283010D
:103EB000095A1F4F4301F8E58F0E911CF8016081EC
:103EC000C7010E94501CA82EF4016081C7010E9406
:103ED000501CC82E40E06A2DC3010E94BC1D41E069
:103EE0006C2DC3010E94BC1D61E0C7010E94501CE3
:103EF0008111F0CFF70185818D1504F3D301AF58FF
:103F0000BF4F82858C938B2D01C080E00F90DF9195
:103F1000CF911F910F91FF90EF90DF90CF90BF90C6
:103F2000AF909F908F907F906F900895AF92BF92C7
:103F3000DF92EF92FF920F931F93CF93DF93EC01E9
:103F4000162F042F1D8A7901D12C5C0124E5A20EC5
:103F5000B11CF70161917F01EA81FB81CE010995D6
:103F60008F3FFFEF9F07E1F08E3F2FEF920789F31E
:103F70009C01402F612FCE010E94951EF5012081EA
:103F8000213049F030F0223041F0233039F4081B61
:103F900005C0180F03C0080F01C0181BD80ED9CFD9
:103FA0008D2DDF91CF911F910F91FF90EF90DF90BA
:103FB000BF90AF9008952F923F924F925F926F9271
:103FC0007F928F929F92AF92BF92CF92DF92EF92A9
:103FD000FF920F931F93CF93DF9300D000D000D0B8
:103FE000CDB7DEB79E838D83F62EA42E4801FC014B
:103FF000EC5AFF4F10823E970190F081E02D2C8308
:104000000995A80E8BE89AE1ED81FE819383828366
:10401000B801CF010E94151ED82E2C81821730F4D2
:10402000622F681B762E7694D22E01C0712CED8102
:10403000FE81E359FF4FB0806A2C6B18ED81FE8141
:10404000E259FF4F8081B81AB98261E08D819E816B
:104050000E94DC1B4D2C4F0C5980560CC1100AC01D
:10406000B42C252CFF2DFE19FA83ED2C1F2D6F1873
:104070006B8250C0052D242D462D6F2D8D819E8184
:104080000E94881D882361F3162D151549F300E061
:104090002D2D412F6F2D8D819E810E94AE1D1F5FA2
:1040A000F4CF11506B80610EE394E39459805E0C61
:1040B0005D1833243394320C442443944B0C032D69
:1040C000242D462D612F8D819E810E94881D88237D
:1040D000F9F000E02E2D462D612F8D819E810E94EA
:1040E000AE1D01E0252D462D612F8D819E810E9400
:1040F000AE1D252D462D6B2D8D819E810E94AE1DFE
:1041000000E02E2D422D612F8D819E810E94AE1DDB
:10411000232CB42C8A811813C4CFCC2011F060E07A
:1041200001C061E08D819E810E94DC1B8BE89AE1D9
:10413000ED81FE8193838283672D6F0D94014A2D5B
:10414000CF010E94961F61E08D819E8126960FB659
:10415000F894DEBF0FBECDBFDF91CF911F910F91BD
:10416000FF90EF90DF90CF90BF90AF909F908F9097
:104170007F906F905F904F903F902F900C94DC1B3E
:10418000FC01E60FF11D849190E0982F882731966D
:10419000E4918E0F911D08950F931F93CF93DF939A
:1041A0001F92CDB7DEB78C010E94B20CD801D89611
:1041B0006C91D897D7968C91D797680FED91FC9119
:1041C00011978189681760F01496ED91FC9115970D
:1041D00020E030E040E060E1C801099580E00FC0D8
:1041E000F801EE58FF4F8081882329F0C8016983C8
:1041F0000E94110D6981C8010E94A60C81E00F90F8
:10420000DF91CF911F910F910895CF92DF92EF929E
:10421000FF920F931F93CF93DF936C017A018B0171
:10422000C0E0D0E0CE15DF0589F0D8016D918D0199
:10423000D601ED91FC910190F081E02DC601099528
:10424000892B11F47E0102C02196ECCFC701DF91CA
:10425000CF911F910F91FF90EF90DF90CF90089535
:10426000FC01538D448D252F30E0842F90E0821B7C
:10427000930B541710F0CF96089501970895FC0101
:10428000918D828D981761F0828DDF01A80FB11D8D
:104290005D968C91928D9F5F9F73928F90E00895B1
:1042A0008FEF9FEF0895FC01918D828D981731F06B
:1042B000828DE80FF11D858D90E008958FEF9FEFBF
:1042C0000895FC01918D228D892F90E0805C9F4F95
:1042D000821B91098F73992708958AE795E00E94C0
:1042E000612121E0892B09F420E0822F0895FC014F
:1042F000848DDF01A80FB11DA35ABF4F2C91848D6F
:1043000090E001968F739927848FA689B7892C93A3
:10431000A089B1898C9180648C93938D848D98133E
:1043200006C00288F389E02D80818F7D8083089507
:10433000EF92FF920F931F93CF93DF93EC0181E0F5
:10434000888F9B8D8C8D981305C0E889F9898081B1
:1043500085FD24C0F62E0B8D10E00F5F1F4F0F73ED
:104360001127E02E8C8DE8120CC00FB607FCFACF97
:10437000E889F989808185FFF5CFCE010E947721F8
:10438000F1CF8B8DFE01E80FF11DE35AFF4FF08254
:104390000B8FEA89FB898081806207C0EE89FF89E3
:1043A0006083E889F98980818064808381E090E07E
:1043B000DF91CF911F910F91FF90EF900895CF93D0
:1043C000DF93EC01888D8823C9F0EA89FB8980811D
:1043D00085FD05C0A889B9898C9186FD0FC00FB6EF
:1043E00007FCF5CF808185FFF2CFA889B9898C9130
:1043F00085FFEDCFCE010E947721E7CFDF91CF91EE
:10440000089580E090E0892B29F00E946D218111B0
:104410000C9400000895833081F028F4813099F0E5
:104420008230A1F008958730A9F08830B9F0843047
:10443000D1F4809180008F7D03C0809180008F77C0
:1044400080938000089584B58F7702C084B58F7DF6
:1044500084BD08958091B0008F7703C08091B00033
:104460008F7D8093B00008953FB7F8948091F10755
:104470009091F207A091F307B091F40726B5A89B9D
:1044800005C02F3F19F00196A11DB11D3FBFBA2FE6
:10449000A92F982F8827820F911DA11DB11DBC0146
:1044A000CD0142E0660F771F881F991F4A95D1F70B
:1044B0000895089585ED8093BC008091BC0084FD33
:1044C000FCCF1092D80408954091C907262F30E000
:1044D000240F311D21323105DCF42091D804243021
:1044E000C9F4FC0180E090E0861758F43091C907C8
:1044F0002191DC01A755B84FA30FB11D2C93019654
:10450000F3CF8091C907680F6093C90780E00895D1
:1045100081E0089582E00895E091E304F091E404DD
:10452000309729F01092DA041092D9040994089572
:10453000CF93DF93AC01E091E104F091E204309776
:10454000F1F09091DC048091DB049817C0F090E0CA
:10455000292F30E02617370754F4D901A757B84F51
:10456000EA01C20FD31F88818C939F5FF1CF109215
:10457000DC046093DB04CB01DF91CF910994DF91E0
:10458000CF9108950895E091DC048091DB04E81751
:1045900030F4F0E0E757F84F808190E008958FEF16
:1045A0009FEF08959091DC048091DB04981750F4FC
:1045B000E92FF0E0E757F84F208130E09F5F9093BC
:1045C000DC0402C02FEF3FEFC90108958091DB04A6
:1045D00090E02091DC04821B91090895CF92DF9234
:1045E000EF92FF920F931F93CF93DF937C01262FBF
:1045F000972F8A0180916407882391F0C62FD72FC7
:104600006E01C40ED51ECC15DD0571F06991D70180
:10461000ED91FC910190F081E02DC7010995F3CF58
:10462000642F822F0E946422C801DF91CF911F91D5
:104630000F91FF90EF90DF90CF900895CF93DF938D
:104640001F92CDB7DEB76983209164072223D1F092
:104650002091D904203240F021E030E0FC01338386
:10466000228380E090E015C08091DA04E82FF0E02A
:10467000EC5BF84F998190838F5F8093DA0480938D
:10468000D90405C061E0CE0101960E94642281E058
:1046900090E00F90DF91CF91089580E008950E94FF
:1046A0005A33DC01ED91FC910190F081E02D0994E9
:1046B0006115710579F0FB0101900020E9F7319750
:1046C000AF01461B570BDC01ED91FC910280F38199
:1046D000E02D099480E090E008954F925F926F92F0
:1046E0007F92EF92FF920F931F93CF93DF93CDB7FB
:1046F000DEB7A1970FB6F894DEBF0FBECDBF7C0129
:10470000FA01CB0119A2223008F42AE08E010F5DD4
:104710001F4F422E512C612C712CBF01A30192011D
:104720000E94E532F901CA01015011096A3014F4FE
:10473000605D01C0695CD8016C93232B242B252B71
:1047400061F7B801C7010E945823A1960FB6F894EB
:10475000DEBF0FBECDBFDF91CF911F910F91FF90B4
:10476000EF907F906F905F904F9008950C94582336
:104770001F920F920FB60F9211242F933F934F93D6
:104780005F936F937F938F939F93AF93BF93EF93B9
:10479000FF938AE795E00E947721FF91EF91BF9107
:1047A000AF919F918F917F916F915F914F913F91C9
:1047B0002F910F900FBE0F901F9018951F920F9280
:1047C0000FB60F9211242F938F939F93EF93FF9324
:1047D000E0918A05F0918B058081E0919005F09140
:1047E000910582FD12C09081809193058F5F8F7338
:1047F00020919405821751F0E0919305F0E0E6587E
:10480000FA4F958F8093930501C08081FF91EF91BE
:104810009F918F912F910F900FBE0F901F90189521
:10482000CF93DF93282F30E0F901E95AFA4E8491B3
:10483000F901E55EFA4ED491F901E75CFA4EC491B4
:10484000CC2391F081110E940B22EC2FF0E0EE0FAF
:10485000FF1FE15DFA4EA591B491EC91ED2381E04B
:1048600090E021F480E002C080E090E0DF91CF9101
:1048700008951F93CF93DF93282F30E0F901E95A71
:10488000FA4E8491F901E55EFA4ED491F901E75CA4
:10489000FA4EC491CC23C9F0162F81110E940B222D
:1048A000EC2FF0E0EE0FFF1FE05FFA4EA591B49100
:1048B0008FB7F894111105C09C91ED2FE095E92375
:1048C00002C0EC91ED2BEC938FBFDF91CF911F9144
:1048D00008951F920F920FB60F9211242F933F93BA
:1048E0004F935F936F937F938F939F93AF93BF93F8
:1048F000EF93FF938091760590917705A0917805CD
:10490000B0917905892B8A2B8B2B59F180917305F6
:10491000E0917405F09175059081892780838091DD
:10492000760590917705A0917805B09179051816D4
:1049300019061A061B060CF03DC080917605909171
:104940007705A0917805B09179050197A109B10982
:104950008093760590937705A0937805B0937905B9
:1049600029C080910D01EAE1F5E1E4919FEF909378
:104970000D01E130B9F098F0E230C9F49091700087
:104980009D7F9093700091E09093B0009091B10062
:10499000987F94609093B1001092B30008C0109279
:1049A0006E0005C090916F009D7F90936F0060E056
:1049B0000E943924FF91EF91BF91AF919F918F9108
:1049C0007F916F915F914F913F912F910F900FBE0B
:1049D0000F901F901895CF93DF9390E0FC01E55E58
:1049E000FA4E2491FC01E75CFA4E8491882361F130
:1049F00090E0880F991FFC01E35BFA4EC591D491BA
:104A0000FC01E05FFA4EA591B491611109C09FB716
:104A1000F8948881209582238883EC912E230BC003
:104A2000623061F49FB7F8943881822F8095832398
:104A30008883EC912E2B2C939FBF06C08FB7F894E0
:104A4000E8812E2B28838FBFDF91CF9108958F921D
:104A50009F92AF92BF92CF92DF92EF92FF926B0143
:104A60007C010E9434224B015C01C114D104E10499
:104A7000F104F1F00E943422DC01CB01881999097C
:104A8000AA09BB09883E9340A105B10570F321E056
:104A9000C21AD108E108F10888EE880E83E0981E5A
:104AA000A11CB11CC114D104E104F10419F7DDCF3C
:104AB000FF90EF90DF90CF90BF90AF909F908F903E
:104AC00008952FB7F8946091ED077091EE078091EB
:104AD000EF079091F0072FBF08951F920F920FB626
:104AE0000F9211242F933F938F939F93AF93BF9374
:104AF0008091ED079091EE07A091EF07B091F0073C
:104B00003091EC0723E0230F2D3720F40196A11DEF
:104B1000B11D05C026E8230F0296A11DB11D2093EB
:104B2000EC078093ED079093EE07A093EF07B09307
:104B3000F0078091F1079091F207A091F307B091EF
:104B4000F4070196A11DB11D8093F1079093F20720
:104B5000A093F307B093F407BF91AF919F918F910A
:104B60003F912F910F900FBE0F901F9018951F929D
:104B70000F920FB60F9211242F933F934F935F9391
:104B80006F937F938F939F93AF93BF93EF93FF9315
:104B9000E0911001F09111010995FF91EF91BF9102
:104BA000AF919F918F917F916F915F914F913F91C5
:104BB0002F910F900FBE0F901F9018951F920F927C
:104BC0000FB60F9211242F933F934F935F936F93E0
:104BD0007F938F939F93AF93BF93EF93FF93E09156
:104BE0000E01F0910F010995FF91EF91BF91AF91E7
:104BF0009F918F917F916F915F914F913F912F91F5
:104C00000F900FBE0F901F9018951F920F920FB626
:104C10000F9211242F933F934F935F936F937F9342
:104C20008F939F93AF93BF93EF93FF938091B900BE
:104C3000887F803609F49CC068F5883209F45BC02F
:104C400090F4803109F454C038F4882309F4F6C094
:104C5000883009F44DC0F6C0883109F44CC0803268
:104C600009F45DC0EFC0803409F468C048F48033B3
:104C700009F455C0883309F0E5C080936507D8C0B2
:104C8000803509F44FC0883509F45DC0883409F0D7
:104C9000D9C0D6C0883909F4C7C0A8F4883709F448
:104CA00067C038F4883609F463C0803709F460C0FF
:104CB000C9C0883809F4B8C0803909F45FC08038A9
:104CC00009F0C0C05BC0803B09F486C038F4803A6C
:104CD00009F466C0883A09F47FC0B4C0803C09F486
:104CE000A7C0883C09F4A4C0883B09F48AC0AAC0C4
:104CF0008091880710C09091870780918607981748
:104D000070F5E091870781E08E0F80938707F0E0D0
:104D1000EA59F84F80818093BB0085EC86C0809370
:104D200065078EC0E091870781E08E0F809387072B
:104D30008091BB00F0E0EA59F84F8083909187079B
:104D4000809186076EC0E091870781E08E0F809387
:104D500087078091BB00F0E0EA59F84F808380918B
:104D6000D70481116DC081E08093D60484EA61C0CC
:104D700083E08093D8041092EB07CFCF8091EB07AC
:104D8000803208F051C0E091EB0781E08E0F8093F4
:104D9000EB078091BB00F0E0E553F84F8083BDCF77
:104DA00085EC8093BC001092D8048091EB07803290
:104DB00030F4E091EB07F0E0E553F84F108260919A
:104DC000EB0770E0E091DD04F091DE048BEC97E0FE
:104DD00009951092EB0736C084E08093D8041092B6
:104DE000CA071092C907E091DF04F091E004099529
:104DF0008091C907811105C081E08093C907109295
:104E0000A907E091CA0781E08E0F8093CA07F0E0FE
:104E1000E755F84F80818093BB009091CA0780913D
:104E2000C907981708F479CF85E88093BC000AC0B9
:104E300085EC8093BC001092D80404C010926507E2
:104E40000E945A22FF91EF91BF91AF919F918F9154
:104E50007F916F915F914F913F912F910F900FBE76
:104E60000F901F901895882359F0FB0191E0219134
:104E7000222341F02A30D9F7981739F09F5FF7CFF6
:104E8000CB01089580E090E00895CF010895009748
:104E900049F0FC0181E09191992329F09A30D9F7EA
:104EA0008F5FF9CF80E00895DC011A96ED91FC91B7
:104EB0001B9720E030E00994EF92FF920F931F932D
:104EC000CF93DF93EC01142F79016D30A9F118F421
:104ED0006B3039F15FC06E3009F441C06F3009F0BA
:104EE00059C00E94131DF70183810889F8E08F9F44
:104EF000000D112460E4CE010E947E1D602F62959A
:104F00006F706061CE010E947E1D602F6F70CE01B8
:104F10000E94741DF7016481606BCE010E94741DB4
:104F200029C0411103C06CE571E002C067E571E082
:104F3000CE010E94261D71C0411108C060E571E0DC
:104F40000E94261DE881F981828907C069E471E029
:104F50000E94261DE881F9818389888B5EC00E94AA
:104F6000131D61E8CE010E947E1D612FCE010E94BB
:104F7000741D0CC0F701408151816281660F660F7C
:104F8000660FCE010E941D1D1150A1F7CE010E9497
:104F9000091D43C0693031F486E991E09983888323
:104FA00082E0DBCF6A30B9F5EA85FB8520E030E0AE
:104FB00040E068E2CE010995EE81FF8120E030E01B
:104FC00040E064E1CE01099541E06BE4CE010E942E
:104FD0005427E881F981448169E2CE010E94542777
:104FE00040E06BE4CE010E945427E881F9814481BE
:104FF00069E2CE010E94542741E06BE4CE010E9499
:105000005427E881F981458169E2CE010E94542745
:1050100061E671E08DCF80E001C081E0DF91CF914A
:105020001F910F91FF90EF900895CF93DF93209100
:105030007F06309180062817390709F474C0EC0107
:105040009093800680937F06FC0184918093900664
:105050003196E491E0939106FE013296E491E0935B
:105060009206FE013396E491E0939306FE01349696
:10507000E491E0939406FE013596E491E093950661
:10508000FE013696E491E0939606FE013796E49190
:10509000E0939706FE013896E491E0939806FE01AE
:1050A0003996E491E0939906FE013A96E491E093F3
:1050B0009A06FE013B96E491E0939B06FE013C9626
:1050C000E491E0939C06FE013D96E491E0939D06F9
:1050D000FE013E96E491E0939E06FE013F96E49128
:1050E000E0939F06FE017096E491E093A00661E1D3
:1050F000CE010E94C0209093A2068093A10663E196
:10510000CE010E94C0209093A4068093A30665E17F
:10511000CE010E94C0209093A6068093A506DF9141
:10512000CF910C94461ADF91CF910895CF92DF92E0
:10513000EF92FF920F931F93CF93DF9377FF1DC0E2
:105140006A017B01EC016DE20E9451238C0144272E
:105150005527BA014C195D096E097F092AE0CE0175
:105160000E946D23800F911FDF91CF911F910F91AE
:10517000FF90EF90DF90CF9008952AE0DF91CF91DC
:105180001F910F91FF90EF90DF90CF900C946D23C3
:105190000F931F93CF93DF938C01C0E0D0E0F80111
:1051A000EC0FFD1F6491662371F0E0917A05F09198
:1051B0007B050190F081E02D8AE795E00995892B28
:1051C00011F02196ECCFCE01DF91CF911F910F917D
:1051D00008952F923F924F925F926F927F928F929B
:1051E0009F92AF92BF92CF92DF92EF92FF920F9376
:1051F0001F93CF93DF9300D000D01F92CDB7DEB7BF
:105200004C015B013A013D832C8310928F0686EEA0
:105210009BE190938206809381061091A80680916D
:10522000A906212E281AC4010E944727A114B104FF
:1052300019F4FF24F39402C092E0F92EF80EC30192
:105240000E9447278F0D829D802D11248D5F9091A4
:105250007A06891720F4D92ED81AD69401C0D12CF9
:10526000D10ED982F12C8BE8482E8AE1582E8BE39F
:1052700096E00E94250D8401222D409179066981D6
:105280008BE396E00E94A5173980380EA114B10473
:1052900061F0C12CE12C850120917906432D60E05D
:1052A0008BE396E00E94DB1F320C8301222D40919C
:1052B0007906632D8BE396E00E94A517830D8D5F21
:1052C0008A83109179068C819D810E944727382E10
:1052D000E12C00E0E31489F06C817D818E2D0E9429
:1052E000332750923E0640923D06BC018BE396E088
:1052F0000E94151E080FE394EDCF232D30E02150BE
:105300003109822F880F280F220F200F211720F438
:10531000312F321B369501C030E0D12CD31449F126
:105320006C817D818D2D3B830E943327CC24C394D7
:105330003B81DF10C12CEE24E3948C0120E04A81F4
:10534000632F8BE396E03B830E94DB1F6C817D81A2
:105350008D2D0E94332750923E0640923D06BC019F
:105360008BE396E00E94151E8A5F3B81380FD39431
:10537000D5CF8BE396E00E94CC20182F81117BCFF4
:10538000032D8BE396E00E94E40F982F803519F4EB
:1053900011E01F0D15C0833599F08B7F813531F4F5
:1053A000F394F31408F463CFF12C61CF923511F02C
:1053B000943539F7F1100F2DFF24FA94F00E57CFE2
:1053C000812F0F900F900F900F900F90DF91CF9142
:1053D0001F910F91FF90EF90DF90CF90BF90AF9013
:1053E0009F908F907F906F905F904F903F902F9005
:1053F0000895CF93DF93482F50E060E070E02AE0FB
:105400008AE795E00E946D23EC0162E472E08AE78E
:1054100095E00E9458238C0F9D1FDF91CF91089536
:10542000CF93DF93AB01BC018AE795E00E949628F9
:10543000EC0162E472E08AE795E00E9458238C0F49
:105440009D1FDF91CF910895CF93DF930E94C828CD
:10545000EC0162E472E08AE795E00E9458238C0F29
:105460009D1FDF91CF9108959B01DC011896ED916E
:10547000FC91199741E067E10994CF93DF93CDB791
:10548000DEB768970FB6F894DEBF0FBECDBF789435
:1054900084B5826084BD84B5816084BD85B5826039
:1054A00085BD85B5816085BD80916E0081608093EA
:1054B0006E00109281008091810082608093810053
:1054C0008091810081608093810080918000816063
:1054D000809380008091B10084608093B1008091BE
:1054E000B00081608093B00080917A0084608093E6
:1054F0007A0080917A00826080937A0080917A00AD
:10550000816080937A0080917A00806880937A002D
:105510001092C10061E08AE00E94EB2461E089E022
:105520000E94EB2461E086E00E94EB2461E087E0CA
:105530000E94EB2461E085E00E94EB2460E084E0BF
:105540000E94EB2460E086E00E94392460E08AE05B
:105550000E94392460E089E00E94392461E084E0FF
:105560000E94392461E087E00E943924F89480E8A1
:105570009EE3A0E0B0E08093320690933306A093C0
:105580003406B09335067894E0918A05F0918B0546
:1055900082E08083E0918605F09187051082E0919A
:1055A0008805F091890580E1808310929205E09151
:1055B0008E05F0918F0586E08083E0918C05F09157
:1055C0008D05808180618083E0918C05F0918D054F
:1055D000808188608083E0918C05F0918D058081C9
:1055E00080688083E0918C05F0918D0580818F7DAE
:1055F00080838EE08093BA008CE892E29093E0047E
:105600008093DF0488E992E29093DE048093DD04C6
:105610001092DC041092DB041092DA041092D90488
:105620001092D80481E08093D7041092D60461E0F0
:1056300082E10E94392461E083E10E943924809153
:10564000B9008E7F8093B9008091B9008D7F8093DF
:10565000B90088E48093B80085E48093BC008CE0B6
:105660008093B80080E69CE09093E2048093E1048C
:1056700081EE9AE09093E4048093E304E0913F0686
:10568000F091400620E030E040E06AE08BE396E0F5
:1056900009958BE396E00E94250D8BE396E00E942E
:1056A000CC208111FACF60E08BE396E00E94A60C3B
:1056B000E0913F06F091400620E030E040E06BE0F2
:1056C0008BE396E009958DED9BE00E9415288BE316
:1056D00096E00E94250D0CEF11E02EE140E660E11E
:1056E0008EE00E94CC198BE396E00E94CC208111C1
:1056F000F2CF60ED77E080E090E00E94272581E026
:1057000080930C0181E090E00E94770E8093090164
:105710009FEF980F9830C0F000E010E060E0C80103
:105720000E94750E0F5F1F4F011524E01207B1F79D
:1057300081E090E00E94770E809309010E9444125C
:1057400080E00E94211402C00E94DF11F8941092A0
:10575000800010928100109285001092840088E0F1
:105760009DE39093890080938800809181008860F8
:105770008093810080918100856080938100809179
:105780006F00826080936F0078944EE150E060E09B
:1057900070E080E797E10E94251580915F058823DE
:1057A00009F433C10E94612560932706709328068F
:1057B0008093290690932A06E0915E058E2F90E053
:1057C000FC013A97EC30F10570F5EC5CFF4F0C945E
:1057D00026338AE794E00E94242A29C08AE694E0CE
:1057E00011C083E594E00EC084E494E019C086E320
:1057F00094E016C08EE194E005C081E194E002C01F
:1058000080E094E00E94C82812C08FEE93E008C0A8
:105810008DED93E005C08CEC93E002C08DEB93E03E
:105820000E94242A0EC080915E050E94F929609191
:105830005A0570915B0580915C0590915D050E9411
:10584000102AE0915E058E2F90E0FC013A97EC3033
:10585000F10508F0CCC0E05CFF4F0C94263380913A
:105860005A0590915B05A0915C05B0915D05809310
:105870007205CBC081E08093710560915A057091EB
:105880005B0580915C0590915D0520E831E541E084
:1058900050E00E94E53220E13EE040E050E00E940E
:1058A000E5322093700560915A0570915B058091F7
:1058B0005C0590915D052CE330E040E050E00E94F3
:1058C000E532CA01B9012CE330E040E050E00E942B
:1058D000E53260936F0560915A0570915B05809188
:1058E0005C0590915D052CE330E040E050E00E94C3
:1058F000E53260936E0589C081E080936D0585C0B7
:1059000010926D0582C080915A0590915B05A0911F
:105910005C05B0915D0590936C0580936B0575C037
:1059200080915A0590915B05A0915C05B0915D0551
:1059300080319105A105B105A1F084319105A10542
:10594000B105B9F00297A105B105C1F444E452E0F4
:105950006BEC72E08BED92E00E944F110E944911B6
:1059600042C041EE52E060EF72E08BED92E00E94A7
:105970004F1144E452E060E073E00AC040915A05E0
:1059800050915B0560915C0570915D0562E173E08B
:105990008BED92E00E944F1138C081E080936A0540
:1059A00034C081E08093710530C060E086E00E94E1
:1059B00039241092710510926A05109272051092A6
:1059C000660510926705109268051092690510929D
:1059D000650510926C0510926B0568EE73E080E02F
:1059E00090E00E94272582E080930C010EC08091F8
:1059F0005E050E94F92960915A0570915B058091BE
:105A00005C0590915D050E94102A10925F058091BF
:105A10000C01833009F406C230F5813009F452C01C
:105A2000823009F042C40E9483174B015C01F89454
:105A300082E89EE3A0E0B0E08093320690933306C4
:105A4000A0933406B093350678940E9449116EE114
:105A500070E080E090E00E942725E12CF12C09E025
:105A6000A7E36A2E87C1843009F416C2853009F095
:105A70001CC4C090720580906205909063058BE312
:105A800096E00E94250D0E9461252CEB32E040E05B
:105A900050E00E94E5322B013C0158E0352EC40154
:105AA000092C000CAA0BBB0B8C8B9D8BAE8BBF8B78
:105AB0006EE3A62ED12CE12CF12C78E2B72EE8E192
:105AC0002E2EBEC248E153E062E084E494E00E94DE
:105AD000D91880930B01888F0E944911888D8230DC
