:100000000C9497020C943A180C9413180C94BF0299
:100010000C94BF020C94BF020C94BF020C94BF025C
:100020000C94BF020C94BF020C94BF020C94BF024C
:100030000C94BF020C94BF020C94BF020C94BF023C
:100040000C94C9170C94BF020C94BC160C94961611
:100050000C94BF020C94BF020C94BF020C94BF021C
:100060000C9461180C94BF02A52AAC2AAF2AB22ABC
:10007000B52AB82ABB2ABE2AE12AE42AF32AFE2A94
:10008000112B242BF92B152C4E6F20636172642CDD
:100090002077726F6E6720636869702073656C6586
:1000A00063742070696E2C206F7220535049207049
:1000B000726F626C656D3F0043616E2774206163EF
:1000C0006365737320534420636172642E20446F10
:1000D000206E6F74207265666F726D61742E004EB3
:1000E0006F206572726F7220666F756E642E0043AA
:1000F000616E2774206F70656E20726F6F7420645C
:1001000069726563746F72792E00496E76616C69ED
:100110006420666F726D61742C207265666F726DFB
:1001200061742053442E006572726F723A20006829
:100130007474703A2F2F6D70666C6167612E6769F9
:10014000746875622E636F6D2F537061726B667584
:100150006E2D4D50332D506C617965722D53686949
:10016000656C642D41726475696E6F2D4C696272A5
:100170006172792F2354726F75626C6573686F6F4B
:1001800074696E6700496620796F75206765742011
:1001900074686973206572726F722C20796F752094
:1001A0006C696B656C7920646F206E6F7420686178
:1001B000766520612073642E626567696E20696EC2
:1001C00020746865206D61696E20736B6574636867
:1001D0002C205365652054726F75626C65205368DE
:1001E0006F6F74696E6720477569646521004552B9
:1001F000524F523A20445350207061746368206615
:10020000696C65206E6F7420666F756E642100499D
:100210006E20706C617965722E626567696E3A2036
:1002200000436F756C64206E6F742077726974651B
:100230002066696C6520706174636865732E303563
:10024000330000493243206572726F723A200057C2
:10025000726F6E67206565416464726573730049EF
:1002600032432050726F626C656D3A2000466F75A4
:100270006E64206E6577204453502050617463682B
:10028000205061636B6167652E00436F756C64205D
:100290006E6F742074616C6B20746F204932432040
:1002A000454550524F4D2E00496E2053442E6368F1
:1002B0006469723A2000496E2053442E4265676992
:1002C0006E3A2000467265652052414D203D200067
:1002D00000000000240027002A0000000000250084
:1002E00028002B0000000000230026002900040441
:1002F00004040404040402020202020203030303CE
:1003000003030102040810204080010204081020A9
:100310000102040810200000000800020100000390
:10032000040700000000000000002C305800534477
:10033000206572726F72436F64653A203058000016
:10034000000000000000000000000020002000204D
:100350000020000800080040003000280030001095
:1003600000100060003800300038001800180080CD
:100370000040003800400020002000A00050004055
:1003800000500028002800C00060005000600030CD
:10039000003000E00070006000700038003800009D
:1003A00001800070008000400040002001A000801B
:1003B000009000500050004001C000A000A000606C
:1003C0000045006001E000C000B0007000700080D7
:1003D000010001E000C00080008000A00140010099
:1003E00001E00090009000C001800140010001A0E8
:1003F00000A00031352F313620726573616D706C4D
:10040000696E6720656E61626C65642E0057616974
:1004100074696E6720666F72207374617274206DE8
:1004200061726B2E2E2E00506C61796261636B2DB0
:100430004572726F723A2000343034202D204669A4
:100440006C65206E6F7420666F756E642E004C6F45
:100450007320676568742773210046696C652053B3
:10046000616D706C696E6720726174653A20002D51
:100470002D2D20504155534544002D2D2D20504CFD
:100480004159494E47002D2D2D20524553455400CA
:100490002D2D2D20545241434B5F4C4F4144454438
:1004A0002E002D2D2D2049444C494E472E00434D02
:1004B000445F4C4F41445F545241434B3A20004308
:1004C0004D445F53594E435F4F46465345543A207F
:1004D00000434D445F5345545F443A2000434D442C
:1004E0005F5345545F493A2000434D445F534554A0
:1004F0005F503A2000434D445F5345545F5354418D
:1005000052544D41524B3A2000434D445F534554A1
:100510005F53485554544552424C414445533A2048
:1005200000434D445F524553455400002028112498
:100530001FBECFEFD8E0DEBFCDBF11E0A0E0B1E03D
:10054000E6EBF1E702C005900D92A83DB107D9F79F
:1005500027E0A8EDB1E001C01D92A235B207E1F796
:1005600012E0C7E9D2E004C02197FE010E94A53540
:10057000C639D107C9F70E943E2A0C94D9380C9489
:100580000000FC01848583FF0DC084A195A1A6A174
:10059000B7A1448D558D668D778D841B950BA60B69
:1005A000B70B03C080E090E0DC01811520E89207E2
:1005B000A105B10520F08FEF9FE7A0E0B0E008951E
:1005C000089580E090E008950C960C9420120C960B
:1005D0000C945B12CF93DF931F92CDB7DEB7698384
:1005E00041E050E0BE016F5F7F4F0C960E945B12AE
:1005F0000F90DF91CF9108958F929F92AF92BF920B
:10060000CF92DF92EF92FF920F931F93CF93DF93DE
:10061000CDB7DEB7C15CD1090FB6F894DEBF0FBE0F
:10062000CDBF1092F7061092F8061092F9061092BC
:10063000FA061092FB061092FC061092FD0610922C
:10064000FE061092FF06109200071092010710920A
:1006500002071092030710920407109205071092E8
:1006600006071092070710920807109209071092C8
:100670000A0710920B0710920C0710920D071092A8
:100680000E0760E083E00E94471760E085E00E946B
:10069000471710926006109261061092620610923F
:1006A0006306E0912703F091280382E08083E091C4
:1006B0002303F09124031082E0912503F091260397
:1006C00080E1808310922F03E0912B03F0912C03A3
:1006D00086E08083E0912903F0912A038081806184
:1006E0008083E0912903F0912A03808188608083D0
:1006F000E0912903F0912A03808180688083E09152
:100700002903F0912A0380818F7D808364EC72E05D
:1007100087E193E00E9472162DB73EB780914E0795
:1007200090914F07009729F0A901481B590BCA0166
:1007300003C0C901825597406C01990FEE08FF086C
:10074000F7FE0CC08DE20E94852666277727CB0135
:100750006C197D098E099F094AE003C04AE0C70170
:10076000B6010E940F1B69E771E087E193E00E94E8
:10077000822380E18093BA0087EB95E190932A026F
:100780008093290283EC95E190932C0280932B02B5
:100790001092E7021092E6021092BC021092BB0285
:1007A0000E948F198CE08093B8008BEA93E29093BB
:1007B00028028093270210925A0610925706109230
:1007C0005C068DE596E090935906809358060E944A
:1007D000BD176B017C01009158061091590689E004
:1007E000D80112968C9361E00E94471761E0F801EE
:1007F00082810E9417171FB7F8948091E001811140
:1008000027C0E8EFF2E08491ECE0F3E09491E82F68
:10081000F0E0EE0FFF1FE053FD4FA591B491EC9176
:10082000E92321F461E08AE00E94171761E08AE081
:100830000E9447178CB580618CBD8CB580648CBDDF
:1008400061E08DE00E94471761E08BE00E9447174E
:100850008091E0018F5F8093E0011FBFE091580617
:10086000F091590682E58083118287E596E00E9427
:10087000BF20E0915806F091590661E082810E9404
:1008800017171AE08FEF0E949E201150D9F7E091C0
:100890005806F091590660E082810E94171720E007
:1008A00030E0A90160E087E596E00E94D820813021
:1008B00049F00E94BD176C197D09613D774078F3BE
:1008C00080E258C02AEA31E040E050E068E087E585
:1008D00096E00E94D820853011F481E00AC014E02F
:1008E0000E94A32080935B061150D1F78A3A59F4F5
:1008F00082E080935C0680915C06823069F0812CF6
:10090000912C54010EC00E94BD176C197D09613DE8
:100910007740C0F285E22EC0812C912CA12C70E48E
:10092000B72E20E030E0A90167E387E596E00E945A
:10093000D820A501940169E287E596E00E94D820BD
:10094000882349F00E94BD176C197D09613D7740ED
:1009500040F383E40FC080915C06823001F520E013
:1009600030E0A9016AE387E596E00E94D820882359
:1009700041F087E38093570687E596E00E94AA201E
:100980004DC00E94A320807C803C19F483E08093BA
:100990005C060E94A3200E94A3200E94A32087E55A
:1009A00096E00E94AA20E0915806F091590680E551
:1009B000808381E0818387E596E0909311048093A2
:1009C000100487E396E00E94A21381E00E94521B6C
:1009D000882349F060E174E087E396E00E94E61125
:1009E0008823E1F006C080E00E94521B8111F2CF03
:1009F00015C080913706807789F087E396E0909361
:100A00000903809308030E94A21360E174E087E366
:100A100096E00E94E611811169C048C044E150E0AF
:100A200060E070E081E10E94772566EB72E087E18B
:100A300093E00E94721680E00E9470268091570613
:100A40008823B9F068EB70E087E193E00E94B21F61
:100A500080915706803231F468E870E087E193E0D6
:100A60000E94B21F809157068823F9F00E941C2A29
:100A70001CC080911504811107C06AE071E087E114
:100A800093E00E94B21F11C080913706811107C008
:100A90006FEE70E087E193E00E94B21F06C06FED39
:100AA00070E087E193E00E94B21FFFCF4EE150E07B
:100AB00060E070E081E10E94772568EA72E087E1FA
:100AC00093E00E94721680E00E94702667E271E057
:100AD00087E193E00E9472168CE791E00E94B21CBD
:100AE0008091570681110E941C2AFFCF84EB93E06E
:100AF0009093A9068093A8061092E7021092E6024E
:100B00001092BC021092BB020E948F198CE080935D
:100B1000B8008091AA0691E09093BE028093BD0236
:100B20001092BC021092BB028091B1069091B20665
:100B3000029761F48091A8069091A906DC01ED91DD
:100B4000FC910190F081E02D60E009958091A8066C
:100B50009091A906DC01ED91FC910190F081E02DCE
:100B600060E0099561E08091A8069091A9060E9435
:100B7000AD19882331F06AE872E087E193E00E94C2
:100B8000B21F1D861E861C821B8288EE93E0A0E0A9
:100B9000B0E08D839E83AF83B8878DE491E09A8324
:100BA000898321E045E851E067E376E0CE010D96C8
:100BB0000E94AB1380E2FE013D96A0EFB3E00190EE
:100BC0000D928A95E1F78B819C819093E703809346
:100BD000E6038D819E81AF81B8858093E803909371
:100BE000E903A093EA03B093EB0389859A85AB856B
:100BF000BC858093EC039093ED03A093EE03B09338
:100C0000EF038091F003882309F415C16DE672E0CB
:100C100087E193E00E94B21F20910804909109049B
:100C20002093250290932602609121027091220266
:100C30008091230290912402CF53DF4F2883C15C1F
:100C4000D0406B017C01BFEFCB1ADB0AEB0AFB0A39
:100C50000091B3061091B4062091B5063091B60606
:100C60000C151D052E053F0538F021E030E0AE01E2
:100C70004F535F4F0E94CE1E80912102909122021D
:100C8000A0912302B091240220912602C054DF4F8C
:100C90002883C05CD0406C017D01E2E0CE0ED11C07
:100CA000E11CF11C0091B3061091B4062091B50629
:100CB0003091B6060C151D052E053F0568F0BC01E8
:100CC000CD016F5F7F4F8F4F9F4F21E030E0AE012E
:100CD00040545F4F0E94CE1E80E490E0A0E0B0E060
:100CE0008093210290932202A0932302B0932402C6
:100CF00084EE93E00E94C102892B09F45BC040E4BA
:100D000050E061EE71E080EF93E00E94570D60913A
:100D100021027091220280912302909124026B01A2
:100D20007C01F0E4CF0ED11CE11CF11C0091B30654
:100D30001091B4062091B5063091B6060C151D052C
:100D40002E053F0550F020E430E041EE51E00E94D6
:100D5000CE1E182F882309F101C019E06FE572E05B
:100D600087E193E00E947216193019F46FE472E083
:100D70000FC063E472E087E193E00E947216612F76
:100D800070E080E090E04AE00E940F1B62E472E0B5
:100D900087E193E00E94B21FABCF80912102909136
:100DA0002202A0912302B0912402805C9F4FAF4F9A
:100DB000BF4F96CF19821A8221E041E951E067E3E3
:100DC00076E08E010F5F1F4FC8010E94AB138111A7
:100DD00032C0AE961FAEAE97AF961FAEAF972E96AF
:100DE0001FAE2E972F961FAE2F978091F00388711C
:100DF00011F12091F6033091F70380913D06909117
:100E00003E0628173907B9F480EF93E00E942012BC
:100E100080E2E0EFF3E0DE01A35BBF4F01900D92B3
:100E20008A95E1F760E080EF93E00E940012FC01F8
:100E3000892B09F058C180EF93E00E94A2131D8610
:100E40001E861C821B8288EE882E83E0982EA12CA1
:100E5000B12C8D829E82AF82B8869DE4E92E91E00E
:100E6000F92EFA82E98221E04BE951E067E376E06E
:100E7000CE010D960E94AB1380E2FE013D96A0EFDD
:100E8000B3E001900D928A95E1F78B819C8190935C
:100E9000E7038093E6038D819E81AF81B8858093BF
:100EA000E8039093E903A093EA03B093EB038985E9
:100EB0009A85AB85BC858093EC039093ED03A0935A
:100EC000EE03B093EF038091F0038111A8C010925C
:100ED000210210922202109223021092240260E05A
:100EE00070E0CB010E94BD1D8C0180912102909188
:100EF0002202A0912302B0912402BC01CD016F5FB8
:100F00007F4F8F4F9F4F0E94BD1D20E030E0382F54
:100F1000020F131F109326020093250280E490E035
:100F2000A0E0B0E08093210290932202A0932302DC
:100F3000B09324021D861E861C821B828D829E8297
:100F4000AF82B886FA82E98223E64BE951E067E393
:100F500076E0CE010D960E94AB1380E2FE013D9635
:100F6000A0EFB3E001900D928A95E1F78B819C810F
:100F70009093E7038093E6038D819E81AF81B885CE
:100F80008093E8039093E903A093EA03B093EB0303
:100F900089859A85AB85BC858093EC039093ED039E
:100FA000A093EE03B093EF038091F003882389F1BF
:100FB000609121027091220280912302909124027B
:100FC0002091250230912602205C3F4F890120E0CC
:100FD00030E0601771078207930708F50E94BD1D76
:100FE000682F84EE93E00E94EA02809121029091A2
:100FF0002202A0912302B09124020196A11DB11DED
:101000008093210290932202A0932302B0932402A2
:10101000CFCF61E272E087E193E00E94B21F80EFE0
:1010200093E00E94A21387EA91E00E94B21C809193
:10103000150481110CC065E871E087E193E00E941E
:10104000B21F6FE271E087E193E00E94B21F60E09F
:1010500082E00E94471761E086E00E94471761E046
:1010600087E00E94471761E088E00E94471761E02F
:1010700086E00E9417170E94DE1F60E088E00E9451
:10108000171781E090E090930F0380930E030E9466
:10109000D71C182F86EB91E00E94B21C112309F493
:1010A000B8C2412F50E0465F5F4F052E000C660B23
:1010B000770B81E10E9477256FE072E087E193E092
:1010C0000E947216612F70E080E090E04AE00E947A
:1010D0000F1B163009F09DC26EEE71E087E193E0C0
:1010E0000E94B21F96C290E2DE01A357BF4F01904B
:1010F0000D929A95E1F78091F00383FF11C022ECE5
:101100004BE951E067E376E0CE0183599F4F0E949F
:10111000AB13882309F48FCEC12CD12C760112C1D8
:101120008BE991E0C254DF4F99838883CE5BD04036
:101130001DA61EA6AE968FADAE9781117CCE809176
:101140003706807709F477CE57E3E52E56E0F52E83
:1011500060E2D62EAE0142545F4FBE0163557F4F11
:10116000C254DF4F88819981CE5BD0400E94620BD0
:10117000882309F460CEC254DF4FE881F981CE5B49
:10118000D0408081882309F121E0AE0143555F4FB3
:10119000B701CE0183599F4F0E94BD0E882309F4E9
:1011A0004ACEFE01E359FF4FDE019D968D2D019041
:1011B0000D928A95E1F7CE0183599F4F0E94A213A9
:1011C000AE01435D5F4F7A01C5CFD7018C91807727
:1011D00009F431CE23ECAE0143555F4FB701CE0188
:1011E00083599F4F0E94BD0E882309F424CE81E0CD
:1011F000E0968FAFE09740E1D42EAE96DFAEAE978B
:10120000CE0183599F4F0E947F24882309F413CE77
:10121000ED968CAD9DADAEADBFADED97C757DF4F31
:1012200088839983AA83BB83C958D04040E050E0AB
:10123000BA01CE0183599F4F0E94930CCE0183596E
:101240009F4F0E942012882309F4F5CD61E0CE0162
:1012500083599F4F0E940012009709F4ECCDFC01C6
:10126000D38620E2D80101900D922A95E1F7DC01A6
:101270005496AD90BC9055975A96CD90DC905B9764
:101280008EE28983FE013296CE010C9620E22193F4
:10129000E817F907E1F7E596EEADFFADE597C7571B
:1012A000DF4F488159816A817B81C958D0404250C3
:1012B000510961097109048004C0440F551F661F5C
:1012C000771F0A94D2F780899189A289B389480F40
:1012D000591F6A1F7B1F21E0CF0180960E942222A6
:1012E000009709F4A8CDBE8AAD8ADC8ECB8E20E2B1
:1012F000F801DC0101900D922A95E1F72EE22A8394
:10130000F701448D558D668D778D7E8B6D8B5C8F4F
:101310004B8F20E2F801DC01909601900D922A9506
:10132000E1F7E5968EAD9FADE5970E9403258823F2
:1013300009F481CDC757DF4FC880D980EA80FB8090
:10134000C958D040CF57DF4F88819981AA81BB818E
:10135000C158D0408093040490930504A0930604E0
:10136000B0930704E3968EAD9FADE3979093F5039A
:101370008093F403E1968FADE1978093F303E996B0
:101380008CAD9DADAEADBFADE9978093F803909362
:10139000F903A093FA03B093FB03AE961FAEAE978A
:1013A00061E080EF93E00E940012009709F443CDC2
:1013B000DC011D9623E1EDE8F0E0EC0FFD1F3D960A
:1013C00001900D922A95E1F7C856DF4F2881C85940
:1013D000D040DC011B962C93C114D104E104F1042C
:1013E00009F469C0E091F603F091F703B701A60193
:1013F0004250510961097109048004C0440F551F0E
:10140000661F771F0A94D2F780899189A289B389D0
:10141000480F591F6A1F7B1F20E0CF0180960E9452
:101420002222FC01892B09F406CD90E2B096DE0160
:10143000A357BF4F01900D929A95E1F7B701A6010E
:101440008091F6039091F7030E943523882309F4D5
:10145000F2CCE091F603F091F70340910C04509127
:101460000D0460910E0470910F04425051096109FE
:101470007109048004C0440F551F661F771F0A942A
:10148000D2F780899189A289B389480F591F6A1FB1
:101490007B1F21E0CF0180960E942222DC01892B54
:1014A00009F4C9CC90E2FE01E357FF4F90960190FA
:1014B0000D929A95E1F7AD961CAE1DAE1EAE1FAE15
:1014C000AD9782E060968FAF609788E02E968FAFE1
:1014D0002E9719821A8261E0CE01835B9F4F0E9492
:1014E00000127C01009709F4A6CC0E94800CD82E33
:1014F00085EEF70180832E961FAE2E9765968EADF2
:101500009FAD65970E940325882309F494CC6196CA
:101510009FAD6197992309F472C069968CAD9DAD1A
:10152000AEADBFAD69970097A105B10551F46596C1
:101530006EAD7FAD6597C8010E94E611811114C0A0
:101540007ACC20E2F80111922A95E9F720E129836B
:1015500021E02B8365962EAD3FAD659738872F83AD
:101560008D8F9E8FAF8FB8A3BB24B39435EEC32E5F
:1015700061968FAD61978B1508F45DCCEB2CF12C47
:1015800063964EAD5FAD63974E195F0960E070E002
:1015900025E0440F551F661F771F2A95D1F7C80114
:1015A0000E94930C882309F446CC60E0C8010E9495
:1015B000720EFC01892B09F43ECC83858F3009F033
:1015C0003ACC3081832F8F7190E0E816F90609F04C
:1015D00032CC8585D8122FCCC08265968EAD9FAD5A
:1015E0006597DC0190962C919097216090962C93B2
:1015F00036FF03C00E94032502C0B394B9CF8823ED
:1016000009F419CC8091F6039091F7030E94032509
:1016100012CCCF53DF4F0FB6F894DEBF0FBECDBF55
:10162000DF91CF911F910F91FF90EF90DF90CF90BE
:10163000BF90AF909F908F900895CF93DF931F92AC
:10164000CDB7DEB741E050E0BE016F5F7F4F0E9433
:10165000570D019719F4898190E002C08FEF9FEF39
:101660000F90DF91CF9108950C960C941D0B8F92E3
:101670009F92AF92BF92CF92DF92EF92FF92CF9361
:10168000DF93EC018C8C9D8CAE8CBF8CC88CD98C7C
:10169000EA8CFB8C0C960E941D0B97FD08C08C8E6B
:1016A0009D8EAE8EBF8EC88ED98EEA8EFB8EDF9158
:1016B000CF91FF90EF90DF90CF90BF90AF909F9031
:1016C0008F900895AF92BF92CF92DF92EF92FF92E8
:1016D0000F931F93CF93DF93FB01DC0101962C91B5
:1016E0002032D9F3B483A3839D0189010A1B1B0B0C
:1016F000E90189919E018823C1F08F32B1F08C35C8
:1017000011F480E0F2C0982F977F9232D1F38A33A0
:10171000C1F3982F9F7B9C33A1F392EC980F9230EA
:1017200080F380528F3508F3ECCF0A0F1B1FC801DE
:10173000682F392FEC012991CE012032C9F32F32C5
:10174000B9F3EA016883398398012A1B3B0B0A1716
:101750001B0741F0E8018A918E018E32A9F3803295
:1017600099F303C0A12CB12C05C059012F3F3105BD
:1017700009F03CF6B282A182CF0106969F012F5E4E
:101780003F4F40E2EC014993CE01C217D307D1F796
:10179000CD01AC014A1B5B0BEC013991CE013E320D
:1017A000C1F33032B1F39A0191E0452B09F090E09A
:1017B000A5014150510938F0BD01640F751FEB01BF
:1017C00088818E32B1F717E060E000E070E088E0D9
:1017D000E82E2A153B050CF06CC06D01C20ED31E1D
:1017E000E6018881803209F45BC08E3229F4421709
:1017F000530709F055C004C08232E1F08C37D1F0B4
:10180000D6EDFD2EF80ED5E0DF1510F08D3291F4F7
:10181000C6ECFC2EF80EC5E0CF1560F4D5EAFD2E1F
:10182000F80ED2E0DF1530F4CFEDFC2EF80ECDE54A
:10183000CF1520F42417350781F438C02417350755
:10184000A9F1161718F1F82ECFE9DC2ED80ED9E140
:10185000DD1548F080527E290CC01617B8F090E0D4
:101860008FE5CFE5FC2ECFEBFC0ED9E1DF1508F0BC
:101870000E29FF24F394F60E6F01C60ED11CE6016B
:101880008E83D6E0DF1570F0F5820CC01A3081F03F
:10189000421753076CF09A011AE068E0D0E1ED2E90
:1018A00090E001C06F2D2F5F3F4F93CF1A30B9F4F6
:1018B00090E08681803209F424CF992329F0072310
:1018C00009F072E0708309C081E080838581E80FB0
:1018D000F11D8EE7868381E3878381E006C09A014C
:1018E0001AE068E0D0E1ED2EDECFDF91CF911F91BD
:1018F0000F91FF90EF90DF90CF90BF90AF90089541
:10190000FC01AC01455F5F4F80E090E8899F90014A
:101910001124982F9695922B2191892F820FE417ED
:10192000F50799F708954F925F926F927F928F9289
:101930009F92AF92BF92CF92DF92EF92FF920F935E
:101940001F93CF93DF93EC014A015B014C845D84CC
:101950006E847F84A881AA2309F491C0488959899B
:101960006A897B8984169506A606B70609F48DC098
:1019700081149104A104B10429F41C861D861E86DD
:101980001F8678C0A3FF0BC0088D198D2A8D3B8D53
:10199000081519052A053B0508F471C014C0A5FFF8
:1019A00012C0EE81FF818681978125E0880F991F03
:1019B0002A95E1F7A0E0B0E088159905AA05BB05D6
:1019C00008F45DC057C0EE81FF81848190E00996E4
:1019D0008A019B010150110921093109082E04C017
:1019E00036952795179507950A94D2F775016401E6
:1019F000B1E0CB1AD108E108F10804C0F694E794ED
:101A0000D794C7948A95D2F7C016D106E206F3069A
:101A100020F0452B462B472B81F4A6FF05C0848D73
:101A2000958DA68DB78D04C08C8D9D8DAE8DBF8D8F
:101A30008C879D87AE87BF8704C0C01AD10AE20A8F
:101A4000F30A8E01045F1F4FC114D104E104F104B5
:101A500089F04C855D856E857F8598018E819F819B
:101A60000E94C52291E0C91AD108E108F1081816B0
:101A70005CF305C0888A998AAA8ABB8A06C04C860C
:101A80005D866E867F8680E001C081E0DF91CF9128
:101A90001F910F91FF90EF90DF90CF90BF90AF908C
:101AA0009F908F907F906F905F904F9008954F928E
:101AB0005F926F927F928F929F92AF92BF92CF92DE
:101AC000DF92EF92FF920F931F93CF93DF93EC017E
:101AD0004B018A0188818823D9F09A8190FF18C030
:101AE0001DC0D380D422A114B10409F081C0D1104B
:101AF0007FC0892B8A2B8B2B09F464C04C855D85B4
:101B00006E857F859201CF010E94C52287FF6AC042
:101B10008981826089838FEF9FEFD3C083FF15C0D7
:101B2000888D998DAA8DBB8D488959896A897B8951
:101B3000841B950BA60BB70BA80160E070E048175B
:101B400059076A077B07A0F012C085FF11C0EE811C
:101B5000FF818681978155E0880F991F5A95E1F79B
:101B600028893989821B930B8017910708F48C010F
:101B700078012E012CE0420E511C612C42E0742EA3
:101B8000E114F10409F465C088899989AA89BB899F
:101B90005C0121E0B2222881EE81FF81AC01BD0110
:101BA00039E076956795579547953A95D1F725FF92
:101BB00098CF848D958DA68DB78D480F591F6A1FBC
:101BC0007B1F34C026FF05C0848D958DA68DB78DF3
:101BD00004C08C8D9D8DAE8DBF8D8C879D87AE870B
:101BE000BF8706C0811104C08881807791F590CFAE
:101BF000EE81FF814C855D856E857F854250510960
:101C000061097109048004C0440F551F661F771FC6
:101C10000A94D2F780899189A289B389480F591F04
:101C20006A1F7B1F4D0D511D611D711DEE81FF81CE
:101C3000A114B10471F5E11482E0F80650F183A11A
:101C400094A1A5A1B6A1481759076A077B0729F4F3
:101C500020C0C8018E199F0934C0940180819181F0
:101C60000E947F21882309F453CFC12C82E0D82E13
:101C70008C0C9D1C88899989AA89BB898C0D9D1D16
:101C8000A11DB11D888B998BAA8BBB8BEC18FD080D
:101C900077CFC3018A199B0967018E159F0508F448
:101CA0006C0120E0CF0180960E942222009709F467
:101CB0002FCFBC016A0D7B1DA601C4010E94D73540
:101CC000D7CFDF91CF911F910F91FF90EF90DF90D1
:101CD000CF90BF90AF909F908F907F906F905F90CC
:101CE0004F900895FF920F931F93CF93DF931F920E
:101CF000CDB7DEB78C01FC0180899189A289B389B7
:101D00009C01AD0175E056954795379527957A95D5
:101D1000D1F7F22FFF70FF2E11F0611116C041E0D4
:101D200050E0BE016F5F7F4FC8010E94570D8130A8
:101D300019F080E090E01AC0F80180899189A289A9
:101D4000B3894F96A11DB11D04C08096A11DB11D80
:101D5000F801808B918BA28BB38BF80186819781E0
:101D60008796F0E2FF9E800D911D11240F90DF9168
:101D7000CF911F910F91FF9008952F923F924F9214
:101D80005F926F927F928F929F92AF92BF92CF920B
:101D9000DF92EF92FF920F931F93CF93DF93CDB714
:101DA000DEB72A970FB6F894DEBF0FBECDBF7C0119
:101DB0008B01FA01A180B280DB018C91807709F45C
:101DC00041C0D7018C9181113DC09081937009F47D
:101DD000CFC2C5010C966DE070E00E943C357724BF
:101DE0007394760E29836F0140E050E0BA01C80178
:101DF0000E94930C1C821D821A82612C812C912CD2
:101E00001B8296012A5F3F4F3F832E83F801808912
:101E10009189A289B3891C012D01F5E0569447945C
:101E200037942794FA95D1F73A86298661E0C8015C
:101E30000E94720E009741F4D80111968C9188236C
:101E400009F499C080E0A9C2FC012081253E11F06F
:101E500021110AC0811002C02C823D82871408F42F
:101E60008394211105C087C0871408F484C202C07E
:101E7000253EF1F12E32E1F1DC011B963C911B97DE
:101E80003F3009F057C0911009C026FFBFCF2F7116
:101E9000922E1D962C912A83692C09C06A942611D2
:101EA00027C0DC011D962C913A81321321C0462DAA
:101EB00050E0415051096DE0649F9001659F300DE5
:101EC00011242A153B05A0F4FC0160E0653018F4EC
:101ED0008181928107C06B3018F48481958102C0A2
:101EE000868197812A153B0529F4892B09F48ECF29
:101EF000912C8CCF8F3F910509F0D0F74FEB480F15
:101F00004A3110F0782F02C070E2780FA9014F5FBC
:101F10005F4FD60113968D919C911497DC01A20F0F
:101F2000B31F8C919FEB980F9A3108F4805E781361
:101F3000DFCF23C233FDDCCF992049F0B1E06B1233
:101F400081CF0E94800C2A8182137CCF10C04BE08D
:101F500050E06E817F810E94CA35892B09F056CFEF
:101F6000D6018C9180FF03C031E03B834FCF2981A4
:101F700027FF67C167CF89818274823409F062CFFD
:101F8000882061F03C8139872D812A8707C060E075
:101F9000C8010E94720E892B21F083948714B8F334
:101FA00016C0D80111968C91882389F04BCFC801B7
:101FB0000E947F24882309F445CFD8011696ED911D
:101FC000FC9117978281823020F430E1830E8714D0
:101FD00070F32B81222309F474C0D60115966C90FE
:101FE00072E0872E912CEEE73E2E2601B6E04B0ED6
:101FF000511C41C0F3E0F61510F433E0632E34E0D9
:10200000360D282F2F70E32FF0E02A3008F052C051
:10201000205DEC0DFD1D268324E0969587952A957D
:10202000E1F73150631668F3F601E60DF11D3682D3
:1020300040E050E0BA01C8010E94930C61E0C80181
:102040000E94720E0097C1F1FC0120812223C9F188
:10205000238523FDF3CF4BE050E0BC01C2010E9479
:10206000CA35892B59F7BFEF8B1A9B0AE4E68E1607
:10207000910409F4E7CEF60121813281C401820F77
:10208000931F0380F481E02DAF01420F531FE4172B
:10209000F50709F4AFCF9C0165E0220F331F6A9565
:1020A000E1F7280F391F8191082E000C990B822728
:1020B0009327EDCF295CADCFD80111968C9181117A
:1020C000C1CE29853A85A90160E070E0B5E0440FF2
:1020D000551F661F771FBA95D1F7C8010E94930C50
:1020E000882309F4AFCE99249A94970C892CFFE0A9
:1020F0004F2E360136E0630E711CADE05A2E88205B
:1021000009F460C060E0C8010E94720E1C01892BB6
:1021100009F498CED8011696ED91FC91179780A1FD
:10212000816080A3282D891001C02064F1012083E3
:1021300043861486C30128870E94800CD1011D9616
:102140008C931D975B961C921E925A97F6014381C1
:10215000548128852F7130E021503109529EC001F1
:10216000539E900D112460E08A159B0540F4FA01FE
:10217000E80FF91F2081022E000C330B0AC021E06A
:1021800030E08A159B0511F420E030E0319521956F
:102190003109653028F412963C932E9311970BC0A9
:1021A0006B3028F415963C932E93149704C0179621
:1021B0003C932E9316976F5F019612966D30A1F6A1
:1021C0008A949DCFD80150964D915D916D917C91EF
:1021D0005397E5E07695679557954795EA95D1F73A
:1021E0005A87498760E0C8010E94720E009709F47F
:1021F00029CE20E2FC0111922A95E9F7F6013696E4
:102200002BE0DC0101900D922A95E1F7D6012C918B
:102210002871FC01248721E238E2318B208B40E0D9
:1022200058E057874687338B228B318F208F578B0F
:10223000468BD8011696ED91FC91179780A181608D
:1022400080A380E2F70111928A95E9F7D8011696EA
:102250008D919C911797F7019783868329853A85FD
:10226000358324835C964D915D916D917C915F9750
:1022700040875187628773872F703327FC01B79699
:10228000890135E0000F111F3A95E1F7E00FF11FCA
:10229000238523FF03C0F7011082D4CDDC01A00FFA
:1022A000B11FD2962C912771D7012C9333853871A9
:1022B00011F428602C93F70193822981227319F07D
:1022C0002081217141F729812F70D70112962C931B
:1022D0001297FC0143A154A165A176A154964D9398
:1022E0005D936D937C935797D801A80FB91FDB9628
:1022F0004D915C91DC9760E070E0BA01552744276E
:10230000FD01EF5BFF4F0081118120E030E0402BA9
:10231000512B622B732B298124FF0AC041155105D3
:102320006105710589F10E94352381112DC0B3CF5C
:10233000F701448F558F668F778FAD5BBF4F8D91BF
:102340009D910D90BC91A02D808F918FA28FB38F06
:10235000298125FF21C0D70158964D915D916D913E
:102360007C915B97C7010E94930C811115C093CF9C
:102370007724739437CD812C7DCD6F5F32966D308D
:1023800009F444CD9A01A2CDD70112968C911297EF
:10239000806812968C93DCCF81E02A960FB6F89471
:1023A000DEBF0FBECDBFDF91CF911F910F91FF9088
:1023B000EF90DF90CF90BF90AF909F908F907F90E5
:1023C0006F905F904F903F902F900895FC01808117
:1023D000811114C080E2DF01982F1D929A95E9F7D0
:1023E00077836683DB0115969C91903119F09032CA
:1023F00029F480E4808381E08283089580E0089559
:10240000CF93DF93EC01262F4C895D896E897F89FC
:102410008E819F8180960E942222009761F02C81FC
:102420003D812F70332745E0220F331F4A95E1F796
:10243000820F931F02C080E090E0DF91CF9108955A
:10244000CF93DF93FC012081211102C081E030C0D5
:10245000EC01828187FF25C061E0CF010E9400125C
:10246000FC01892B29F489818160898380E020C067
:102470008081853EC1F3888183FF08C0888D998D56
:10248000AA8DBB8D848F958FA68FB78F8C8D9D8DD8
:10249000AE8DBF8D938F828FB58BA48B8A818F7702
:1024A0008A838E819F810E9403258823E1F2CECF0B
:1024B000DF91CF9108952F923F924F925F926F924A
:1024C0007F928F929F92AF92BF92CF92DF92EF92C4
:1024D000FF920F931F93CF93DF93EC015B014A01AF
:1024E000888183FF0EC08A8181FF0BC082FF0FC0ED
:1024F000488D598D6A8D7B8DCE010E94930C811180
:1025000006C08981816089838FEF9FEF08C1A40194
:1025100060E070E088899989AA89BB898095909547
:10252000A095B09584179507A607B70750F36401E7
:102530001E018CE0280E311C088919892A893B89E3
:10254000C114D10409F4D0C08E819F81B901A801C2
:1025500029E076956795579547952A95D1F7DC013F
:102560001396FC90F4221170F11034C0011511057E
:1025700089F54C855D856E857F8541155105610521
:10258000710569F091010E94C52287FDBACF8111C2
:1025900021C0CE010E94C62381111CC0B2CF8C8DF8
:1025A0009D8DAE8DBF8D0097A105B10579F4CE014B
:1025B0000E94C623882309F4A4CF8C859D85AE850F
:1025C000BF858C8F9D8FAE8FBF8F04C08C879D87FA
:1025D000AE87BF87EE81FF814C855D856E857F85E7
:1025E0004250510961097109048004C0440F551F0C
:1025F000661F771F0A94D2F780899189A289B389CF
:10260000480F591F6A1F7B1F4F0D511D611D711D02
:102610000115110521F4C114B2E0DB06B0F580E02C
:1026200092E0801B910B76018C159D0508F47C01CE
:102630000115110579F4488859886A887B88888D46
:10264000998DAA8DBB8D481659066A067B0610F037
:1026500025E001C021E0CF0180960E942222009750
:1026600009F44FCFA701B501800F911F0E94D73504
:102670000E0D1F1D0115124031F58E819F81809630
:102680000E94DF2181111FC03CCF83A194A1A5A18D
:10269000B6A184179507A607B70741F410A28FEFDC
:1026A0009FEFDC0183A394A3A5A3B6A3EE81FF81D2
:1026B0009501808191810E943021882309F421CFE6
:1026C000E12C82E0F82E88899989AA89BB898E0D30
:1026D0009F1DA11DB11D888B998BAA8BBB8BAE0C46
:1026E000BF1CCE18DF0828CF888D998DAA8DBB8D91
:1026F00080179107A207B30738F4088F198F2A8F24
:102700003B8F8A8180688A838A8183FD02C0C401ED
:1027100006C0CE010E9420128111F9CFF2CEDF91C6
:10272000CF911F910F91FF90EF90DF90CF90BF90CE
:10273000AF909F908F907F906F905F904F903F9061
:102740002F900895CF93DF93EC010E9420121882FE
:10275000DF91CF910895CF92DF92EF92FF920F9386
:102760001F93CF93DF93CDB7DEB7E3970FB6F894FF
:10277000DEBF0FBECDBF7C018B015BAB4AABD22E5F
:1027800019821A82FC018081882311F080E059C0EF
:10279000FB0180818077D1F3EAA9FBA980818F3288
:1027A000D9F4EAA9FBA980818F3221F43196FBABE1
:1027B000EAABF7CFF80166817781811104C0C701C8
:1027C0000E94E6113EC0CE0101960E94E6118823C8
:1027D000E9F28E010F5F1F4F80E2C82EAE014E5C02
:1027E0005F4FBE016F5D7F4F8AA99BA90E94620B5C
:1027F000882361F2EAA9FBA980818823D1F021E036
:10280000AE014F5D5F4FB801C7010E94BD0E882326
:1028100009F4BCCFF701DE0111968C2D01900D92C9
:102820008A95E1F7C7010E94A2138E010F5F1F4F27
:10283000D5CF2D2DAE014F5D5F4FB801C7010E946E
:10284000BD0EE3960FB6F894DEBF0FBECDBFDF918D
:10285000CF911F910F91FF90EF90DF90CF9008954F
:10286000CF92DF92EF92FF920F931F93CF93DF935C
:102870006C017A018B01C0E0D0E0CE15DF0589F054
:10288000D8016D918D01D601ED91FC910190F081FF
:10289000E02DC6010995892B11F47E0102C0219615
:1028A000ECCFC701DF91CF911F910F91FF90EF9077
:1028B000DF90CF900895FC01538D448D252F30E09B
:1028C000842F90E0821B930B541710F0CF9608953D
:1028D00001970895FC01918D828D981761F0828D8A
:1028E000DF01A80FB11D5D968C91928D9F5F9F7344
:1028F000928F90E008958FEF9FEF0895FC01918DE6
:10290000828D981731F0828DE80FF11D858D90E052
:1029100008958FEF9FEF0895FC01918D228D892FEF
:1029200090E0805C9F4F821B91098F7399270895D7
:1029300087E193E00E948C1421E0892B09F420E0C8
:10294000822F0895FC01848DDF01A80FB11DA35AC9
:10295000BF4F2C91848D90E001968F739927848FBF
:10296000A689B7892C93A089B1898C9180648C93B6
:10297000938D848D981306C00288F389E02D8081A1
:102980008F7D80830895EF92FF920F931F93CF93D3
:10299000DF93EC0181E0888F9B8D8C8D981305C0AF
:1029A000E889F989808185FD24C0F62E0B8D10E021
:1029B0000F5F1F4F0F731127E02E8C8DE8120CC094
:1029C0000FB607FCFACFE889F989808185FFF5CF3A
:1029D000CE010E94A214F1CF8B8DFE01E80FF11DF4
:1029E000E35AFF4FF0820B8FEA89FB898081806276
:1029F00007C0EE89FF896083E889F9898081806456
:102A0000808381E090E0DF91CF911F910F91FF9043
:102A1000EF900895CF93DF93EC01888D8823C9F060
:102A2000EA89FB89808185FD05C0A889B9898C91D7
:102A300086FD0FC00FB607FCF5CF808185FFF2CF72
:102A4000A889B9898C9185FFEDCFCE010E94A2148F
:102A5000E7CFDF91CF91089580E090E0892B29F0B6
:102A60000E94981481110C9400000895833081F025
:102A700028F4813099F08230A1F008958730A9F0D0
:102A80008830B9F08430D1F4809180008F7D03C00C
:102A9000809180008F7780938000089584B58F7730
:102AA00002C084B58F7D84BD08958091B0008F777A
:102AB00003C08091B0008F7D8093B00008953FB730
:102AC000F8948091B7029091B802A091B902B091A8
:102AD000BA0226B5A89B05C02F3F19F00196A11D8B
:102AE000B11D3FBFBA2FA92F982F8827820F911DA4
:102AF000A11DB11DBC01CD0142E0660F771F881FEB
:102B0000991F4A95D1F70895089585ED8093BC00EB
:102B10008091BC0084FDFCCF1092E50208954091A5
:102B20008F02262F30E0240F311D21323105DCF4D5
:102B30002091E5022430C9F4FC0180E090E0861782
:102B400058F430918F022191DC01A159BD4FA30FA0
:102B5000B11D2C930196F3CF80918F02680F609383
:102B60008F0280E0089581E0089582E00895E09169
:102B70006D02F0916E02309729F01092BC02109213
:102B8000BB0209940895AC01E0912702F09128025C
:102B90003097E1F09091E7028091E6029817B0F04B
:102BA00090E0292F30E02617370754F4DA01A20FFE
:102BB000B31F8C91D901A851BD4F8C939F5FF1CF6A
:102BC0001092E7026093E602CB01099408950895FC
:102BD000E091E7028091E602E81730F4F0E0E85176
:102BE000FD4F808190E008958FEF9FEF08959091C1
:102BF000E7028091E602981750F4E92FF0E0E851DF
:102C0000FD4F208130E09F5F9093E70202C02FEFDD
:102C10003FEFC90108958091E60290E02091E7021C
:102C2000821B91090895CF92DF92EF92FF920F934A
:102C30001F93CF93DF937C01262F972F8A018091DA
:102C4000BE02882391F0C62FD72F6E01C40ED51E69
:102C5000CC15DD0571F06991D701ED91FC910190E2
:102C6000F081E02DC7010995F3CF642F822F0E94D8
:102C70008F15C801DF91CF911F910F91FF90EF90B9
:102C8000DF90CF900895CF93DF931F92CDB7DEB73B
:102C900069832091BE022223D1F02091BB02203211
:102CA00040F021E030E0FC013383228380E090E0BB
:102CB00015C08091BC02E82FF0E0E35BFD4F9981E5
:102CC00090838F5F8093BC028093BB0205C061E05C
:102CD000CE0101960E948F1581E090E00F90DF9168
:102CE000CF910895EF92FF920F931F93CF93DF93AD
:102CF0008C017B01C0E0D0E0F701EC0FFD1F649177
:102D0000662361F0D801ED91FC910190F081E02DF6
:102D1000C8010995892B11F02196EECFCE01DF91E4
:102D2000CF911F910F91FF90EF9008951F920F92F6
:102D30000FB60F9211242F933F934F935F936F938E
:102D40007F938F939F93AF93BF93EF93FF9387E10D
:102D500093E00E94A214FF91EF91BF91AF919F91D8
:102D60008F917F916F915F914F913F912F910F9034
:102D70000FBE0F901F9018951F920F920FB60F92D3
:102D800011242F938F939F93EF93FF93E091270349
:102D9000F09128038081E0912D03F0912E0382FDB4
:102DA00012C09081809130038F5F8F732091310327
:102DB000821751F0E0913003F0E0E95EFC4F958F0F
:102DC0008093300301C08081FF91EF919F918F919B
:102DD0002F910F900FBE0F901F901895CF93DF93F8
:102DE000282F30E0F901EA5EFC4F8491F901EE5F93
:102DF000FC4FD491F901E251FD4FC491CC2391F0E5
:102E000081110E943615EC2FF0E0EE0FFF1FEC5100
:102E1000FD4FA591B491EC91ED2381E090E021F478
:102E200080E002C080E090E0DF91CF9108951F9391
:102E3000CF93DF93282F30E0F901EA5EFC4F8491B5
:102E4000F901EE5FFC4FD491F901E251FD4FC491BD
:102E5000CC23C9F0162F81110E943615EC2FF0E01B
:102E6000EE0FFF1FE652FD4FA591B4918FB7F89476
:102E7000111105C09C91ED2FE095E92302C0EC9162
:102E8000ED2BEC938FBFDF91CF911F910895CF93DE
:102E9000DF9390E0FC01EE5FFC4F2491FC01E251D6
:102EA000FD4F8491882361F190E0880F991FFC0108
:102EB000E053FD4FC591D491FC01E652FD4FA59121
:102EC000B491611109C09FB7F8948881209582233D
:102ED0008883EC912E230BC0623061F49FB7F89485
:102EE0003881822F809583238883EC912E2B2C931D
:102EF0009FBF06C08FB7F894E8812E2B28838FBF21
:102F0000DF91CF9108958F929F92AF92BF92CF920F
:102F1000DF92EF92FF926B017C010E945F154B01E3
:102F20005C01C114D104E104F104F1F00E945F15C9
:102F3000DC01CB0188199909AA09BB09883E934095
:102F4000A105B10570F321E0C21AD108E108F1082A
:102F500088EE880E83E0981EA11CB11CC114D10418
:102F6000E104F10419F7DDCFFF90EF90DF90CF90EF
:102F7000BF90AF909F908F9008952FB7F894609175
:102F8000B3027091B4028091B5029091B6022FBF46
:102F900008951F920F920FB60F9211242F933F9313
:102FA0008F939F93AF93BF938091B3029091B4029C
:102FB000A091B502B091B6023091B20223E0230F86
:102FC0002D3720F40196A11DB11D05C026E8230F61
:102FD0000296A11DB11D2093B2028093B30290937B
:102FE000B402A093B502B093B6028091B70290915B
:102FF000B802A091B902B091BA020196A11DB11D0B
:103000008093B7029093B802A093B902B093BA022A
:10301000BF91AF919F918F913F912F910F900FBED4
:103020000F901F9018951F920F920FB60F921124B8
:103030002F933F934F935F936F937F938F939F93C0
:10304000AF93BF93EF93FF93E0911701F0911801B5
:103050000995FF91EF91BF91AF919F918F917F91D2
:103060006F915F914F913F912F910F900FBE0F90F5
:103070001F9018951F920F920FB60F9211242F9345
:103080003F934F935F936F937F938F939F93AF93F0
:10309000BF93EF93FF93E0911501F091160109950D
:1030A000FF91EF91BF91AF919F918F917F916F9120
:1030B0005F914F913F912F910F900FBE0F901F90F6
:1030C00018951F920F920FB60F9211242F933F93D2
:1030D0004F935F936F937F938F939F93AF93BF9320
:1030E000EF93FF938091B900887F803609F49CC0EC
:1030F00068F5883209F45BC090F4803109F454C05B
:1031000038F4882309F4F6C0883009F44DC0F6C0BD
:10311000883109F44CC0803209F45DC0EFC08034BE
:1031200009F468C048F4803309F455C0883309F0C5
:10313000E5C08093E302D8C0803509F44FC08835DC
:1031400009F45DC0883409F0D9C0D6C0883909F4C3
:10315000C7C0A8F4883709F467C038F4883609F482
:1031600063C0803709F460C0C9C0883809F4B8C0AA
:10317000803909F45FC0803809F0C0C05BC0803B73
:1031800009F486C038F4803A09F466C0883A09F434
:103190007FC0B4C0803C09F4A7C0883C09F4A4C037
:1031A000883B09F48AC0AAC08091E00210C09091C7
:1031B000E2028091E102981770F5E091E20281E06D
:1031C0008E0F8093E202F0E0E154FD4F8081809306
:1031D000BB0085EC86C08093E3028EC0E091E202E2
:1031E00081E08E0F8093E2028091BB00F0E0E15419
:1031F000FD4F80839091E2028091E1026EC0E091E8
:10320000E20281E08E0F8093E2028091BB00F0E049
:10321000E154FD4F80838091E40281116DC081E013
:103220008093DF0284EA61C083E08093E50210921C
:10323000B102CFCF8091B102803208F051C0E0914D
:10324000B10281E08E0F8093B1028091BB00F0E06B
:10325000EF56FD4F8083BDCF85EC8093BC0010926C
:10326000E5028091B102803230F4E091B102F0E0E9
:10327000EF56FD4F10826091B10270E0E0912B0299
:10328000F0912C0281E992E009951092B10236C0CA
:1032900084E08093E5021092900210928F02E091F8
:1032A0002902F0912A02099580918F02811105C0AF
:1032B00081E080938F0210926F02E091900281E092
:1032C0008E0F80939002F0E0E159FD4F8081809352
:1032D000BB009091900280918F02981708F479CFEB
:1032E00085E88093BC000AC085EC8093BC001092F6
:1032F000E50204C01092E3020E948515FF91EF9150
:10330000BF91AF919F918F917F916F915F914F91FD
:103310003F912F910F900FBE0F901F901895109214
:10332000E50281E08093E4021092DF0261E082E135
:103330000E94171761E083E10E941717E9EBF0E0A4
:1033400080818E7F808380818D7F808388E48093DD
:10335000B80085E48093BC0008952091BB02909151
:10336000BD02213208F049C08091E5028111FCCFF5
:1033700032E03093E5026093E4023FEF3093E302E2
:103380001092E2022093E102ADE4B2E04FEB52E092
:10339000FA013E2F341B321718F43D913193F9CFC7
:1033A0001092E0022091E002990F922B9093E0029C
:1033B0009091DF02913061F41092DF029091E0026F
:1033C0009093BB009091BC0093FDF8CF95EC01C0A9
:1033D00095EE9093BC009091E5029230E1F39091CC
:1033E000E3029F3F79F08091E302803241F08091C7
:1033F000E302803331F084E005C081E003C082E065
:1034000001C083E01092BC021092BB021092BE0277
:103410000895CF92DF92EF92FF920F931F93CF9375
:10342000DF938C010E94F11F80910C030E94E21F28
:1034300066E07EE187E00E949A2086E00E940820F4
:10344000EC0166E07EE187E00E949A2086E00E941F
:103450000820C817D90799F066E07EE187E00E944E
:103460009A2086E00E940820C817D90741F066E03C
:103470007EE187E00E949A2086E00E940820C80131
:103480008D7F892BA1F40E94FB1F24E0E22E28E00F
:10349000F22E82E00E94EE16892BD9F38C2F0E9427
:1034A000012081E0E81AF108A1F70E94DE1F90E4F4
:1034B000E92EF12C80E00E940820BC01686080E0C9
:1034C0000E949A200E94FB1F80E2C82ED12C82E02D
:1034D0000E94EE16892BD9F38C2F0E94012081E0E7
:1034E000C81AD108A1F70E94DE1F80E00E940820C0
:1034F00083FD1EC0015011090230110570F50E94B4
:10350000FB1F04E018E082E00E94EE16892BD9F33D
:103510008C2F0E94012001501109A9F7DF91CF9152
:103520001F910F91FF90EF90DF90CF900C94DE1FD2
:1035300081E0E81AF10809F0BDCF80E00E94082080
:10354000BC01646080E0DF91CF911F910F91FF90EB
:10355000EF90DF90CF900C949A20DF91CF911F9144
:103560000F91FF90EF90DF90CF900895E89884E856
:1035700095E1909316018093150108950F931F9381
:10358000CF9378948DE292E0C0E2C80F82E00E946F
:10359000EE16892B69F140E250E06DE272E084ECB6
:1035A00093E00E94570D892B99F484EC93E00E94DC
:1035B000A21384E090E090930F0380930E030E9487
:1035C000B61A80E090E0CF911F910F910C94091AE8
:1035D000F8940E94FB1F0DE212E0F80181918F0127
:1035E0000E940120C013F9CF0E94DE1F7894CECF35
:1035F000CF911F910F91089580910E0390910F0329
:10360000059761F48EEB9AE1909316018093150172
:1036100080916900836080936900E89A08958F9291
:103620009F92AF92BF920F931F93CF93DF93CDB72B
:10363000DEB7A1970FB6F894DEBF0FBECDBF19A2BB
:10364000423008F44AE08E010F5D1F4F842E912C0A
:10365000A12CB12CA50194010E946435E62FB9017B
:10366000CA0101501109EA3014F4E05D01C0E95CBF
:10367000D801EC93232B242B252B61F7B80187E18C
:1036800093E00E948223A1960FB6F894DEBF0FBE8E
:10369000CDBFDF91CF911F910F91BF90AF909F90C1
:1036A0008F9008958F929F92AF92BF92CF92DF92A8
:1036B000EF92FF92CF93C82F1092150481E090E013
:1036C000A0E0B0E08093180490931904A0931A042A
:1036D000B0931B0480E194E0909332048093310412
:1036E000109230048FEF9FEFDC01809333049093AE
:1036F0003404A0933504B0933604CC2331F1C530A3
:1037000008F0DCC020E040E050E0BA0180E394E043
:103710000E942222009709F4D1C020E1C29F800DAF
:10372000911D11244097FC01E254FE4F20812F7718
:1037300009F0C4C0389680809180A280B380811443
:103740009104A104B10421F4B9C0812C912C54013D
:1037500020E0B501A40180E394E00E942222FC0154
:10376000892B09F4ABC0838594858115924009F0BB
:10377000A5C08089823009F0A1C0468557854115D2
:10378000510509F49BC02585209312048FEF820F09
:103790008093130480E091E0291751F031E0380F55
:1037A000393019F48093140489C0990F832FF4CF12
:1037B00080931404C688D788C114D10419F0E12C71
:1037C000F12C04C0C4A0D5A0E6A0F7A0C0921C04B0
:1037D000D0921D04E0921E04F0921F04D501C40192
:1037E000840F951FA11DB11D80932404909325047F
:1037F000A0932604B09327042189328930931704BB
:1038000020931604CC0CDD1CEE1CFF1CC80ED91E28
:10381000EA1EFB1EC0922C04D0922D04E0922E04CE
:10382000F0922F0455E0220F331F5A95E1F72150F3
:103830003E4F232F33272695C20ED31EE11CF11CC9
:10384000C0922004D0922104E0922204F09223043A
:10385000238934892115310521F0C901A0E0B0E0A8
:1038600004C080A191A1A2A1B3A1B501A4014C19EA
:103870005D096E097F09480F591F6A1F7B1F009061
:10388000140404C076956795579547950A94D2F726
:10389000DB01CA010196A11DB11D809328049093FC
:1038A0002904A0932A04B0932B04453F8FE05807C6
:1038B0006105710528F48CE08093150480E017C041
:1038C000453F5F4F6105710510F480E10DC084A58F
:1038D00095A5A6A5B7A580932C0490932D04A0933D
:1038E0002E04B0932F0480E28093150481E0CF91E1
:1038F000FF90EF90DF90CF90BF90AF909F908F9010
:1039000008950F931F93CF93DF9361E078E187E0F1
:103910000E949A2086E00E940820EC0160E078E195
:1039200087E00E949A2086E00E9408208C0186E0B1
:103930000E94082017FFEC01AE0160E070E0BA01C0
:1039400055274427C801A0E0B0E08A019B01082B5D
:10395000192B2A2B3B2BC901B801DF91CF911F9165
:103960000F910895CF93DF93BC0187E193E00E940C
:103970008223EC0169E771E087E193E00E948223F2
:103980008C0F9D1FDF91CF91089588E00E94EE1665
:10399000892B59F020910E0330910F032D7F81E088
:1039A0002530310519F080E0089583E008951F93D4
:1039B000CF93DF9300D000D000D0CDB7DEB764E660
:1039C00070E080E090E00E94831760E088E00E9451
:1039D000171764E670E080E090E00E94831761E0D2
:1039E00088E00E94171781E090E090930D03809388
:1039F0000C0390930B0380930A036AE070E080E06D
:103A000090E00E94831780E00E940820811598446E
:103A100009F0A3C060E070E683E00E949A20109253
:103A20000D0310920C0384E090E090930B038093BD
:103A30000A036AE070E080E090E00E94831783E070
:103A40000E9408208115904609F089C088E2809381
:103A500015038093160348E268E28BE00E9456202B
:103A600088E00E94EE16892B09F47BC00E94C51CD9
:103A7000182F811176C088E00E94EE16892B09F478
:103A800070C0609108037091090321E04BE951E097
:103A900084EC93E00E94AB13882309F462C042E0F7
:103AA00050E0BE016D5F7F4F84EC93E00E94570DA4
:103AB000892B09F447C042E050E0BE016F5F7F4FA1
:103AC00084EC93E00E94570D892BE1F189819A8162
:103AD00097FF2EC09F779A83898342E050E0BE0112
:103AE0006B5F7F4F84EC93E00E94570D892B51F15F
:103AF00089819A819C01215031093A832983892B3C
:103B000071F26D817E818B810E949A20F1CF42E01B
:103B100050E0BE016B5F7F4F84EC93E00E94570D35
:103B2000892B09F4BCCF6D817E818B810E949A2004
:103B300089819A819C01215031093A832983892BFB
:103B400031F7ADCF84EC93E00E94A21364E670E0FD
:103B500080E090E00E94831705C014E003C015E0E8
:103B600001C016E0812F26960FB6F894DEBF0FBE77
:103B7000CDBFDF91CF911F9108952F923F924F9229
:103B80005F926F927F928F929F92AF92BF92CF92ED
:103B9000DF92EF92FF920F931F93CF93DF931F92C9
:103BA000CDB7DEB71B012C01AB01BC014F5F5F4FEE
:103BB0006F4F7F4F8091B3069091B406A091B506E8
:103BC000B091B60684179507A607B70708F4C4C0D6
:103BD000CE0101966C01EE24E394BB24BA9425EE49
:103BE000A22E35EC732E48EE842E42E0942E0091E6
:103BF000AE061091AF06D201C1010090B00604C01C
:103C0000B695A795979587950A94D2F7F090AA064E
:103C1000F82AE092BE02F092BD021092BC0210920D
:103C2000BB028091B1069091B206029791F4A091E7
:103C3000A806B091A906ED91FC9111977727652D03
:103C4000542D432D0190F081E02DCB01BA01CD011F
:103C500009958091A8069091A906DC01ED91FC914F
:103C60000190F081E02D622D099561E08091A80618
:103C70009091A9060E94AD19811171C06090E50272
:103C80006110FCCFC801019782219321081B190BF9
:103C900011F001E010E0802FE092E502E092E402F2
:103CA000B092E3021092E2029FEF900F9093E10234
:103CB000E092E0029091E002FF0CF92AF092E0021B
:103CC0009091DF02913069F41092DF029091E0024E
:103CD0009093BB009091BC0093FDF8CF7092BC0014
:103CE00002C0A092BC009091E5029130E1F3909166
:103CF000E202981710F48091E202AFEBB2E0E8EE36
:103D0000F2E09E2F9819981718F49D919193F9CF8E
:103D10001092E7028093E602F12C8F2D90E080173D
:103D2000910778F48091A8069091A906DC01ED91A5
:103D3000FC910284F385E02D0995F6018083F394CC
:103D4000ECCF200E311E411C511CC00ED11E013083
:103D5000110509F04CCF04C089E0682E01C0682E1F
:103D6000862D90E0009719F4898190E003C0919529
:103D7000819591090F90DF91CF911F910F91FF9045
:103D8000EF90DF90CF90BF90AF909F908F907F90FB
:103D90006F905F904F903F902F9008953F924F9279
:103DA0005F926F927F928F929F92AF92BF92CF92CB
:103DB000DF92EF92FF920F931F93CF93DF934B010C
:103DC0005C017A01890120E2622E712C3324339444
:103DD0003BECC32E37E0D32E0115110509F4ADC01D
:103DE0004091AE065091AF068091B1069091B20617
:103DF0009301281B390B702F612F2017310710F406
:103E0000722F632F9A012150310928213921DA01BB
:103E1000A21BB30BC72FD62FAC17BD0708F4ED01BB
:103E2000B501A4010090B00604C07695679557953A
:103E300047950A94D2F74090AA06442A3092BE02CF
:103E40004092BD021092BC021092BB02029791F404
:103E5000A091A806B091A906ED91FC911197772742
:103E60006B2D5A2D492D0190F081E02DCB01BA0127
:103E7000CD0109958091A8069091A906DC01ED91EC
:103E8000FC910190F081E02D682D09958091A806A4
:103E90009091A906DC01ED91FC910280F381E02D67
:103EA000AE01B701099561E08091A8069091A9063D
:103EB0000E94AD19811142C084E6582EC6010197B7
:103EC000F1F73092BE024092BD021092BC021092F5
:103ED000BB028091B1069091B206029761F4809185
:103EE000A8069091A906DC01ED91FC910190F0816A
:103EF000E02D60E009958091A8069091A906DC016B
:103F0000ED91FC910190F081E02D60E0099561E078
:103F10008091A8069091A9060E94AD19882321F0EE
:103F20005A945110CBCF0AC08C0E9D1EA11CB11CFF
:103F3000EC0EFD1E0C1B1D0B4FCF80E0DF91CF91CF
:103F40001F910F91FF90EF90DF90CF90BF90AF90B7
:103F50009F908F907F906F905F904F903F900895CB
:103F60000E94C5350F931F93CF93DF93EC010E94FE
:103F700072168C0169E771E0CE010E948223800FE6
:103F8000911FDF91CF911F910F910895CF93DF93F0
:103F90001F92CDB7DEB7698341E050E0BE016F5F8D
:103FA0007F4F04960E945B120F90DF91CF9108958E
:103FB00004960C945B1204960C94201261E087E046
:103FC0000C9417179CB5282F23709C7F922B9CBDB7
:103FD0002DB582FB992790F9822F8E7F892B8DBD7D
:103FE00008958CB58F7D8CBD8CB5837F8CBD809101
:103FF0000A030C94E21F0E94F11F60E087E00C941A
:1040000017178EBD00000DB407FEFDCF8EB50895C5
:10401000CF93DF93C82F88E00E94EE16892B09F416
:1040200040C080910E0390910F03059711F40E94F8
:10403000B61A82E00E94EE16892BD9F30E94F11F76
:1040400060E086E00E94171780910C030E94E21F37
:1040500083E00E9401208C2F0E9401208FEF0E949C
:104060000120C82F82E00E94EE16892BD9F38FEF32
:104070000E940120D82F82E00E94EE16892BD9F3EE
:1040800061E086E00E94171780910E0390910F0364
:10409000059721F40E94BE1A0E94FC1A8D2F9C2FB6
:1040A00002C080E090E0DF91CF9108951F93CF93FD
:1040B000DF93182FD62FC42F88E00E94EE16892B8D
:1040C000A9F180910E0390910F03059711F40E94BE
:1040D000B61A82E00E94EE16892BD9F30E94F11FD6
:1040E00060E086E00E94171782E00E940120812F85
:1040F0000E9401208D2F0E9401208C2F0E94012000
:1041000082E00E94EE16892BD9F361E086E00E94DE
:10411000171780910E0390910F03059739F40E94B1
:10412000BE1ADF91CF911F910C94FC1ADF91CF91B1
:104130001F910895462F672F0C9456208EBD0DB405
:1041400007FEFDCF08958FEF8EBD0DB407FEFDCFA6
:104150008EB50895CF93DF93FC012381222361F074
:10416000EC010180F281E02D61E082810E9417174D
:104170008FEF0E949E201B82DF91CF910895CF93F5
:10418000DF93FC012381211110C0EC010180F28139
:10419000E02D908181819CBD8DBDE981FA8160E037
:1041A00082810E94171781E08B83DF91CF91089560
:1041B000CF92DF92EF92FF921F93CF93DF9300D0C5
:1041C00000D0CDB7DEB77C01162F29833A834B830D
:1041D0005C83FC018381811103C0C7010E94BF2061
:1041E0000E94BD176B010E94A3208F3F39F00E94EF
:1041F000BD176C197D0969357240A8F3812F806461
:104200000E949E208C810E949E208B810E949E2075
:104210008A810E949E2089810E949E20112311F094
:1042200087E801C085E90E949E201C3011F40E949D
:10423000A32010E00E94A320F701848387FF04C01D
:104240001F3F11F01F5FF6CF0F900F900F900F9050
:10425000DF91CF911F91FF90EF90DF90CF90089565
:104260000F931F93CF93DF93EC0189018D818330EE
:1042700039F089E0440F551F661F771F8A95D1F7E3
:104280009A01AB0168E1CE010E94D820882319F081
:1042900082E3888326C08EEF0E949E20F8018081F1
:1042A0008EBD818132961E5F0DB407FEFDCF8EBD9F
:1042B000E017F10711F08191F7CF0DB407FEFDCFA4
:1042C0008FEF0E949E208FEF0E949E200E94A320CD
:1042D0008C838F71853051F087E58883CE010E94F1
:1042E000AA20CE010E94AA2080E004C0CE010E9434
:1042F000AA2081E0DF91CF911F910F910895EF9255
:10430000FF920F931F93CF93DF93EC0179018D817F
:10431000833039F089E0440F551F661F771F8A9557
:10432000D1F79A01AB0161E1CE010E94D820882328
:1043300019F080E3888338C00E94BD178B010E946A
:10434000A3208C838F3F49F40E94BD17601B710B23
:104350006D327140A0F385E503C08E3F31F080E5FA
:104360008883CE010E94AA201FC08FEF8EBDF70167
:10437000D701A150BE4F9FEF0DB407FEFDCF8EB504
:104380009EBD8193EA17FB07B9F70DB407FEFDCF79
:104390008EB58C931C820E94A3200E94A320CE0184
:1043A0000E94AA2081E004C0CE010E94AA2080E0E1
:1043B000DF91CF911F910F91FF90EF900895EF92B1
:1043C000FF921F93CF93DF93FC01208120FF32C027
:1043D000EC017C01F7E0EF0EF11C4B815C816D81FB
:1043E0007E81E981FA819701808191810E9430214B
:1043F000182F811102C010E01EC0888181FD04C009
:1044000088818E7F888317C0E981FA81448555852C
:10441000668577858B819C81AD81BE81480F591F50
:104420006A1F7B1F9701808191810E943021811139
:10443000E7CFE1CF11E0812FDF91CF911F91FF9066
:10444000EF900895CF92DF92EF92FF921F93CF9358
:10445000DF93EC016A017B01122F8B819C81AD817E
:10446000BE8184179507A607B707F1F0CE010E9419
:10447000DF21811103C080E090E01CC012FF06C064
:104480001882CB82DC82ED82FE820EC0E981FA8145
:104490009E01295F3F4FB701A601808191810E9453
:1044A0007F218111EDCFE7CF13708881182B1883FE
:1044B000CE010796DF91CF911F91FF90EF90DF9093
:1044C000CF9008958F929F92AF92BF92CF92DF923A
:1044D000EF92FF920F931F936A017B0148015901EC
:1044E000FC012581203251F54489558966897789F7
:1044F00097018601E7E03695279517950795EA9588
:10450000D1F7400F511F621F731F23E080960E9456
:104510002222009711F480E02DC0E894C7F8DD2432
:10452000EE24FF24CC0CDD1CCC0CDD1CFC01EC0DBE
:10453000FD1D80829182A282B3821BC0203159F777
:10454000FC0144895589668977894D0D511D611D8E
:10455000711D23E080960E9422220097E1F2DD2463
:10456000EE24FF24CC0CDD1CFC01EC0DFD1D918222
:10457000808281E01F910F91FF90EF90DF90CF90AC
:10458000BF90AF909F908F900895CF92DF92EF925F
:10459000FF920F931F93CF93DF93EC016A017B018E
:1045A00089018D81803251F58C899D89AE89BF89C1
:1045B000E7E07695679557954795EA95D1F7480FC7
:1045C000591F6A1F7B1F22E0CE0180960E94222283
:1045D000009711F48FEF40C0E894C7F8DD24EE2473
:1045E000FF24CC0CDD1CCC0CDD1CFC01EC0DFD1DF6
:1045F00080819181A281B381BF701DC0803151F74C
:104600004C895D896E897F894D0D511D611D711D1C
:1046100022E0CE0180960E9422220097D9F2DD246A
:10462000EE24FF24CC0CDD1CFC01EC0DFD1D808173
:104630009181A0E0B0E0488D598D6A8D7B8D48173F
:1046400059076A077B0738F0F80180839183A283BA
:10465000B38381E001C080E0DF91CF911F910F9182
:10466000FF90EF90DF90CF9008959F92AF92BF920E
:10467000CF92DF92EF92FF920F931F93CF93DF932E
:1046800000D000D0CDB7DEB75C016A017B019E018E
:104690002F5F3F4FB701A601C5010E94C522982E8A
:1046A00087FF02C080E01EC000E010E09801B70163
:1046B000A601C5010E9462228823A1F3F50140856D
:1046C000518562857385C416D506E606F70620F483
:1046D000C086D186E286F386C980DA80EB80FC80D2
:1046E0009110D5CF0F900F900F900F90DF91CF9139
:1046F0001F910F91FF90EF90DF90CF90BF90AF9000
:104700009F9008956115710579F0FB0101900020DB
:10471000E9F73197AF01461B570BDC01ED91FC9196
:104720000280F381E02D099480E090E0089580916B
:104730001D0790911E07A0911F07B09120070196B9
:10474000A11DB11D80931D0790931E07A0931F0705
:10475000B09320070895CF93DF930597A0F084EBE3
:1047600093E00E94F71580932907C5E2D7E084EB18
:1047700093E00E94F715899387E0C932D807B9F70B
:1047800081E080932A07DF91CF9108953F924F9265
:104790005F926F927F928F929F92AF92BF92CF92D1
:1047A000DF92EF92FF920F931F93CF93DF93CDB7DA
:1047B000DEB728970FB6F894DEBF0FBECDBF4C0111
:1047C000DC0112968C911297806812968C93129746
:1047D0001C964D905D906D907C901F971696AD90B5
:1047E000BC901797411451046104710461F4D50120
:1047F00018968D919D910D90BC91A02D8D839E83D7
:10480000AF83B88704C04D825E826F827886CD8088
:10481000DE80EF80F884BFEFCB1ADB0AEB0AFB0ADD
:10482000F501808D918DA28DB38D8C159D05AE0502
:10483000BF0528F482E0C82ED12CE12CF12C9E017A
:104840002F5F3F4FB701A601C5010E94C52287FD1A
:1048500020C0882341F089819A81AB81BC81892B5A
:104860008A2B8B2B51F08D819E81AF81B885C81624
:10487000D906EA06FB0679F60CC00FEF1FEF2FEF03
:104880003FE0B701A601C5010E946222382E8111C6
:1048900002C0312C1BC0411451046104710451F059
:1048A00097018601B301A201C5010E946222811114
:1048B00008C0EFCFD5011896CD92DD92ED92FC9213
:1048C0001B97F401C486D586E686F786832D289645
:1048D0000FB6F894DEBF0FBECDBFDF91CF911F9111
:1048E0000F91FF90EF90DF90CF90BF90AF909F908F
:1048F0008F907F906F905F904F903F9008958F9230
:104900009F92AF92BF92EF92FF920F931F93CF931C
:10491000DF93EC01888185FF02C010E068C08889C0
:104920009989AA89BB8981159E4FAF41B105A8F726
:10493000CE010E94C623182F882379F3EE81FF81D0
:104940004C855D856E857F854250510961097109ED
:10495000048004C0440F551F661F771F0A94D2F7C6
:1049600080889188A288B388840E951EA61EB71EE3
:1049700025E0B501A401CF0180960E9422227C018E
:10498000892B59F280E092E0F7019C0111922150AD
:104990003040E1F701E0EE81FF819281091780F458
:1049A0009701B501A401400F511D611D711D80814A
:1049B00091810E943021882309F4AFCF0F5FEBCFA4
:1049C000492F50E060E070E089E0440F551F661FFA
:1049D000771F8A95D1F788899989AA89BB89480F59
:1049E000591F6A1F7B1F488B598B6A8B7B8B812FCA
:1049F000DF91CF911F910F91FF90EF90BF90AF90FB
:104A00009F908F90089580960C94DF2160E078E16C
:104A100087E00E949A2060E070E086E00E949A2081
:104A200060E070E086E00C949A20CF92DF92EF92E3
:104A3000FF92CF93DF93C82F80931101282F30E08E
:104A400088EE93E0B9010E945035CB01880F991F81
:104A5000680F791F7093BE066093BD0681E0809356
:104A60001201B901330F880B990B0E9415349B0179
:104A7000AC0160910D0170910E0180910F01909138
:104A800010010E946B336B017C01D0910C016D2FE2
:104A900070E080E090E00E9415349B01AC01C701FA
:104AA000B6010E946B3320E030E040E05FE30E94FB
:104AB000CA340E94E4337093BC066093BB06C701FE
:104AC000B6010E94DD337093BA066093B906CD9F9C
:104AD000C0011124880F991F9093B8068093B706E0
:104AE000DF91CF91FF90EF90DF90CF900895CF931B
:104AF000DF9300D000D01F92CDB7DEB789834A8301
:104B00005B836C837D8381E08093BE0287E080932A
:104B1000BD021092BC021092BB0241E050E0BE0107
:104B20006F5F7F4F84EB93E00E94131644E050E0E8
:104B3000BE016E5F7F4F84EB93E00E94131661E02D
:104B400084EB93E00E94AD190F900F900F900F909F
:104B50000F90DF91CF910895E99884E895E19093C3
:104B60001801809317011092EB061092EC06109238
:104B7000ED061092EE061092EF061092F0061092DB
:104B8000F1061092F2061092190710921A0710926D
:104B90001B0710921C07109215071092160710920F
:104BA00017071092180781E0809312011092F70600
:104BB0001092F8061092F9061092FA061092FB066F
:104BC0001092FC061092FD061092FE061092FF064F
:104BD000109200071092010710920207109203072B
:104BE000109204071092050710920607109207070B
:104BF000109208071092090710920A0710920B07EB
:104C000010920C0710920D0710920E0710922107B8
:104C100010922207109223071092240710921D076A
:104C200010921E0710921F07109220071092110772
:104C30001092120710921307109214071092F306A5
:104C40001092F4061092F5061092F60610921007D4
:104C500010920F07109268061092690610926A0669
:104C600010926B061092640610926506109266060A
:104C7000109267061092600610926106109262060A
:104C80001092630640E050E0BA0185E10E9477256A
:104C900064E670E080E090E00E94831780910E034C
:104CA00090910F038D7F059729F488E00E94EE16FE
:104CB000892B29F481E0809313010C94D71C0E9466
:104CC000B61A84E090E090930F0380930E0384EC77
:104CD00093E00E94A21381E090E00E94091AEACFBB
:104CE000CF93DF93682F70E080E090E04AE00E946D
:104CF0000F1BEC0169E771E087E193E00E948223DA
:104D00008C0F9D1FDF91CF910895E0911703F091D3
:104D100018030190F081E02D682F87E193E009945A
:104D20004F925F926F927F928F929F92AF92BF92BB
:104D3000CF92DF92EF92FF926B017C019B01AC015D
:104D40000E943735882319F06CEC71E01AC04601D7
:104D50005701E894B7F82FEF3FEF4FE75FE7C50142
:104D6000B4010E943735811112C02FEF3FEF4FE79A
:104D70005FE7C501B4010E946633181644F460ED84
:104D800071E087E193E00E9482237C017FC02FEFD6
:104D90003FEF4FE75FE4C701B6010E94C534181624
:104DA0001CF464ED71E0EDCF2FEF3FEF4FE75FECC8
:104DB000C701B6010E94663387FDF3CF20E030E0E3
:104DC000A901C701B6010E94663387FF09C08DE2C1
:104DD0000E9485265C01F7FAF094F7F8F09402C07F
:104DE000A12CB12C2AE037ED43EA5BE3C701B60101
:104DF0000E94FA322B013C010E94E4336B017C01DA
:104E00000E9413349B01AC01C301B2010E94F9322C
:104E10002B013C014AE0C701B6010E940F1B7C0137
:104E2000EA0CFB1C8EE20E948526E80EF91E20E0AB
:104E300030E040E251E4C301B2010E94CA342B01C8
:104E40003C010E94E4334B01A12CB12C4AE0C50186
:104E5000B4010E940F1BE80EF91EC501B4010E94A7
:104E600013349B01AC01C301B2010E94F93220E06E
:104E700030E040E251E40E94CA340E94E43380E012
:104E800090E04AE00E940F1BE80EF91E69E771E00E
:104E900087E193E00E9482238E0D9F1DFF90EF908B
:104EA000DF90CF90BF90AF909F908F907F906F904A
:104EB0005F904F90089580910E0390910F03059796
:104EC00091F488E00E94EE16892B69F0E89884E856
:104ED00095E1909316018093150187E090E09093FF
:104EE0000F0380930E0308958F929F92AF92BF920B
:104EF000CF92DF92EF92FF92E0918A06F0918B06BB
:104F0000C080D180E280F380C0929206D092930656
:104F1000E0929406F0929506E0918806F091890659
:104F200080819181A281B3818093960690939706A8
:104F3000A0939806B09399068090A2069090A3063D
:104F4000A090A406B090A506A5019401C701B601E2
:104F50000E94C534181684F080909E0690909F069B
:104F6000A090A006B090A106A5019401C701B601CA
:104F70000E94663387FF08C0809292069092930643
:104F8000A0929406B0929506FF90EF90DF90CF909C
:104F9000BF90AF909F908F90089580910E03909155
:104FA0000F03079729F488E00E94EE16892B11F46D
:104FB00081E0089580910E0390910F03079779F493
:104FC00088E00E94EE16892B51F00E94BE1A85E0FF
:104FD00090E090930F0380930E030E94FC1A80E0F0
:104FE0000895CF92DF92EF92FF92CF93DF936B0100
:104FF0007C0197FF12C08DE20E948526EC01662796
:105000007727CB016C197D098E099F094AE00E9420
:105010000F1B7C01EC0EFD1E04C04AE00E940F1B1A
:105020007C0169E771E087E193E00E9482238E0DA5
:105030009F1DDF91CF91FF90EF90DF90CF9008956B
:105040004F925F926F927F928F929F92AF92BF9298
:10505000CF92DF92EF92FF92CF9310921A031092A9
:10506000190388EE93E0A0E0B0E080931B039093D7
:105070001C03A0931D03B0931E032DE131E0309378
:1050800018032093170325EC30E03093240320937A
:10509000230324EC30E0309326032093250320ECF7
:1050A00030E0309328032093270321EC30E0309345
:1050B0002A032093290322EC30E030932C03209321
:1050C0002B0326EC30E030932E0320932D03109217
:1050D0003003109231031092320310923303109276
:1050E000B7031092B6038093B8039093B903A093CB
:1050F000BA03B093BB038FE291E09093B503809322
:10510000B4031092C4031092C5031092C30310920B
:10511000C20381E491E09093C1038093C003C091E6
:1051200011012C2F30E088EE93E0B9010E94503538
:10513000CB01880F991F680F791F7093BE0660938B
:10514000BD06B901330F880B990B0E9415349B01E2
:10515000AC0160910D0170910E0180910F01909151
:1051600010010E946B334B015C01F0900C016F2D1C
:1051700070E080E090E00E9415349B01AC01C50115
:10518000B4010E946B3320E030E040E05FE30E9416
:10519000CA340E94E4337093BC066093BB06C50119
:1051A000B4010E94DD337093BA066093B906CF9DB7
:1051B000C0011124880F991F9093B8068093B706F9
:1051C00080E091E09093AC068093AB0681E0809301
:1051D000AD0680E490E09093AF068093AE0680E544
:1051E0008093AA0680E090E8A0E0B0E08093B30648
:1051F0009093B406A093B506B093B60682E090E013
:105200009093B2068093B1068FE08093B006C09071
:105210000801D0900901E0900A01F0900B01809004
:10522000040190900501A0900601B0900701409004
:10523000000150900101609002017090030184E62A
:1052400096E090938B0680938A0688E696E090938A
:1052500089068093880680E696E090938D06809379
:105260008C061092A60610929E0610929F0610922F
:10527000A0061092A10680E090E0AFE7B3E480932F
:10528000A2069093A306A093A406B093A50684E675
:1052900090E0A0E0B0E080939A0690939B06A093E4
:1052A0009C06B0939D06109285061092840620E01D
:1052B00030E0A901C301B2010E94663387FD58C0E6
:1052C00020E030E0A901C501B4010E94663387FDEA
:1052D0004FC020E030E0A901C701B6010E9466334B
:1052E00087FD46C010928706109286061092A70688
:1052F00040926C0650926D0660926E0670926F0638
:105300008092700690927106A0927206B092730617
:10531000C0927406D0927506E0927606F0927706F7
:10532000409278065092790660927A0670927B06D7
:105330002DEC3CEC4CEC5DE3C501B4010E94CA3499
:1053400060937C0670937D0680937E0690937F0623
:105350002DEC3CEC4CEC5DE3C701B6010E946B33D5
:1053600060938006709381068093820690938306F3
:105370000E94BD17C0909A06D0909B06E0909C06B4
:10538000F0909D06DC01CB018C199D09AE09BF0987
:1053900080938E0690938F06A0939006B09391060B
:1053A00010921504109237061092380684E6809306
:1053B000570610925C0680E580935D0610925E06AB
:1053C0001092F0031092F1031092E7031092E6039B
:1053D00048EE53E060E070E04093E8035093E90347
:1053E0006093EA037093EB038DE491E09093E503FF
:1053F0008093E4031092CB061092CC061092C20662
:105400001092C1064093C3065093C4066093C5062C
:105410007093C6069093C0068093BF06CF91FF900D
:10542000EF90DF90CF90BF90AF909F908F907F9044
:105430006F905F904F9008956EE273E087E193E084
:105440000E9472166091570670E080E090E040E1A3
:105450000E940F1B6AE273E087E193E00E947216DC
:1054600060915B0670E080E090E040E10E940F1BDD
:1054700069E771E087E193E00C948223CF93DF9397
:10548000CDB7DEB7C554D1090FB6F894DEBF0FBE55
:10549000CDBF789484B5826084BD84B5816084BDBD
:1054A00085B5826085BD85B5816085BD80916E00C2
:1054B000816080936E0010928100809181008260F3
:1054C0008093810080918100816080938100809130
:1054D00080008160809380008091B100846080931F
:1054E000B1008091B00081608093B00080917A001B
:1054F000846080937A0080917A00826080937A0041
:1055000080917A00816080937A0080917A0080682F
:1055100080937A001092C1000E94FC028E01045D0B
:105520001F4F18AF0FAB80912A07882309F4F6C2EA
:10553000E09129078E2F90E0FC013197E830F105CA
:1055400020F5EC5CFF4F0C94A53561E275E087E136
:1055500093E00E94B21F27C069E075E011C065EFBB
:1055600074E00EC069EE74E00BC06DED74E008C02D
:1055700061ED74E005C06FEB74E002C06EEA74E0A8
:1055800087E193E00E94721604C0809129070E946F
:1055900070266091250770912607809127079091CA
:1055A00028070E94F127E09129078E2F90E0FC0147
:1055B0003197E830F10508F0A1C2E45CFF4F0C948C
:1055C000A5350E94AC25A8C2809125079091260799
:1055D000A0912707B091280780930C0180911101B9
:1055E0000E94152599C28091250790912607A091C8
:1055F0002707B0912807809314018EC26091250778
:105600007091260780912707909128070E941534F2
:105610006093000170930101809302019093030154
:105620007BC2609125077091260780912707909192
:1056300028070E941534609304017093050180933C
:1056400006019093070168C26091250770912607B3
:1056500080912707909128070E9415346B017C01E7
:10566000609308017093090180930A0190930B01E4
:105670008090040190900501A0900601B090070170
:105680004090000150900101609002017090030170
:10569000009186061091870620E030E0A901C30141
:1056A000B2010E94663387FD37C220E030E0A901D5
:1056B000C501B4010E94663387FD2EC220E030E0B0
:1056C000A901C701B6010E94663387FD25C281E0AA
:1056D0000130110509F080E08093A70640926C0626
:1056E00050926D0660926E0670926F068092700600
:1056F00090927106A0927206B0927306C0927406E0
:10570000D0927506E0927606F092770660919A063E
:1057100070919B0680919C0690919D060E94133487
:1057200020E030E04AE754E40E946B3369AF7AAF7F
:105730008BAF9CAF409278065092790660927A06C1
:1057400070927B069B01AC01C501B4010E94CA3472
:105750004B015C0160937C0670937D0680937E060E
:1057600090937F0629AD3AAD4BAD5CADC701B60154
:105770000E946B336B017C016093800670938106FD
:10578000809382069093830680918406909185068B
:10579000019709F0C1C1A301920160E070E0CB0163
:1057A0000E94F932609378067093790680937A06A6
:1057B00090937B06A501940160E070E0CB010E940C
:1057C000F93260937C0670937D0680937E069093F9
:1057D0007F06A701960160E070E0CB010E94F932DC
:1057E000609380067093810680938206909383066F
:1057F00093C12091250730912607409127075091AA
:105800002807A0910C01B0E00E94AB35DC01CB0170
:10581000880F991FAA1FBB1F80932107909322070F
:10582000A0932307B093240777C180912507909117
:105830002607A0912707B0912807082FB92EBCE0B2
:10584000CB2ED12CE12CF12C10E0DF92CF92BF9225
:105850000F93ACEBB1E0BF93AF93F8ADFF932FA9DB
:105860002F930E94013619821A8221E0AE01445D15
:105870005F4F67E376E0CE0101960E94AB130FB64F
:10588000F894DEBF0FBECDBF882381F08C2D0E941F
:105890001525BE01645D7F4FCE0181960E94E035E3
:1058A000B701A6018BE00E94772511E0BFEFCB1A6C
:1058B000DB0AEB0AFB0AEAE1CE16D104E104F104AB
:1058C00021F60E94BD1760932B0770932C078093DD
:1058D0002D0790932E0711110CC068E374E087E147
:1058E00093E00E94B21F42E050E060E070E081E18E
:1058F00002C10E94C51C81114BC688E00E94EE16B1
:10590000892B09F447C6609108037091090321E0CF
:10591000AE014F5D5F4F84EC93E00E94AB13882390
:1059200009F43AC6CE0181960E94EF3268EC71E02C
:105930000E94E735892B09F46EC0109210030FEF17
:105940001FEF84EC93E00E941D0B8F3F910509F03F
:105950005EC084EC93E00E941D0B9C01207E3327E7
:10596000203E310509F053C09C01267033272115D4
:10597000310509F44CC083FF09C02430310541F0E2
:105980002230310509F043C012E003C013E001C02A
:1059900011E084EC93E00E941D0B992774E095952B
:1059A00087957A95E1F726E0289FF001299FF00D71
:1059B0001124E10FF11DEE0FFF1FE15CFC4F8591FB
:1059C0009491869586958695809310034091D40393
:1059D0005091D5036091D6037091D703435051097C
:1059E0006109710984EC93E00E94930C8091D403C7
:1059F0009091D503A091D603B091D7038093110362
:105A000090931203A0931303B093140304C00150A6
:105A1000110909F096CF85E090E090930F038093F1
:105A20000E0360E070E084E00E949A2064E670E07B
:105A300080E090E00E9483170E94BE1A0E94FC1A28
:105A40000E945B278EEF80931503809316034EEF21
:105A50006EEF8BE00E94562084E0809315038093C4
:105A6000160344E064E08BE00E9456206DE074E091
:105A700087E193E00E94B21F69E07EE187E00E9427
:105A80009A2060E870E086E00E949A2063EF73E05D
:105A900087E193E00E94B21F85E00E9408208E7F7C
:105AA000BC0180E090E00E94133460930D0170937C
:105AB0000E0180930F0190931001809111010E94BB
:105AC000152560910D0170910E0180910F0190914B
:105AD00010010E94902680910E0390910F03873051
