:100000000C94AA0A0C9479250C9452250C94D20ACB
:100010000C94D20A0C94D20A0C94D20A0C940424A4
:100020000C94D20A0C94D20A0C94D20A0C94BD0EF1
:100030000C94D20A0C94D20A0C94D20A0C94D20AD0
:100040000C9408250C94D20A0C9479230C94532315
:100050000C94D20A0C94D20A0C94D20A0C94D20AB0
:100060000C94A0250C94D20A802B852B882B8B2BEB
:100070008E2B912B942B972B9C2B9F2BA22B772C89
:10008000C32BCE2B0D2C112C772C142C212C612C56
:10009000652C972D1800040404040102050D0B00C3
:1000A000FE08FE08FE000000EE014441098ADD540E
:1000B00062A11C2E420E86BD42220A21214A0892CC
:1000C000E800430C56BF2044041931248408440F2F
:1000D0007AE5284E12318244081B180C0045088826
:1000E000CD904C9E25461188CD904C040911244496
:1000F000901041425802470788CDF00704480899FC
:10010000D5A04EBE53491399D5A04E44091125449C
:10011000941051424409710A4A0799DDF00F0C4BC3
:100120000A88C57022D45CA9384C0C88CD7022D4C2
:1001300088F94AC5014D0A88CD70E2C107230E4EE9
:100140000B99D58022D83C5B81004F1399D5802232
:10015000D8081223488C203182C4B01508500A995F
:10016000D580E2C10F4620511088CD4226508860CC
:10017000320B11280C1100521588CD4226508820D0
:10018000529010414288901081C21001530D88CDC9
:1001900042C6C4830722CC100161138ADD232E449A
:1001A000B02007058608622444405100621598CDAE
:1001B000232A48984021821119125190404102117E
:1001C0000166148DDD54484DC03001C3045911300F
:1001D00084C0206A006706B191B000681299D514F6
:1001E0001E48C040214A040A181E48200000000092
:1001F0000020002020002E0000000000000000E091
:10020000FFFFFF03001F00FEFFFFFF3F0000000E87
:10021000C06000FFFFFFFF1F0E38E030300880FF96
:10022000FFFFFF0F0E38E04008149FFFFFFFFF5F46
:100230000000008004148F0FECDBEF4D4E203CC01B
:10024000041487F7EF9BEF5DC42042C002148BFBC0
:10025000DF9DEF2DC4204280020E89FBDF5DEF3D64
:1002600044218180010590FBBF5EEF1D4421818008
:10027000010590F77FDFEE15442281808104900F05
:100280007FDFEE0944228140811E90FF7EDFED1961
:1002900044248140812690FF7DDFEB054428814086
:1002A000922488FF7DDFEB2D442881401A1588FFBA
:1002B0007DDFE72D443042401C1E84FF7EDFE75D7A
:1002C000443042401E0584037FDFEF4D4E203C400A
:1002D0001F0582FFFFFFFF1F00000040008281FF1B
:1002E000FFFFFFCF00000040C06000FFFFFFFFFFE7
:1002F000FFFFFF43001F00FEFFFFFF3F0200004E15
:1003000000000000000000000200007000002A4011
:10031000000000000100004000002140000000003B
:100320000100002000002B4B9D0D6707020000100C
:10033000000029D5541415051C00000C0000495577
:100340005D541707E000C003000000000000000437
:1003500000FF3F000000000000000003000000005C
:100360001000103C0046604363219851D82A600772
:10037000B81ACC3F8606427B221B526A2C28FEFF0D
:1003800007FFFF0FA7DA0CBB520F774B0F6F5B0F06
:1003900073DB0CFFFF0FFEFF0703000F003F00FFA2
:1003A00000FF01FF003F000F000300E7E7E7E7E77A
:1003B000E7E7E7434D445F444F4E455F504C41599A
:1003C000494E4700434D445F53544152544D4152AE
:1003D0004B5F48495400434D445F545241434B5F87
:1003E0004C4F4144454400434D445F53484F575F91
:1003F0004552524F523A2000434D445F4F4F53599C
:100400004E433A2000434D445F464F554E445F549F
:100410005241434B4C454E4754483A2000434D44CB
:100420005F50524F4A5F504C415900434D445F501A
:10043000524F4A5F504155534500434D445F435529
:100440005252454E545F415544494F5345433A201B
:1004500000434D445F464F554E445F4650533A204B
:1004600000434D445F464F554E445F464D54001285
:100470000206050606010507233E00F32EF531F4BA
:100480000000000004C0200DA57F947FF0FFFFFF57
:100490007F1A002A50A57F947FF0B1487778E75102
:1004A00042622441521CC6412047614292A120125F
:1004B00083098A80317E40905CD29325DB92359807
:1004C000631DC1511DC3311DC5112105F22007D285
:1004D0002009C22009C21CCBE1100D1109CEF08306
:1004E000FFF3002B18A57F947FF0B5C667FE933EFF
:1004F000E3BFC9F8CCFFFBC1FF7C002C25A67F9889
:100500007FF0FFFFAF2440C44B38855BB615A7745E
:1005100089877C06687CC67778679F1112646001C2
:100520002D11A67F987FF0FF784EE1EF07FFFFF3D4
:10053000012E1AA57F947FF0FFFFA7131FD2219CE5
:10054000B2A97148877CC40FBE04002F57A57F94C1
:10055000B7801C42E33B3AA43B3AA43B3AA43B3A63
:10056000A43BBCA33BBCA33BBCA33BBCA343BAA3DF
:1005700043BAA343BAA343BAA343BAA343BAA34318
:10058000BAC33BBAC33BBAC33B3AA43B3AA43B3AD7
:10059000A43B3AA43B3AA43B3AA43BC042147EF0AD
:1005A0004D003093A47F907F506870CBE554D024E9
:1005B00045D4B308899318479320078324C7822C16
:1005C00087822C87722C09822C09722C0A72280BC4
:1005D000722446501C486204868120866018076297
:1005E0000C86711C066118C7511486711846611873
:1005F000476118867114C5611807512086710C0671
:10060000621887602486810485621C8C721C8C624F
:1006100020CB62200A632408732408632889722C83
:100620008862300972340A813C15344512F5584D00
:1006300096FCE087023124A57F947FD06974C8A618
:1006400064CCE5541015A392E0A888E2A802E4F077
:10065000CEFFFFFF7F3FF8D900323CA57F947F504B
:1006600089684E154D14643918B30CCB92208A72E8
:1006700030C8623408333848233C8777AE3BBCA38C
:100680004338A44338B42DFDE3D0BA334950B6847F
:10069000BF1FFC58003352A67F987F508A6CCD153F
:1006A0005153643DD8930CCC53240934300814348E
:1006B000C877CE43BCC3433A6453ACE77230078378
:1006C000AC8853BCE443BEE343BEF31CC1419AC1B2
:1006D0004118A24198434998C45018ADC11E2BA29D
:1006E0002808637EF04700344CA57F947F106B7818
:1006F000A70EE1529BA2AD32066B5D467058867024
:1007000058867054C6705006714C07714C4671483B
:10071000867144877144C67140C7713C07723C467C
:1007200072384772348772349EF11F7678E77F3FC4
:10073000F8C500354BA67F987F908839F89AAC3978
:10074000BEF32720D5345591055D4ED62C03C3202A
:1007500049C21C4BD2100DF2040FE221DFF939C15E
:10076000833084832C85732C0783248A92288BA161
:100770003099833D56345510C6FCE06F0000367347
:10078000A67F987F108B6CCE055154643D97C30CA7
:10079000C89320C5832CC38334018478878778C7A6
:1007A000771A12E9101AE80820276B34665B9A2240
:1007B0005916245192055190E6509006498EE7480B
:1007C0008EE7488EE7488EE74810E7500EE7500E58
:1007D000E7500EE7501006590EE66010056112242E
:1007E000699422792CC88AA849B21C4DF9C1DF004E
:1007F00000374AA57F947FD0B629FB14CD3BBAC3FE
:100800003B3AA43B3AA43BBCA33BBCA343BAC33B87
:10081000BAC33B3AA43BBCA33BBCA343BAC33B3AD9
:10082000A43BBCA343BAA343BAC33B3AA43BBCA377
:1008300043BAC33B3AA43B7EF0EB013878A57F94E2
:100840007F50896C8D154D53543D96B3084B831CD6
:10085000098328C8722CC87230C77230C77230C77B
:100860007230C78228478324478320C79314089493
:100870000C88245190E554D1444108A138C89130E6
:10088000488230C78228477328478320C77320C710
:100890007320C77320C7732088732048832009837F
:1008A000248982288BA12C59733D55344DD1B5FC38
:1008B000E05703396AA57F947F507970CCF5549244
:1008C0004441D5A30C8A831C09832408732C077325
:1008D0005210E6508EE6500EE7480EE7480EE74805
:1008E0000EE74890E64890E6500E06511025852800
:1008F0004B52308BC6640DE65C4F231C12421CDE4B
:10090000A93BBC537778C7332C884328887318C910
:100910006339D6534912F560CB0F7E37003A27A5CD
:100920007F947FF03F8DF8900EE1944D8D433AE433
:10093000237EF0A7101FD2219CB2A97148877CC4E6
:100940000FBE0400000000001202050405060104A9
:1009500006132000F918FA19F900000000026320BC
:100960000A141CF487FFFFA3002A28141CF4873DF7
:1009700002696A0C3244296188321E10C5A9F24C02
:10098000438B0892C820A810728819291CF1E187AE
:10099000002B18151CF5873C89F4AD0704794090AD
:1009A00007842291BE0FBF0B002C15141CF487FF87
:1009B000CF0D589E71E61548E004091C0A002D0E63
:1009C000141CF4879F79E5FBF0BF0A002E10151C5C
:1009D000F587FFEF11689E05C9875B002F27141C60
:1009E000B40B7340EA1148E080040E483D02C9236D
:1009F000903C02C923903C02C923903C02C9237158
:100A00007C58053042151C752F2EAD954C28891445
:100A10007288298698624831859843481981104226
:100A20008620848C310821630C428818840AA31024
:100A3000720C29C510530C31C590430A412698B455
:100A40005672E5C3033115141C7427CE30A4D4228A
:100A500081AC4008A4FFFF3EDC05321C141C342F7F
:100A60002D25868A30863A0211487B049247FF2062
:100A700049A1FC3E9C043327141CF4362C25868A9D
:100A800030489802698FB0B310432CC10AD24E404F
:100A9000C40C438C11E6B0A498F9701800342E14DD
:100AA0001CF4076140F22A67DAC546208B04B2863F
:100AB000206A0CA2C62069108208216814721E08E0
:100AC000E481401E088D407A1FAE023524141CF4C8
:100AD00075C63304D2C195186A879462C6219140C5
:100AE000BA320E29E4907284310DAD753EDC0536C4
:100AF00035131CF32E2CA5754C28871471C8238E32
:100B00003C120C6AC615334AA90839849043083947
:100B10008490430839A410434A21E41451CE4A89F1
:100B2000950F0701371F131CB375C57BE3518E3C2E
:100B3000F2C6A31C79E48D47BDF1A8371EE5C82392
:100B40001F6E023834141CF4364C25868A2887948C
:100B500062E83B841054045189A145424984904382
:100B60000C2904114210210411421021C510638484
:100B7000392C29663EDC053933131CB32E2CA575A0
:100B80004C288714CA90420E21E410420E21E41032
:100B9000520C296598E24C43269047BDF1C8118557
:100BA0009C228A61482DF3E122003A16151CF58734
:100BB0006F11689E05C987970834CF82E4C32D0062
:100BC000000000005F00030204040305050E0FFF90
:100BD000FD0BFD0BFD019E039D050B2005008C14F4
:100BE0002107B186140745220733C515892523152A
:100BF000A7847849988449344C499844C3948449DB
:100C00009864002417E77478E1A044911449619234
:100C1000AE491849915419C438032519BB843C6363
:100C2000944559299C722C877228C7A231CA4A5907
:100C3000142E002613A8855A6A1446A95C89922CA2
:100C4000294659126D01270631C51303280CE36D9F
:100C500055499444FD166501290DE36D15599445D8
:100C6000FD122511002A0A55B55795CAD214012B39
:100C70000B778D79716D18B2B8062C074274331555
:100C8000052D0613A414032E06218513022F0CB480
:100C90008474A5AC9495B21A00300CB68538431212
:100CA000FAC76448003108B3865843D43F320DB6C2
:100CB000853843128A69D86B3A0C3310B6853843AD
:100CC000128A69694E45311912003412B785B8A9E4
:100CD0009864512D099330198634AE00350FB685CE
:100CE0001887B43AC8692A8AC99000360FB6853881
:100CF0004312AA9545131D932101370EB68518D7C7
:100D0000300DD3300DD32200380FB6853843123A58
:100D10002643123A2643023910B6853843123A2642
:100D2000839A8A623224003A07818513A2003B0A23
:100D3000A2743475284914003C0856959892D9003D
:100D40003D07369D19E7613E08569518B2C9083F20
:100D50000DB68558A6514CC37630CD00401DCB7DD5
:100D60009D432A4A395253122D8AA42C92B2488AA2
:100D7000949AA2E5989A0E1A004116B984993930CE
:100D80002771926661568D86214A931CD08100425C
:100D900011B7851997703526831426A97118140088
:100DA0004313B8857A9B25D5811CC8811CC8913412
:100DB000D1B4094410B8851A83162A6912FB9A84A3
:100DC000CAA001450DB7851907B97958E2E661084F
:100DD000460CB7851807B97958E2CE004715B98592
:100DE0007B43262AB18EE44838E8800E2471A29D08
:100DF00002480BB8851AB1E7E1107B0E4907B186AE
:100E0000140F024A0BB684B7FD2A8AC990004B140E
:100E1000B8851969124659294CD2350AB36294260D
:100E200071004C09B6861869FF3A0C4D1BBB841C37
:100E300039B403430E2C69A2A4899445521669491A
:100E4000A62599188A054E14B8851AAA122AA194C3
:100E50004999166991988889BA0A4F16B9857BA372
:100E600026A5490EE8800EE8800E2469A4891B009F
:100E7000500DB785199770350E831277065116B944
:100E8000857BA326A5490EE8800E68991825A1A4A4
:100E9000895300520FB8851A87249DADC930A549E2
:100EA000EC1C5310B7855993B6EA800EE880AC6EFF
:100EB000D2045415B984198F399223399223399267
:100EC00023399223391202550CB8851AB17F4EC2CC
:100ED0006C88005616B9841939A003491AA591A641
:100EE00015B33489931CC891105720BD841D69AA7D
:100EF000A6621226599245599245599255B2244CF0
:100F0000B2244CB2242DA719005817B9841939906E
:100F1000A45935C9811CC98124CDAA519AE4400045
:100F20005915B9841939B02A6956CCD224DE811CEE
:100F3000C9911C09015A0EB785198738ADAA55B554
:100F40003C0C015B09E36D1443D4FF345C0BB484A7
:100F500014599815B362565D09E36C1453FFD3100E
:100F60005E0A55B557591225352D5F07186C1807BD
:100F700001600722CD155100611087853843648ECA
:100F800006454BC244921601620DB6851769CB2205
:100F90008D8ED3B200630D8685374322AD8D93329B
:100FA0002400640CB685B82DA7D171529600650F48
:100FB00086853843228DC3A0A692322400660BB4E6
:100FC00084544A164D599F00670EB66D38A7D171EB
:100FD000529674528604680BB6851869CB228D3EF2
:100FE000066908B18513CA30086A0AE36B53D5A8AD
:100FF0003F2D006B10B68517695B12553231C9A2BF
:101000005A12066C07B185130F026D1189851B8971
:10101000A448B64CCBB44CCBB44C2B6E0A86851886
:10102000C9228D3E066F0D86853843228D8E933200
:101030002400700EB66D18C9228D8ED3B2A455004F
:10104000710CB66D38A7D1715296B401720A8485BD
:1010500015C91065BD01730B8585374B368EB66497
:1010600001740AA484345934653D0A750A868517CB
:10107000A18F93B2047610878417A99A64511665DC
:101080009530493300771089841A59A6655A25EAA4
:101090004B5B318B00780E8784179A9255D2384D6E
:1010A000B28A267911B76C17E998645156CA9254DE
:1010B0008D5351047A09868417D7B0D7617B0BE52D
:1010C0006C7552D8562D76157C07E16D131F047D83
:1010D0000CE56C156AD85A2B76D2007E09369D38FD
:1010E00092625200000000005F0003020404020448
:1010F000050B0BFFFE08FE08FE015502BF03F6209C
:101100000500E604210681E3C4252207233B45A20E
:1011100004231076A2559225D12025C920255912E5
:10112000012410A59E55B654946C4BA244A96C1191
:1011300000251188628ED492293910E740A22551EA
:101140004901260D86238E16B56951A225912927BE
:101150000621BA8400280BA31A551225515B940569
:10116000290CA31B451665514B9444002A073336BE
:1011700045D2012B0A55A655180D5218012C0732DD
:10118000DA4CA2002D06132EC5002E0611E34400F2
:101190002F0A83E254256A892200300A85A2CD9263
:1011A000F9962C00310782A3CDD207320C85A2CD4F
:1011B000928525290B0701330C85A2CD9285911AC2
:1011C0006AC902340E85A25D262551524A062D4C6D
:1011D00000350C85A2CD9084E11A6AC902360C85CF
:1011E000A2CD92894392D99205370B85A2C520667C
:1011F000C52CAC01380C85A2CD9269C992D9920553
:10120000390C85A2CD92D99221D492053A0661E398
:1012100044183B0982DA4C0E250A003C0753A755B7
:10122000522B3D08346AC5100E013E0853A745569F
:1012300029013F0C84A38D1265512D072200401611
:101240009ADEDE20A651A4245249C92225AA448A46
:1012500096638306410E87E25D9C26619295062582
:101260005503420D85E3C59064DAA064B64101439D
:101270000C8623CE90846AC7644800440D8623C63A
:10128000106549E82D192200450A85E3C5311CC6C1
:10129000E220460A85A3C5311C92B011470C862373
:1012A000CE90846A6D149341480A862346681C06D2
:1012B000D131490681E3C4414A0984625D6F52A27B
:1012C000004B0D85E3452625A5A9122599164C0846
:1012D00084A345D6B7214D10876346BA0DD9525124
:1012E0002A52244552014E0F862386B6299112496F
:1012F0008994689B004F0B8623CE90843E26430240
:10130000500C85E3C59064DAA0848D005112971FBC
:10131000CE1085499884499844494D1A7420520C3E
:1013200085E3C59064DAA0646E01530C85E3CD9229
:10133000A9ABA6250B0054098562C520857D025501
:101340000A862346E8C7644800560F87E245AA2666
:1013500059944559254CD20C571089624696699587
:10136000A82F6DC52CCC2200580D85E345A625B5C8
:101370004A94D4B400590E87E2459A6451560993B1
:1013800034AE015A0B85E3C52066C5AC38085B084E
:10139000A2DBC4D22F025C0A83E24494456D510063
:1013A0005D08A2DA84D22F035E0A55AE5598255106
:1013B000520B5F06169AC501600622FE4414610CAA
:1013C0006562C51A2D5112454A00620C85A2455826
:1013D0003169DAA42800630A64628D1269A54401A8
:1013E000640A85A265C5B4991425650B64628D12E3
:1013F0000D5B942800660A842295124D59270067D8
:101400000C859A8D6933294A982C00680A85A24573
:101410005831696E01690781A244320C6A09A299A8
:101420004C96F4A2006B0C8462455652122929494D
:10143000016C0681A2C4416D0E6722C6A2449114BC
:1014400049911449056E0965A24562D2DC026F0A12
:1014500065A2CD92B9250B00700C859A4562D2B475
:101460004951C210710A859A8D6933294A58720907
:10147000632245B2444D00730B64628D1225A29421
:101480002800740A83224D942C51930075086462DD
:1014900045E42919760C65A245A625A5240B230051
:1014A000770E672246144995A6A496844904780AC3
:1014B00065A24596D42A352D790E85594D94444917
:1014C00029C9B430D2007A0A6462C590456D4300E0
:1014D0007B0AA3DA541255B2A82D7C07A1DBC443C2
:1014E000007D0BA3DA4416D592A825027E0726EECE
:1014F0008D64010000000000000000250028002B82
:10150000000201020408102040800102040810209B
:10151000010204081020000000002300260029001A
:101520000404040404040404020202020202030389
:101530000303030300000000240027002A0000002A
:101540000008000201000003040700000000000082
:101550000000AA3011241FBECFEFD8E0DEBFCDBF00
:1015600014E0A0E0B1E0E8E4FBE602C005900D92D3
:10157000AE3AB107D9F727E0AEEAB4E001C01D9258
:10158000A13FB207E1F71AE0CAEADAE004C0219706
:10159000FE010E947832C93AD107C9F70E94D829C2
:1015A0000C94A2350C9400000895CF92DF92EF9234
:1015B000FF920F931F93CF93DF936C01EB017B019D
:1015C000E40EF51E00E010E0CE15DF0561F0699134
:1015D000D601ED91FC910190F081E02DC6010995B5
:1015E000080F191FF1CFC801DF91CF911F910F9103
:1015F000FF90EF90DF90CF900895089580E090E005
:101600000895CF92DF92EF92FF92CF93DF93EC0198
:10161000683109F456C038F46431C9F0673109F013
:10162000A6C0F9010DC0693109F48EC0603209F01D
:101630009EC06AE497C00DB407FEFDCF8EB5415041
:10164000442309F492C081918EBD0000F4CFE8815B
:10165000F981418169E40E94EF26CFB7F894809127
:10166000D604811127C0EAE2F5E18491ECE0F5E1CE
:101670009491E82FF0E0EE0FFF1FEC5CFA4EA5917D
:10168000B491EC91E92321F461E08AE00E94D42333
:1016900061E08AE00E9486248CB580618CBD8CB5A7
:1016A00080648CBD61E08DE00E94862461E08BE067
:1016B0000E9486248091D6048F5F8093D604CFBF8A
:1016C00054C0A881B9811C96EC911C97E150E3307D
:1016D00028F4F0E0EF5EFE4F808101C080E01896B4
:1016E000CD90DD90ED90FC901B9720E040E052E122
:1016F0006AE770E0C416D506E606F70640F476956C
:101700006795579547952F5F2630A1F727E091E021
:1017100092278C708065292F2695822B91708CBD25
:101720009DBDE881F981408169E4CE010E94EF26E8
:10173000A881B981EA85FB8520E030E012964C91C2
:101740006CE2CE01099511C0A881B981EA85FB85BB
:1017500020E030E013964C916CE20995E881F98124
:10176000418169E4CE010E94EF2681E001C080E062
:10177000DF91CF91FF90EF90DF90CF9008951F936E
:10178000CF93DF93EC01962F642F9C3270F49A3242
:1017900008F058C0983289F0993209F03EC070E0E4
:1017A00080E090E00E94C2244DC09D32B1F0A8F1CB
:1017B00084EB890F823000F130C06B9610E0899184
:1017C0008F3F39F0103110F461E001C062E00E94F7
:1017D00086241F5F163199F735C0433018F082E038
:1017E00090E002C085E090E0880F991F880F991F54
:1017F00005970197F1F726C09F73C90FD11D4111BD
:1018000007C061E08B8D0E94862460E08B8D10C044
:1018100062E08B8D0E94862415C09034A8F09F73DF
:10182000FE01E90FF11D838D8F3F61F0903118F4B7
:101830000E94D42307C00E94AB2321E0892B09F426
:1018400020E02E8B81E001C080E0DF91CF911F91DD
:1018500008950F931F93CF93DF938C01C0E0D0E0E6
:10186000F80161918F0180EE860F8F3528F486E7AD
:1018700095E00E94EC2204C086EF91E00E9463286C
:101880002196C031D10551F0C830D10549F769E33F
:1018900072E086E795E00E945123E2CFDF91CF917D
:1018A0001F910F910895CF93DF930597A0F083E1E7
:1018B00096E00E946D2280935F05CBE5D5E083E141
:1018C00096E00E946D22899385E0CF35D807B9F75D
:1018D00081E080936005DF91CF9108950F931F936E
:1018E000CF93DF93EC018C010C5F1F4FFC01E95893
:1018F000FF4F0190F081E02DC80109958E3F2FEF39
:10190000920780F4FE01E658FF4FC758DF4F9C0155
:1019100040816881C8010E94301E288190E0820FBA
:10192000911D888381E090E0DF91CF911F910F910D
:101930000895DC01D8966C93D897D396ED91FC91DD
:10194000D4970190F081E02D0994BF92CF92DF925D
:10195000EF92FF920F931F93CF93DF9300D000D0AD
:101960001F92CDB7DEB78C01DC01D796BC90D7971C
:10197000D896DC90D897ED91FC91C188E12CF12CA0
:10198000D801ED91FC9111978089D5964D915C918C
:10199000D6971C829D2D9E0D9D838B83B8E08B9FD7
:1019A000C00111248E9D90018F9D300D9E9D300DA4
:1019B0001124CA01820F931F9A838983D801149638
:1019C000ED91FC9115979E012F5F3F4F41E06FE035
:1019D000C801099581E08E0D8B1538F4BFEFEB1A25
:1019E000FB0A8D2D8E0D8C1558F20F900F900F90D5
:1019F0000F900F90DF91CF911F910F91FF90EF907B
:101A0000DF90CF90BF900895FC01A081B1815096E6
:101A10009C9147A9949FA001112483E0440F551F76
:101A20008A95E1F760E070E085A996A90C94B1323F
:101A3000CF93DF93EC01FC01EE58FF4F80818823A8
:101A400019F0CE010E94040D60E0CE01DF91CF912C
:101A50000C94990C4F925F926F927F928F929F920B
:101A6000AF92BF92EF92FF920F931F93CF93DF93AA
:101A7000D82FC62F49015A0187E396E00E94180D1E
:101A8000C501B40128E532E040E050E00E94373261
:101A90002B013C011FE083E2F82E84EC9BE00E94C6
:101AA000B0271093AC06F092AD0666EE74E083E3C7
:101AB00096E00E945123D13009F046C020E9421639
:101AC00021E052066104710410F0EE20F9F0C032FA
:101AD00039F46DEA71E083E396E00E94512316C069
:101AE000CF3779F484E990E00E94B0276FEA71E083
:101AF00083E396E00E94512384EC9BE00E94B02790
:101B000005C06C2F83E396E00E94EC2288EE90E102
:101B10000E94B027C03229F441EB51E067E38DE227
:101B20005CC0CF3729F449EB51E067E382E255C04E
:101B3000002329F047EC51E067E380E14EC04CED13
:101B400051E067E38EE049C0D230E9F588EE90E1DC
:101B50000E94B02743EF51E067E38BE00E94361705
:101B60000E94FC24DC01CB0188199909AA09BB0950
:101B70008D3D9540A105B10590F142E350E060E054
:101B800070E08DE298E00E94C31462E370E080E0B0
:101B900090E00E94C22442E350E060E070E080E404
:101BA0009CE00E94C31462E370E080E090E00E9439
:101BB000C22442E350E060E070E08AE590E10E94D8
:101BC000C31481E01CC0D33051F488EE90E10E9430
:101BD000B0274AE052E067E389E20E94361743E10A
:101BE00052E06EE083E10E94361784EC9BE00E9495
:101BF000B02787E396E00E94672081114ECFDF91E6
:101C0000CF911F910F91FF90EF90BF90AF909F9059
:101C10008F907F906F905F904F900895AF92BF929A
:101C2000CF92DF92EF92FF920F931F93CF93DF93A8
:101C30001F92CDB7DEB75C017B018B016C0183E1A4
:101C4000C80ED11CF80161918F01C50169830E9402
:101C500001326981681719F0C5010E940932FFEF4E
:101C6000AF1ABF0AAC14BD0469F7C7010F90DF912A
:101C7000CF911F910F91FF90EF90DF90CF90BF9089
:101C8000AF900895CF92DF92EF92FF920F931F9340
:101C9000CF93DF93EB017B0123E1E20EF11C8B017B
:101CA0006C01C61AD70AC601800F911F0E9401322B
:101CB000F80181938F01EE15FF05A9F7CE01DF91A1
:101CC000CF911F910F91FF90EF90DF90CF900895EB
:101CD0000C9409320C94013243E050E060E070E073
:101CE00088E998E00C94C31460E087E00E94D42354
:101CF00087E396E00E94180DD9E1C3E284EC9BE0F3
:101D00000E94B027D093AC06C093AD0666E272E0A5
:101D100083E396E00E94512387E396E00E946720C8
:101D20008111ECCF6AEF70E080E090E00E94C22465
:101D300048EC50E060E070E08AE590E10E94C31456
:101D400068EC70E080E090E00E94C22448EC50E033
:101D500060E070E080E49CE00E94C31468EC70E0F6
:101D600080E090E00E94C22444EF51E060E070E027
:101D70008DE298E00E94C314FFCF1F920F920FB61E
:101D80000F9211240F931F932F933F934F935F93C1
:101D90006F937F938F939F93AF93BF93EF93FF9333
:101DA0000E9421172091D4043091D5048901330F6A
:101DB000220B330B601771078207930781F00E9493
:101DC000FC24609323067093240680932506909349
:101DD00026060E9421177093D5046093D4040E94B4
:101DE000FC240091230610912406209125063091B1
:101DF0002606DC01CB01801B910BA20BB30B813EAD
:101E00009349A440B10510F00E94740EFF91EF9128
:101E1000BF91AF919F918F917F916F915F914F9102
:101E20003F912F911F910F910F900FBE0F901F9018
:101E300018955F926F927F928F929F92AF92BF920E
:101E4000CF92DF92EF92FF920F931F93CF93DF9386
:101E5000CDB7DEB764970FB6F894DEBF0FBECDBF27
:101E600000E010E0CE0101967C0180E3882E82E044
:101E7000982E9BE3692E92E0792E5E0191E1A90EE6
:101E8000B11CC8010E946A0E582EC801877099279C
:101E9000892B21F483EF91E00E94632868018FE091
:101EA000C822DD24C114D10401F50115110519F072
:101EB000C7010E94290C1F930F939F928F92FF924C
:101EC000EF920E94CA32B70186E795E00E94512343
:101ED00040E150E060E270E0C7010E94B1320F9033
:101EE0000F900F900F900F900F90F701EC0DFD1DCC
:101EF00050821F925F927F926F92BF92AF920E9428
:101F0000CA32B50186E795E00E9451230F5F1F4F4B
:101F10000F900F900F900F900F900F9000381105B9
:101F200009F0AFCF81EF91E00E94632881EF91E04B
:101F30000E946328C7010E94290C61E472E086E7D1
:101F400095E00E94F32264960FB6F894DEBF0FBEB0
:101F5000CDBFDF91CF911F910F91FF90EF90DF9058
:101F6000CF90BF90AF909F908F907F906F905F9039
:101F70000895CF92DF92EF92FF92CF93DF930E946A
:101F800021176B017C01F594E794D794C79484E002
:101F90000E94AB232091040130910501C216D306A3
:101FA00044F40E946C0ED0920501C092040184E5B5
:101FB0001EC02C153D0544F40E946C0ED092050104
:101FC000C092040185E513C0892B81F445E050E0FF
:101FD00060E070E080EA9FE00E94C31462E370E07A
:101FE00080E090E00E94C22480E501C080E0DF91A3
:101FF000CF91FF90EF90DF90CF900895CF93DF9334
:1020000000D000D01F92CDB7DEB789834A835B83AF
:102010006C837D8381E08093600788E08093D304A4
:102020001092DB041092DA0441E050E0BE016F5FD1
:102030007F4F83E196E00E94892244E050E0BE0198
:102040006E5F7F4F83E196E00E9489229091DA04CF
:102050008091D304913208F046C02091D904211117
:10206000FCCF22E02093D90421E02093D8042FEF65
:10207000209361071092830790938207A0E4B7E052
:1020800042E657E0FA012E2F241B291718F42D9150
:102090002193F9CF1092840790918407880F892BA0
:1020A000809384078091D704813061F41092D70423
:1020B000809184078093BB008091BC0083FDF8CFA2
:1020C00085EC01C085EE8093BC008091D9048230FC
:1020D000E1F3809161078F3F31F080916107803299
:1020E00011F0809161071092DB041092DA041092D3
:1020F00060070F900F900F900F900F90DF91CF918E
:1021000008954F925F926F927F928F929F92AF92BB
:10211000BF92CF92DF92EF92FF920F931F93CF93D4
:10212000DF93EC01C62E87E396E00E94180D88E04D
:10213000B82E9AE5892E2E010D2E000C6608770820
:1021400022E6922E3EE3A32ED12CE12CF12C88EE38
:1021500090E10E94B0271092AC06B092AD0666EEF8
:1021600074E083E396E00E9451238092AC06B09223
:10217000AD0664E472E083E396E00E945123CA3026
:10218000D1053CF46AE472E083E396E00E945123B7
:1021900003C0C436D10534F46AE472E083E396E008
:1021A0000E945123B301A20183E396E00E943128EB
:1021B0009092AC06A092AD062AE0B701A60183E397
:1021C00096E00E9408236CE472E083E396E00E94AC
:1021D000512384EC9BE00E94B02741E552E06CE182
:1021E0008EE10E9436174DE552E06EE289E10E94D1
:1021F00036170BEA13E028E048E066E38CE30E9420
:10220000671987E396E00E9467208111A0CFDF91D4
:10221000CF911F910F91FF90EF90DF90CF90BF90E3
:10222000AF909F908F907F906F905F904F900895A8
:1022300084E00E94AB23892BD9F30895EF92FF929B
:102240000F931F93CF93DF9300D000D0CDB7DEB7AD
:102250008C0188EE90E14B835C8369837A830E94D2
:10226000B02783EAE82E86E0F82E82E0F70180832B
:102270000E94E1192BE632E04B815C8169817A8111
:10228000C8010E9484280E94181184EC9BE00E94DF
:10229000B027F70110820F900F900F900F90DF91F1
:1022A000CF911F910F91FF90EF900C94E119AF9295
:1022B000BF92CF92DF92FF920F931F93CF93DF9342
:1022C000CDB7DEB763970FB6F894DEBF0FBECDBFB4
:1022D0001092F30480E090E00E946A0EF82E81E0F4
:1022E00090E00E946A0E8093080182E0C82ED12CF3
:1022F00000E010E0AF2CB12C81E0A81AB1080F1556
:10230000E0F4BE016F5F7F4FC6010E94420EBE0126
:10231000695F7F4F83EF94E00E94B8320A151B0576
:1023200034F462E472E083EF94E00E94B8320F5F0D
:102330001F4F83E1C80ED11CE2CF8F2D63960FB6DD
:10234000F894DEBF0FBECDBFDF91CF911F910F91EB
:10235000FF90DF90CF90BF90AF9008951F93CF93E1
:10236000DF93CDB7DEB763970FB6F894DEBF0FBE2D
:10237000CDBF282F30E02150310943E1429FC001F9
:10238000439F900D1124BE016F5F7F4F02960E9404
:10239000420E1A81109303018B818093D2048C81A9
:1023A000809302018D81809301018E8180930001D1
:1023B000BE01695F7F4F86EE94E00E94C332412FD9
:1023C00050E060E070E082E00E94FE0F4B8150E040
:1023D00060E070E083E00E94FE0F4C8150E060E01E
:1023E00070E084E00E94FE0F4D8150E060E070E0FC
:1023F00085E00E94FE0F4E8150E060E070E086E0D4
:102400000E94FE0F698181E090E00E94680E0E94A8
:10241000190F63960FB6F894DEBF0FBECDBFDF91E4
:10242000CF911F9108953F924F925F926F927F924A
:102430008F929F92AF92BF92CF92DF92EF92FF92D4
:102440000F931F93CF93DF93CDB7DEB729970FB6C6
:10245000F894DEBF0FBECDBF0E9421172B013C01B7
:1024600080910901E6EEF4E0833009F059C0019053
:102470000020E9F7E35FF44089F58091F1041092C0
:10248000F1049FEB980F9A3138F4F894082E000C61
:10249000990B8150914E15C09FE9980F9A3138F4ED
:1024A000F894082E000C990B8750914E0AC090EDBD
:1024B000980F9A3068F4F894082E000C990B8B5BF7
:1024C000904E880F991F092E000CAA0BBB0B0BC056
:1024D000F89488EE9EE3A0E0B0E005C0F8948EEF9B
:1024E0009EE3A0E0B0E080932E0690932F06A09389
:1024F0003006B09331067894E6EEF4E001900020C7
:10250000E9F73197E65EF4403E2EEF5FEC3030F4B1
:10251000AE2FB0E0AA51BB4F1C92F7CF10E015C010
:102520008CE08E0F11928E13FDCFF89480E89EE31D
:10253000A0E0B0E080932E0690932F06A093300683
:10254000B0933106789411E0312CD12CF12C9BE022
:10255000931508F487C0F11085C0CA2C84E00E944E
:10256000AB23019709F05BC00E94211795958795D1
:102570007795679520E430E040E050E00E945932C2
:102580004B015C018D819E81AF81B88588169906CB
:10259000AA06BB0641F069870E946C0EEE24E39404
:1025A000D12C698501C0E12C9AE189169104A1041E
:1025B000B10418F451E4C52E1DC0D501C4014A97D9
:1025C000A109B1094A97A105B10518F447E4C42E41
:1025D00011C0A4E38A169104A104B10469F0D501E5
:1025E000C401C597A109B1090A97A105B10538F43D
:1025F0003BEFC32EC60E05C020E2C22E02C09FE7ED
:10260000C92E0E94FC249B01AC01012F6C2D81E09E
:102610000E942A0D8D829E82AF82B8869FCFAC2CFD
:102620000E94FC2469837A838B839C83B12C84E091
:102630000E94AB23892B79F4B1100DC078C0BB2068
:1026400009F4C4C0E12C012F20E030E0A9016C2D79
:1026500083E00E942A0D84E00E94AB23892B09F0BD
:1026600084C0EDCF84E00E94AB23892BD9F3E32D06
:10267000F0E0EA51FB4F1082F894662477244092F0
:102680002E0650922F066092300670923106789492
:1026900042E752E0609103018AE792E00E947418D9
:1026A000809303010E9418110BE812E023E04FEF22
:1026B00062ED74E083E992E00E947D170E94181198
:1026C00003E412E022E043E662E071E086EA92E091
:1026D0000E947D170E94181122E043E661E071E03C
:1026E00084EB92E00E947D170E94181122E043E6DD
:1026F00060E071E08EEB92E00E947D1729960FB6A4
:10270000F894DEBF0FBECDBFDF91CF911F910F9127
:10271000FF90EF90DF90CF90BF90AF909F908F9001
:102720007F906F905F904F903F900C941811D11054
:1027300008C045E050E060E070E080EA9FE00E9461
:10274000C31462E370E080E090E00E94C224E12CB8
:10275000012F29813A814B815C816C2D82E00E949E
:102760002A0DB82EDD24D39462CFAFE7CA120DC074
:10277000B11026C031103A94832D0E949429E32D84
:10278000F0E0EA51FB4F10821CC0B1101DC0E32DD8
:10279000F0E0EA51FB4FC0823394112309F4D7CE05
:1027A000F89484EB9EE3A0E0B0E080932E06909333
:1027B0002F06A0933006B0933106789410E0C7CE70
:1027C000FB2C8FE7A82EC3CEFB2CC1CEBFE7CB12CC
:1027D000DECFD0CF0F931F93CF93DF93CDB7DEB76C
:1027E00063970FB6F894DEBF0FBECDBF182F80E001
:1027F00090E00E946A0E082F809103018A838091E5
:10280000D2048B83809102018C83809101018D839E
:10281000809100018E8366EE74E0CE0107960E94DF
:10282000C332111112C011E0100F612F80E090E04F
:102830000E94680E612F81E090E00E94680E19836B
:1028400023E1029FC001112410C01983612F81E090
:1028500090E00E94680E612F70E06150710923E1E1
:10286000269FC001279F900D1124BE016F5F7F4FEF
:1028700002960E940E0E0E94190F63960FB6F894EE
:10288000DEBF0FBECDBFDF91CF911F910F91089595
:10289000DC01ED91FD918081ED91FD919081ED91B3
:1028A000FD916C9163708E2309F064609F2309F0A1
:1028B0006860E5E6F4E1E60FF11D659565956D93B9
:1028C0006D917D918D919D91099423C01AC012C084
:1028D00016C010C01EC009C014C013C006C019C065
:1028E00009C00DC007C00DC014C0625070408040C8
:1028F00090400BC0615070408040904006C06E5FB9
:1029000001C06F5F7F4F8F4F9F4F9E938E937E933B
:102910006E93089580912106909122060C9448149C
:1029200080911F06909120060C944814CF92EF924C
:102930000F931F93CF93DF93D62F942FC091A406AC
:10294000CF5F4091A506C41BEE24E3949813E12CBD
:10295000B901892F0E94CE26009711F483E492E0FA
:10296000209175062250CE2C8C014D2F61E087E31B
:1029700096E00E94761F8C2FDF91CF911F910F91CF
:10298000EF90CF9008953F924F925F926F927F9217
:102990008F929F92AF92BF92CF92DF92EF92FF926F
:1029A0000F931F93CF93DF9300D000D0CDB7DEB746
:1029B00020910C01253021F02F3F09F02CC204C0DA
:1029C000E1E0F5E1349076C025E020930C01E1E0F0
:1029D000F5E1E491EF3F09F41EC2E13011F1E2307C
:1029E00009F443C0E11165C014BC15BC24B52260D4
:1029F00024BD25B5216025BDE5E2F5E1E491F0E0D7
:102A0000EE0FFF1FE950FB4E259134913093B7062E
:102A10002093B606E7E0F5E1E491E093B506312CAA
:102A20004BC010928000109281002091810028609C
:102A30002093810020918100216020938100E5E2B4
:102A4000F5E1E491F0E0EE0FFF1FE950FB4E259118
:102A500034913093B4062093B306E7E0F5E1E491B6
:102A6000E093B2063324339427C01092B000109242
:102A7000B1002091B00022602093B0002091B100FD
:102A800021602093B100E5E2F5E1E491F0E0EE0F82
:102A9000FF1FE950FB4E259134913093710520932F
:102AA0007005E7E0F5E1E491E0936F05B2E03B2EBD
:102AB00003C03E2E37FCAFC12A013B018C0161E00F
:102AC00085E00E9486244801A12CB12C832D8D7FA6
:102AD00009F0BBC060E072E18AE790E0A5019401D3
:102AE0000E94593229833A834B835C8369017A01BE
:102AF00021E0C21AD108E108F1088FEFC816D1040D
:102B0000E104F10409F008F44CC060E472E48FE0E1
:102B100090E0A50194010E94593269017A01E1E037
:102B2000CE1AD108E108F108F2E03F1220C02FEFE1
:102B3000C216D104E104F10409F008F46AC160E9A5
:102B400070ED83E090E0A50194010E945932690183
:102B50007A0181E0C81AD108E108F108EFEFCE163A
:102B6000D104E104F10409F0D0F583E067C0FFEF80
:102B7000CF16D104E104F104B1F0A8F068E478EED6
:102B800081E090E0A50194010E94593269017A0127
:102B900081E0C81AD108E108F108332009F4DFC048
:102BA0002FC181E001C082E03320A1F047C08981BC
:102BB0009A81AB81BC812AE0B595A79597958795B9
:102BC0002A95D1F76C017D0121E0C21AD108E108F4
:102BD000F10885E095B5987F892B85BD6FC068E4C5
:102BE00078EE81E090E0A50194010E9459326901DC
:102BF0007A01F1E0CF1AD108E108F1082FEFC216EF
:102C0000D104E104F10409F008F4A7C064E274EF10
:102C100080E090E0A50194010E94593269017A0197
:102C2000E1E0CE1AD108E108F108FFEFCF16D10498
:102C3000E104F10411F008F0B4C085E09091B10016
:102C4000987F892B8093B10039C060E072E18AE7F8
:102C500090E0A50194010E94593269017A0181E056
:102C6000C81AD108E108F108C114D104E1E0EE0668
:102C7000F10488F068E478EE81E090E0A501940129
:102C80000E94593269017A01F1E0CF1AD108E108B6
:102C9000F10893E001C091E021E032120FC0809171
:102CA0008100887F892B8093810041145104610445
:102CB000710449F42FEF3FEFA9012DC041145104D5
:102CC0006104710471F0D801AA0FBB1FA301920126
:102CD0000E947E3228EE33E040E050E00E9437321E
:102CE00003C02FEF3FEFA90181E03816A1F0E2E029
:102CF0003E1619F131108FC0C7BC2093BC0630932B
:102D0000BD064093BE065093BF0680916E00826060
:102D100080936E0080C0D0928900C092880020937A
:102D2000B8063093B9064093BA065093BB0680911B
:102D30006F00826080936F006EC0C092B3002093DA
:102D40007205309373054093740550937505809117
:102D500070008260809370005EC084E06FCFFFEFF0
:102D6000CF16D104E104F104D1F0C8F062E17AE7B2
:102D700080E090E0A50194010E94593269017A0136
:102D800081E0C81AD108E108F108EFEFCE16D104AE
:102D9000E104F10411F008F00ACF84E01BCF83E0D6
:102DA00019CF62E17AE780E090E0A50194010E94EA
:102DB000593269017A0181E0C81AD108E108F108A5
:102DC000EFEFCE16D104E104F104C1F0B8F089812F
:102DD0009A81AB81BC814AE0B595A7959795879577
:102DE0004A95D1F76C017D0121E0C21AD108E108B2
:102DF000F108332009F4EDCE87E020CF86E0D4CE71
:102E0000FFEFCF16D104E104F10409F050F684E09D
:102E1000CBCE82E013CF0F900F900F900F90DF91E9
:102E2000CF911F910F91FF90EF90DF90CF90BF90C7
:102E3000AF909F908F907F906F905F904F903F905A
:102E4000089580913206823030F4F89487E296E05B
:102E50000E94481401C0F89460912E0670912F06CC
:102E60008091300690913106789408959A014BE64E
:102E70005AE150933A0640933906462F682F87E36C
:102E800096E00C94311F7F928F929F92AF92BF92E7
:102E9000CF92DF92EF92FF920F931F93CF93DF9326
:102EA0004C01D62F742EF22E5801C8010E94E22642
:102EB000D82EC0E0CD1581F0B5018C2F0E94CE2612
:102EC000C12CE12C8C01272D4D2F60E0C4010E9404
:102ED000761FDF0DCF5FEECFCF9D802D1124DF91C8
:102EE000CF911F910F91FF90EF90DF90CF90BF9007
:102EF000AF909F908F907F9008953F924F925F92F6
:102F00006F927F928F929F92AF92BF92CF92DF92F9
:102F1000EF92FF920F931F93CF93DF935C014B01CE
:102F2000342ED22E3801FB01C08110928B0681E82D
:102F30009BE190937E0680937D064090A40680914D
:102F4000A506481AC5010E94E226F42D849DF00DC5
:102F50001124D0917606FD1718F4DF1BD69501C019
:102F6000D0E006E21AE110933A060093390663E4D2
:102F700072E087E396E00E94B01DF82E10933A06A7
:102F8000009339066AE472E087E396E00E94B01D80
:102F9000E82E10933A0600933906B30187E396E0D2
:102FA0000E94B01D8F0DED9C800D11245090750670
:102FB000851518F4581A569401C0512C83E0E82E58
:102FC000ED188E2D90E09C012255394F790186E253
:102FD000C82E8AE1D82E87E396E00E94180D85015D
:102FE000242D409175066D2F87E396E00E944317CC
:102FF000082F0D0FD0923A06C092390623E432E032
:10300000402F652D87E396E00E94311F182F150D84
:103010009C2F80E3943618F094568F5FFBCF8093FB
:10302000AE0680E39A3018F09A508F5FFBCF809302
:10303000AF0680E3913018F091508F5FFBCF809303
:10304000B0061092B106D0923A06C09239069701A6
:10305000402F612F87E396E00E94311FD0923A06FD
:10306000C0923906682F610F9301402F87E396E0E5
:103070000E94311F87E396E00E946720182F81117C
:10308000AECF87E396E00E94B90F803521F4F401BA
:10309000C08311E016C08335A1F0823511F085356B
:1030A00031F4C31510F0C0E096CFCF5F94CF8135D7
:1030B00011F0843531F7C11102C0C32D8CCFC1503E
:1030C0008ACF812FDF91CF911F910F91FF90EF90C9
:1030D000DF90CF90BF90AF909F908F907F906F9038
:1030E0005F904F903F9008952F923F924F925F9242
:1030F0006F927F928F929F92AF92BF92CF92DF9208
:10310000EF92FF920F931F93CF93DF9300D01F9204
:10311000CDB7DEB76C016B835A01E090A406E3944F
:103120008091A506E81AC6010E94E226682E2B812E
:10313000222311F021502B8380917606662049F0DE
:1031400090E003976E2D70E00E942332F62EF61861
:1031500004C06E2D0E941732F82EC5010E94E2268F
:10316000782E5B81581718F08FEF870D8B838F2C8B
:10317000912C2B81822F90E0881599052CF0822FBD
:103180008F198F5F8A8301C01A8281E89BE1909337
:103190007E0680937D0644244A94470C372C3F18C2
:1031A00081E0582E5F1887E396E00E94180D20906A
:1031B000A406662049F186012E2D40917506622DE8
:1031C00087E396E00E944317280E10917506022DA2
:1031D0000E198091A506081B31E0300F0E5F212FDC
:1031E000432F60E087E396E039830E94231D3981F5
:1031F000882341F000E0212F432F60E087E396E031
:103200000E94491D53E0250E00E00F1551F04A8140
:10321000400F9501622D8B810E949614280E0F5F3E
:10322000F4CF87E396E00E946720082F8111BFCF7B
:1032300087E396E00E94B90F982F803519F40B812F
:103240000F5F2EC0833561F18B7F8135B1F44B81E7
:103250004F5F471520F040E01A824B83A4CF842FA4
:1032600090E0019694015A81250F311D8217930732
:10327000A4F3552D540F5A83F0CF923511F09435A5
:10328000B9F68B81811105C0442DF71428F73A82D5
:10329000E4CF4B8141505A814517F8F64A83DDCF80
:1032A000802F0F900F900F90DF91CF911F910F9172
:1032B000FF90EF90DF90CF90BF90AF909F908F9056
:1032C0007F906F905F904F903F902F9008955F9206
:1032D0006F927F928F929F92AF92BF92CF92DF9226
:1032E000EF92FF920F931F93CF93DF93C82EC62FB9
:1032F000D42F5801D62ED20E942E980E0D2D292D96
:10330000462F682F87E396E00E94231D882309F447
:1033100048C0D95FD695D695D695ED2EF12CCD1512
:1033200009F43FC08090A806552453945C0E052DE7
:10333000292D4C2F6C2D87E396E00E94231D8823B6
:1033400061F13501DC2D11E0D91529F1F3018491EA
:10335000812319F08092A80609C08091A7068111E7
:1033600013C081E0811080E08093A806E0916A0696
:10337000F0916B060280F381E02D00E021E04C2FFC
:103380006D2F87E396E00995DF5F110FE9F6FFEFF8
:103390006F1A7F0AD8CF8092A806AE0CBF1CC52D2D
:1033A000BECFDF91CF911F910F91FF90EF90DF90F3
:1033B000CF90BF90AF909F908F907F906F905F90D5
:1033C000089580917B0690917C06892BA1F18091D4
:1033D00099068093A40640919A064093A506909181
:1033E000A306992341F1913069F490919B068917C6
:1033F00014F49093A40680919C068417E4F48093BF
:10340000A50608953091960620919806082E000C86
:10341000990B622F022E000C770B630F711D37FD85
:103420007A95861797071CF4320F3093A406241759
:1034300014F42093A5060895462FDC011896ED910B
:10344000FC91199720E030E060E20994FC016623CA
:10345000D9F16A30C9F18589811124C06C3F20F00F
:1034600085E0858B61701AC0683F20F084E0858B11
:10347000637014C0603F20F083E0858B67700EC0DE
:10348000603E20F082E0858B6F7008C0603C20F0C9
:1034900081E0858B6F7102C070E01BC070E07787A0
:1034A000668715C08150858B6F732685378596E0BA
:1034B000220F331F9A95E1F7A901462BBA017787AE
:1034C0006687811104C005C06FEF7FEF02C06EEF09
:1034D0007FEFCB010895662329F06A3019F0862F1B
:1034E00090E008958FEF9FEF08950F93DC01D89639
:1034F0003C91B8EF3B9F400D1124FC0131AD2130D0
:1035000061F4631708F047C022AD421708F043C0CA
:1035100001A8F2A9E02D21E03DC0023019F4621BA0
:103520006F5F04C0033011F4421B4F5FDC01DA9679
:103530005C91702F717000FD14C0451760F5260F67
:10354000261730F4631718F42FEF230F03C060E041
:10355000631708F52223F9F0321708F4232F261BEE
:1035600013C06317C0F4240F241730F4451718F460
:103570002FEF250F05C040E0451768F4222359F0CE
:10358000521708F4252F241BDC01D196ED91FC91F4
:10359000D297072F09950F910895CF93DF93FC01E0
:1035A00027A9822F880F880F880F82AFA081B18151
:1035B00050968C915097803208F08FE1880F880FD9
:1035C000880F81AF30AD932F990F990F990F93AF5B
:1035D00051966C915197432F50E0420F511DC62FC9
:1035E000D0E0C417D50714F4262F231B94AF492F1E
:1035F00038E0239F400D1124242F45AF30EF36AF24
:1036000054964D915C915597413F510508F446AF52
:1036100056963C9137AFDF01A05CBF4F1C921196CC
:103620008C9311969C93ED5BFF4F2083DF91CF919C
:103630000895EF92FF920F931F93CF93DF93DC01D6
:10364000942F9770E1E0F0E0092E01C0EE0F0A948C
:10365000EAF71E2FED01CF58DF4F8881823028F422
:103660007E2F813019F410E001C070E050E0487FF7
:10367000D596ED90FC90D697ED91FC9111978089AD
:10368000849FF001859FF00D1124E60FF11DEE0DD2
:10369000FF1D01110CC02E0F8081872B8127819384
:1036A0002E13FACF1DC0770F110F2223C9F03081DE
:1036B000372B312730839F5F977021509111F3CFC3
:1036C000D9968C91D997E80FF11D8881823020F42A
:1036D000813021F011E002C011E0E7CF71E0E5CFC9
:1036E000DF91CF911F910F91FF90EF900895FC0112
:1036F000EF58FF4F633010F46083089581E08083BA
:10370000089580E008959C01FC01EC5BFF4F8081EF
:10371000918147966F3F710509F018F56136710583
:1037200010F0B49606C06134710538F0F901EA5919
:10373000FF4F20813181820F931F9C012F5F3F4FEC
:10374000F9014491442351F1FC01449150E04617A2
:10375000570711F402960895F9012491820F911DE3
:10376000ECCFF901E659FF4F20813181820F931F81
:10377000FC01249130E0322F22273196E4912E2B48
:103780002115310559F02617370711F403960895CE
:10379000FC013296E4918E0F911DEACF80E090E01B
:1037A0000895213039F020F0223031F4861B08953D
:1037B000860F0895841B0895840F0895213039F0F1
:1037C00020F0223031F4841B0895840F0895860F71
:1037D0000895861B0895DC0118964C911897ED9179
:1037E000FC911197249130E0042E02C03595279565
:1037F0000A94E2F7862F840F883010F4E22F0EC06F
:1038000031961196FC93EE939491E92F98E0941BD6
:1038100001C0EE0F9A95EAF7E22B885018968C9328
:1038200081E090E001C0880F6A95EAF781508E230D
:1038300008950F931F93CF93DF938C01EC01C85B26
:10384000DF4F798368831886FC01E75AFF4F608158
:10385000CE010E94EB1B8E83F801E65AFF4F608178
:10386000CE010E94EB1B8F83F801EF58FF4F908130
:103870009A8781E0911180E08B87DF91CF911F9132
:103880000F910895CF93C62F0E94EB1BC15021E0EA
:1038900030E001C0220FCA95EAF7821BCF9108954C
:1038A000CF93DF931F92CDB7DEB76983BE016F5F01
:1038B0007F4F0E94CF290F90DF91CF910895EF9213
:1038C000FF920F931F93CF93DF9300D0CDB7DEB756
:1038D0007C01162F042F663159F028F46431C9F0A9
:1038E000653131F027C0673169F06A3118F511C0D0
:1038F00060E0C7010E941C1A602FC7010E94501C83
:1039000081E019C061E029833A830E941C1A3A8140
:103910002981D7011896ED91FC911997402F612FBD
:10392000C7010F900F90DF91CF911F910F91FF90E2
:10393000EF90099480E00F900F90DF91CF911F914D
:103940000F91FF90EF900895DC011696ED91FC9198
:10395000179720E030E040E069E10994DC01169619
:10396000ED91FC91179720E030E040E068E1099488
:103970009A01DC011696ED91FC911797462F67E1AD
:103980000994EF92FF920F931F93CF93DF931F92AF
:10399000CDB7DEB77C018B01D8016C916731E1F0C6
:1039A00078F46531A0F1F80141814983D701169679
:1039B000ED91FC91179720E030E0C701099524C0F4
:1039C0006A31A8F06E3F19F5F8014181498369E237
:1039D000C7010E94EF2618C0F80181818983AE01DA
:1039E0004F5F5F4F61E0C7010E94B81C0DC00F5FC1
:1039F0001F4FD7011696ED91FC91179720E030E00C
:103A000040E0C7010995C8CF0E5F1F4FC5CF0F908B
:103A1000DF91CF911F910F91FF90EF900895462F66
:103A2000DC011696ED91FC91179720E030E066E1FD
:103A30000994462FDC011696ED91FC91179720E032
:103A400030E065E109940F93FC01EE5BFF4F30819C
:103A500031965081451728F4301730F0041720F0C4
:103A600010C03017D8F30DC0FC01E05CFF4F30816F
:103A700031968081681738F4321740F081E02617BC
:103A800030F080E004C03217C8F3FBCF81E00F9123
:103A900008950F93222349F0DC01D396ED91FC9118
:103AA000D4970280F381E02D09950F9108955F92DC
:103AB0006F927F928F929F92AF92BF92CF92DF923E
:103AC000EF92FF920F931F93CF93DF935C01F62E3B
:103AD000642EEC01C85BDF4F1C81DD804C0181E767
:103AE000880E911CEE80E11ACE2CFE1408F4CF2C27
:103AF0005B800C85202F4D2D612F8A810E94D11B68
:103B0000782E202F4D2D612F852D0E94DE1B482FF2
:103B1000662011F09A8504C09985911108C09B8593
:103B2000F40190832C2D672DC5010E94491DFE14C0
:103B300020F0FE18D39410E0D5CF1F0D1C83DD823A
:103B4000DF91CF911F910F91FF90EF90DF90CF9079
:103B5000BF90AF909F908F907F906F905F900895EF
:103B60002F923F924F925F926F927F928F929F928D
:103B7000AF92BF92CF92DF92EF92FF920F931F937B
:103B8000CF93DF932C017C012EE4E20EF11CD701D0
:103B90001C92FC01158AEB01312C212C8C01085B55
:103BA0001F4F3C01FBE56F0E711C6C012FE6C20E2E
:103BB000D11C5C018CE5A80EB11C4201ADE58A0E5A
:103BC000911C6991D2011296ED91FC911397C2015B
:103BD00009958F3FBFEF9B0721F18E3FEFEF9E07C7
:103BE00081F3BC01C2010E94831B0097B1F0BC01AC
:103BF000C2010E94191CD3016C91C8010E94421C91
:103C0000F6018083D5016C91C8010E94421CF40129
:103C10006081C8010E94421C01C080E0382E280E3D
:103C2000D0CFD7019C91992339F0F201E159FF4F90
:103C30008081890F280E2318822DDF91CF911F914B
:103C40000F91FF90EF90DF90CF90BF90AF909F903B
:103C50008F907F906F905F904F903F902F9008953E
:103C60006F927F928F929F92AF92BF92CF92DF928C
:103C7000EF92FF920F931F93CF93DF931F92CDB7D5
:103C8000DEB73C01062F142F7901FC01EC5AFF4FDF
:103C900080818130C9F070F0823001F1833039F5D4
:103CA000F301EA5BFF4F0190F081E02DC30109951C
:103CB000080F1DC0F301EA5BFF4F0190F081E02D7A
:103CC000C3010995180F13C0F301EA5BFF4F019080
:103CD000F081E02DC3010995081B09C0F301EA5BDF
:103CE000FF4F0190F081E02DC3010995181BF301EE
:103CF000E65BFF4F008331961083B701C3010E943A
:103D0000831B009709F49CC0730128E4E20EF11CA8
:103D1000BC01C3010E94191CF301E15BFF4FD0807D
:103D20003C966081C7010E94421CA82EF301E45A10
:103D3000FF4F6081C7010E94421CC82EF301E35A65
:103D4000FF4F6081C7010E94421CB82EF701068117
:103D500010160CF073C09485CD0CC194292F4C2DF6
:103D60006A2D828199830E94D11B182FF7018283CB
:103D70009981292F4C2D6A2D83810E94DE1B482FAB
:103D8000F70183839981913091F060F09230A1F036
:103D90009330E9F4212F2D0D801B01E0040F41E049
:103DA000480F17C0212F200F082F0D0D12C09D198D
:103DB00021E0210F080F09C081E0982F901B21E01E
:103DC000210F8D1901E0040F480F190F02C0082FB1
:103DD000212F612FC3010E94231D882379F1F70150
:103DE000148215828301095A1F4F4301F8E58F0E93
:103DF000911CF8016081C7010E94EB1BA82EF40101
:103E00006081C7010E94EB1BC82E40E06A2DC301F0
:103E10000E94571D41E06C2DC3010E94571D61E0B7
:103E2000C7010E94EB1B8111F0CFF70185818D1531
:103E300004F3D301AF58BF4F82858C938B2D01C003
:103E400080E00F90DF91CF911F910F91FF90EF9045
:103E5000DF90CF90BF90AF909F908F907F906F90AA
:103E60000895AF92BF92DF92EF92FF920F931F934C
:103E7000CF93DF93EC01162F042F1D8A7901D12CEB
:103E80005C0124E5A20EB11CF70161917F01EA817A
:103E9000FB81CE0109958F3FFFEF9F07E1F08E3F39
:103EA0002FEF920789F39C01402F612FCE010E94D2
:103EB000301EF5012081213049F030F0223041F0F0
:103EC000233039F4081B05C0180F03C0080F01C0C8
:103ED000181BD80ED9CF8D2DDF91CF911F910F9147
:103EE000FF90EF90DF90BF90AF9008952F923F9298
:103EF0004F925F926F927F928F929F92AF92BF92FA
:103F0000CF92DF92EF92FF920F931F93CF93DF93A5
:103F100000D000D000D0CDB7DEB79E838D83F62EC3
:103F2000A42E4801FC01EC5AFF4F10823E970190ED
:103F3000F081E02D2C830995A80E86E29AE1ED81AF
:103F4000FE8193838283B801CF010E94B01DD82ED9
:103F50002C81821730F4622F681B762E7694D22E35
:103F600001C0712CED81FE81E359FF4FB0806A2CB6
:103F70006B18ED81FE81E259FF4F8081B81AB9823A
:103F800061E08D819E810E94771B4D2C4F0C5980E2
:103F9000560CC1100AC0B42C252CFF2DFE19FA8333
:103FA000ED2C1F2D6F186B8250C0052D242D462D32
:103FB0006F2D8D819E810E94231D882361F3162D14
:103FC000151549F300E02D2D412F6F2D8D819E8118
:103FD0000E94491D1F5FF4CF11506B80610EE39466
:103FE000E39459805E0C5D1833243394320C4424DE
:103FF00043944B0C032D242D462D612F8D819E81E2
:104000000E94231D8823F9F000E02E2D462D612FFC
:104010008D819E810E94491D01E0252D462D612F35
:104020008D819E810E94491D252D462D6B2D8D81F0
:104030009E810E94491D00E02E2D422D612F8D8111
:104040009E810E94491D232CB42C8A811813C4CF51
:10405000CC2011F060E001C061E08D819E810E9462
:10406000771B86E29AE1ED81FE8193838283672D3F
:104070006F0D94014A2DCF010E94311F61E08D81A7
:104080009E8126960FB6F894DEBF0FBECDBFDF919E
:10409000CF911F910F91FF90EF90DF90CF90BF9045
:1040A000AF909F908F907F906F905F904F903F90D8
:1040B0002F900C94771BFC01E60FF11D849190E08A
:1040C000982F88273196E4918E0F911D08950F93B4
:1040D0001F93CF93DF931F92CDB7DEB78C010E9461
:1040E000A50CD801D8966C91D897D7968C91D79774
:1040F000680FED91FC9111978189681760F0149613
:10410000ED91FC91159720E030E040E060E1C801BE
:10411000099580E00FC0F801EE58FF4F8081882399
:1041200029F0C80169830E94040D6981C8010E94B9
:10413000990C81E00F90DF91CF911F910F9108951D
:10414000CF92DF92EF92FF920F931F93CF93DF9363
:104150006C017A018B01C0E0D0E0CE15DF0589F05B
:10416000D8016D918D01D601ED91FC910190F08106
:10417000E02DC6010995892B11F47E0102C021961C
:10418000ECCFC701DF91CF911F910F91FF90EF907E
:10419000DF90CF900895FC01538D448D252F30E0A2
:1041A000842F90E0821B930B541710F0CF96089544
:1041B00001970895FC01918D828D981761F0828D91
:1041C000DF01A80FB11D5D968C91928D9F5F9F734B
:1041D000928F90E008958FEF9FEF0895FC01918DED
:1041E000828D981731F0828DE80FF11D858D90E05A
:1041F00008958FEF9FEF0895FC01918D228D892FF7
:1042000090E0805C9F4F821B91098F7399270895DE
:1042100086E795E00E94FC2021E0892B09F420E04C
:10422000822F0895FC01848DDF01A80FB11DA35AD0
:10423000BF4F2C91848D90E001968F739927848FC6
:10424000A689B7892C93A089B1898C9180648C93BD
:10425000938D848D981306C00288F389E02D8081A8
:104260008F7D80830895EF92FF920F931F93CF93DA
:10427000DF93EC0181E0888F9B8D8C8D981305C0B6
:10428000E889F989808185FD24C0F62E0B8D10E028
:104290000F5F1F4F0F731127E02E8C8DE8120CC09B
:1042A0000FB607FCFACFE889F989808185FFF5CF41
:1042B000CE010E941221F1CF8B8DFE01E80FF11D7E
:1042C000E35AFF4FF0820B8FEA89FB89808180627D
:1042D00007C0EE89FF896083E889F989808180645D
:1042E000808381E090E0DF91CF911F910F91FF904B
:1042F000EF900895CF93DF93EC01888D8823C9F068
:10430000EA89FB89808185FD05C0A889B9898C91DE
:1043100086FD0FC00FB607FCF5CF808185FFF2CF79
:10432000A889B9898C9185FFEDCFCE010E94122119
:10433000E7CFDF91CF91089580E090E0892B29F0BD
:104340000E94082181110C9400000895833081F0AF
:1043500028F4813099F08230A1F008958730A9F0D7
:104360008830B9F08430D1F4809180008F7D03C013
:10437000809180008F7780938000089584B58F7737
:1043800002C084B58F7D84BD08958091B0008F7781
:1043900003C08091B0008F7D8093B00008953FB737
:1043A000F8948091ED079091EE07A091EF07B091FE
:1043B000F00726B5A89B05C02F3F19F00196A11D57
:1043C000B11D3FBFBA2FA92F982F8827820F911DAB
:1043D000A11DB11DBC01CD0142E0660F771F881FF2
:1043E000991F4A95D1F70895089585ED8093BC00F3
:1043F0008091BC0084FDFCCF1092D90408954091B7
:10440000C507262F30E0240F311D21323105DCF4A1
:104410002091D9042430C9F4FC0180E090E0861793
:1044200058F43091C5072191DC01AB55B84FA30F6B
:10443000B11D2C930196F3CF8091C507680F60934F
:10444000C50780E0089581E0089582E00895E09135
:10445000E404F091E504309729F01092DB04109207
:10446000DA0409940895CF93DF93AC01E091E2045C
:10447000F091E3043097F1F09091DD048091DC0439
:104480009817C0F090E0292F30E02617370754F432
:10449000D901AB57B84FEA01C20FD31F88818C9363
:1044A0009F5FF1CF1092DD046093DC04CB01DF91BC
:1044B000CF910994DF91CF9108950895E091DD04A3
:1044C0008091DC04E81730F4F0E0EB57F84F80817E
:1044D00090E008958FEF9FEF08959091DD04809113
:1044E000DC04981750F4E92FF0E0EB57F84F2081E7
:1044F00030E09F5F9093DD0402C02FEF3FEFC901D2
:1045000008958091DC0490E02091DD04821B9109E4
:104510000895CF92DF92EF92FF920F931F93CF9364
:10452000DF937C01262F972F8A01809160078823D3
:1045300091F0C62FD72F6E01C40ED51ECC15DD0508
:1045400071F06991D701ED91FC910190F081E02D1E
:10455000C7010995F3CF642F822F0E94FF21C80164
:10456000DF91CF911F910F91FF90EF90DF90CF904F
:104570000895CF93DF931F92CDB7DEB76983209163
:1045800060072223D1F02091DA04203240F021E0AC
:1045900030E0FC013383228380E090E015C08091FD
:1045A000DB04E82FF0E0E05CF84F998190838F5FA7
:1045B0008093DB048093DA0405C061E0CE010196AC
:1045C0000E94FF2181E090E00F90DF91CF9108954C
:1045D00080E008950E94AC32DC01ED91FC910190E5
:1045E000F081E02D09946115710579F0FB010190CE
:1045F0000020E9F73197AF01461B570BDC01ED9125
:10460000FC910280F381E02D099480E090E0089510
:104610004F925F926F927F92EF92FF920F931F9350
:10462000CF93DF93CDB7DEB7A1970FB6F894DEBF77
:104630000FBECDBF7C01FA01CB0119A2223008F4D4
:104640002AE08E010F5D1F4F422E512C612C712CE0
:10465000BF01A30192010E943732F901CA01015042
:1046600011096A3014F4605D01C0695CD8016C9373
:10467000232B242B252B61F7B801C7010E94F322BD
:10468000A1960FB6F894DEBF0FBECDBFDF91CF91DC
:104690001F910F91FF90EF907F906F905F904F90E0
:1046A00008950C94F3221F920F920FB60F921124CB
:1046B0002F933F934F935F936F937F938F939F932A
:1046C000AF93BF93EF93FF9386E795E00E9412218B
:1046D000FF91EF91BF91AF919F918F917F916F91DA
:1046E0005F914F913F912F910F900FBE0F901F90B0
:1046F00018951F920F920FB60F9211242F938F933C
:104700009F93EF93FF93E0918605F0918705808159
:10471000E0918C05F0918D0582FD12C09081809111
:104720008F058F5F8F7320919005821751F0E09174
:104730008F05F0E0EA58FA4F958F80938F0501C0FE
:104740008081FF91EF919F918F912F910F900FBEDC
:104750000F901F901895CF93DF93282F30E0F90129
:10476000E25CFA4E8491F901EE5FFA4ED491F901C0
:10477000E05EFA4EC491CC2391F081110E94A621F3
:10478000EC2FF0E0EE0FFF1FEA5EFA4EA591B49118
:10479000EC91ED2381E090E021F480E002C080E024
:1047A00090E0DF91CF9108951F93CF93DF93282F4F
:1047B00030E0F901E25CFA4E8491F901EE5FFA4EC5
:1047C000D491F901E05EFA4EC491CC23C9F0162FC2
:1047D00081110E94A621EC2FF0E0EE0FFF1FE9509F
:1047E000FB4EA591B4918FB7F894111105C09C911F
:1047F000ED2FE095E92302C0EC91ED2BEC938FBFF8
:10480000DF91CF911F9108951F920F920FB60F92D3
:1048100011242F933F934F935F936F937F938F93C5
:104820009F93AF93BF93EF93FF9380917205909105
:104830007305A0917405B0917505892B8A2B8B2B7C
:1048400059F180916F05E0917005F09171059081AB
:10485000892780838091720590917305A0917405DA
:10486000B0917505181619061A061B060CF03DC006
:104870008091720590917305A0917405B0917505B2
:104880000197A109B1098093720590937305A093D4
:104890007405B093750529C080910C01E1E0F5E144
:1048A000E4919FEF90930C01E130B9F098F0E23081
:1048B000C9F4909170009D7F9093700091E0909367
:1048C000B0009091B100987F94609093B1001092E5
:1048D000B30008C010926E0005C090916F009D7FDC
:1048E00090936F0060E00E94D423FF91EF91BF91FD
:1048F000AF919F918F917F916F915F914F913F9178
:104900002F910F900FBE0F901F901895CF93DF93AC
:1049100090E0FC01EE5FFA4E2491FC01E05EFA4E5D
:104920008491882361F190E0880F991FFC01EC5C71
:10493000FA4EC591D491FC01E950FB4EA591B4917A
:10494000611109C09FB7F8948881209582238883DC
:10495000EC912E230BC0623061F49FB7F89438813C
:10496000822F809583238883EC912E2B2C939FBFDD
:1049700006C08FB7F894E8812E2B28838FBFDF9174
:10498000CF9108958F929F92AF92BF92CF92DF9274
:10499000EF92FF926B017C010E94CF214B015C01E1
:1049A000C114D104E104F104F1F00E94CF21DC0133
:1049B000CB0188199909AA09BB09883E9340A10532
:1049C000B10570F321E0C21AD108E108F10888EEC0
:1049D000880E83E0981EA11CB11CC114D104E1040F
:1049E000F10419F7DDCFFF90EF90DF90CF90BF90EB
:1049F000AF909F908F9008952FB7F8946091E9073A
:104A00007091EA078091EB079091EC072FBF089512
:104A10001F920F920FB60F9211242F933F938F93F3
:104A20009F93AF93BF938091E9079091EA07A0917C
:104A3000EB07B091EC073091E80723E0230F2D3707
:104A400020F40196A11DB11D05C026E8230F029692
:104A5000A11DB11D2093E8078093E9079093EA0711
:104A6000A093EB07B093EC078091ED079091EE07D0
:104A7000A091EF07B091F0070196A11DB11D8093A1
:104A8000ED079093EE07A093EF07B093F007BF9167
:104A9000AF919F918F913F912F910F900FBE0F90EB
:104AA0001F9018951F920F920FB60F9211242F93FB
:104AB0003F934F935F936F937F938F939F93AF93A6
:104AC000BF93EF93FF93E0910F01F09110010995CF
:104AD000FF91EF91BF91AF919F918F917F916F91D6
:104AE0005F914F913F912F910F900FBE0F901F90AC
:104AF00018951F920F920FB60F9211242F933F9388
:104B00004F935F936F937F938F939F93AF93BF93D5
:104B1000EF93FF93E0910D01F0910E010995FF9144
:104B2000EF91BF91AF919F918F917F916F915F9125
:104B30004F913F912F910F900FBE0F901F9018959E
:104B40001F920F920FB60F9211242F933F934F9302
:104B50005F936F937F938F939F93AF93BF93EF93E5
:104B6000FF938091B900887F803609F49CC068F576
:104B7000883209F45BC090F4803109F454C038F4F1
:104B8000882309F4F6C0883009F44DC0F6C0883196
:104B900009F44CC0803209F45DC0EFC0803409F4E0
:104BA00068C048F4803309F455C0883309F0E5C083
:104BB00080936107D8C0803509F44FC0883509F467
:104BC0005DC0883409F0D9C0D6C0883909F4C7C09F
:104BD000A8F4883709F467C038F4883609F463C04C
:104BE000803709F460C0C9C0883809F4B8C080397A
:104BF00009F45FC0803809F0C0C05BC0803B09F495
:104C000086C038F4803A09F466C0883A09F47FC057
:104C1000B4C0803C09F4A7C0883C09F4A4C0883B18
:104C200009F48AC0AAC08091840710C090918307BC
:104C300080918207981770F5E091830781E08E0FCD
:104C400080938307F0E0EE59F84F80818093BB009A
:104C500085EC86C0809361078EC0E091830781E078
:104C60008E0F809383078091BB00F0E0EE59F84FE0
:104C7000808390918307809182076EC0E0918307C3
:104C800081E08E0F809383078091BB00F0E0EE59A6
:104C9000F84F80838091D80481116DC081E08093AA
:104CA000D70484EA61C083E08093D9041092E707B7
:104CB000CFCF8091E707803208F051C0E091E7073D
:104CC00081E08E0F8093E7078091BB00F0E0E9530D
:104CD000F84F8083BDCF85EC8093BC001092D9043F
:104CE0008091E707803230F4E091E707F0E0E95384
:104CF000F84F10826091E70770E0E091DE04F091D8
:104D0000DF0487EC97E009951092E70736C084E04E
:104D10008093D9041092C6071092C507E091E00471
:104D2000F091E10409958091C507811105C081E0EA
:104D30008093C5071092A507E091C60781E08E0F0A
:104D40008093C607F0E0EB55F84F80818093BB005D
:104D50009091C6078091C507981708F479CF85E828
:104D60008093BC000AC085EC8093BC001092D904EB
:104D700004C0109261070E94F521FF91EF91BF914D
:104D8000AF919F918F917F916F915F914F913F91E3
:104D90002F910F900FBE0F901F901895882359F0F8
:104DA000FB0191E02191222341F02A30D9F7981795
:104DB00039F09F5FF7CFCB01089580E090E0089530
:104DC000CF010895009749F0FC0181E0919199236A
:104DD00029F09A30D9F78F5FF9CF80E00895DC0190
:104DE0001A96ED91FC911B9720E030E00994EF9228
:104DF000FF920F931F93CF93DF93EC01142F790150
:104E00006D30A9F118F46B3039F15FC06E3009F4E0
:104E100041C06F3009F059C00E94AE1CF701838178
:104E20000889F8E08F9F000D112460E4CE010E94F4
:104E3000191D602F62956F706061CE010E94191D6F
:104E4000602F6F70CE010E940F1DF7016481606BAF
:104E5000CE010E940F1D29C0411103C06BE571E016
:104E600002C066E571E0CE010E94C11C71C0411113
:104E700008C06FE471E00E94C11CE881F981828959
:104E800007C068E471E00E94C11CE881F981838950
:104E9000888B5EC00E94AE1C61E8CE010E94191D85
:104EA000612FCE010E940F1D0CC0F701408151817E
:104EB0006281660F660F660FCE010E94B81C11500A
:104EC000A1F7CE010E94A41C43C0693031F485E9EA
:104ED00091E09983888382E0DBCF6A30B9F5EA8577
:104EE000FB8520E030E040E068E2CE010995EE81EC
:104EF000FF8120E030E040E064E1CE01099541E02F
:104F00006BE4CE010E94EF26E881F981448169E2D9
:104F1000CE010E94EF2640E06BE4CE010E94EF2616
:104F2000E881F981448169E2CE010E94EF2641E0E7
:104F30006BE4CE010E94EF26E881F981458169E2A8
:104F4000CE010E94EF2660E671E08DCF80E001C0C7
:104F500081E0DF91CF911F910F91FF90EF90089525
:104F6000CF93DF9320917B0630917C062817390779
:104F700009F474C0EC0190937C0680937B06FC01DD
:104F8000849180938C063196E491E0938D06FE0126
:104F90003296E491E0938E06FE013396E491E0931D
:104FA0008F06FE013496E491E0939006FE0135965B
:104FB000E491E0939106FE013696E491E093920627
:104FC000FE013796E491E0939306FE013896E49152
:104FD000E0939406FE013996E491E0939506FE0174
:104FE0003A96E491E0939606FE013B96E491E093B5
:104FF0009706FE013C96E491E0939806FE013D96EB
:10500000E491E0939906FE013E96E491E0939A06BE
:10501000FE013F96E491E0939B06FE017096E491B9
:10502000E0939C0661E1CE010E945B2090939E0676
:1050300080939D0663E1CE010E945B209093A006C1
:1050400080939F0665E1CE010E945B209093A206AB
:105050008093A106DF91CF910C94E119DF91CF915C
:105060000895CF92DF92EF92FF920F931F93CF9309
:10507000DF9377FF1DC06A017B01EC016DE20E94A6
:10508000EC228C0144275527BA014C195D096E09A1
:105090007F092AE0CE010E940823800F911FDF9133
:1050A000CF911F910F91FF90EF90DF90CF900895D7
:1050B0002AE0DF91CF911F910F91FF90EF90DF9049
:1050C000CF900C9408230F931F93CF93DF938C0101
:1050D000C0E0D0E0F801EC0FFD1F6491662371F091
:1050E000E0917605F09177050190F081E02D86E75B
:1050F00095E00995892B11F02196ECCFCE01DF9137
:10510000CF911F910F9108952F923F924F925F92EE
:105110006F927F928F929F92AF92BF92CF92DF92C7
:10512000EF92FF920F931F93CF93DF9300D000D0A5
:105130001F92CDB7DEB74C015B013A013D832C8352
:1051400010928B0681E89BE190937E0680937D060A
:105150001091A4068091A506212E281AC4010E9450
:10516000E226A114B10419F4FF24F39402C092E0E2
:10517000F92EF80EC3010E94E2268F0D829D802D2C
:1051800011248D5F90917606891720F4D92ED81AB4
:10519000D69401C0D12CD10ED982F12C86E2482EB2
:1051A0008AE1582E87E396E00E94180D8401222D93
:1051B00040917506698187E396E00E944317398024
:1051C000380EA114B10461F0C12CE12C85012091AD
:1051D0007506432D60E087E396E00E94761F320C4F
:1051E0008301222D40917506632D87E396E00E948E
:1051F0004317830D8D5F8A83109175068C819D8185
:105200000E94E226382EE12C00E0E31489F06C8144
:105210007D818E2D0E94CE2650923A06409239060C
:10522000BC0187E396E00E94B01D080FE394EDCF28
:10523000232D30E021503109822F880F280F220FB3
:10524000200F211720F4312F321B369501C030E09A
:10525000D12CD31449F16C817D818D2D3B830E942B
:10526000CE26CC24C3943B81DF10C12CEE24E394E2
:105270008C0120E04A81632F87E396E03B830E9404
:10528000761F6C817D818D2D0E94CE2650923A062C
:1052900040923906BC0187E396E00E94B01D8A5F08
:1052A0003B81380FD394D5CF87E396E00E946720E7
:1052B000182F81117BCF032D87E396E00E94B90F51
:1052C000982F803519F411E01F0D15C0833599F022
:1052D0008B7F813531F4F394F31408F463CFF12C10
:1052E00061CF923511F0943539F7F1100F2DFF246D
:1052F000FA94F00E57CF812F0F900F900F900F90D0
:105300000F90DF91CF911F910F91FF90EF90DF9061
:10531000CF90BF90AF909F908F907F906F905F9055
:105320004F903F902F900895CF93DF93482F50E0F8
:1053300060E070E02AE086E795E00E940823EC0137
:1053400061E472E086E795E00E94F3228C0F9D1FD6
:10535000DF91CF910895CF93DF93AB01BC0186E736
:1053600095E00E943128EC0161E472E086E795E067
:105370000E94F3228C0F9D1FDF91CF910895CF9350
:10538000DF930E946328EC0161E472E086E795E018
:105390000E94F3228C0F9D1FDF91CF9108959B01F6
:1053A000DC011896ED91FC91199741E067E10994B1
:1053B000CF93DF93CDB7DEB768970FB6F894DEBF13
:1053C0000FBECDBF789484B5826084BD84B5816002
:1053D00084BD85B5826085BD85B5816085BD8091C0
:1053E0006E00816080936E00109281008091810038
:1053F0008260809381008091810081608093810030
:10540000809180008160809380008091B1008460F1
:105410008093B1008091B00081608093B000809152
:105420007A00846080937A0080917A008260809311
:105430007A0080917A00816080937A0080917A006E
:10544000806880937A001092C10061E08AE00E9437
:10545000862461E089E00E94862461E086E00E9463
:10546000862461E087E00E94862461E085E00E9456
:10547000862460E084E00E94862460E08AE00E9446
:10548000D42360E089E00E94D42361E084E00E949C
:10549000D42361E087E00E94D423F89480E89EE35F
:1054A000A0E0B0E080932E0690932F06A0933006E4
:1054B000B09331067894E0918605F091870582E0FB
:1054C0008083E0918205F09183051082E09184054C
:1054D000F091850580E1808310928E05E0918A0528
:1054E000F0918B0586E08083E0918805F091890535
:1054F000808180618083E0918805F09189058081B9
:1055000088608083E0918805F091890580818068BA
:105510008083E0918805F091890580818F7D80836B
:105520008EE08093BA0087E292E29093E104809348
:10553000E00483E392E29093DF048093DE04109210
:10554000DD041092DC041092DB041092DA04109255
:10555000D90481E08093D8041092D70461E082E1FD
:105560000E94D42361E083E10E94D4238091B9009A
:105570008E7F8093B9008091B9008D7F8093B900B0
:1055800088E48093B80085E48093BC008CE080932D
:10559000B80083E59CE09093E3048093E20484EDFB
:1055A0009AE09093E5048093E404E0913B06F09147
:1055B0003C0620E030E040E06AE087E396E00995B1
:1055C00087E396E00E94180D87E396E00E9467202B
:1055D0008111FACF60E087E396E00E94990CE09198
:1055E0003B06F0913C0620E030E040E06BE087E3D2
:1055F00096E0099584EC9BE00E94B02787E396E053
:105600000E94180D08EF11E02EE140E660E18EE007
:105610000E94671987E396E00E9467208111F2CF0C
:1056200060ED77E080E090E00E94C22481E080930A
:105630000B0181E090E00E946A0E809308019FEFC9
:10564000980F9830C0F000E010E060E0C8010E94C0
:10565000680E0F5F1F4F011524E01207B1F781E0BC
:1056600090E00E946A0E809308010E94131280E06D
:105670000E94EA1302C00E94AE11F89410928000BA
:1056800010928100109285001092840088E09DE3C2
:105690009093890080938800809181008860809336
:1056A00081008091810085608093810080916F00EE
:1056B000826080936F0078944EE150E060E070E08B
:1056C00080E797E10E94C31480916005882309F464
:1056D0000EC10E94FC2460932306709324068093DD
:1056E000250690932606E0915F058E2F90E0FC0141
:1056F0003A97EB30F10558F5EC5CFF4F0C9478329B
:1057000081E694E00E94BF2926C081E594E011C0A3
:105710008AE394E00EC08BE294E016C08DE194E041
:1057200013C085E094E005C088EF93E002C087EEE7
:1057300093E00E9463280FC086ED93E005C084ECDF
:1057400093E002C083EB93E00E94BF290EC08091DA
:105750005F050E94942960915B0570915C058091C2
:105760005D0590915E050E94AB29E0915F058E2F4B
:1057700090E0FC013A97EB30F10508F0AAC0E15C3B
:10578000FF4F0C94783280915B0590915C05A0915D
:105790005D05B0915E0580936E05A9C060915B05C3
:1057A00070915C0580915D0590915E0520E831E582
:1057B00041E050E00E94373220E13EE040E050E01E
:1057C0000E94373220936D0560915B0570915C05F6
:1057D00080915D0590915E052CE330E040E050E063
:1057E0000E943732CA01B9012CE330E040E050E0BA
:1057F0000E94373260936C0560915B0570915C0587
:1058000080915D0590915E052CE330E040E050E032
:105810000E94373260936B056AC081E080936A050D
:1058200066C010926A0563C080915B0590915C052B
:10583000A0915D05B0915E05909369058093680520
:1058400056C080915B0590915C05A0915D05B0917B
:105850005E0580319105A105B105B9F0843191054E
:10586000A105B105D1F00297A105B105D9F443E432
:1058700052E06AEC72E08AED92E00E941E110E94F2
:10588000181182E080930B0132C040EE52E06FEEBF
:1058900072E08AED92E00E941E1143E452E06FEF45
:1058A00072E00AC040915B0550915C0560915D0516
:1058B00070915E0561E173E08AED92E00E941E1135
:1058C00016C081E08093670512C081E08093660571
:1058D0000EC080915F050E94942960915B057091D4
:1058E0005C0580915D0590915E050E94AB29109248
:1058F000600580910B01833009F4ECC108F581301B
:1059000009F44DC0823009F022C40E9421174B01D6
:105910005C01F89482E89EE3A0E0B0E080932E065C
:1059200090932F06A0933006B09331067894C12C43
:10593000D12C00E010E0A9E07A2EB7E36B2E56C11F
:10594000843009F4FBC1853009F001C4C0906E05B4
:10595000809063059090640587E396E00E94180D9F
:105960000E94FC242CEB32E040E050E00E943732F1
:105970002B013C0158E0352EC401092C000CAA0B68
:10598000BB0B8C8B9D8BAE8BBF8B6EE3A62ED12C6D
:10599000E12CF12C78E2B72EE8E12E2EA3C247E1EC
:1059A00053E062E083E494E00E94741880930A015B
:1059B000888F0E941811888D823009F4FDC118F477
:1059C000813041F0C4C3833009F4B1C0843009F49C
:1059D000B0C0BDC34FE353E062E087EA93E00E94AA
:1059E000741880930901888F0E941811888D813066
:1059F00089F480E090E00E946A0E883020F40E94D2
:105A0000131280E032C04BE553E06BE673E08AEDA1
:105A100092E0DAC0823089F40E94571143EF54E0DB
:105A20006091080180E893E00E94741880936505F6
:105A3000888F0E941811888D77C08330C9F40E9426
:105A4000571143EF54E06091080181E993E00E940F
:105A5000741880936505888F0E941811888D0E94A4
:105A6000AE110E941312809165050E94EA136FC364
:105A7000843009F06CC30E94571143EF54E0682F43
:105A800080EA93E00E947418809365050E941811C3
:105A900061EB73E086E795E00E94512380916505F4
:105AA0000E9494291091650580E090E00E946A0EA2
:105AB000F82E181719F0E12E03E10AC060EC73E02C
:105AC00086E795E00E945123812F0E9494291FC0F0
:105AD000EF14E8F4A3E1EA9EC0011124BE016F5F58
