:100000000C94A70A0C949F280C9478280C94CF0A7F
:100010000C94CF0A0C94CF0A0C94CF0A0C9454275A
:100020000C94CF0A0C94CF0A0C94CF0A0C94E529B7
:100030000C94CF0A0C94CF0A0C94CF0A0C94CF0ADC
:100040000C942E280C94CF0A0C94FC270C94D627E1
:100050000C94CF0A0C94CF0A0C94CF0A0C94CF0ABC
:100060000C94C6280C94CF0A18000404040401025E
:10007000050D0B00FE08FE08FE000000EE014441E5
:10008000098ADD5462A11C2E420E86BD42220A213D
:10009000214A0892E800430C56BF20440419312439
:1000A0008408440F7AE5284E12318244081B180C4C
:1000B00000450888CD904C9E25461188CD904C0473
:1000C00009112444901041425802470788CDF00797
:1000D00004480899D5A04EBE53491399D5A04E4463
:1000E00009112544941051424409710A4A0799DDC7
:1000F000F00F0C4B0A88C57022D45CA9384C0C88D0
:10010000CD7022D488F94AC5014D0A88CD70E2C16C
:1001100007230E4E0B99D58022D83C5B81004F13EC
:1001200099D58022D8081223488C203182C4B0157A
:1001300008500A99D580E2C10F4620511088CD425F
:1001400026508860320B11280C1100521588CD42C0
:1001500026508820529010414288901081C2100190
:10016000530D88CD42C6C4830722CC100161138A87
:10017000DD232E44B0200705860862244440510048
:10018000621598CD232A4898402182111912519066
:10019000404102110166148DDD54484DC03001C349
:1001A0000459113084C0206A006706B191B000681C
:1001B0001299D5141E48C040214A040A181E48202E
:1001C0000000000004FFFF000020002020002E009F
:1001D00000000000240027002A00000000080002A0
:1001E0000100000304070000000000000000000000
:1001F0000000000000E0FFFFFF03001F00FEFFFF04
:10020000FF3F0000000EC06000FFFFFFFF1F0E3821
:10021000E030300880FFFFFFFF0F0E38E040081489
:100220009FFFFFFFFF5F0000008004148F0FECDBD7
:10023000EF4D4E203CC0041487F7EF9BEF5DC420C8
:1002400042C002148BFBDF9DEF2DC4204280020EC2
:1002500089FBDF5DEF3D44218180010590FBBF5E9E
:10026000EF1D44218180010590F77FDFEE154422C8
:1002700081808104900F7FDFEE0944228140811E3E
:1002800090FF7EDFED1944248140812690FF7DDFC1
:10029000EB0544288140922488FF7DDFEB2D442824
:1002A00081401A1588FF7DDFE72D443042401C1E37
:1002B00084FF7EDFE75D443042401E0584037FDF1C
:1002C000EF4D4E203C401F0582FFFFFFFF1F000047
:1002D0000040008281FFFFFFFFCF00000040C060B0
:1002E00000FFFFFFFFFFFFFFFF43001F00FEFFFFB8
:1002F000FF3F0200004E000000000000000002006E
:10030000007000002A4000000000010000400000D2
:100310002140000000000100002000002B4B9D0D3B
:10032000670702000010000029D5541415051C00B1
:10033000000C000049555D541707E000C0030000A1
:1003400000000000000400FF3F000000000000006B
:10035000000300000000456E633A20001000103CCE
:100360000046604363219851D82A6007B81ACC3FF1
:100370008606427B221B526A2C28FEFF07FFFF0FD6
:10038000A7DA0CBB520F774B0F6F5B0F73DB0CFFC1
:10039000FF0FFEFF0703000F003F00FF00FF01FFFC
:1003A000003F000F000300E7E7E7E7E7E7E7E74381
:1003B0004D445F5245534554415544494F00434DC8
:1003C000445F444F4E455F504C4159494E470043AE
:1003D0004D445F53544152544D41524B5F48495430
:1003E00000434D445F545241434B5F4C4F414445A1
:1003F0004400434D445F53484F575F4552524F525C
:100400003A2000434D445F4F4F53594E433A20002A
:10041000434D445F464F554E445F545241434B4C0D
:10042000454E4754483A2000434D445F50524F4A8E
:100430005F504C415900434D445F50524F4A5F500A
:100440004155534500434D445F43555252454E5428
:100450005F415544494F5345433A2000434D445F63
:10046000464F554E445F4650533A2000434D445F3B
:10047000464F554E445F464D540000000000250095
:1004800028002B0002010204081020408001020411
:10049000081020010204081020000000002300269C
:1004A00000290004040404040404040202020202F9
:1004B00002030303030303120206050606010507F0
:1004C000263E00F32EF531F40000000004B8200DA4
:1004D000A67F987FF0FFFFFFFF32002A50A67F988B
:1004E0007FF0F310EFF8CEAB84C44802A5388C83BC
:1004F000488EC294244341240713140173FC8040A6
:10050000B9A6474BB8456B32E73A82C33A86833A7D
:100510008A43420A04420EC44112A44112A43996ED
:10052000E3211A42129CE107FFE7002B18A67F98EF
:100530007FF0E10668FE9BBEE33FCA00CDFFFBC132
:10054000FF51002C25A67F987FF0FFFFAF2440C409
:100550004B38855BB615A77489877CC6777CC677D0
:1005600078679F11126460012D11A67F987FF0FFBC
:10057000784EE1EF07FFFFF3012E1AA67F987FF078
:10058000FFFFAF2440C4433A8553EB100F01891F8E
:100590007C14002F57A67F98B7A01C44033C3CC492
:1005A0003B3CC43B3CC43B3CC43BBEC33BBEC33BE7
:1005B000BEC33BBEC343BCC343BCC343BCC343BCB9
:1005C000C343BCC343BCC343BCE33BBCE33BBCE34E
:1005D0003B3CC43B3CC43B3CC43B3CC43B3CC43BB9
:1005E0003CC43BC262147EF079003092A67F987FB3
:1005F00030C8F014CDB9A04A9AA868111228318EDB
:1006000027410E07498E06590E06590EE658504BE3
:10061000A21C8BA21CCAA21C8911140992188181E8
:100620001C892118C8811883811C874118C871143E
:1006300085811C865118C8511886811C457118C8BF
:10064000411488811C838118C8211889812041A107
:100650001809A3180AA318CAB2188AC2180BC21C18
:100660000BC2184CA21C0D921C4E821C8F422051B2
:10067000254D93643D58B3253FF879003124A67F7A
:10068000987FD06A7808A7680CE6585015AB92E0BE
:10069000B088E2B002E4F8CEFFFFFF7F3FF82B0006
:1006A000323CA67F987F508A6C8E155154643D97DA
:1006B000B30C0B9320CA7230086334483338882354
:1006C00038C877CE3BBEC3433AC4433A1497FEEBD7
:1006D000D0792749583685BF1FFC74003354A67F54
:1006E000987F30E8E09A2B9AA8C87AB0271998C763
:1006F0004012686010286890EF9C8778878774C8DC
:10070000A658CFE5600EF65C50A778C9877C27F025
:10071000F8CE3CC4111CA4191C84211A8439948479
:10072000410E85D11AECB1228A8230E607BF0E0055
:10073000344BA67F987F106C7C270FE9529CB2AD9A
:1007400034266B6146705C86705C867058C6705447
:1007500006715007715046714C867148877148C6C2
:100760007144C7714007724046723C4772388772C5
:1007700038DEF15F767CE77F3FF803354BA67F9844
:100780007FB00473F03559737CE74F40AA69AA2201
:100790000BBA9CAC5988854192843996A4211AE4FD
:1007A000099EE343BEF3738207618607590AE7583F
:1007B0008C064914255116436132077BAC68AA2088
:1007C0008CF9C18F03003671A67F987FB009D99A42
:1007D0002BA2A8C87A2E87191047418A0759860785
:1007E000690208F14EDFC94386443A84063A02C8DA
:1007F000C91A8DD198A64896054994644114A43924
:1008000014A44192E33992E33992E33992E33992A5
:10081000E33912C43994C33994C33914844196839B
:10082000391844419804499AC4481E0BB2226A926E
:100830002C47537EF0E300374AA67F987FD0B72D30
:10084000FB16CD43BCE33BBCE33B3CC43BBEC33BDC
:10085000BEC343BCC343BCE33B3CC43B3CC43BBE04
:10086000C343BCE33B3CC43B3CC43BBEC343BCE3CF
:100870003B3CC43BBEC343BCE33B3CC43B7EF0C7F4
:1008800000386FA67F987F3008D99C0BA2A8C88239
:10089000AC671116074190065110E65810E6FC317E
:1008A000887238877238087240888144C9804C52F7
:1008B000055D8E1551548410CA831C8883244873A7
:1008C0002CC87234C7723448723C47723C47723C41
:1008D00047723C478238478234489230889228C811
:1008E000A21C0A9339175449131561CB0F7E1D00C2
:1008F000396DA67F987F30E8E01AECB1226A922A1F
:10090000481994073992064990E6588EE6608E059C
:10091000618EE5688EE5700EE5700EE5700EE5708F
:100920000EE5700E05698EE5609005519225411423
:10093000262918466B32077BAE88118E09218EEF6F
:10094000F88CEFCC3BBE031A16E42114E4398C0476
:10095000B21E0BAA26A97AB2E507BF0F003A27A656
:100960007F987FF0BF9600110FE9144EAD433C0411
:10097000247EF0871120E2219DC2A975888780C45A
:100980000F3E0A0000000004FFFF000012020504F1
:100990000506010406152000F918FA19F9000000EF
:1009A000000267200A151CF587FFFF57012A28154A
:1009B0001CF5875112696B0C3284296188421E1024
:1009C000C6AD028D438C08A2C820A9108288192ABE
:1009D0001CF1E147012B18151CF5873C89F4AD0784
:1009E0000479409007842291BE0FBF0B002C15158F
:1009F0001CF587FF5F19B140F30C2C91C429923884
:100A000016002D0E151CF5875F7CE6FBF07F0900B4
:100A10002E10151CF587FFEF11689E05C9875B0036
:100A20002F27151CB50B74440A9248E288248E487F
:100A30004112092491401209249140120924914045
:100A4000120924727CD8063042151C752F2EAD95E4
:100A50004C28891472882986986248318518534831
:100A6000198110428620848C310821630C42881839
:100A7000840AA310720C29C510530C31C590430A87
:100A8000412698B45672E5C3033114151CB527CF1F
:100A900034B4142381B04048A4FFFF3E3C322015FB
:100AA0001C35372E29968A308718820422910649F0
:100AB0002490F62A4817870AE6F7E1340033271511
:100AC0001C352F2E29968A304998126990B4C3504C
:100AD000432DC52AD25040E40C438E110631A59A0D
:100AE000F9F00200342E151CF507624402AB67DCF6
:100AF000D546208C04C286206B0CB2C6206A1092A8
:100B000008216914821E08E581501E088E447A1F50
:100B1000AE033523151C3576C73B24D2C5A5586ACC
:100B2000889472C62192443A330E31E41073C2396C
:100B30002DAD663E3C3633151C752F2EAD954C28D9
:100B4000A81491481C910A4635D49019E594420E98
:100B500065C821861C62C821861CCA90430A494583
:100B600094B45672E5C30B00371F151C3576C78B3E
:100B70002392382215472471442A8E48C5112948EA
:100B8000220549241F1E013838151C35374D29967A
:100B90008A28889472882187187288218810928AFE
:100BA000202B35C448288A108288A1D03004914275
:100BB00010290491520C394618C4946AE6C30339CB
:100BC00033151C352F2EAD954C288914728821873A
:100BD00032E410430E31E410534A396598E3505320
:100BE000269048C511491285A4120C622B35F3E1F9
:100BF00009003A16151CF5876F11689E05C987977D
:100C00000834CF82E4C32D0000000004FFFF000081
:100C10005F00030204040305050E0FFFFD0BFD0B2F
:100C2000FD019E039D050B2005008C142107B18654
:100C3000140745220733C51589252315A78478494C
:100C4000988449344C499844C39484499864002456
:100C500017E77478E1A0449114496192AE491849AC
:100C6000915419C438032519BB843C639445592910
:100C70009C722C877228C7A231CA4A59142E0026AA
:100C800013A8855A6A1446A95C89922C29465912E0
:100C90006D01270631C51303280CE36D55499444B3
:100CA000FD166501290DE36D15599445FD122511B9
:100CB000002A0A55B55795CAD214012B0B778D79A6
:100CC000716D18B2B8062C0742743315052D061342
:100CD000A414032E06218513022F0CB48474A5AC32
:100CE0009495B21A00300CB685384312FAC764489E
:100CF000003108B3865843D43F320DB685384312CD
:100D00008A69D86B3A0C3310B6853843128A696900
:100D10004E45311912003412B785B8A99864512D87
:100D2000099330198634AE00350FB6851887B43A6A
:100D3000C8692A8AC99000360FB685384312AA9529
:100D400045131D932101370EB68518D7300DD330CA
:100D50000DD32200380FB6853843123A2643123A93
:100D60002643023910B6853843123A26839A8A629E
:100D70003224003A07818513A2003B0AA27434751D
:100D8000284914003C0856959892D9003D07369D95
:100D900019E7613E08569518B2C9083F0DB6855847
:100DA000A6514CC37630CD00401DCB7D9D432A4AD1
:100DB000395253122D8AA42C92B2488A949AA2E5F1
:100DC000989A0E1A004116B98499393027719266A3
:100DD00061568D86214A931CD081004211B7851936
:100DE00097703526831426A9711814004313B8850B
:100DF0007A9B25D5811CC8811CC89134D1B4094483
:100E000010B8851A83162A6912FB9A84CAA0014574
:100E10000DB7851907B97958E2E66108460CB78520
:100E20001807B97958E2CE004715B9857B43262AC1
:100E3000B18EE44838E8800E2471A29D02480BB8B8
:100E4000851AB1E7E1107B0E4907B186140F024AFB
:100E50000BB684B7FD2A8AC990004B14B88519696E
:100E6000124659294CD2350AB362942671004C09B6
:100E7000B6861869FF3A0C4D1BBB841C39B403437A
:100E80000E2C69A2A489944552166949A625991881
:100E90008A054E14B8851AAA122AA194499916698E
:100EA00091988889BA0A4F16B9857BA326A5490E61
:100EB000E8800EE8800E2469A4891B00500DB785D8
:100EC000199770350E831277065116B9857BA326C4
:100ED000A5490EE8800E68991825A1A489530052EF
:100EE0000FB8851A87249DADC930A549EC1C531055
:100EF000B7855993B6EA800EE880AC6ED2045415DB
:100F0000B984198F39922339922339922339922344
:100F1000391202550CB8851AB17F4EC26C88005642
:100F200016B9841939A003491AA591A615B33489B5
:100F3000931CC891105720BD841D69AAA662122671
:100F4000599245599245599255B2244CB2244CB20B
:100F5000242DA719005817B984193990A45935C9F7
:100F6000811CC98124CDAA519AE440005915B98445
:100F70001939B02A6956CCD224DE811CC9911C09CA
:100F8000015A0EB785198738ADAA55B53C0C015BDF
:100F900009E36D1443D4FF345C0BB48414599815E1
:100FA000B362565D09E36C1453FFD3105E0A55B566
:100FB00057591225352D5F07186C18070160072255
:100FC000CD155100611087853843648E06454BC2AC
:100FD00044921601620DB6851769CB228D8ED3B26D
:100FE00000630D8685374322AD8D93322400640C57
:100FF000B685B82DA7D171529600650F8685384306
:10100000228DC3A0A692322400660BB484544A16E3
:101010004D599F00670EB66D38A7D1715296745224
:101020008604680BB6851869CB228D3E066908B127
:101030008513CA30086A0AE36B53D5A83F2D006BAD
:1010400010B68517695B12553231C9A25A12066C67
:1010500007B185130F026D1189851B89A448B64C11
:10106000CBB44CCBB44C2B6E0A868518C9228D3E6E
:10107000066F0D86853843228D8E93322400700EC4
:10108000B66D18C9228D8ED3B2A45500710CB66D01
:1010900038A7D1715296B401720A848515C91065BA
:1010A000BD01730B8585374B368EB66401740AA477
:1010B00084345934653D0A750A868517A18F93B229
:1010C000047610878417A99A6451166595304933C0
:1010D00000771089841A59A6655A25EA4B5B318B33
:1010E00000780E8784179A9255D2384DB28A2679A5
:1010F00011B76C17E998645156CA92548D53510434
:101100007A09868417D7B0D7617B0BE56C7552D806
:10111000562D76157C07E16D131F047D0CE56C15CB
:101120006AD85A2B76D2007E09369D3892625200D8
:1011300000000004FFFF00005F000302040402043B
:10114000050B0BFFFE08FE08FE015502BF03F6204B
:101150000500E604210681E3C4252207233B45A2BE
:1011600004231076A2559225D12025C92025591295
:10117000012410A59E55B654946C4BA244A96C1141
:1011800000251188628ED492293910E740A225519A
:101190004901260D86238E16B56951A2259129276E
:1011A0000621BA8400280BA31A551225515B940519
:1011B000290CA31B451665514B9444002A0733366E
:1011C00045D2012B0A55A655180D5218012C07328D
:1011D000DA4CA2002D06132EC5002E0611E34400A2
:1011E0002F0A83E254256A892200300A85A2CD9213
:1011F000F9962C00310782A3CDD207320C85A2CDFF
:10120000928525290B0701330C85A2CD9285911A71
:101210006AC902340E85A25D262551524A062D4C1C
:1012200000350C85A2CD9084E11A6AC902360C857E
:10123000A2CD92894392D99205370B85A2C520662B
:10124000C52CAC01380C85A2CD9269C992D9920502
:10125000390C85A2CD92D99221D492053A0661E348
:1012600044183B0982DA4C0E250A003C0753A75567
:10127000522B3D08346AC5100E013E0853A745564F
:1012800029013F0C84A38D1265512D0722004016C1
:101290009ADEDE20A651A4245249C92225AA448AF6
:1012A00096638306410E87E25D9C26619295062532
:1012B0005503420D85E3C59064DAA064B64101434D
:1012C0000C8623CE90846AC7644800440D8623C6EA
:1012D000106549E82D192200450A85E3C5311CC671
:1012E000E220460A85A3C5311C92B011470C862323
:1012F000CE90846A6D149341480A862346681C0682
:10130000D131490681E3C4414A0984625D6F52A22A
:10131000004B0D85E3452625A5A9122599164C08F5
:1013200084A345D6B7214D10876346BA0DD95251D3
:101330002A52244552014E0F862386B6299112491E
:101340008994689B004F0B8623CE90843E264302EF
:10135000500C85E3C59064DAA0848D005112971F6C
:10136000CE1085499884499844494D1A7420520CEE
:1013700085E3C59064DAA0646E01530C85E3CD92D9
:10138000A9ABA6250B0054098562C520857D0255B1
:101390000A862346E8C7644800560F87E245AA2616
:1013A00059944559254CD20C571089624696699537
:1013B000A82F6DC52CCC2200580D85E345A625B578
:1013C0004A94D4B400590E87E2459A645156099361
:1013D00034AE015A0B85E3C52066C5AC38085B08FE
:1013E000A2DBC4D22F025C0A83E24494456D510013
:1013F0005D08A2DA84D22F035E0A55AE55982551B6
:10140000520B5F06169AC501600622FE4414610C59
:101410006562C51A2D5112454A00620C85A24558D5
:101420003169DAA42800630A64628D1269A5440157
:10143000640A85A265C5B4991425650B64628D1292
:101440000D5B942800660A842295124D5927006787
:101450000C859A8D6933294A982C00680A85A24523
:101460005831696E01690781A244320C6A09A29958
:101470004C96F4A2006B0C846245565212292949FD
:10148000016C0681A2C4416D0E6722C6A24491146C
:1014900049911449056E0965A24562D2DC026F0AC2
:1014A00065A2CD92B9250B00700C859A4562D2B425
:1014B0004951C210710A859A8D6933294A587209B7
:1014C000632245B2444D00730B64628D1225A294D1
:1014D0002800740A83224D942C519300750864628D
:1014E00045E42919760C65A245A625A5240B230001
:1014F000770E672246144995A6A496844904780A73
:1015000065A24596D42A352D790E85594D944449C6
:1015100029C9B430D2007A0A6462C590456D43008F
:101520007B0AA3DA541255B2A82D7C07A1DBC44371
:10153000007D0BA3DA4416D592A825027E0726EE7D
:101540008D640100000004FFFF000000492A1124FF
:101550001FBECFEFD8E0DEBFCDBF14E0A0E0B1E00A
:10156000E8E7FCE602C005900D92A03BB107D9F771
:1015700027E0A0EBB4E001C01D92AC3FB207E1F759
:101580001AE0C7EADAE004C02197FE010E94153391
:10159000C63AD107C9F70E94B92B0C943A360C947D
:1015A0000000662329F06A3019F0862F90E0089534
:1015B0008FEF9FEF0895CF92DF92EF92FF920F93FC
:1015C0001F93CF93DF93EC01842F8770E1E0F0E06D
:1015D000082E01C0EE0F0A94EAF73E2F7E0199E72C
:1015E000E90EF11CD7019C9110E0923018F41E2FE7
:1015F000913029F150E0487FE8ADF9ADC880D9803D
:10160000D60150969C91949F6001959FD00C112417
:101610006C0D7D2D711DDF01A60FB71F011115C0C7
:101620008C91812B83278D932150D1F7DF91CF911E
:101630001F910F91FF90EF90DF90CF90089530E0D1
:10164000D9CF110F330F222389F39C91912B93272C
:101650009C938F5F877021508111F3CF9CADA90FB0
:10166000B11DF7019081923028F4913009F031E0FA
:1016700011E0E9CF31E0E7CF80E0089580E0089500
:101680008091C8079091C907892BA1F18091E60745
:101690008093F2074091E7074093F3079091F10799
:1016A000992341F1913069F49091E807891714F476
:1016B0009093F2078091E9078417E4F48093F3078D
:1016C00008953091E3072091E507082E000C990B4F
:1016D000622F022E000C770B630F711D37FD7A9578
:1016E000861797071CF4320F3093F207241714F46F
:1016F0002093F30708959B01DC011896ED91FC916E
:1017000041E067E109940895E0919C05F0919D0501
:10171000309729F010929705109296050994089534
:10172000CF93DF93AC01E0919A05F0919B05309740
:10173000F1F090919905809198059817C0F090E08C
:10174000292F30E02617370754F4D901A750BB4F93
:10175000240F351FE90128812C939F5FF1CF109250
:10176000990560939805CB01DF91CF910994DF91A2
:10177000CF910895AF92BF92CF92DF92EF92FF92F6
:101780000F931F93CF93DF936C017B018B01040FA9
:10179000151FEB015E01AE18BF08C017D10759F045
:1017A0006991D601ED91FC910190F081E02DC60187
:1017B0000995892B79F7C501DF91CF911F910F9181
:1017C000FF90EF90DF90CF90BF90AF900895FC0115
:1017D000538D448D252F30E0842F90E0821B930B96
:1017E000541710F0CF96089501970895FC01918D3C
:1017F000828D981761F0A28DAE0FBF2FB11D5D963F
:101800008C91928D9F5F9F73928F90E008958FEFE0
:101810009FEF0895FC01918D828D981731F0828D94
:10182000E80FF11D858D90E008958FEF9FEF0895EB
:10183000FC01918D228D892F90E0805C9F4F821B4F
:1018400091098F73992708958CE396E00E94180CF4
:1018500021E0892B09F420E0822F089580E090E0B8
:10186000892B29F00E94240C81110C94000008950A
:10187000FC01A48DA80FB92FB11DA35ABF4F2C9105
:10188000848D90E001968F739927848FA689B789FC
:101890002C93A089B1898C91837080648C93938DF3
:1018A000848D981306C00288F389E02D80818F7D96
:1018B00080830895EF92FF920F931F93CF93DF934E
:1018C000EC0181E0888F9B8D8C8D98131AC0E8897C
:1018D000F989808185FF15C09FB7F894EE89FF894B
:1018E0006083E889F98980818370806480839FBFE9
:1018F00081E090E0DF91CF911F910F91FF90EF90E9
:101900000895F62E0B8D10E00F5F1F4F0F731127F8
:10191000E02E8C8D8E110CC00FB607FCFACFE88933
:10192000F989808185FFF5CFCE010E94380CF1CF77
:10193000EB8DEC0FFD2FF11DE35AFF4FF0829FB7A7
:10194000F8940B8FEA89FB8980818062CFCF0F9357
:101950001F93CF93DF938C01D0E0C0E0F801EC0F30
:10196000FD1F6491662341F08CE396E00E945A0CBF
:10197000892B11F02196F2CFCE01DF91CF911F91EB
:101980000F910895CF93DF93EC01888D8823B9F0F0
:10199000AA89BB89E889F9898C9185FD03C080817A
:1019A00086FD0DC00FB607FCF7CF8C9185FFF2CFF7
:1019B000808185FFEDCFCE010E94380CE9CFDF9109
:1019C000CF910895833081F028F4813099F08230EE
:1019D000A9F008958730A9F08830C9F08430B1F4B7
:1019E000809180008F7D03C0809180008F778093ED
:1019F0008000089584B58F7784BD089584B58F7D68
:101A0000FBCF8091B0008F778093B00008958091D4
:101A1000B0008F7DF9CFCF93DF93282F30E0F9010D
:101A2000E652FE4F8491F901EB57FB4FD491F90137
:101A3000ED55FB4FC491CC23A1F081110E94E20C23
:101A4000EC2FF0E0EE0FFF1FE756FB4FA591B4918E
:101A5000EC91ED2381E090E009F480E0DF91CF91FB
:101A6000089580E090E0FACF1F93CF93DF93282F63
:101A700030E0F901E652FE4F8491F901EB57FB4F3C
:101A8000D491F901ED55FB4FC491CC23A9F0162F49
:101A900081110E94E20CEC2FF0E0EE0FFF1FE658E0
:101AA000FB4FA591B4918FB7F894EC91111108C038
:101AB000D095DE23DC938FBFDF91CF911F910895E6
:101AC000DE2BF8CFCF93DF9390E0FC01EB57FB4F79
:101AD00024918D559B4FFC0184918823C9F090E09F
:101AE000880F991FFC01E053FE4FA591B491FC01B2
:101AF000E658FB4FC591D49161110DC09FB7F89482
:101B00008C91209582238C938881282328839FBFE2
:101B1000DF91CF910895623051F49FB7F8943C91D2
:101B2000822F809583238C93E8812E2BEFCF8FB764
:101B3000F894EC912E2B2C938FBFEACF4F925F92AB
:101B40006F927F928F929F92AF92BF92CF92DF92CD
:101B5000EF92FF920F931F93CF938C014A015B0189
:101B600080910D01853099F08F3F09F451C0CF91DC
:101B70001F910F91FF90EF90DF90CF90BF90AF90AB
:101B80009F908F907F906F905F904F900895E4E8C2
:101B9000F4E0C491C7FDEBCF61E085E00E94620DE7
:101BA000CC2319F0C23009F0E7C0712C612C60E43D
:101BB00072E48FE090E0A30198010E94F63269017F
:101BC0007A0181E0C81AD108E108F108C23009F0B1
:101BD0008EC092E08FEFC816D104E104F10489F0C1
:101BE00084F060E970ED83E090E0A30198010E9429
:101BF000F63269017A0181E0C81AD108E108F108DA
:101C000093E08091B100887F892B8093B10092C0CE
:101C100085E080930D01E4E8F4E0C491CF3F09F43E
:101C2000A6CFC13021F150F0C23009F43EC0C7FD4B
:101C30009ECF61E085E00E94620DB4CF14BC15BC5C
:101C400084B5826084BD85B5816085BDE8EAF4E035
:101C5000E491F0E0EE0FFF1FE658FB4F8591949161
:101C6000EAE8F4E0E491E0932F06C0E095CF10920B
:101C700080001092810080918100886080938100B3
:101C800080918100816080938100E8EAF4E0E49132
:101C9000F0E0EE0FFF1FE658FB4F85919491EAE8C4
:101CA000F4E0E491E0932E0677CF1092B00010920A
:101CB000B1008091B00082608093B0008091B1004B
:101CC00081608093B100E8EAF4E0E491F0E0EE0F87
:101CD000FF1FE658FB4F8591949190932D068093BA
:101CE0002C06EAE8F4E0E491E0932B0655CF8FEF61
:101CF000C816D104E104F104A9F0A4F068E478EE78
:101D000081E090E0A30198010E94F63269017A0116
:101D100081E0C81AD108E108F10894E0C11171CF3F
:101D200093E003C092E0C1116CCF85B5887F892B09
:101D300085BDC0E0D801AA0FBB1FA50194010E9478
:101D40001B3328EE33E040E050E00E94D432C13033
:101D500061F1C230E1F1C1110ACFC7BC209338064E
:101D60003093390640933A0650933B0680916E00BB
:101D7000826080936E00FBCE980150E040E060E00E
:101D800072E18AE790E00E94F63269017A0181E00F
:101D9000C81AD108E108F108C13061F680918100CC
:101DA000887F816080938100C5CFD0928900C092E6
:101DB00088002093340630933506409336065093BE
:101DC000370680916F00826080936F00D0CEC09202
:101DD000B30020933006309331064093320650937F
:101DE000330680917000826080937000C0CE3FB750
:101DF000F89480918E0590918F05A0919005B091F7
:101E0000910526B5A89B05C02F3F19F00196A11D8D
:101E1000B11D3FBFBA2FA92F982F8827BC01CD0134
:101E2000620F711D811D911D42E0660F771F881F93
:101E3000991F4A95D1F708958F929F92AF92BF92C2
:101E4000CF92DF92EF92FF926B017C010E94F70E1E
:101E50004B015C01C114D104E104F104B9F00E940A
:101E6000F70E681979098A099B09683E7340810554
:101E7000910580F321E0C21AD108E108F10888EE4B
:101E8000880E83E0981EA11CB11CE4CFFF90EF9058
:101E9000DF90CF90BF90AF909F908F9008952FB715
:101EA000F89460918A0570918B0580918C059091D2
:101EB0008D052FBF0895089520913F05260F3327E4
:101EC000331F21323105ECF420916305FC0190E0D1
:101ED00080E0243069F082E00895A0913F052191CF
:101EE000AC01415E5A4FA40FB52FB11D2C93019642
:101EF000861798F380913F05680F60933F0580E057
:101F0000089581E008951092630581E0809365054E
:101F10001092640561E082E10E94340D61E083E18A
:101F20000E94340DE9EBF0E080818E7F8083808118
:101F30008D7F808388E48093B80085E48093BC0023
:101F40000895CF93DF9391E090931E058823B9F015
:101F5000C091B800D091BA008091BC008A7B809378
:101F6000BC0060E082E10E94340D60E083E10E94E9
:101F7000340D0E94830FD093BA00C093B800DF9154
:101F8000CF9108950895E091990580919805E817FB
:101F900030F4F0E0E750FB4F808190E008958FEF40
:101FA0009FEF089590919905809198052FEF3FEF4D
:101FB000981748F4E92FF0E0E750FB4F208130E01C
:101FC0009F5F90939905C90108958091980590911C
:101FD0009905891B990B0895CF92DF92EF92FF929A
:101FE0000F931F93CF93DF937C01CB018A01209144
:101FF000F804222389F0EB016B01C40ED51ECC1529
:10200000DD0569F06991D701ED91FC910190F081B6
:10201000E02DC7010995F3CF642F0E945C0FC80122
:10202000DF91CF911F910F91FF90EF90DF90CF90B4
:102030000895CF93DF931F92CDB7DEB769832091C8
:10204000F8042223F9F020919605203258F021E07F
:1020500030E0FC013383228390E080E00F90DF9139
:10206000CF91089580919705E82FF0E0E852FB4F5B
:10207000998190838F5F809397058093960581E087
:1020800090E0ECCF61E0CE0101960E945C0FF7CFAB
:10209000972F882381F0E62FF72F21E0319133230A
:1020A00041F06E2F9F2F3A30C9F7821721F02F5F32
:1020B000F5CF60E090E0862F0895009749F0FC018D
:1020C00081E09191992329F09A30D9F78F5FF9CF68
:1020D00080E00895DC011A96ED91FC9130E020E05B
:1020E0000994DC011696ED91FC9130E020E040E08F
:1020F00069E10994DC011696ED91FC9130E020E055
:1021000040E068E109949A01DC011696ED91FC919A
:10211000462F67E10994EF92FF920F931F93CF939D
:10212000DF931F92CDB7DEB77C018B01D8016C9194
:10213000673129F150F46531A0F40F90DF91CF9110
:102140001F910F91FF90EF9008956A3118F16E3F43
:10215000A1F7F8014181498369E2C7010E946A1031
:102160000BC0F80141814983D7011696ED91FC918E
:1021700030E020E0C70109950E5F1F4FD7CFF8016F
:1021800081818983AE014F5F5F4F61E0C7010E948B
:102190008310F2CF0F5F1F4FD7011696ED91FC9180
:1021A00030E020E040E0C7010995C0CF462FDC01B8
:1021B0001696ED91FC9130E020E066E10994462FFF
:1021C000DC011696ED91FC9130E020E065E1099488
:1021D000EF92FF920F931F93CF93DF93EC01042FA5
:1021E00079016D3009F446C050F46B30C9F16930A3
:1021F00009F49FC06A3009F465C080E05CC06E30AD
:1022000009F44BC06F3099F70E947A10F7011381DF
:10221000110F110F110F6C89160F60E4CE010E948F
:10222000DF10612F62956F706061CE010E94DF1038
:10223000612F6F70CE010E94D610F7016481606B30
:10224000CE010E94D610F701408151816281660F54
:10225000660F660FCE010E9483100150A1F727C0C0
:1022600068E271E0442311F063E271E0CE010E9464
:102270008B1020C0411109C06CE171E00E948B10ED
:10228000E881F98182898C8B15C065E171E00E943B
:102290008B10E881F9818389F6CF0E947A1061E87A
:1022A000CE010E94DF10602FCE010E94D610CE0119
:1022B0000E94711081E0DF91CF911F910F91FF90EB
:1022C000EF900895EA85FB8530E020E040E068E289
:1022D000CE010995EE81FF8130E020E040E064E12D
:1022E000CE01099541E06BE4CE010E946A10E881BD
:1022F000F981448169E2CE010E946A1040E06BE4FA
:10230000CE010E946A10E881F981448169E2CE0120
:102310000E946A1041E06BE4CE010E946A10E881DD
:10232000F981458169E2CE010E946A106DE271E097
:102330009DCF82E691E09983888382E0A4CFCF93FA
:10234000DF931F92CDB7DEB76983BE016F5F7F4F0A
:102350000E947B0B0F90DF91CF910895462FDC01F7
:102360001896ED91FC9130E020E060E20994EF9244
:10237000FF920F931F93CF93DF938C01C62FD42F1F
:102380007901673130F46531B8F4643131F080E0BF
:102390001BC0673101F16A31D0F7D8011896ED9171
:1023A000FC9197014D2F6C2FC801DF91CF911F91A8
:1023B0000F91FF90EF90099460E00E94AE116D2F95
:1023C000C8010E949F1181E0DF91CF911F910F9171
:1023D000FF90EF90089561E00E94AE11DECFFC0106
:1023E0006623D9F16A30C9F1808D811125C06C3F17
:1023F00048F085E0808F617070E0738B628B2EEF08
:102400003FEF29C0683F20F084E0808F6370F4CFF5
:10241000603F20F083E0808F6770EECF603E20F059
:1024200082E0808F6F70E8CF262F30E0603C98F01C
:1024300081E0808F6F71E0CF8150808F2289338956
:1024400096E0220F331F9A95E1F76F73262B338B9B
:10245000228B8111D4CFC90108952FEF3FEFFBCF1D
:102460000F93DC01DE963C91DE97431BD496ED91F1
:10247000FC9109950F910895CF93DF93FC01A08102
:10248000B18182AD982F990F990F990F95AF509602
:102490009C915097903208F09FE1990F990F990FF6
:1024A00094AF23AD922F990F990F990F96AF519634
:1024B0003C915197682F620F7727771F36171706C1
:1024C00014F4832F821B97AFEF01C05CDF4F880F9E
:1024D000880F880F890F8883219680EF8883549610
:1024E0008D919C915597813F910508F48883EE5B0F
:1024F000FF4F56968C918083DF91CF9108950F9373
:10250000FC01EB5BFF4F308131965081451730F471
:10251000301738F0041728F080E013C03017D0F3DC
:10252000FBCFFC01ED5BFF4F30818C5B9F4FFC01CB
:102530008081681740F481E0321718F081E0261797
:1025400058F70F9108953217C8F3E6CF2F923F92B4
:102550004F925F926F927F928F929F92AF92BF92B3
:10256000CF92DF92EF92FF920F931F93CF93DF935F
:10257000EC014C0183E4880E911CF4011082329727
:1025800020805E01F4E4AF0EB11CF50120823FAC67
:102590006E01F5E4CF0ED11CF601308235974080F4
:1025A0007E01F6E4EF0EF11CF701408234961081B3
:1025B000329760803196708032975080012F262D9F
:1025C000472D652DCE010E947F12CD58DF4F81111E
:1025D00014C01882DF91CF911F910F91FF90EF905F
:1025E000DF90CF90BF90AF909F908F907F906F9033
:1025F0005F904F903F902F90089581E08883552001
:1026000011F0F4015082621410F4F5016082371465
:1026100010F4F60170821415E8F6F7011083DACF92
:1026200087589F4FFC01608308950F93DC01802F32
:10263000FD01ED58FF4F90819923E9F12223D9F153
:10264000223020F0023079F56F5F621B082F017095
:10265000FD0180FD32C0EB5BFF4F8081481758F1D0
:1026600031968081481738F5329790813197808173
:10267000260F2617F0F46917D8F42FEF290F8217C9
:10268000D0F4681708F4682F291708F4922F961BC6
:10269000D696ED91FC91D7970480F581E02D292FF6
:1026A000CD01099508C0033089F64F5F421BCECF9C
:1026B000682F691720F30F910895ED5BFF4F80811C
:1026C0006817C8F3319680816817A8F73296908111
:1026D00031978081240F241778F4491760F42FEF85
:1026E000290F821740F7481708F4482F291708F4D4
:1026F000922F941BCDCF482F4917E8F6F2CF5F9267
:102700006F927F928F929F92AF92BF92CF92DF9201
:10271000EF92FF920F931F93CF93DF93A82EC62FB4
:10272000D42F6801B62EB20E742E780E0B2D272DE5
:10273000462F682F8DE797E00E947F128823B1F122
:10274000D95FD695D695D695ED2EF12C5524539478
:102750005C0E052D272D4C2F6A2D8DE797E00E94EA
:102760007F128823F1F06090F607DA2D460111E020
:10277000F4018491812351F16092F60700E021E099
:102780004C2F6D2F8DE797E00E941513DF5F110F1F
:1027900021F4FFEF8F1A9F0A11E07D12E9CF6092BA
:1027A000F607CE0CDF1CC52DB510D0CFDF91CF9131
:1027B0001F910F91FF90EF90DF90CF90BF90AF905F
:1027C0009F908F907F906F905F9008958091F50714
:1027D0008111DCCF81E0611080E08093F607CECFDD
:1027E000213039F020F0223031F0840F0895860F27
:1027F0000895841B0895861B0895213039F020F038
:10280000223031F0861B0895840F0895860F0895B5
:10281000841B08955F926F927F928F929F92AF92E6
:10282000BF92CF92DF92EF92FF920F931F93CF93BD
:10283000DF935C01162F642EEC01C15BDF4FDC805F
:10284000ED804C0189E7880E911CFE80FD18C12E99
:10285000F11608F4CF2C5B800C85202F4E2D6D2DAA
:102860008A810E94F013782E202F4E2D6D2D852DFC
:102870000E94FD13482F662071F08A85F401808341
:102880002C2D672DC5010E9415131F1548F01F1927
:10289000E394D12CDACF89858111F7CF8B85EECFE8
:1028A0001D0D1C83ED82DF91CF911F910F91FF9041
:1028B000EF90DF90CF90BF90AF909F908F907F90E0
:1028C0006F905F900895DC0118964C911897ED91E8
:1028D000FC911197249130E0042E02C03595279584
:1028E0000A94E2F7842F860F883068F031961196AB
:1028F000FC93EE93E49198E0941B01C0EE0F9A953F
:10290000EAF72E2B885018968C938FEF9FEF01C01B
:10291000880F6A95EAF78095822308950F931F9395
:10292000CF93DF938C01EC01C15BDF4F7983688328
:102930001886FC01E05AFF4F6081CE010E946314AB
:102940008E83F801EF59FF4F6081CE010E9463141E
:102950008F83F801E758FF4F90819A8781E09111AA
:1029600080E08B87DF91CF911F910F910895CF93D6
:10297000C62F0E946314C15021E030E001C0220F35
:10298000CA95EAF7821BCF910895FC01E60FF11D6D
:10299000849190E0982F88273196E4918E0F911DB5
:1029A0000895CF93DF932091C8073091C907281766
:1029B000390709F474C0EC019093C9078093C807E4
:1029C000FC0184918093D9073196E491E093DA0772
:1029D000FE013296E491E093DB07FE013396E49129
:1029E000E093DC07FE013496E491E093DD07FE01FD
:1029F0003596E491E093DE07FE013696E491E0938C
:102A0000DF07FE013796E491E093E007FE01389678
:102A1000E491E093E107FE013996E491E093E20747
:102A2000FE013A96E491E093E307FE013B96E491C0
:102A3000E093E407FE013C96E491E093E507FE0194
:102A40003D96E491E093E607FE013E96E491E09323
:102A5000E707FE013F96E491E093E807FE017096D8
:102A6000E491E093E90761E1CE010E94C5149093DF
:102A7000EB078093EA0763E1CE010E94C5149093AF
:102A8000ED078093EC0765E1CE010E94C514909399
:102A9000EF078093EE07DF91CF910C94400BDF910D
:102AA000CF910895EF92FF920F931F93CF93DF93EF
:102AB000FC01E55BFF4F20813181295E3F4F6F3F75
:102AC000710509F048F561367105D8F081599F4FBD
:102AD000FC0180819181280F391FC9010196FC01F9
:102AE0004491442309F447C0F9014491461717065D
:102AF00071F40196DF91CF911F910F91FF90EF90AC
:102B000008956134710548F383599F4FE1CFFC016B
:102B10008491280F311DE1CF8B01FC01EF58FF4F4D
:102B2000C081D181C20FD31F7E0160E0C7010E9426
:102B3000C514C80FD91F62E0C7010E94C514F4E094
:102B4000EF0EF11C8017910780F3FE01849190E055
:102B5000982F88273196E4918E2B009761F0081703
:102B6000190719F4CE010396C5CFFE013296E49100
:102B7000CE0FD11DEACF90E080E0BCCF2F923F92E4
:102B80004F925F926F927F928F929F92AF92BF927D
:102B9000CF92DF92EF92FF920F931F93CF93DF9329
:102BA00000D01F92CDB7DEB79B838A836C0125E5E9
:102BB000C20ED11CD6011C92FC01108E8B0120ECA0
:102BC000222E1982312C5C01F7E7AF0EB11C7C017B
:102BD0002FE4E20EF11C2C0132E6430E511C3C01A5
:102BE00083E6680E711C8A809B8094E6890E911C96
:102BF000D8016D918D01AA81BB811296ED91FC9156
:102C00001397CD0109958F3F980759F18E3FEFEF4C
:102C10009E0771F3BC018A819B810E945215009727
:102C2000F1F0BC018A819B810E948E14D2016C91CB
:102C3000C7010E94B714F5018083D3016C91C701CD
:102C40000E94B714F4016081C7010E94B714898300
:102C5000F0EC2F1202C0D5012C90380EC9CF80E0C5
:102C6000F6CFF6018081882369F02A813B812958BB
:102C70003F4FD9019C91890F380EB9813B1A12142C
:102C80000CF4320C832D0F900F900F90DF91CF91A9
:102C90001F910F91FF90EF90DF90CF90BF90AF907A
:102CA0009F908F907F906F905F904F903F902F906C
:102CB00008958F929F92AF92BF92CF92DF92EF9240
:102CC000FF920F931F93CF93DF93EC01062F142FE6
:102CD0007901FC01E55AFF4F8081813009F46CC015
:102CE00008F460C0823009F471C0833009F478C000
:102CF000FE01EF5AFF4F008331961083B701CE01DA
:102D00000E945215009709F4D5C07E012FE4E20E0F
:102D1000F11CBC01CE010E948E14FE01EA5AFF4F45
:102D2000C0803C966081C7010E94B714982EFE01B6
:102D3000ED59FF4F6081C7010E94B714B82EFE0104
:102D4000EC59FF4F6081C7010E94B714A82EF7010C
:102D5000068110160CF086C0D484BC0CB1942D2DC5
:102D60004B2D692D82810E94F013182FF701828369
:102D70002D2D4B2D692D83810E94FD13482FF701C6
:102D80008383F1E0DF1609F47BC0DF1698F122E0BF
:102D9000D21609F47BC083E0D81609F482C0042F50
:102DA000212F2CC0FE01E35BFF4F0190F081E02D4D
:102DB000CE010995180F9CCFFE01E35BFF4F0190F8
:102DC000F081E02DCE010995081B92CFFE01E35B57
:102DD000FF4F0190F081E02DCE010995181B88CF9F
:102DE000FE01E35BFF4F0190F081E02DCE010995DC
:102DF000080F7ECF202F210F0C2D080F612FCE0141
:102E00000E947F12882371F1F701148215828E01CE
:102E1000025A1F4F4E01FFE58F0E911CF801608191
:102E2000C7010E946314B82EF4016081C7010E949B
:102E30006314D82E40E06B2DCE010E940A1441E0AD
:102E40006D2DCE010E940A1461E0C7010E94631437
:102E50008111F0CFF70185818C1504F3C758DF4F3E
:102E6000828588838A2DDF91CF911F910F91FF90EA
:102E7000EF90DF90CF90BF90AF909F908F9008958C
:102E8000DC1821E0210F080F1D0DB8CF81E0982F2D
:102E9000901B21E0210F8C1901E0040F480F190F3E
:102EA000ADCF2C2D210F842F801B01E0040F41E0BA
:102EB000480FA4CF80E0D7CFAF92BF92DF92EF92BE
:102EC000FF920F931F93CF93DF93EC01162F042FE4
:102ED000188E7901D12C5C012BE5A20EB11CF701F3
:102EE00061917F01EA81FB81CE0109958F3F9807AF
:102EF000E9F08E3F2FEF920791F39C01402F612F55
:102F0000CE010E945916F5019081913049F030F0C0
:102F1000923041F0933041F0D80EE1CF180FFCCF42
:102F2000080FFACF181BF8CF081BF6CF8D2DDF91B5
:102F3000CF911F910F91FF90EF90DF90BF90AF90D6
:102F400008959A0141ED5AE05093800740937F071E
:102F5000462F682F8DE797E00C945C172F923F92D5
:102F60004F925F926F927F928F929F92AF92BF9299
:102F7000CF92DF92EF92FF920F931F93CF93DF9345
:102F800000D000D01F92CDB7DEB79D838C83D62EA4
:102F9000642EF22E4801FC01E55AFF4F10823E9745
:102FA0000190F081E02D0995680E8FEE91E1EC81A2
:102FB000FD8193838283B801CF010E94BE15582EF4
:102FC000A12C8F1520F4AF2CA81AA6945F2CEC81AD
:102FD000FD81EB58FF4FF080162D1F19EC81FD810C
:102FE000EA58FF4F8081F81A61E08C819D810E9430
:102FF0001013CC2071F0712E7F0C072D252D2D0D77
:10300000412F6D2D8C819D810E947F12B12E8111E7
:1030100055C0BB24B394BD0CB50CF12FFE19F98338
:103020008FEF8D0D811B8A83852D8F198E5F8B838A
:103030007F2C7D18710E7518ED2CE094EF0CE10ECD
:10304000E518E9811E133DC060E0C11001C061E0D8
:103050008C819D810E9410138FEE91E1EC81FD81A6
:10306000938382836A2D6D0D9401462DCF010E94BA
:103070005C1761E08C819D810F900F900F900F90F5
:103080000F90DF91CF911F910F91FF90EF90DF9004
:10309000CF90BF90AF909F908F907F906F905F90F8
:1030A0004F903F902F900C94101300E0252D4B2D46
:1030B0006D2D8C819D810E941513B3947B10F5CFEB
:1030C000A8CF5A80510E44244A94410E2B802F0CD5
:1030D00082E0382E3F0C072D0B0D2B2D442D652D36
:1030E0008C819D810E947F12882339F100E0222D7E
:1030F000442D652D8C819D810E94151381E08315DF
:10310000E0F4FF2091F001E02F2D412F652D8C81FF
:103110009D810E9415132F2D412F6FEF6B0D8C8118
:103120009D810E9415131E2D1B0D00E0222D412FA5
:10313000652D8C819D810E941513B394F32C142D61
:1031400080CF7F928F929F92AF92BF92CF92DF9269
:10315000EF92FF920F931F93CF93DF934C01D62FE3
:10316000742EF22E5801C8010E945D10D82EC0E0C6
:10317000DC1211C0DF9C802D1124DF91CF911F91B3
:103180000F91FF90EF90DF90CF90BF90AF909F9006
:103190008F907F900895B5018C2F0E944810C12C0C
:1031A000E12C8C01272D4D2F60E0C4010E94AE1749
:1031B000DF0DCF5FDDCFCF92EF920F931F93CF93B1
:1031C000DF93D62FC091F207CF5F9091F307C91B11
:1031D000EE24E3948413E12CB901842F0E9448105B
:1031E000009711F482EB91E02091BE072250CE2C83
:1031F0008C014D2F61E08DE797E00E94AE178C2F78
:10320000DF91CF911F910F91EF90CF900895CF93C1
:10321000DF93EC016BAFEEA9FFA90190F081E02DE7
:103220000995EEA9FFA90280F381E02DCE01DF917F
:10323000CF910994AF92BF92CF92DF92EF92FF921B
:103240000F931F93CF93DF9300D000D01F92CDB781
:10325000DEB78C01DC01DA96AC90DA97DB96EC9065
:10326000DB97ED91FC91B188FE2CD12CC12CD801BB
:10327000ED91FC9111978089D8962D913C911C82FB
:10328000FD828B83B8E08B9FC00111248C9DA0012F
:103290008D9D500D9C9D500D1124240F351F3A8398
:1032A0002983D8011496ED91FC919E012F5F3F4F29
:1032B00041E06FE0C8010995F3948F2D8E198A15AE
:1032C00028F4BFEFCB1ADB0AFB1488F20F900F90A3
:1032D0000F900F900F90DF91CF911F910F91FF9062
:1032E000EF90DF90CF90BF90AF9008950F931F9312
:1032F000CF93DF938C01C62F642FCC32E8F4CA320F
:1033000008F041C0C83271F1C93209F442C080E00E
:10331000C034D0F1CF73F801EC0FF11D868D8F3FD3
:1033200091F1C031E0F00E940B0D21E0892B09F4EE
:1033300020E0F801218F27C0CD3289F140F384EBE2
:103340008C0F823020F7CF73C00FD12FD11D8E8DFF
:10335000411133C061E00E94620D60E08E8D0E94D9
:10336000340D11C0025E1F4FD0E0F80181918F0132
:103370008F3F31F061E0D03108F062E00E94620DD1
:10338000DF5FD63191F781E0DF91CF911F910F91EF
:10339000089570E090E080E00E941C0FF4CF85E07B
:1033A00090E0433010F082E090E0880F991F880F82
:1033B000991F05970197F1F7E6CF62E00E94620D31
:1033C000E2CF43E050E060E070E088E998E00C94E0
:1033D0009E0D059708F189ED96E00E94D20F80932B
:1033E000250689ED96E00E94D20F8093210689ED93
:1033F00096E00E94D20F8093220689ED96E00E940B
:10340000D20F8093230689ED96E00E94D20F80931D
:10341000240681E08093260608958F929F92AF92B2
:10342000BF92CF92DF92EF92FF920F931F93CF93B1
:10343000DF9300D000D01F92CDB7DEB789834A83D7
:103440005B836C837D8381E08093F80488E08093C4
:10345000D404109297051092960541E050E0BE0109
:103460006F5F7F4F89ED96E00E94EC0F44E050E0E3
:10347000BE016E5F7F4F89ED96E00E94EC0F0091D8
:103480009605013208F094C01091D4040E94F70E02
:103490006B017C0180916305811165C082E080939E
:1034A000630581E0809365058FEF8093620510923C
:1034B000870500938605A8EDB4E0E6E6F5E080E038
:1034C000081394C01092880580918805110F182B5D
:1034D0001093880580916405813009F08BC01092AB
:1034E00064050E94F70E6B017C0180918805809332
:1034F000BB0080911A0590911B05A0911C05B0910D
:103500001D05892B8A2B8B2B99F00E94F70E0091B9
:103510001A0510911B0520911C0530911D056C1991
:103520007D098E099F090617170728073907E0F15B
:103530008091BC0083FDD9CF85EC8093BC000E94B4
:10354000F70E6B017C0180916305823009F454C051
:10355000809162058F3F61F180916205803241F177
:103560008091620525C080911A0590911B05A0915C
:103570001C05B0911D05892B8A2B8B2B09F48ACF52
:103580000E94F70E80901A0590901B05A0901C05D4
:10359000B0901D056C197D098E099F098616970646
:1035A000A806B90608F076CF809119050E94A10FF0
:1035B00010929705109296051092F80464E170E05D
:1035C00080E090E00E941C0F0F900F900F900F90E2
:1035D0000F90DF91CF911F910F91FF90EF90DF90AF
:1035E000CF90BF90AF909F908F9008959D919193B1
:1035F0008F5F66CF85EEA1CF80911A0590911B0554
:10360000A0911C05B0911D05892B8A2B8B2B09F4E9
:103610009ACF0E94F70E00911A0510911B05209178
:103620001C0530911D056C197D098E099F0906172F
:1036300017072807390708F086CFB6CF84E00E9425
:103640000B0D892BD9F30895DC01ED91FD9180815B
:10365000ED91FD919081ED91FD916C9163708E23C0
:1036600009F064609F2309F06860E1E4FBE1E60F84
:10367000F11D659565956D936D917D918D919D91F0
:10368000099423C01AC012C016C010C01EC009C0C1
:1036900014C013C006C019C009C00DC007C00DC0BA
:1036A00014C062507040804090400BC06150704028
:1036B0008040904006C06E5F01C06F5F7F4F8F4FAC
:1036C0009F4F9E938E937E936E9308958091E5060F
:1036D0009091E6060C94241B8091E7069091E806F1
:1036E0000C94241B80917807823078F4F8948DE64E
:1036F00097E00E94241B6091740770917507809178
:1037000076079091770778940895F894F4CFCF9244
:10371000DF92EF92FF92CF93DF930E94721B6B01B7
:103720007C01F594E794D794C79484E00E940B0D34
:1037300020910B0130910C01C216D30674F40E9443
:10374000E119D0920C01C0920B0184E5DF91CF9179
:10375000FF90EF90DF90CF9008952C153D0544F435
:103760000E94E119D0920C01C0920B0185E5EECFC9
:10377000892B81F445E050E060E070E080EA9FE052
:103780000E949E0D62E370E080E090E00E941C0FBA
:1037900080E5DCCF80E0DACFCF92DF92EF92FF922C
:1037A0000F931F93CF93DF936C01EB017B01E40E2A
:1037B000F51E10E000E0CE15DF0561F06991D6013D
:1037C000ED91FC910190F081E02DC6010995080F63
:1037D000191FF1CFC801DF91CF911F910F91FF9079
:1037E000EF90DF90CF900895CF92DF92EF92FF920B
:1037F0000F931F93CF93DF93EC016C0124E0C20E73
:10380000D11CFC01E158FF4F0190F081E02DC60171
:1038100009958E3FEFEF9E07C8F48E010E571F4F9C
:103820007E01F1E8EF0EF11C9C01F8014081F701E7
:103830006081C6010E945916C15ADF4F98819130AC
:10384000A9F078F09230A1F09330B9F081E090E0E7
:10385000DF91CF911F910F91FF90EF90DF90CF906C
:103860000895F7019081890F8083F0CFF801FACF96
:10387000F7019081981B892FF7CFF801FACF0895AF
:1038800090E080E008950C94A632FB0101900020A6
:10389000E9F73197AF01461B570BDC01ED91FC9125
:1038A0000280F381E02D0994CF93DF930E94A70C4F
:1038B000EC0160EB71E08CE396E00E94451C8C0FFC
:1038C0009D1FDF91CF9108958F929F92AF92BF92EB
:1038D000EF92FF920F931F93CF93DF93CDB7DEB795
:1038E000A1970FB6F894DEBF0FBECDBF7C01FA01E1
:1038F000CB0119A2223008F42AE08E010F5D1F4F80
:10390000822E912CB12CA12CBF01A50194010E9403
:10391000D432F901CA016A300CF5605DD8016E93AA
:103920008D01232B242B252B79F790E080E0109735
:1039300021F0BD01C7010E94451CA1960FB6F89465
:10394000DEBF0FBECDBFDF91CF911F910F91FF90D2
:10395000EF90BF90AF909F908F900895695CDECFFD
:10396000462F50E070E060E02AE00C94641CCF9396
:10397000DF93682F8CE396E00E94B01CEC0160EBB3
:1039800071E08CE396E00E94451C8C0F9D1FDF9137
:10399000CF910895CF92DF92EF92FF920F931F93F2
:1039A000CF93DF93EC016A017B01E881F9810190FB
:1039B000F081E02D6DE209958C0144275527BA016D
:1039C0004C195D096E097F092AE0CE010E94641C32
:1039D000800F911FDF91CF911F910F91FF90EF907A
:1039E000DF90CF900895CF93DF93AB01BC0177FFB9
:1039F00010C08CE396E00E94CA1CEC0160EB71E001
:103A00008CE396E00E94451C8C0F9D1FDF91CF91A7
:103A100008952AE08CE396E00E94641CEECFAB018F
:103A2000770F660B770B77FD0C94CA1C2AE00C9479
:103A3000641C0C94451C0F931F93CF93DF938C0150
:103A4000D0E0C0E0F80161918F0180EE860F8F35E4
:103A5000B8F48CE396E00E945A0C2196C031D1054F
:103A600029F4DF91CF911F910F910895C830D105AE
:103A700049F765EC72E08CE396E00E94191DE2CFF5
:103A80008EEC91E00E94A70CE8CF85ED8093BC00FE
:103A900080911A0590911B05A0911C05B0911D0500
:103AA0000796A11DB11D23E0B695A795979587951B
:103AB0002A95D1F72091BC0024FD03C01092630524
:103AC000089540911A0550911B0560911C05709155
:103AD0001D05452B462B472B69F30097A105B10522
:103AE00041F02AE22A95F1F700C00197A109B10936
:103AF000E1CF809119050C94A10FFC01A081B18147
:103B000050962C9182AD38E0839FC0011124289FEC
:103B1000A001299F500D112470E060E080AD91ADAF
:103B20000C9449331F93CF93DF93EC010E941A1931
:103B30001BAD8AAD180FE881F9818189181768F0EB
:103B4000EC81FD8130E020E040E060E1CE010995AC
:103B500080E0DF91CF911F910895FE01E658FF4F5D
:103B60008081882319F0CE010E947D1D612FCE0136
:103B70000E94071981E0EDCFCF93DF93EC01FC01A8
:103B8000E658FF4F8081882319F0CE010E947D1DE9
:103B900060E0CE01DF91CF910C9407192F923F92F4
:103BA0004F925F926F927F928F929F92AF92BF924D
:103BB000CF92DF92EF92FF920F931F93CF93DF93F9
:103BC0005C014B01742E622EFB0150801092D807CD
:103BD0008EE39BE09093CB078093CA072090F20777
:103BE0008091F307281AC5010E945D10F22D829D75
:103BF000F00D11244090BF07F41508F05AC04F1A79
:103C00004694CFEED1E1D0938007C0937F0762EB5B
:103C100071E08DE797E00E94BE15182FD0938007C2
:103C2000C0937F0763EB71E08DE797E00E94BE15BC
:103C3000D82ED0938007C0937F07B7018DE797E018
:103C40000E94BE15810FD09E800D11243090BE07BA
:103C5000831588F5381A36948FEEC82E81E1D82E58
:103C6000C3E0C01BD0E0C95DD94F8DE797E00E944B
:103C7000BC1D8501222D4091BE07642D8DE797E084
:103C80000E94A118142D180FD0928007C0927F07B0
:103C900022EB31E0412F632D8DE797E00E945C1706
:103CA000032D080F852D90E3843658F084569F5FCE
:103CB000FBCF412CA6CF312CCFCF572CD6CF562CB3
:103CC000D4CF9093270690E38A3018F08A509F5FF4
:103CD000FBCF9093280690E381113DC09093290675
:103CE00010922A06D0928007C0927F079E01412F32
:103CF000602F8DE797E00E945C17D0928007C092FA
:103D00007F07602F680F9701412F8DE797E00E9492
:103D10005C178DE797E00E94921D182F8111A9CFA3
:103D20000E94871B8035D1F4F401508211E0812F6D
:103D3000DF91CF911F910F91FF90EF90DF90CF9087
:103D4000BF90AF909F908F907F906F905F904F90BB
:103D50003F902F90089581509F5FBECF833539F3F8
:103D6000813511F0843529F4561408F0A6CF539408
:103D70007CCF823511F0853599F6751408F09FCF08
:103D80005A9473CF3F924F925F926F927F928F922D
:103D90009F92AF92BF92CF92DF92EF92FF920F93DA
:103DA0001F93CF93DF937C01C62F6A018090F207A7
:103DB00083948091F307881AC7010E945D10582EE2
:103DC000C111C1508091BF07552009F467C08350CD
:103DD000990B682D70E00E94C032762E7518C601CE
:103DE0000E945D10682EC81710F0CFEFC80FA72CE7
:103DF000B12C9C2E97189394C71508F4912C8EE340
:103E00009BE09093CB078093CA07442443943324C8
:103E10003A94360C8DE797E00E94BC1DD091F207D2
:103E20005520C9F08701282D4091BE076D2F8DE7E1
:103E300097E00E94A118D80F8091F307442D481BEA
:103E400048194D0F00E02091BE0760E08DE797E034
:103E50000E941513DD5F10E0711228C08DE797E016
:103E60000E94921DD82F8111D9CF0E94871B8035C7
:103E700039F5D1E0DC0F8D2FDF91CF911F910F919C
:103E8000FF90EF90DF90CF90BF90AF909F908F907A
:103E90007F906F905F904F903F900895682D0E94A3
:103EA000B432782E9CCFC0E09D2EB4CF412F490D67
:103EB00096016D2F8C2F0E94DB18D80F1F5FCCCF7F
:103EC0008335C9F2982F9B7F913589F4CF5FC61552
:103ED00050F78C2F90E001969501290D311DD42DBE
:103EE000D11BDC0F82179307FCF6D92DDDCF82356D
:103EF00019F0843509F0B9CFC11107C0C32DD62DF3
:103F0000D11B161588F2D0E0CFCFC150DC2F9C1604
:103F100058F6EBCF2F923F924F925F926F927F9223
:103F20008F929F92AF92BF92CF92DF92EF92FF92C9
:103F30000F931F93CF93DF9300D000D01F92CDB784
:103F4000DEB74C015B013A013D832C831092D80708
:103F50008EE39BE09093CB078093CA07D090F20743
:103F60008091F3079D2D981B9983C4010E945D10D9
:103F7000FF24F394A114B10411F092E0F92EF80E8D
:103F8000C3010E945D108F0D9981899F802D11249E
:103F90008D5F9091BF07891708F04DC0981B892F3E
:103FA0008695D80EDA82F12C8FEE482E81E1582EBC
:103FB0008DE797E00E94BC1D840129814091BE07D6
:103FC0006A818DE797E00E94A118DA80D80EA114CB
:103FD000B10469F0C12CE12C85012091BE074D2D63
:103FE00060E08DE797E00E94AE178981D80E8301CB
:103FF00029814091BE076D2D8DE797E00E94A118A1
:104000008D0D8D5F8B83D090BE078C819D810E942A
:104010005D10C82E212C312CC2100FC0822D880FAC
:10402000820D880F8650830D8D1508F064C0D81A54
:10403000D694312C37C080E0B4CF6C817D81822D45
:104040000E9448105092800740927F07BC018DE784
:1040500097E00E94BE15380E2394DECF6C817D81DF
:10406000832D0E944810CC24C394F310C12CEE245D
:10407000E3948C0120E04B816D2D8DE797E00E9449
:10408000AE176C817D81832D0E944810509280076D
:1040900040927F07BC018DE797E00E94BE158A5FC2
:1040A000D80E33942310DACF8DE797E00E94921D4B
:1040B000D82E811181CF0E94871B8035F1F4DD2439
:1040C000D394DF0C8D2D0F900F900F900F900F90C9
:1040D000DF91CF911F910F91FF90EF90DF90CF90E4
:1040E000BF90AF909F908F907F906F905F904F9018
:1040F0003F902F900895D12C9CCF833519F3982FA2
:104100009B7F913531F4F394F31408F451CFF12CE3
:104110004FCF823511F0843571F6F11001C0F32CC8
:10412000FA9446CFCF92DF92EF92FF920F931F93B4
:10413000CF93DF938C017B016A0188E391E10E94B8
:10414000D114C1EFD7E082E088830E94400B25EBB9
:1041500031E0A601B701C8010E948A1F0E941E1B00
:1041600080E19CE00E94D1141882DF91CF911F91D1
:104170000F91FF90EF90DF90CF900C94400B60E098
:1041800086E00E94340D60E087E00E94340D8DE7E8
:1041900097E00E94BC1DD9E1C3E280E19CE00E944F
:1041A000D114D093FA07C093FB076CEB71E089E759
:1041B00097E00E94191D8DE797E00E94921D8111E2
:1041C000ECCF6AEF70E080E090E00E941C0F48ECBA
:1041D00050E060E070E08AE590E10E949E0D68EC9E
:1041E00070E080E090E00E941C0F48EC50E060E03E
:1041F00070E080E49CE00E949E0D68EC70E080E03E
:1042000090E00E941C0F44EF51E060E070E08DE20E
:1042100098E00E949E0D60E27EE480E090E00E94C3
:104220001C0F0E944F0F6093690770936A07809379
:104230006B0790936C07EFCFBF92CF92DF92EF9214
:10424000FF920F931F93CF93DF93EC01E62E8DE740
:1042500097E00E94BC1D88E0F82E9AE5B92E22E670
:10426000C22E3EE3D32E88E391E10E94D114109236
:10427000FA07F092FB076EE975E089E797E00E9484
:10428000191DB092FA07F092FB0766EC71E089E71E
:1042900097E00E94191DCA30D1056CF463EB71E000
:1042A00089E797E00E94191D63EB71E089E797E0C9
:1042B0000E94191D03C0C436D105B4F3BE0189E7BD
:1042C00097E00E940F1DC092FA07D092FB076E2D57
:1042D00089E797E00E94B01C6CEC71E089E797E0F9
:1042E0000E94191D80E19CE00E94D11441ED51E033
:1042F0006CE18EE10E94A1174DED51E06EE289E183
:104300000E94A11707EA13E028E048E066E38CE387
:104310000E947F138DE797E00E94921D8111A3CF29
:10432000DF91CF911F910F91FF90EF90DF90CF9091
:10433000BF9008956F927F928F929F92AF92BF929B
:10434000CF92DF92EF92FF920F931F93CF93DF9361
:10435000D82FC62F49015A011E2D8DE797E00E94E4
:10436000BC1DC501B40128E532E040E050E00E94E8
:10437000D4326B017C018FE0782E93E2692E80E1CC
:104380009CE00E94D1147092FA076092FB076EE9DC
:1043900075E089E797E00E94191DD13009F055C0FA
:1043A00020E9C21621E0D206E104F10410F0112345
:1043B00041F0C03299F56BEE71E089E797E00E9419
:1043C000191D88E391E10E94D1144FEE51E067E39B
:1043D0008DE2C03281F047EF51E067E382E2CF37F0
:1043E00051F045E052E067E380E1011104C04AE189
:1043F00052E067E38EE00E94A11741E552E06EE0D3
:1044000083E10E94A11780E19CE00E94D1148DE716
:1044100097E00E94921D8111B2CF55C0CF3779F439
:1044200088E690E00E94D1146DEE71E089E797E094
:104430000E94191D80E19CE00E94D114C2CF6C2F14
:1044400089E797E00E94F41BBCCF88E391E1D2306A
:1044500009F048C00E94D11441E352E067E38BE0C9
:104460000E94A1170E944F0F681979098A099B09B8
:104470006D3D75408105910508F4BFCF42E350E0E2
:1044800060E070E08DE298E00E949E0D62E370E0D3
:1044900080E090E00E941C0F42E350E060E070E09A
:1044A00080E49CE00E949E0D62E370E080E090E07A
:1044B0000E941C0F42E350E060E070E08AE590E16A
:1044C0000E949E0D81E0DF91CF911F910F91FF908F
:1044D000EF90DF90CF90BF90AF909F908F907F90A4
:1044E0006F9008950E94D11448E452E067E389E296
:1044F00082CF4F925F926F927F928F929F92AF92F4
:10450000BF92CF92DF92EF92FF920F931F93CF93C0
:10451000DF9300D000D000D0CDB7DEB70E94721B71
:104520002B013C0180910801EEE9F5E0833009F0B0
:104530005BC001900020E9F7EB5AF54009F04EC04E
:104540008091A9051092A9059FEB980F9A3150F51B
:10455000F894082E000C990B8150914E880F991FEA
:10456000092E000CAA0BBB0B809374079093750760
:10457000A0937607B093770778948EE995E0DC01F5
:104580000D900020E9F7CD018F5995408E83E1E031
:10459000E80FF0E0E256FA4F8F5F8C3008F03CC035
:1045A0001192FACF9FE9980F9A3138F4F894082EB7
:1045B000000C990B8750914ED1CF90ED980F9A3007
:1045C00038F4F894082E000C990B8B5B904EC6CFF4
:1045D000F89488EE9EE3A0E0B0E0C6CFF8948EEFAA
:1045E0009EE3A0E0B0E0C0CF1192B5E0EA3AFB074D
:1045F000D9F7F89480E89EE3A0E0B0E080937407D8
:1046000090937507A0937607B0937707789411E09D
:104610001E82D12CF12C04C010E0FBCFFF24F394B8
:10462000EE81EC3008F0D7C0F110D5C084E00E94D4
:104630000B0D019709F05BC00E94721B9595879541
:104640007795679520E430E040E050E00E94F63234
:104650006D834B015C0189819A81AB81BC81E12C26
:1046600088169906AA06BB0629F00E94E119D12CEA
:10467000EE24E3949AE189169104A104B10488F42C
:10468000AD81AF5BAD830E944F0F9B01AC01012F49
:104690006D8181E00E949A2189829A82AB82BC82DC
:1046A000C5CFD501C4014A97A109B1094A97A1050F
:1046B000B10520F4BD81B95BBD83E5CFE4E38E167F
:1046C0009104A104B10469F0D501C401C597A10901
:1046D000B1090A97A105B10538F4FD81F550FD83B4
:1046E000D2CF80E28D83CFCF9FE79D83CCCF0E9436
:1046F0004F0F4B015C01C12C84E00E940B0D892BF4
:1047000021F4CC2071F0CC24C39484E00E940B0DE2
:10471000892B19F5C11037C0AD81AF3709F03FC003
:1047200021C0D11008C045E050E060E070E080EAB0
:104730009FE00E949E0D62E370E080E090E00E94A6
:104740001C0FE12C012FA50194016D8182E00E94D4
:104750009A21C82EDD24D394CFCFAD81AF37E9F4B1
:10476000C1105CCFBE81BB2311F0B150BE838E81DE
:104770000E94B71C8E81E82FF0E0E256FA4F1082BB
:104780009FE79D834DCFE12C012F20E030E0A90170
:104790006D8183E00E949A21B8CFC1103FCFAE81D6
:1047A000EA2FF0E0E256FA4FBD81B083AF5FAE83EF
:1047B000112309F42FCFF89484EB9EE3A0E0B0E03E
:1047C0008093740790937507A0937607B09377074B
:1047D000789410E025CF84E00E940B0D892BD9F34B
:1047E0009E81E92FF0E0E256FA4F1082F894662499
:1047F0007724409274075092750760927607709202
:104800007707789444E652E0609104018CE692E0E8
:104810000E94C21E809304010E941E1B8DE7E82E99
:1048200082E0F82E03E02FEF41E063E071E085E8DD
:1048300092E00E94CE1D0E941E1B92EBE92E91E099
:10484000F92E02E023E640E062E071E088E992E0C0
:104850000E94CE1D0E941E1B23E640E061E071E035
:1048600086EA92E00E94CE1D0E941E1B23E640E0D5
:1048700060E071E080EB92E00E94CE1D26960FB6BC
:10488000F894DEBF0FBECDBFDF91CF911F910F9186
:10489000FF90EF90DF90CF90BF90AF909F908F9060
:1048A0007F906F905F904F900C941E1B0F931F93FF
:1048B000CF93DF93EC01683109F46EC058F4643192
:1048C000F9F0F901673181F080E0DF91CF911F911C
:1048D0000F910895693109F49CC06032A9F76AE428
:1048E000CE010E946A1056C0442309F453C081913E
:1048F0008EBD00000DB407FEFDCF8EB54150F4CF44
:10490000E881F9818C859D85AE85BF85892B8A2BB1
:104910008B2B41F480859185A285B3858C879D87FB
:10492000AE87BF87418169E4CE010E946A10CFB78C
:10493000F8948091D704811127C0EDEAF4E08491C6
:10494000EFE8F4E09491E82FF0E0EE0FFF1FE05362
:10495000FE4FA591B491EC91E92321F461E08AE046
:104960000E94340D61E08AE00E94620D8CB5806186
:104970008CBD8CB580648CBD61E08DE00E94620DC1
:1049800061E08BE00E94620D8091D7048F5F80937D
:10499000D704CFBF81E099CFE881F981E485E15068
:1049A00090E0E33020F4F0E0EE5EFE4F90810C8565
:1049B0001D852E853F8540E052E16AE770E080E08A
:1049C000041715072607370740F47695679557951E
:1049D00047958F5F8630A1F787E09C709065282F00
:1049E0002695922B809581709CBD8DBDE881F981C3
:1049F000408169E4CE010E946A10A881B981EA85EC
:104A0000FB8530E020E012964C916CE2CE010995D6
:104A1000C1CFA881B981EA85FB8530E020E01396FB
:104A20004C916CE20995E881F981418169E458CFA4
:104A30000C949E329F92AF92BF92CF92DF92EF92F0
:104A4000FF920F931F93CF93DF935C017B018B0148
:104A5000D0E0C0E0F80191908F016501CC0EDD1E21
:104A6000C6010E949E32981621F0692DC6010E944F
:104A7000A6322196C331D10569F7C701DF91CF91E5
:104A80001F910F91FF90EF90DF90CF90BF90AF906C
:104A90009F900895CF92DF92EF92FF920F931F9312
:104AA000CF93DF93EB017B0123E1E20EF11C8B013D
:104AB0006C01C61AD70AC601800F911F0E949E3250
:104AC000F80181938F01EE15FF05A9F7CE01DF9163
:104AD000CF911F910F91FF90EF90DF90CF900895AD
:104AE0005F926F927F928F929F92AF92BF92CF927E
:104AF000DF92EF92FF920F931F93CF93DF93CDB787
:104B0000DEB764970FB6F894DEBF0FBECDBF10E0DE
:104B100000E0CE0101967C018CEB882E82E0982E7D
:104B200097EC692E92E0792E5E0191E1A90EB11CFD
:104B3000C8010E941825582EC80187709927892B13
:104B400021F48BEC91E00E94A70C68018FE0C82251
:104B5000DD24C114D10401F50115110519F0C701B7
:104B60000E941B1D1F930F939F928F92FF92EF92B3
:104B70000E946233B7018CE396E00E94191D40E168
:104B800050E060E270E0C7010E9449330F900F903F
:104B90000F900F900F900F90F701EC0DFD1D5082BC
:104BA0001F925F927F926F92BF92AF920E94623388
:104BB000B5018CE396E00E94191D0F5F1F4F0F9007
:104BC0000F900F900F900F900F900038110509F083
:104BD000AFCF89EC91E00E94A70C89EC91E00E9494
:104BE000A70CC7010E941B1D60EB71E08CE396E0EF
:104BF0000E94451C64960FB6F894DEBF0FBECDBF71
:104C0000DF91CF911F910F91FF90EF90DF90CF90A8
:104C1000BF90AF909F908F907F906F905F9008951E
:104C2000AF92BF92CF92DF92FF920F931F93CF93D9
:104C3000DF93CDB7DEB763970FB6F894DEBF0FBE34
:104C4000CDBF1092B00590E080E00E941825F82EAC
:104C500081E090E00E9418258093070182E0C82E31
:104C6000D12C10E000E08F2D8150990B5C010F15C5
:104C7000E0F4BE016F5F7F4FC6010E944A25BE016E
:104C8000695F7F4F80EB95E00E9450330A151B054A
:104C900034F461EB71E080EB95E00E9450330F5FDC
:104CA0001F4F93E1C90ED11CE2CF8F2D63960FB633
:104CB000F894DEBF0FBECDBFDF91CF911F910F9152
:104CC000FF90DF90CF90BF90AF9008951F93CF9348
:104CD000DF93CDB7DEB763970FB6F894DEBF0FBE94
:104CE000CDBF482F4150550B9A0143E1429FC0016F
:104CF000439F900D1124BE016F5F7F4F02960E946B
:104D00004A251A81109304018B81809303018C81C1
:104D1000809302018D81809301018E818093000137
:104D2000BE01695F7F4F8EE995E00E945B33412FA2
:104D300050E070E060E082E00E940D1A4B8150E08C
:104D400070E060E083E00E940D1A4C8150E070E05A
:104D500060E084E00E940D1A4D8150E070E060E058
:104D600085E00E940D1A4E8150E070E060E086E020
:104D70000E940D1A698181E090E00E94431C0E940C
:104D8000702563960FB6F894DEBF0FBECDBFDF91DE
:104D9000CF911F9108950F931F93CF93DF93CDB7BA
:104DA000DEB763970FB6F894DEBF0FBECDBF182FE6
:104DB00090E080E00E941825082F809104018A83EA
:104DC000809103018B83809102018C83809101018A
:104DD0008D83809100018E836EE975E0CE01079688
:104DE0000E945B33111124C011E0100F612F90E07D
:104DF00080E00E94431C612F81E090E00E94431CF0
:104E0000198323E1029FC0011124BE016F5F7F4F10
:104E100002960E941A250E94702563960FB6F89498
:104E2000DEBF0FBECDBFDF91CF911F910F910895CF
:104E30001983612F81E090E00E94431C812F8150F3
:104E4000990BBC0123E1269FC001279F900D1124DF
:104E5000BE016F5F7F4F02960E941A250E94702547
:104E60004A8150E070E060E082E00E940D1A4B81C0
:104E700050E070E060E083E00E940D1A4C8150E049
:104E800070E060E084E00E940D1A4D8150E070E017
:104E900060E085E00E940D1A4E8150E070E060E015
:104EA00086E00E940D1AB9CF1F920F920FB60F9293
:104EB00011242F933F934F935F936F937F938F931F
:104EC0009F93AF93BF93EF93FF93809130069091A0
:104ED0003106A0913206B0913306892B8A2B8B2B99
:104EE000D1F190912B06E0912C06F0912D06808156
:104EF000892780838091300690913106A0913206F7
:104F0000B0913306181619061A061B069CF48091F8
:104F1000300690913106A0913206B0913306019788
:104F2000A109B1098093300690933106A09332060F
:104F3000B0933306FF91EF91BF91AF919F918F9105
:104F40007F916F915F914F913F912F910F900FBE85
:104F50000F901F90189580910D01E4E8F4E0E49122
:104F60009FEF90930D01E13051F030F0E23069F0A5
:104F700060E00E94340DDECF10926E00F9CF909168
:104F80006F009D7F90936F00F3CF909170009D7F95
:104F90009093700091E09093B0009091B100987F51
:104FA00094609093B1001092B300E2CF1F920F92E1
:104FB0000FB60F9211242F933F934F935F936F93EC
:104FC0007F938F939F93AF93BF93EF93FF938CE364
:104FD00096E00E94380CFF91EF91BF91AF919F91A5
:104FE0008F917F916F915F914F913F912F910F9092
:104FF0000FBE0F901F9018951F920F920FB60F9231
:1050000011242F938F939F93EF93FF93E0914C067E
:10501000F0914D068081E0915206F091530682FD99
:105020001BC09081809155068F5F8F73209156062B
:10503000821741F0E0915506F0E0E45CF94F958F5E
:1050400080935506FF91EF919F918F912F910F9033
:105050000FBE0F901F9018958081F4CF1F920F9272
:105060000FB60F9211242F933F938F939F93AF937B
:10507000BF9380918A0590918B05A0918C05B0918A
:105080008D053091890523E0230F2D3758F50196C2
:10509000A11DB11D2093890580938A0590938B05EE
:1050A000A0938C05B0938D0580918E0590918F050E
:1050B000A0919005B09191050196A11DB11D80931D
:1050C0008E0590938F05A0939005B0939105BF91A5
:1050D000AF919F918F913F912F910F900FBE0F90A5
:1050E0001F90189526E8230F0296A11DB11DD2CF5F
:1050F0001F920F920FB60F9211242F933F934F934D
:105100005F936F937F938F939F93AF93BF93EF932F
:10511000FF93E0911001F09111010995FF91EF913A
:10512000BF91AF919F918F917F916F915F914F91BF
:105130003F912F910F900FBE0F901F9018951F92C7
:105140000F920FB60F9211242F933F934F935F93BB
:105150006F937F938F939F93AF93BF93EF93FF933F
:10516000E0910E01F0910F010995FF91EF91BF9130
:10517000AF919F918F917F916F915F914F913F91EF
:105180002F910F900FBE0F901F9018951F920F92A6
:105190000FB60F9211242F933F934F935F936F930A
:1051A0007F938F939F93AF93BF93EF93FF938091E0
:1051B000B900887F803609F44AC0F0F5883209F4D6
:1051C000A7C018F5803109F49BC0B8F4882309F40E
:1051D000F9C0883009F494C0FF91EF91BF91AF916D
:1051E0009F918F917F916F915F914F913F912F91FF
:1051F0000F900FBE0F901F901895883109F488C04A
:10520000803251F78093620514C0803409F49DC048
:1052100040F48033B9F38833F9F68093620585EC66
:10522000B0C0803509F485C0883509F496C088344B
:1052300099F60E94451DD0CF883909F48CC038F505
:10524000883729F050F4883611F0803729F683E04A
:10525000809363051092610557C0883809F47BC0BC
:10526000803919F0803809F0B7CF8091610580321C
:1052700008F071C0E091610581E08E0F80936105B7
:105280008091BB00F0E0EF5BFA4F80833DC0803B34
:1052900039F0E0F4803A09F479C0883A09F09CCFFB
:1052A00084E0809363051092400510923F05E091E1
:1052B0009405F0919505099580913F0581110FC0E6
:1052C00081E080933F0510921F0509C0803C09F4DE
:1052D000A6CF883C09F4A3CF883B09F07DCFE091AD
:1052E000400581E08E0F80934005F0E0E15EFA4FCB
:1052F00080818093BB009091400580913F0529C03B
:10530000809188058093BB0085EC8093BC0064CFBE
:105310009091870580918605981758F5E09187054B
:1053200081E08E0F80938705F0E0EA59FA4F808183
:10533000E9CFE091870581E08E0F8093870580910A
:10534000BB00F0E0EA59FA4F808390918705809185
:1053500086059817C8F285E8D8CFE091870581E0E7
:105360008E0F809387058091BB00F0E0EA59FA4FD9
:1053700080838091650581115CCF81E08093640515
:1053800084EA8093BC001092630526CF85EC80935D
:10539000BC001092630580916105803230F4E09189
:1053A0006105F0E0EF5BFA4F10826091610570E0FB
:1053B000E0919205F091930581E495E009951092B2
:1053C00061050ACF1092620534CF1F920F920FB67B
:1053D0000F9211240F931F932F933F934F935F933B
:1053E0006F937F938F939F93AF93BF93EF93FF93AD
:1053F0000E94721B2091D5043091D6048901330F8D
:10540000220B330B601771078207930781F00E940C
:105410004F0F6093690770936A0780936B079093AF
:105420006C070E94721B7093D6046093D5040E948F
:105430004F0F0091690710916A0720916B07309117
:105440006C07601B710B820B930B613C77428940A8
:10545000910560F00E944F0F6093690770936A078F
:1054600080936B0790936C070E94BF20FF91EF9190
:10547000BF91AF919F918F917F916F915F914F916C
:105480003F912F911F910F910F900FBE0F901F9082
:105490001895CF93DF9310923F0610923E0688EE48
:1054A00093E0A0E0B0E08093400690934106A09383
:1054B0004206B09343062EE731E030933D06209339
:1054C0003C0625EC30E0309349062093480624EC56
:1054D00030E030934B0620934A0620EC30E03093C6
:1054E0004D0620934C0621EC30E030934F0620937C
:1054F0004E0622EC30E0309351062093500626EC05
:1055000030E03093530620935206109255061092C5
:10551000560610925706109258061092DC0610920A
:10552000DB068093DD069093DE06A093DF06B09342
:10553000E00680E991E09093DA068093D906109214
:105540007C0710927B0781ED9AE09093F907809396
:10555000F8071092FA071092FB071092950782EA5B
:1055600091E090937A078093790710927E071092CA
:105570007D07109292071092890710928A07109265
:105580008B0710928C078FEF809393078093970778
:10559000EBE9F7E081EB97E0CFEFC1938E179F0720
:1055A000E1F788EE90E1909382078093810787EB83
:1055B00091E1909384078093830786E594E290932A
:1055C00086078093850786E799E190938807809303
:1055D000870730E020E040E069E08DE797E00E9437
:1055E000E8101092C9071092C8078BED9AE09093CB
:1055F000B2078093B10789EE96E09093B607809347
:10560000B50781E08093B7071092B8071092D507CD
:105610001092F5078093F6078093F7078AEA91E0E6
:105620009093B4078093B3078DE797E00E943C12F4
:105630001092C4071092C607C093C507C093C7074E
:10564000E091B307F091B4070280F381E02D8DE77C
:1056500097E009958EE39BE09093CB078093CA0770
:105660001092D8078AE08093A40789E08093A50769
:1056700088E08093A60762E082E00E94620D62E00B
:1056800083E00E94620DE5EAF4E0E491F0E0EE0FC1
:10569000FF1FE756FB4FA591B491B0936E07A093FF
:1056A0006D07E7E8F4E0449140937107E6EAF4E01F
:1056B000E491F0E0EE0FFF1FE756FB4FC591D49148
:1056C000D0937007C0936F07E8E8F4E0E491E093AB
:1056D0007207109274071092750710927607109255
:1056E00077072BE33FE1C9010197F1F79C91842FE4
:1056F000892391E009F490E08881E82309F0926021
:105700002DE637E0909373073093E6062093E50685
:1057100086E69BE190930F0180930E0180916900D2
:105720008C7F816080936900E89A81E0809378079C
:105730003093E8062093E7068CE69BE190931101F5
:105740008093100180916900837F84608093690059
:10575000E99A82E0809378070E944F0F609369076F
:1057600070936A0780936B0790936C07DF91CF91DA
:105770000895CF93DF93CDB7DEB765970FB6F89452
:10578000DEBF0FBECDBF789484B5826084BD84B582
:10579000816084BD85B5826085BD85B5816085BD2C
:1057A00080916E00816080936E00109281008091E4
:1057B000810082608093810080918100816080936C
:1057C0008100809180008160809380008091B10091
:1057D00084608093B1008091B00081608093B000BC
:1057E00080917A00846080937A0080917A00826050
:1057F00080937A0080917A00816080937A00809112
:105800007A00806880937A001092C10061E08AE09B
:105810000E94620D61E089E00E94620D61E086E015
:105820000E94620D61E087E00E94620D61E085E008
:105830000E94620D60E084E00E94620D62E08EE0F2
:105840000E94620D60E086E00E94340D60E08AE014
:105850000E94340D60E089E00E94340D61E084E034
:105860000E94340D61E087E00E94340DF89480E8D6
:105870009EE3A0E0B0E08093740790937507A09337
:105880007607B09377077894E0914C06F0914D0637
:1058900082E08083E0914806F09149061082E09111
:1058A0004A06F0914B0680E1808310925406E09105
:1058B0005006F091510686E08083E0914E06F0910B
:1058C0004F06808180618083E0914E06F0914F0603
:1058D000808188608083E0914E06F0914F06808140
:1058E00080688083E0914E06F0914F0680818F7D25
:1058F0008083109299051092980510929705109246
:1059000096050E94830F84E89BE090939505809311
:10591000940580E99BE090939305809392058EE037
:105920008093BA008CE08093B80089EE99E190935F
:105930009B0580939A0583E89BE090939D05809357
:105940009C05E0918107F091820730E020E040E083
:105950006AE08DE797E009958DE797E00E94BC1D0E
:105960008DE797E00E94921D8111FACF60E08DE7EC
:1059700097E00E940719E0918107F091820730E0DB
:1059800020E040E06BE08DE797E0099580E19CE046
:105990000E94D1148DE797E00E94BC1D0EEE11E02D
:1059A0002EE140E660E18EE00E947F138DE797E0F4
:1059B0000E94921D8111F2CF60ED77E080E090E0CF
:1059C0000E941C0F81E080930A0181E090E00E9418
:1059D0001825809307019FEF980F983008F46EC048
:1059E00010E000E060E0C8010E94A6320F5F1F4F88
:1059F000011524E01207B1F781E090E00E9418251C
:105A0000809307010E94792280E00E94CB268EE0DD
:105A10000E940B0D0197F9F4F894109280001092F7
:105A20008100109285001092840088E09DE390939D
:105A30008900809388008091810088608093810034
:105A40008091810085608093810080916F008260E9
:105A500080936F0078944EE150E060E070E080E762
:105A600097E10E949E0DACE3CA2ED12CE12CF12CC3
:105A700080912606882309F47DC00E944F0F609311
:105A8000690770936A0780936B0790936C07E091A6
:105A90002506EA50EC3008F05EC0F0E0EE5AF24D18
:105AA0000C941533612D702D752D782D932D962D19
:105AB000992D9C2D9F2DA22DA52DA82D0E946626E7
:105AC000A6CF8CE694E00E94541C60912106709150
:105AD000220680912306909124060E94F31C0CC09C
