:100000000C9499020C942A190C9403190C94C102B3
:100010000C94C1020C94C1020C94C1020C94C10254
:100020000C94C1020C94C1020C94C1020C94C10244
:100030000C94C1020C94C1020C94C1020C94C10234
:100040000C94B9180C94C1020C94AC170C9486173C
:100050000C94C1020C94C1020C94C1020C94C10214
:100060000C9451190C94C102B326BA26BD26C026A1
:10007000C326C626C926CC26EF2600270F271A2717
:100080002D27402715282E281A2E1D2E202E232EF0
:10009000262E292E2C2E4E6F20636172642C207721
:1000A000726F6E6720636869702073656C65637436
:1000B0002070696E2C206F72205350492070726F2F
:1000C000626C656D3F0043616E27742061636365F8
:1000D000737320534420636172642E20446F206E3A
:1000E0006F74207265666F726D61742E004E6F20A2
:1000F0006572726F7220666F756E642E0043616E5A
:100100002774206F70656E20726F6F74206469723F
:100110006563746F72792E00496E76616C69642034
:10012000666F726D61742C207265666F726D61749A
:100130002053442E006572726F723A200068747406
:10014000703A2F2F6D70666C6167612E67697468F5
:1001500075622E636F6D2F537061726B66756E2DB5
:100160004D50332D506C617965722D536869656C03
:10017000642D41726475696E6F2D4C696272617293
:10018000792F2354726F75626C6573686F6F746931
:100190006E6700496620796F752067657420746802
:1001A0006973206572726F722C20796F75206C698B
:1001B0006B656C7920646F206E6F74206861766562
:1001C00020612073642E626567696E20696E2074F9
:1001D0006865206D61696E20736B657463682C209F
:1001E0005365652054726F75626C652053686F6F3C
:1001F00074696E6720477569646521004552524FE6
:10020000523A204453502070617463682066696CD0
:1002100065206E6F7420666F756E642100496E20D4
:10022000706C617965722E626567696E3A20004371
:100230006F756C64206E6F742077726974652066C8
:10024000696C6520706174636865732E30353300A6
:1002500000493243206572726F723A200057726F04
:100260006E6720656541646472657373004932434B
:100270002050726F626C656D3A2000466F756E6437
:10028000206E65772044535020506174636820507D
:1002900061636B6167652E00436F756C64206E6FE0
:1002A000742074616C6B20746F2049324320454583
:1002B00050524F4D2E00496E2053442E636864699E
:1002C000723A2000496E2053442E426567696E3AA7
:1002D0002000467265652052414D203D20000000FF
:1002E00000000000000000000000200020002000AE
:1002F00020000800080040003000280030001000F6
:10030000100060003800300038001800180080002D
:1003100040003800400020002000A00050004000B5
:10032000500028002800C00060005000600030002D
:100330003000E000700060007000380038000001FC
:10034000800070008000400040002001A00080007C
:100350009000500050004001C000A000A0006000CC
:1003600045006001E000C000B00070007000800136
:100370000001E000C00080008000A00140010001F9
:10038000E00090009000C001800140010001A00049
:10039000A00031352F313620726573616D706C6944
:1003A0006E6720656E61626C65642E0057616974CA
:1003B000696E6720666F72207374617274206D615C
:1003C000726B2E2E2E00506C61796261636B2D452D
:1003D00072726F723A20004C6F73206765687427E1
:1003E0007321002D2D2D2053455454494E47535F02
:1003F0004D454E55002D2D2D20504155534544005F
:100400002D2D2D20504C4159494E47002D2D2D208A
:100410005245534554002D2D2D20545241434B5FDE
:100420004C4F414445442E002D2D2D204C4F41442E
:100430005F545241434B002D2D2D2049444C494ED1
:10044000472E00434D445F4C4F41445F545241435B
:100450004B3A2000434D445F53594E435F4F46464D
:100460005345543A2000434D445F5345545F443A4A
:100470002000434D445F5345545F493A2000434DAB
:10048000445F5345545F503A2000434D445F534509
:10049000545F53544152544D41524B3A2000434D06
:1004A000445F5345545F53485554544552424C4160
:1004B0004445533A2000434D445F52455345540050
:1004C00000000000240027002A0000000000250092
:1004D00028002B000000000023002600290004044F
:1004E00004040404040402020202020203030303DC
:1004F00003030102040810204080010204081020B8
:10050000010204081020000000080002010000039E
:10051000040700000000000000002C305800534485
:10052000206572726F72436F64653A203058000024
:10053000712E11241FBECFEFD8E0DEBFCDBF11E07A
:10054000A0E0B1E0ECEBFCE602C005900D92AA3B06
:10055000B107D9F727E0AAEBB1E001C01D92AA319B
:10056000B207E1F712E0C9E9D2E004C02197FE0129
:100570000E942833C839D107C9F70E944D260C9430
:100580005C360C9400008F929F92AF92BF92CF92F4
:10059000DF92EF92FF920F931F93CF93DF93CDB72C
:1005A000DEB7C15CD1090FB6F894DEBF0FBECDBF78
:1005B000E3E0F2E0119211921192119222E0E33401
:1005C000F207C1F760E083E00E94371860E085E041
:1005D0000E9437181092B5061092B6061092B70610
:1005E0001092B806E0917C03F0917D0382E0808355
:1005F000E0917803F09179031082E0917A03F09111
:100600007B0380E1808310928403E0918003F0916A
:10061000810386E08083E0917E03F0917F038081F7
:1006200080618083E0917E03F0917F038081886008
:100630008083E0917E03F0917F03808180688083D6
:10064000E0917E03F0917F0380818F7D808362ED56
:1006500072E08CE693E00E9462176DB77EB78091DE
:10066000160790911707009719F0681B790B02C0C5
:100670006A517740072E000C880B990B97FF03C037
:100680000E942A0C03C04AE00E94FF1B64E771E04D
:100690008CE693E00E94802380E18093BA0087EA91
:1006A00096E1909387028093860283EB96E1909384
:1006B00089028093880210924203109241031092A3
:1006C0001703109216030E947F1A8CE08093B800E3
:1006D0008AEA93E2909383028093820285E993E20F
:1006E00090938502809384021092AF061092AC061C
:1006F0001092B10682EB96E09093AE068093AD0621
:100700000E94AD186B017C010091AD061091AE0600
:1007100089E0D80112968C9361E00E94371861E05D
:10072000F80182810E9407181FB7F8948091BA01DE
:10073000811127C0E8EEF4E08491ECEFF4E09491AD
:10074000E82FF0E0EE0FFF1FE054FB4FA591B491AE
:10075000EC91E92321F461E08AE00E94071861E04E
:100760008AE00E9437188CB580618CBD8CB580649E
:100770008CBD61E08DE00E94371861E08BE00E9443
:1007800037188091BA018F5F8093BA011FBFE09143
:10079000AD06F091AE0682E5808311828CEA96E088
:1007A0000E94BD20E091AD06F091AE0661E082812D
:1007B0000E9407181AE08FEF0E949C201150D9F771
:1007C000E091AD06F091AE0660E082810E940718CC
:1007D00020E030E0A90160E08CEA96E00E94D6209B
:1007E000813049F00E94AD186C197D09613D774058
:1007F00078F380E258C02AEA31E040E050E068E057
:100800008CEA96E00E94D620853011F481E00AC07F
:1008100014E00E94A1208093B0061150D1F78A3ACB
:1008200059F482E08093B1068091B106823069F07C
:10083000812C912C54010EC00E94AD186C197D09B9
:10084000613D7740C0F285E22EC0812C912CA12C15
:1008500060E4B62E20E030E0A90167E38CEA96E080
:100860000E94D620A501940169E28CEA96E00E94DC
:10087000D620882349F00E94AD186C197D09613D8E
:10088000774040F383E40FC08091B106823001F5D8
:1008900020E030E0A9016AE38CEA96E00E94D620CD
:1008A000882341F087E38093AC068CEA96E00E94AF
:1008B000A8204DC00E94A120807C803C19F483E0D8
:1008C0008093B1060E94A1200E94A1200E94A12035
:1008D0008CEA96E00E94A820E091AD06F091AE0669
:1008E00080E5808381E081838CEA96E090936604C2
:1008F000809365048CE896E00E94C52381E00E9405
:100900005F1C882349F065E674E08CE896E00E945D
:1009100081148823E1F006C080E00E945F1C8111F1
:10092000F2CF15C080918C06807789F08CE896E034
:1009300090930202809301020E94C52365E674E051
:100940008CE896E00E948114811171C048C044E196
:1009500050E060E070E081E10E94982564EC72E074
:100960008CE693E00E94621780E00E94150C809153
:10097000AC068823B9F066EC70E08CE693E00E9448
:10098000670C8091AC06803231F466E970E08CE649
:1009900093E00E94670C8091AC068823F9F00E94D6
:1009A00055301CC080916A04811107C068E171E074
:1009B0008CE693E00E94670C11C080918C06811137
:1009C00007C06DEF70E08CE693E00E94670C06C0F4
:1009D0006DEE70E08CE693E00E94670CFFCF4EE175
:1009E00050E060E070E081E10E94982566EB72E0E3
:1009F0008CE693E00E94621780E00E94150C65E38C
:100A000071E08CE693E00E94621767E771E08CE684
:100A100093E00E94802364E771E08CE693E00E94FB
:100A200080238091AC0681110E945530FFCF89E070
:100A300094E09093FE068093FD061092420310927C
:100A4000410310921703109216030E947F1A8CE044
:100A50008093B8008091FF0691E0909319038093F2
:100A600018031092170310921603809106079091B5
:100A70000707029761F48091FD069091FE06DC0164
:100A8000ED91FC910190F081E02D60E0099580915D
:100A9000FD069091FE06DC01ED91FC910190F08144
:100AA000E02D60E0099561E08091FD069091FE06E1
:100AB0000E949D1A882331F068E972E08CE693E089
:100AC0000E94670C1D861E861C821B8288EE93E0A6
:100AD000A0E0B0E08D839E83AF83B88788E491E087
:100AE0009A83898321E040E851E06CE876E0CE010A
:100AF0000D960E949B1480E2FE013D96A5E4B4E0B1
:100B000001900D928A95E1F78B819C8190933C0432
:100B100080933B048D819E81AF81B88580933D0495
:100B200090933E04A0933F04B093400489859A8536
:100B3000AB85BC858093410490934204A093430409
:100B4000B093440480914504882309F40CC16BE7F9
:100B500072E08CE693E00E94670C20915D04909116
:100B60005E042093FF01909300026091FB0170915D
:100B7000FC018091FD019091FE01CF53DF4F28834E
:100B8000C15CD0406B017C01BFEFCB1ADB0AEB0AE2
:100B9000FB0A009108071091090720910A0730917C
:100BA0000B070C151D052E053F0538F021E030E040
:100BB000AE014F535F4F0E94E21E8091FB01909166
:100BC000FC01A091FD01B091FE0120910002C054F2
:100BD000DF4F2883C05CD0406C017D01E2E0CE0E87
:100BE000D11CE11CF11C009108071091090720910C
:100BF0000A0730910B070C151D052E053F0568F0FF
:100C0000BC01CD016F5F7F4F8F4F9F4F21E030E0E0
:100C1000AE0140545F4F0E94E21E80E490E0A0E0ED
:100C2000B0E08093FB019093FC01A093FD01B09391
:100C3000FE0189E394E00E94CD25892B09F45BC075
:100C400040E450E06BEB71E085E494E00E94F20F29
:100C50006091FB017091FC018091FD019091FE017A
:100C60006B017C01F0E4CF0ED11CE11CF11C009162
:100C700008071091090720910A0730910B070C15FE
:100C80001D052E053F0550F020E430E04BEB51E010
:100C90000E94E21E182F882309F101C019E06DE6B9
:100CA00072E08CE693E00E946217193019F46DE54A
:100CB00072E00FC061E572E08CE693E00E9462177B
:100CC000612F70E080E090E04AE00E94FF1B60E549
:100CD00072E08CE693E00E94670CABCF8091FB0141
:100CE0009091FC01A091FD01B091FE01805C9F4FAD
:100CF000AF4FBF4F96CF8CE891E00E94421C81110C
:100D000032C0AE961FAEAE97AF961FAEAF972E967F
:100D10001FAE2E972F961FAE2F9780914504887196
:100D200011F120914B0430914C04809192069091E6
:100D3000930628173907B9F485E494E00E94AC0DB6
:100D400080E2E5E4F4E0DE01A35BBF4F01900D9289
:100D50008A95E1F760E085E494E00E94CE23FC01EF
:100D6000892B09F0F8C185E494E00E94C5231D8613
:100D70001E861C821B8288EE882E83E0982EA12C72
:100D8000B12C8D829E82AF82B88698E4E92E91E0E4
:100D9000F92EFA82E98221E046E951E06CE876E03A
:100DA000CE010D960E949B1480E2FE013D96A5E4C3
:100DB000B4E001900D928A95E1F78B819C8190932C
:100DC0003C0480933B048D819E81AF81B8858093E4
:100DD0003D0490933E04A0933F04B0934004898562
:100DE0009A85AB85BC858093410490934204A0937F
:100DF0004304B0934404809145048111A8C010922B
:100E0000FB011092FC011092FD011092FE0160E0C6
:100E100070E0CB010E94D11D8C018091FB0190916B
:100E2000FC01A091FD01B091FE01BC01CD016F5FFD
:100E30007F4F8F4F9F4F0E94D11D20E030E0382F11
:100E4000020F131F109300020093FF0180E490E053
:100E5000A0E0B0E08093FB019093FC01A093FD0122
:100E6000B093FE011D861E861C821B828D829E828F
:100E7000AF82B886FA82E98223E646E951E06CE85F
:100E800076E0CE010D960E949B1480E2FE013D9615
:100E9000A5E4B4E001900D928A95E1F78B819C81E5
:100EA00090933C0480933B048D819E81AF81B885F3
:100EB00080933D0490933E04A0933F04B09340047C
:100EC00089859A85AB85BC858093410490934204C3
:100ED000A0934304B093440480914504882389F18E
:100EE0006091FB017091FC018091FD019091FE01E8
:100EF0002091FF0130910002205C3F4F890120E0EA
:100F000030E0601771078207930708F50E94D11D32
:100F1000682F89E394E00E94F3258091FB01909172
:100F2000FC01A091FD01B091FE010196A11DB11D32
:100F30008093FB019093FC01A093FD01B093FE010F
:100F4000CFCF6FE272E08CE693E00E94670C85E4FD
:100F500094E00E94C52380916A0481110CC063E96A
:100F600071E08CE693E00E94670C6DE371E08CE623
:100F700093E00E94670C60E082E00E94371861E015
:100F800086E00E94371861E087E00E94371861E030
:100F900088E00E94371861E086E00E9407180E94EE
:100FA000DC1F60E088E00E94071801E010E0109369
:100FB00064030093630364E670E080E090E00E94C5
:100FC000731860E088E00E94071864E670E080E033
:100FD00090E00E94731861E088E00E940718109367
:100FE00081020093800210931507009314076AE0B2
:100FF00070E080E090E00E94731880E00E9406207C
:101000008115984409F042C360E070E683E00E94D5
:101010009820109281021092800284E090E09093D8
:101020001507809314076AE070E080E090E00E946A
:10103000731883E00E9406208115904609F028C3AA
:1010400088E280936A0380936B0348E268E28BE056
:101050000E94542088E00E94DE17892B09F414C3F3
:101060000E94BF1D811110C388E00E94DE17892BEA
:1010700009F40AC3609101027091020221E046E97D
:1010800051E089E194E00E949B14882309F4FCC29A
:1010900042E050E0BE01635D7F4F89E194E00E9431
:1010A000F20F892B09F44CC042E050E0BE016F5FA3
:1010B0007F4F89E194E00E94F20F892B09F440C030
:1010C00089819A8197FF32C09F779A83898342E012
:1010D00050E0BE01635B7F4F89E194E00E94F20F14
:1010E000892B71F189819A819C01215031093A83C0
:1010F0002983892B69F22F966EAD7FAD2F978DA531
:101100000E949820EFCF42E050E0BE01635B7F4F2A
:1011100089E194E00E94F20F892B09F4B9CF2F9650
:101120006EAD7FAD2F978DA50E94982089819A8101
:101130009C01215031093A832983892B21F7A8CFBB
:1011400089E194E00E94C52364E670E080E090E0CD
:101150000E947318BEC290E2DE01A357BF4F0190F8
:101160000D929A95E1F78091450483FF11C022EC1E
:1011700046E951E06CE876E0CE0183599F4F0E942A
:101180009B14882309F4EFCDC12CD12C760112C118
:1011900086E991E0C254DF4F99838883CE5BD040CB
:1011A0001DA61EA6AE968FADAE978111DCCD8091A7
:1011B0008C06807709F4D7CD0CE816E050E2F52EC6
:1011C000AE0142545F4FBE0163557F4FC254DF4FA3
:1011D00088819981CE5BD0400E947B0C882309F4E2
:1011E000C2CDC254DF4FE881F981CE5BD04080810F
:1011F000882301F121E0AE0143555F4FB801CE01D4
:1012000083599F4F0E945811882309F4ACCDFE01E9
:10121000E359FF4FDE019D968F2D01900D928A9527
:10122000E1F7CE0183599F4F0E94C5238E01035DD4
:101230001F4FC6CFD8018C91807709F494CD23EC51
:10124000AE0143555F4FB801CE0183599F4F0E94B5
:101250005811882309F487CD81E0E0968FAFE0979D
:1012600040E1F42EAE96FFAEAE97CE0183599F4F6C
:101270000E94A724882309F476CDED968CAD9DAD10
:10128000AEADBFADED97C757DF4F88839983AA8373
:10129000BB83C958D04040E050E0BA01CE01835929
:1012A0009F4F0E94E70DCE0183599F4F0E94AC0DC6
:1012B000882309F458CD61E0CE0183599F4F0E94E5
:1012C000CE23009709F44FCDFC01F38620E2DE0126
:1012D000119601900D922A95E1F7DC015496CD907C
:1012E000DC9055975A96ED90FC905B978EE289833F
:1012F000FE013296CE010C9620E22193E817F90701
:10130000E1F7E596EEADFFADE597C757DF4F4881B2
:1013100059816A817B81C958D04042505109610985
:101320007109048004C0440F551F661F771F0A947B
:10133000D2F780899189A289B389480F591F6A1F02
:101340007B1F21E0CF0180960E942022009709F4A4
:101350000ACDDE8ACD8AFC8EEB8E20E2FE0131962C
:10136000DC0101900D922A95E1F72EE22A83F80123
:10137000448D558D668D778D7E8B6D8B5C8F4B8FFD
:1013800020E2FE013196DC01909601900D922A95A3
:10139000E1F7E5968EAD9FADE5970E942B2588235A
:1013A00009F4E1CCC757DF4FC880D980EA80FB80C1
:1013B000C958D040CF57DF4F88819981AA81BB811E
:1013C000C158D0408093590490935A04A0935B0471
:1013D000B0935C04E3968EAD9FADE39790934A047F
:1013E00080934904E1968FADE19780934804E99694
:1013F0008CAD9DADAEADBFADE99780934D0490939C
:101400004E04A0934F04B0935004AE961FAEAE9717
:1014100061E085E494E00E94CE23009709F4A3CC18
:10142000DC011D9623E1EDE8F0E0EC0FFD1F3D9699
:1014300001900D922A95E1F7C856DF4F2881C859CF
:10144000D040DC011B962C93C114D104E104F104BB
:1014500009F469C0E0914B04F0914C04B701A60176
:101460004250510961097109048004C0440F551F9D
:10147000661F771F0A94D2F780899189A289B38960
:10148000480F591F6A1F7B1F20E0CF0180960E94E2
:101490002022FC01892B09F466CC90E2B096DE0193
:1014A000A357BF4F01900D929A95E1F7B701A6019E
:1014B00080914B0490914C040E943323882309F4BB
:1014C00052CCE0914B04F0914C0440916104509156
:1014D000620460916304709164044250510961098F
:1014E0007109048004C0440F551F661F771F0A94BA
:1014F000D2F780899189A289B389480F591F6A1F41
:101500007B1F21E0CF0180960E942022DC01892BE5
:1015100009F429CC90E2FE01E357FF4F9096019029
:101520000D929A95E1F7AD961CAE1DAE1EAE1FAEA4
:10153000AD9782E060968FAF609788E02E968FAF70
:101540002E9719821A8261E0CE01835B9F4F0E9421
:10155000CE238C01009709F406CC0E94990DD82E59
:1015600085EEF80180832E961FAE2E9765968EAD80
:101570009FAD65970E942B25882309F4F4CB6196D3
:101580009FAD6197992309F475C069968CAD9DADA7
:10159000AEADBFAD69978E010F5F1F4F0097A105DC
:1015A000B10551F465966EAD7FAD6597C8010E9497
:1015B0008114811114C0D7CB20E2F80111922A9531
:1015C000E9F720E1298321E02B8365962EAD3FAD1D
:1015D000659738872F838D8F9E8FAF8FB8A3BB24DD
:1015E000B39435EEC32E61968FAD61978B1508F4D9
:1015F000BACBEB2CF12C63964EAD5FAD63974E19D1
:101600005F0960E070E025E0440F551F661F771FFB
:101610002A95D1F7C8010E94E70D882309F4A3CBCE
:1016200060E0C8010E940D11FC01892B09F49BCBDD
:1016300083858F3009F097CB3081832F8F7190E0B5
:10164000E816F90609F08FCB8585D8128CCBC082BD
:1016500065968EAD9FAD6597DC0190962C91909725
:10166000216090962C9336FF03C00E942B2502C068
:10167000B394B9CF882309F476CB80914B04909131
:101680004C040E942B256FCB16E003C014E001C070
:1016900015E0412F50E0465F5F4F052E000C660BB2
:1016A000770B81E10E9498256DE172E08CE693E072
:1016B0000E946217612F70E080E090E04AE00E9493
:1016C000FF1B163031F46CEF71E08CE693E00E9462
:1016D000670CCF53DF4F0FB6F894DEBF0FBECDBF00
:1016E000DF91CF911F910F91FF90EF90DF90CF90FE
:1016F000BF90AF909F908F9008958F929F92AF92DE
:10170000BF92CF92DF92EF92FF92E091DF06F091CD
:10171000E006C080D180E280F380C092E706D092DC
:10172000E806E092E906F092EA06E091DD06F09123
:10173000DE0680819181A281B3818093EB06909334
:10174000EC06A093ED06B093EE068090F70690901D
:10175000F806A090F906B090FA06A5019401C70119
:10176000B6010E944D32181684F08090F3069090D6
:10177000F406A090F506B090F606A5019401C70105
:10178000B6010E94EE3087FF08C08092E706909273
:10179000E806A092E906B092EA06FF90EF90DF908B
:1017A000CF90BF90AF909F908F90089580916303EA
:1017B00090916403059791F488E00E94DE17892BCD
:1017C00069F0E89884E796E1909303018093020121
:1017D00087E090E090936403809363030895809181
:1017E000630390916403079729F488E00E94DE1751
:1017F000892B11F481E00895809163039091640333
:10180000079779F488E00E94DE17892B51F00E9437
:10181000AE1B85E090E090936403809363030E9485
:10182000EC1B80E008950E944833CF93DF93682F2C
:1018300070E080E090E04AE00E94FF1BEC0164E76A
:1018400071E08CE693E00E9480238C0F9D1FDF9156
:10185000CF910895CF92DF92EF92FF92CF93DF93D3
:101860006B017C01E0916C03F0916D030190F081BC
:10187000E02D6DE28CE693E00995EC016627772771
:10188000CB016C197D098E099F094AE00E94FF1B5C
:101890008C0F9D1FDF91CF91FF90EF90DF90CF9045
:1018A0000895CF93DF9397FF03C00E942A0C03C0D3
:1018B0004AE00E94FF1BEC0164E771E08CE693E0D4
:1018C0000E9480238C0F9D1FDF91CF9108950F936D
:1018D0001F93CF93DF93EC010E9462178C0164E7A2
:1018E00071E0CE010E948023800F911FDF91CF9184
:1018F0001F910F910895AF92BF92CF92DF92EF9216
:10190000FF920F931F93CF93DF93FB01DC010196AE
:101910002C912032D9F3B483A3839D0189010A1B42
:101920001B0BE90189919E018823C1F08F32B1F030
:101930008C3511F480E0F2C0982F977F9232D1F36A
:101940008A33C1F3982F9F7B9C33A1F392EC980FBD
:10195000923080F380528F3508F3ECCF0A0F1B1FB3
:10196000C801682F392FEC012991CE012032C9F32B
:101970002F32B9F3EA016883398398012A1B3B0BA4
:101980000A171B0741F0E8018A918E018E32A9F3F4
:10199000803299F303C0A12CB12C05C059012F3F0F
:1019A000310509F03CF6B282A182CF0106969F0173
:1019B0002F5E3F4F40E2EC014993CE01C217D3079F
:1019C000D1F7CD01AC014A1B5B0BEC013991CE0183
:1019D0003E32C1F33032B1F39A0191E0452B09F068
:1019E00090E0A5014150510938F0BD01640F751F09
:1019F000EB0188818E32B1F717E060E000E070E023
:101A000088E0E82E2A153B050CF06CC06D01C20E73
:101A1000D31EE6018881803209F45BC08E3229F43E
:101A20004217530709F055C004C08232E1F08C37E9
:101A3000D1F0D6EDFD2EF80ED5E0DF1510F08D3289
:101A400091F4C6ECFC2EF80EC5E0CF1560F4D5EA93
:101A5000FD2EF80ED2E0DF1530F4CFEDFC2EF80E9F
:101A6000CDE5CF1520F42417350781F438C02417AD
:101A70003507A9F1161718F1F82ECFE9DC2ED80E8C
:101A8000D9E1DD1548F080527E290CC01617B8F058
:101A900090E08FE5CFE5FC2ECFEBFC0ED9E1DF1512
:101AA00008F00E29FF24F394F60E6F01C60ED11C28
:101AB000E6018E83D6E0DF1570F0F5820CC01A3097
:101AC00081F0421753076CF09A011AE068E0D0E108
:101AD000ED2E90E001C06F2D2F5F3F4F93CF1A3056
:101AE000B9F490E08681803209F424CF992329F05B
:101AF000072309F072E0708309C081E0808385814B
:101B0000E80FF11D8EE7868381E3878381E006C0BD
:101B10009A011AE068E0D0E1ED2EDECFDF91CF919F
:101B20001F910F91FF90EF90DF90CF90BF90AF90FB
:101B30000895FC01AC01455F5F4F80E090E8899F0C
:101B400090011124982F9695922B2191892F820F25
:101B5000E417F50799F70895CF93DF93FC012081EF
:101B6000211102C081E030C0EC01828187FF25C0D5
:101B700061E0CF010E94CE23FC01892B29F48981E9
:101B80008160898380E020C08081853EC1F38881A7
:101B900083FF08C0888D998DAA8DBB8D848F958F0A
:101BA000A68FB78F8C8D9D8DAE8DBF8D938F828FBD
:101BB000B58BA48B8A818F778A838E819F810E94C7
:101BC0002B258823E1F2CECFDF91CF9108954F925C
:101BD0005F926F927F928F929F92AF92BF92CF92BD
:101BE000DF92EF92FF920F931F93CF93DF93EC015D
:101BF0004A015B014C845D846E847F84A881AA23A2
:101C000009F491C0488959896A897B8984169506A7
:101C1000A606B70609F48DC081149104A104B1048D
:101C200029F41C861D861E861F8678C0A3FF0BC064
:101C3000088D198D2A8D3B8D081519052A053B0540
:101C400008F471C014C0A5FF12C0EE81FF81868127
:101C5000978125E0880F991F2A95E1F7A0E0B0E071
:101C600088159905AA05BB0508F45DC057C0EE812B
:101C7000FF81848190E009968A019B01015011093E
:101C800021093109082E04C0369527951795079527
:101C90000A94D2F775016401B1E0CB1AD108E108CA
:101CA000F10804C0F694E794D794C7948A95D2F7C4
:101CB000C016D106E206F30620F0452B462B472B33
:101CC00081F4A6FF05C0848D958DA68DB78D04C0C7
:101CD0008C8D9D8DAE8DBF8D8C879D87AE87BF8788
:101CE00004C0C01AD10AE20AF30A8E01045F1F4F32
:101CF000C114D104E104F10489F04C855D856E8541
:101D00007F8598018E819F810E94C32291E0C91A2C
:101D1000D108E108F10818165CF305C0888A998A91
:101D2000AA8ABB8A06C04C865D866E867F8680E066
:101D300001C081E0DF91CF911F910F91FF90EF9053
:101D4000DF90CF90BF90AF909F908F907F906F90DB
:101D50005F904F9008952F923F924F925F926F92B3
:101D60007F928F929F92AF92BF92CF92DF92EF922B
:101D7000FF920F931F93CF93DF93EC015B014A0116
:101D8000888183FF0EC08A8181FF0BC082FF0FC054
:101D9000488D598D6A8D7B8DCE010E94E70D811192
:101DA00006C08981816089838FEF9FEF08C1A401FC
:101DB00060E070E088899989AA89BB8980959095AF
:101DC000A095B09584179507A607B70750F364014F
:101DD0001E018CE0280E311C088919892A893B894B
:101DE000C114D10409F4D0C08E819F81B901A8012A
:101DF00029E076956795579547952A95D1F7DC01A7
:101E00001396FC90F4221170F11034C001151105E5
:101E100089F54C855D856E857F8541155105610588
:101E2000710569F091010E94C32287FDBACF81112B
:101E300021C0CE010E94EE2381111CC0B2CF8C8D37
:101E40009D8DAE8DBF8D0097A105B10579F4CE01B2
:101E50000E94EE23882309F4A4CF8C859D85AE854E
:101E6000BF858C8F9D8FAE8FBF8F04C08C879D8761
:101E7000AE87BF87EE81FF814C855D856E857F854E
:101E80004250510961097109048004C0440F551F73
:101E9000661F771F0A94D2F780899189A289B38936
:101EA000480F591F6A1F7B1F4F0D511D611D711D6A
:101EB0000115110521F4C114B2E0DB06B0F580E094
:101EC00092E0801B910B76018C159D0508F47C0136
:101ED0000115110579F4488859886A887B88888DAE
:101EE000998DAA8DBB8D481659066A067B0610F09F
:101EF00025E001C021E0CF0180960E9420220097BA
:101F000009F44FCFA701B501800F911F0E945A33EA
:101F10000E0D1F1D0115124031F58E819F81809697
:101F20000E94DD2181111FC03CCF83A194A1A5A1F6
:101F3000B6A184179507A607B70741F410A28FEF43
:101F40009FEFDC0183A394A3A5A3B6A3EE81FF8139
:101F50009501808191810E942E21882309F421CF4F
:101F6000E12C82E0F82E88899989AA89BB898E0D97
:101F70009F1DA11DB11D888B998BAA8BBB8BAE0CAD
:101F8000BF1CCE18DF0828CF888D998DAA8DBB8DF8
:101F900080179107A207B30738F4088F198F2A8F8B
:101FA0003B8F8A8180688A838A8183FD02C0C40155
:101FB00006C0CE010E94AC0D8111F9CFF2CEDF91A7
:101FC000CF911F910F91FF90EF90DF90CF90BF9036
:101FD000AF909F908F907F906F905F904F903F90C9
:101FE0002F9008954F925F926F927F928F929F925F
:101FF000AF92BF92CF92DF92EF92FF920F931F9317
:10200000CF93DF93EC014B018A0188818823D9F0BB
:102010009A8190FF18C01DC0D380D422A114B104AE
:1020200009F081C0D1107FC0892B8A2B8B2B09F43A
:1020300064C04C855D856E857F859201CF010E94CD
:10204000C32287FF6AC08981826089838FEF9FEFF7
:10205000D3C083FF15C0888D998DAA8DBB8D48890B
:1020600059896A897B89841B950BA60BB70BA8013C
:1020700060E070E0481759076A077B07A0F012C0BC
:1020800085FF11C0EE81FF818681978155E0880F21
:10209000991F5A95E1F728893989821B930B80177C
:1020A000910708F48C0178012E012CE0420E511C9E
:1020B000612C42E0742EE114F10409F465C08889B2
:1020C0009989AA89BB895C0121E0B2222881EE812D
:1020D000FF81AC01BD0139E076956795579547952D
:1020E0003A95D1F725FF98CF848D958DA68DB78D24
:1020F000480F591F6A1F7B1F34C026FF05C0848DFF
:10210000958DA68DB78D04C08C8D9D8DAE8DBF8DA8
:102110008C879D87AE87BF8706C0811104C08881E8
:10212000807791F590CFEE81FF814C855D856E853E
:102130007F854250510961097109048004C0440F30
:10214000551F661F771F0A94D2F780899189A2894B
:10215000B389480F591F6A1F7B1F4D0D511D611D0B
:10216000711DEE81FF81A114B10471F5E11482E0CB
:10217000F80650F183A194A1A5A1B6A1481759076B
:102180006A077B0729F420C0C8018E199F0934C053
:102190009401808191810E947D21882309F453CF8D
:1021A000C12C82E0D82E8C0C9D1C88899989AA8923
:1021B000BB898C0D9D1DA11DB11D888B998BAA8B90
:1021C000BB8BEC18FD0877CFC3018A199B09670107
:1021D0008E159F0508F46C0120E0CF0180960E94C7
:1021E0002022009709F42FCFBC016A0D7B1DA601A8
:1021F000C4010E945A33D7CFDF91CF911F910F9125
:10220000FF90EF90DF90CF90BF90AF909F908F9016
:102210007F906F905F904F900895FF920F931F9360
:10222000CF93DF931F92CDB7DEB78C01FC0180897D
:102230009189A289B3899C01AD0175E056954795B6
:10224000379527957A95D1F7F22FFF70FF2E11F071
:10225000611116C041E050E0BE016F5F7F4FC801C1
:102260000E94F20F813019F080E090E01AC0F8016E
:1022700080899189A289B3894F96A11DB11D04C09F
:102280008096A11DB11DF801808B918BA28BB38B21
:10229000F801868197818796F0E2FF9E800D911D5F
:1022A00011240F90DF91CF911F910F91FF9008950E
:1022B0002F923F924F925F926F927F928F929F9256
:1022C000AF92BF92CF92DF92EF92FF920F931F9344
:1022D000CF93DF93CDB7DEB72A970FB6F894DEBF62
:1022E0000FBECDBF7C018B01FA01A180B280DB0162
:1022F0008C91807709F441C0D7018C9181113DC048
:102300009081937009F4CFC2C5010C966DE070E026
:102310000E94BF3277247394760E29836F0140E0C8
:1023200050E0BA01C8010E94E70D1C821D821A828A
:10233000612C812C912C1B8296012A5F3F4F3F8399
:102340002E83F80180899189A289B3891C012D010E
:10235000F5E05694479437942794FA95D1F73A8646
:10236000298661E0C8010E940D11009741F4D8014F
:1023700011968C91882309F499C080E0A9C2FC01D0
:102380002081253E11F021110AC0811002C02C824B
:102390003D82871408F48394211105C087C08714F7
:1023A00008F484C202C0253EF1F12E32E1F1DC01D5
:1023B0001B963C911B973F3009F057C0911009C004
:1023C00026FFBFCF2F71922E1D962C912A83692C48
:1023D00009C06A94261127C0DC011D962C913A8110
:1023E000321321C0462D50E0415051096DE0649FE9
:1023F0009001659F300D11242A153B05A0F4FC01C6
:1024000060E0653018F48181928107C06B3018F468
:102410008481958102C0868197812A153B0529F424
:10242000892B09F48ECF912C8CCF8F3F910509F029
:10243000D0F74FEB480F4A3110F0782F02C070E20E
:10244000780FA9014F5F5F4FD60113968D919C9134
:102450001497DC01A20FB31F8C919FEB980F9A3158
:1024600008F4805E7813DFCF23C233FDDCCF9920E0
:1024700049F0B1E06B1281CF0E94990D2A8182133D
:102480007CCF10C04BE050E06E817F810E944D33C5
:10249000892B09F056CFD6018C9180FF03C031E023
:1024A0003B834FCF298127FF67C167CF8981827422
:1024B000823409F062CF882061F03C8139872D8118
:1024C0002A8707C060E0C8010E940D11892B21F006
:1024D00083948714B8F316C0D80111968C91882381
:1024E00089F04BCFC8010E94A724882309F445CF67
:1024F000D8011696ED91FC9117978281823020F4D5
:1025000030E1830E871470F32B81222309F474C009
:10251000D60115966C9072E0872E912CEEE73E2E38
:102520002601B6E04B0E511C41C0F3E0F61510F445
:1025300033E0632E34E0360D282F2F70E32FF0E0C8
:102540002A3008F052C0205DEC0DFD1D268324E0EA
:10255000969587952A95E1F73150631668F3F60151
:10256000E60DF11D368240E050E0BA01C8010E943C
:10257000E70D61E0C8010E940D110097C1F1FC0157
:1025800020812223C9F1238523FDF3CF4BE050E0C6
:10259000BC01C2010E944D33892B59F7BFEF8B1A42
:1025A0009B0AE4E68E16910409F4E7CEF601218138
:1025B0003281C401820F931F0380F481E02DAF01AB
:1025C000420F531FE417F50709F4AFCF9C0165E0F4
:1025D000220F331F6A95E1F7280F391F8191082ECA
:1025E000000C990B82279327EDCF295CADCFD80142
:1025F00011968C918111C1CE29853A85A90160E09F
:1026000070E0B5E0440F551F661F771FBA95D1F7EC
:10261000C8010E94E70D882309F4AFCE99249A944B
:10262000970C892CFFE04F2E360136E0630E711CAB
:10263000ADE05A2E882009F460C060E0C8010E9415
:102640000D111C01892B09F498CED8011696ED9135
:10265000FC91179780A1816080A3282D891001C06B
:102660002064F101208343861486C30128870E94D9
:10267000990DD1011D968C931D975B961C921E920D
:102680005A97F6014381548128852F7130E02150FB
:102690003109529EC001539E900D112460E08A15AD
:1026A0009B0540F4FA01E80FF91F2081022E000C6F
:1026B000330B0AC021E030E08A159B0511F420E0BD
:1026C00030E0319521953109653028F412963C931C
:1026D0002E9311970BC06B3028F415963C932E93D4
:1026E000149704C017963C932E9316976F5F01962C
:1026F00012966D30A1F68A949DCFD80150964D91D7
:102700005D916D917C915397E5E07695679557952E
:102710004795EA95D1F75A87498760E0C8010E943A
:102720000D11009709F429CE20E2FC0111922A959F
:10273000E9F7F60136962BE0DC0101900D922A951F
:10274000E1F7D6012C912871FC01248721E238E2BF
:10275000318B208B40E058E057874687338B228BA4
:10276000318F208F578B468BD8011696ED91FC91B7
:10277000179780A1816080A380E2F70111928A956A
:10278000E9F7D80116968D919C911797F7019783D9
:10279000868329853A85358324835C964D915D91A6
:1027A0006D917C915F9740875187628773872F7007
:1027B0003327FC01B796890135E0000F111F3A95C8
:1027C000E1F7E00FF11F238523FF03C0F70110821B
:1027D000D4CDDC01A00FB11FD2962C912771D70167
:1027E0002C933385387111F428602C93F701938270
:1027F0002981227319F02081217141F729812F70DD
:10280000D70112962C931297FC0143A154A165A104
:1028100076A154964D935D936D937C935797D80111
:10282000A80FB91FDB964D915C91DC9760E070E0DA
:10283000BA0155274427FD01EF5BFF4F008111814D
:1028400020E030E0402B512B622B732B298124FF99
:102850000AC0411551056105710589F10E943323B4
:1028600081112DC0B3CFF701448F558F668F778FBD
:10287000AD5BBF4F8D919D910D90BC91A02D808F30
:10288000918FA28FB38F298125FF21C0D701589640
:102890004D915D916D917C915B97C7010E94E70D11
:1028A000811115C093CF7724739437CD812C7DCDC2
:1028B0006F5F32966D3009F444CD9A01A2CDD701F5
:1028C00012968C911297806812968C93DCCF81E0DF
:1028D0002A960FB6F894DEBF0FBECDBFDF91CF9121
:1028E0001F910F91FF90EF90DF90CF90BF90AF902E
:1028F0009F908F907F906F905F904F903F902F9020
:102900000895FC018081811114C080E2DF01982FBD
:102910001D929A95E9F777836683DB0115969C9162
:10292000903119F0903229F480E4808381E0828331
:10293000089580E00895CF92DF92EF92FF920F9377
:102940001F93CF93DF93CDB7DEB7E3970FB6F8941D
:10295000DEBF0FBECDBF7C018B015BAB4AABD22E7D
:1029600019821A82FC018081882311F080E059C00D
:10297000FB0180818077D1F3EAA9FBA980818F32A6
:10298000D9F4EAA9FBA980818F3221F43196FBABFF
:10299000EAABF7CFF80166817781811104C0C701E6
:1029A0000E9481143EC0CE0101960E9481148823AA
:1029B000E9F28E010F5F1F4F80E2C82EAE014E5C20
:1029C0005F4FBE016F5D7F4F8AA99BA90E947B0C60
:1029D000882361F2EAA9FBA980818823D1F021E054
:1029E000AE014F5D5F4FB801C7010E9458118823A7
:1029F00009F4BCCFF701DE0111968C2D01900D92E8
:102A00008A95E1F7C7010E94C5238E010F5F1F4F12
:102A1000D5CF2D2DAE014F5D5F4FB801C7010E948C
:102A20005811E3960FB6F894DEBF0FBECDBFDF910D
:102A3000CF911F910F91FF90EF90DF90CF9008956D
:102A4000CF92DF92EF92FF920F931F93CF93DF937A
:102A50006C017A018B01C0E0D0E0CE15DF0589F072
:102A6000D8016D918D01D601ED91FC910190F0811D
:102A7000E02DC6010995892B11F47E0102C0219633
:102A8000ECCFC701DF91CF911F910F91FF90EF9095
:102A9000DF90CF900895FC01538D448D252F30E0B9
:102AA000842F90E0821B930B541710F0CF9608955B
:102AB00001970895FC01918D828D981761F0828DA8
:102AC000DF01A80FB11D5D968C91928D9F5F9F7362
:102AD000928F90E008958FEF9FEF0895FC01918D04
:102AE000828D981731F0828DE80FF11D858D90E071
:102AF00008958FEF9FEF0895FC01918D228D892F0E
:102B000090E0805C9F4F821B91098F7399270895F5
:102B10008CE693E00E947C1521E0892B09F420E0EB
:102B2000822F0895FC01848DDF01A80FB11DA35AE7
:102B3000BF4F2C91848D90E001968F739927848FDD
:102B4000A689B7892C93A089B1898C9180648C93D4
:102B5000938D848D981306C00288F389E02D8081BF
:102B60008F7D80830895EF92FF920F931F93CF93F1
:102B7000DF93EC0181E0888F9B8D8C8D981305C0CD
:102B8000E889F989808185FD24C0F62E0B8D10E03F
:102B90000F5F1F4F0F731127E02E8C8DE8120CC0B2
:102BA0000FB607FCFACFE889F989808185FFF5CF58
:102BB000CE010E949215F1CF8B8DFE01E80FF11D21
:102BC000E35AFF4FF0820B8FEA89FB898081806294
:102BD00007C0EE89FF896083E889F9898081806474
:102BE000808381E090E0DF91CF911F910F91FF9062
:102BF000EF900895CF93DF93EC01888D8823C9F07F
:102C0000EA89FB89808185FD05C0A889B9898C91F5
:102C100086FD0FC00FB607FCF5CF808185FFF2CF90
:102C2000A889B9898C9185FFEDCFCE010E949215BC
:102C3000E7CFDF91CF91089580E090E0892B29F0D4
:102C40000E94881581110C9400000895833081F052
:102C500028F4813099F08230A1F008958730A9F0EE
:102C60008830B9F08430D1F4809180008F7D03C02A
:102C7000809180008F7780938000089584B58F774E
:102C800002C084B58F7D84BD08958091B0008F7798
:102C900003C08091B0008F7D8093B00008953FB74E
:102CA000F8948091120390911303A0911403B091B2
:102CB000150326B5A89B05C02F3F19F00196A11D4D
:102CC000B11D3FBFBA2FA92F982F8827820F911DC2
:102CD000A11DB11DBC01CD0142E0660F771F881F09
:102CE000991F4A95D1F70895089585ED8093BC000A
:102CF0008091BC0084FDFCCF109240030895409168
:102D0000EA02262F30E0240F311D21323105DCF498
:102D1000209140032430C9F4FC0180E090E0861744
:102D200058F43091EA022191DC01A653BD4FA30F64
:102D3000B11D2C930196F3CF8091EA02680F609346
:102D4000EA0280E0089581E0089582E00895E0912C
:102D50008402F0918502309729F0109217031092A7
:102D6000160309940895AC01E0918202F091830268
:102D70003097E1F090914203809141039817B0F0B1
:102D800090E0292F30E02617370754F4DA01A20F1C
:102D9000B31F8C91D901AD5BBC4F8C939F5FF1CF7A
:102DA0001092420360934103CB0109940895089562
:102DB000E091420380914103E81730F4F0E0ED5BCD
:102DC000FC4F808190E008958FEF9FEF08959091E0
:102DD000420380914103981750F4E92FF0E0ED5B36
:102DE000FC4F208130E09F5F9093420302C02FEFA1
:102DF0003FEFC90108958091410390E02091420383
:102E0000821B91090895CF92DF92EF92FF920F9368
:102E10001F93CF93DF937C01262F972F8A018091F8
:102E20001903882391F0C62FD72F6E01C40ED51E2B
:102E3000CC15DD0571F06991D701ED91FC91019000
:102E4000F081E02DC7010995F3CF642F822F0E94F6
:102E50007F16C801DF91CF911F910F91FF90EF90E6
:102E6000DF90CF900895CF93DF931F92CDB7DEB759
:102E70006983209119032223D1F020911603203277
:102E800040F021E030E0FC013383228380E090E0D9
:102E900015C080911703E82FF0E0E655FD4F9981AA
:102EA00090838F5F809317038093160305C061E0C2
:102EB000CE0101960E947F1681E090E00F90DF9195
:102EC000CF910895EF92FF920F931F93CF93DF93CB
:102ED0008C017B01C0E0D0E0F701EC0FFD1F649195
:102EE000662361F0D801ED91FC910190F081E02D15
:102EF000C8010995892B11F02196EECFCE01DF9103
:102F0000CF911F910F91FF90EF9008951F920F9214
:102F10000FB60F9211242F933F934F935F936F93AC
:102F20007F938F939F93AF93BF93EF93FF938CE621
:102F300093E00E949215FF91EF91BF91AF919F9105
:102F40008F917F916F915F914F913F912F910F9052
:102F50000FBE0F901F9018951F920F920FB60F92F1
:102F600011242F938F939F93EF93FF93E0917C0312
:102F7000F0917D038081E0918203F091830382FDD3
:102F800012C09081809185038F5F8F73209186039B
:102F9000821751F0E0918503F0E0E459FC4F958FE2
:102FA0008093850301C08081FF91EF919F918F9164
:102FB0002F910F900FBE0F901F901895CF93DF9316
:102FC000282F30E0F901EA5FFA4F8491F901EE50C1
:102FD000FB4FD491F901E252FB4FC491CC2391F005
:102FE00081110E942616EC2FF0E0EE0FFF1FEC522D
:102FF000FB4FA591B491EC91ED2381E090E021F499
:1030000080E002C080E090E0DF91CF9108951F93AF
:10301000CF93DF93282F30E0F901EA5FFA4F8491D4
:10302000F901EE50FB4FD491F901E252FB4FC491EC
:10303000CC23C9F0162F81110E942616EC2FF0E048
:10304000EE0FFF1FE653FB4FA591B4918FB7F89495
:10305000111105C09C91ED2FE095E92302C0EC9180
:10306000ED2BEC938FBFDF91CF911F910895CF93FC
:10307000DF9390E0FC01EE50FB4F2491FC01E25203
:10308000FB4F8491882361F190E0880F991FFC0128
:10309000E054FB4FC591D491FC01E653FB4FA59141
:1030A000B491611109C09FB7F8948881209582235B
:1030B0008883EC912E230BC0623061F49FB7F894A3
:1030C0003881822F809583238883EC912E2B2C933B
:1030D0009FBF06C08FB7F894E8812E2B28838FBF3F
:1030E000DF91CF9108958F929F92AF92BF92CF922E
:1030F000DF92EF92FF926B017C010E944F164B0111
:103100005C01C114D104E104F104F1F00E944F16F6
:10311000DC01CB0188199909AA09BB09883E9340B3
:10312000A105B10570F321E0C21AD108E108F10848
:1031300088EE880E83E0981EA11CB11CC114D10436
:10314000E104F10419F7DDCFFF90EF90DF90CF900D
:10315000BF90AF909F908F9008952FB7F894609193
:103160000E0370910F0380911003909111032FBFF4
:1031700008951F920F920FB60F9211242F933F9331
:103180008F939F93AF93BF9380910E0390910F0302
:10319000A0911003B091110330910D0323E0230F90
:1031A0002D3720F40196A11DB11D05C026E8230F7F
:1031B0000296A11DB11D20930D0380930E039093E1
:1031C0000F03A0931003B093110380911203909109
:1031D0001303A0911403B09115030196A11DB11D15
:1031E0008093120390931303A0931403B0931503D9
:1031F000BF91AF919F918F913F912F910F900FBEF3
:103200000F901F9018951F920F920FB60F921124D6
:103210002F933F934F935F936F937F938F939F93DE
:10322000AF93BF93EF93FF93E0910401F0910501F9
:103230000995FF91EF91BF91AF919F918F917F91F0
:103240006F915F914F913F912F910F900FBE0F9013
:103250001F9018951F920F920FB60F9211242F9363
:103260003F934F935F936F937F938F939F93AF930E
:10327000BF93EF93FF93E0910201F0910301099551
:10328000FF91EF91BF91AF919F918F917F916F913E
:103290005F914F913F912F910F900FBE0F901F9014
:1032A00018951F920F920FB60F9211242F933F93F0
:1032B0004F935F936F937F938F939F93AF93BF933E
:1032C000EF93FF938091B900887F803609F49CC00A
:1032D00068F5883209F45BC090F4803109F454C079
:1032E00038F4882309F4F6C0883009F44DC0F6C0DC
:1032F000883109F44CC0803209F45DC0EFC08034DD
:1033000009F468C048F4803309F455C0883309F0E3
:10331000E5C080933E03D8C0803509F44FC088359E
:1033200009F45DC0883409F0D9C0D6C0883909F4E1
:10333000C7C0A8F4883709F467C038F4883609F4A0
:1033400063C0803709F460C0C9C0883809F4B8C0C8
:10335000803909F45FC0803809F0C0C05BC0803B91
:1033600009F486C038F4803A09F466C0883A09F452
:103370007FC0B4C0803C09F4A7C0883C09F4A4C055
:10338000883B09F48AC0AAC080913B0310C0909189
:103390003D0380913C03981770F5E0913D0381E077
:1033A0008E0F80933D03F0E0E65EFC4F80818093BA
:1033B000BB0085EC86C080933E038EC0E0913D0348
:1033C00081E08E0F80933D038091BB00F0E0E65ECC
:1033D000FC4F808390913D0380913C036EC0E0914F
:1033E0003D0381E08E0F80933D038091BB00F0E0B0
:1033F000E65EFC4F808380913F0381116DC081E0C8
:1034000080933A0384EA61C083E080934003109282
:103410000C03CFCF80910C03803208F051C0E091B3
:103420000C0381E08E0F80930C038091BB00F0E0D1
:10343000E451FD4F8083BDCF85EC8093BC0010929A
:10344000400380910C03803230F4E0910C03F0E0F3
:10345000E451FD4F108260910C0370E0E09188020E
:10346000F09189028CEE92E0099510920C0336C01F
:1034700084E0809340031092EB021092EA02E09104
:103480008602F091870209958091EA02811105C0B8
:1034900081E08093EA021092CA02E091EB0281E09F
:1034A0008E0F8093EB02F0E0E653FD4F8081809316
:1034B000BB009091EB028091EA02981708F479CF53
:1034C00085E88093BC000AC085EC8093BC00109214
:1034D000400304C010923E030E947516FF91EF91C5
:1034E000BF91AF919F918F917F916F915F914F911C
:1034F0003F912F910F900FBE0F901F901895109233
:10350000400381E080933F0310923A0361E082E13F
:103510000E94071861E083E10E940718E9EBF0E0E0
:1035200080818E7F808380818D7F808388E48093FB
:10353000B80085E48093BC00089520911603909113
:103540001803213208F049C0809140038111FCCF5B
:1035500032E03093400360933F033FEF30933E03EC
:1035600010923D0320933C03AAEAB2E04AE153E003
:10357000FA013E2F341B321718F43D913193F9CFE5
:1035800010923B0320913B03990F922B90933B03A6
:1035900090913A03913061F410923A0390913B0379
:1035A0009093BB009091BC0093FDF8CF95EC01C0C7
:1035B00095EE9093BC00909140039230E1F390918E
:1035C0003E039F3F79F080913E03803241F080912D
:1035D0003E03803331F084E005C081E003C082E027
:1035E00001C083E010921703109216031092190382
:1035F0000895CF92DF92EF92FF920F931F93CF9394
:10360000DF938C010E94EF1F809180020E94E01FD7
:1036100066E07EE187E00E94982086E00E94062016
:10362000EC0166E07EE187E00E94982086E00E943F
:103630000620C817D90799F066E07EE187E00E946E
:10364000982086E00E940620C817D90741F066E05E
:103650007EE187E00E94982086E00E940620C80153
:103660008D7F892BA1F40E94F91F24E0E22E28E02F
:10367000F22E82E00E94DE17892BD9F38C2F0E9454
:10368000FF1F81E0E81AF108A1F70E94DC1F90E417
:10369000E92EF12C80E00E940620BC01686080E0E9
:1036A0000E9498200E94F91F80E2C82ED12C82E04F
:1036B0000E94DE17892BD9F38C2F0E94FF1F81E017
:1036C000C81AD108A1F70E94DC1F80E00E940620E2
:1036D00083FD1EC0015011090230110570F50E94D2
:1036E000F91F04E018E082E00E94DE17892BD9F36D
:1036F0008C2F0E94FF1F01501109A9F7DF91CF9174
:103700001F910F91FF90EF90DF90CF900C94DC1FF2
:1037100081E0E81AF10809F0BDCF80E00E940620A0
:10372000BC01646080E0DF91CF911F910F91FF9009
:10373000EF90DF90CF900C949820DF91CF911F9164
:103740000F91FF90EF90DF90CF900895E89884E775
:1037500096E1909303018093020108950F931F93C4
:10376000CF9378948AE892E0C0E2C80F82E00E948A
:10377000DE17892B69F140E250E06AE872E089E1E6
:1037800094E00E94F20F892B99F489E194E00E9461
:10379000C52384E090E090936403809363030E94C8
:1037A000A61B80E090E0CF911F910F910C94F91A25
:1037B000F8940E94F91F0AE812E0F80181918F0144
:1037C0000E94FF1FC013F9CF0E94DC1F7894CECF58
:1037D000CF911F910F91089580916303909164039D
:1037E000059761F48EEA9BE19093030180930201B7
:1037F00080916900836080936900E89A08958F92B0
:103800009F92AF92BF920F931F93CF93DF93CDB749
:10381000DEB7A1970FB6F894DEBF0FBECDBF19A2D9
:10382000423008F44AE08E010F5D1F4F842E912C28
:10383000A12CB12CA50194010E94E732E62FB90119
:10384000CA0101501109EA3014F4E05D01C0E95CDD
:10385000D801EC93232B242B252B61F7B8018CE6A0
:1038600093E00E948023A1960FB6F894DEBF0FBEAE
:10387000CDBFDF91CF911F910F91BF90AF909F90DF
:103880008F900895CF93DF93CDB7DEB7A0970FB693
:10389000F894DEBF0FBECDBF19821A8221E0AC01C1
:1038A0006CE876E0CE0101960E949B14A0960FB6BC
:1038B000F894DEBF0FBECDBFDF91CF9108958F92F8
:1038C0009F92AF92BF92CF92DF92EF92FF92CF93EF
:1038D000C82F10926A0481E090E0A0E0B0E08093ED
:1038E0006D0490936E04A0936F04B093700485E60A
:1038F00094E09093870480938604109285048FEF60
:103900009FEFDC018093880490938904A0938A043C
:10391000B0938B04CC2331F1C53008F0DCC020E03B
:1039200040E050E0BA0185E894E00E942022009730
:1039300009F4D1C020E1C29F800D911D1124409750
:10394000FC01E254FE4F20812F7709F0C4C0389665
:1039500080809180A280B38081149104A104B1047D
:1039600021F4B9C0812C912C540120E0B501A401AF
:1039700085E894E00E942022FC01892B09F4ABC069
:10398000838594858115924009F0A5C08089823095
:1039900009F0A1C0468557854115510509F49BC022
:1039A0002585209367048FEF820F8093680480E061
:1039B00091E0291751F031E0380F393019F4809334
:1039C000690489C0990F832FF4CF80936904C68856
:1039D000D788C114D10419F0E12CF12C04C0C4A083
:1039E000D5A0E6A0F7A0C0927104D0927204E09234
:1039F0007304F0927404D501C401840F951FA11DB6
:103A0000B11D8093790490937A04A0937B04B093C2
:103A10007C042189328930936C0420936B04CC0C94
:103A2000DD1CEE1CFF1CC80ED91EEA1EFB1EC09238
:103A30008104D0928204E0928304F092840455E0E1
:103A4000220F331F5A95E1F721503E4F232F332782
:103A50002695C20ED31EE11CF11CC0927504D092B3
:103A60007604E0927704F092780423893489211552
:103A7000310521F0C901A0E0B0E004C080A191A10E
:103A8000A2A1B3A1B501A4014C195D096E097F097A
:103A9000480F591F6A1F7B1F0090690404C0769568
:103AA0006795579547950A94D2F7DB01CA010196AD
:103AB000A11DB11D80937D0490937E04A0937F048B
:103AC000B0938004453F8FE058076105710528F4E5
:103AD0008CE080936A0480E017C0453F5F4F61052A
:103AE000710510F480E10DC084A595A5A6A5B7A524
:103AF0008093810490938204A0938304B093840400
:103B000080E280936A0481E0CF91FF90EF90DF9094
:103B1000CF90BF90AF909F908F9008950F931F9379
:103B2000CF93DF9361E078E187E00E94982086E000
:103B30000E940620EC0160E078E187E00E94982076
:103B400086E00E9406208C0186E00E94062017FF76
:103B5000EC01AE0160E070E0BA0155274427C801CE
:103B6000A0E0B0E08A019B01082B192B2A2B3B2BEC
:103B7000C901B801DF91CF911F910F91089588E09D
:103B80000E94DE17892B59F0209163033091640362
:103B90002D7F81E02530310519F080E0089583E024
:103BA00008952F923F924F925F926F927F928F92E1
:103BB0009F92AF92BF92CF92DF92EF92FF920F93BC
:103BC0001F93CF93DF931F92CDB7DEB71B012C015C
:103BD000AB01BC014F5F5F4F6F4F7F4F8091080774
:103BE00090910907A0910A07B0910B0784179507D8
:103BF000A607B70708F4C4C0CE0101966C01EE24F5
:103C0000E394BB24BA9425EEA22E35EC732E43E444
:103C1000842E43E0942E0091030710910407D201F3
:103C2000C1010090050704C0B695A79597958795A3
:103C30000A94D2F7F090FF06F82AE0921903F09266
:103C400018031092170310921603809106079091A3
:103C50000707029791F4A091FD06B091FE06ED9141
:103C6000FC9111977727652D542D432D0190F081FC
:103C7000E02DCB01BA01CD0109958091FD0690910F
:103C8000FE06DC01ED91FC910190F081E02D622DAA
:103C9000099561E08091FD069091FE060E949D1AB3
:103CA000811171C0609040036110FCCFC801019781
:103CB00082219321081B190B11F001E010E0802FE5
:103CC000E0924003E0923F03B0923E0310923D0326
:103CD0009FEF900F90933C03E0923B0390913B0346
:103CE000FF0CF92AF0923B0390913A03913069F46A
:103CF00010923A0390913B039093BB009091BC00CB
:103D000093FDF8CF7092BC0002C0A092BC009091CD
:103D100040039130E1F390913D03981710F48091A6
:103D20003D03AAE1B3E0E3E4F3E09E2F981998176E
:103D300018F49D919193F9CF10924203809341031F
:103D4000F12C8F2D90E08017910778F48091FD067B
:103D50009091FE06DC01ED91FC910284F385E02D4B
:103D60000995F6018083F394ECCF200E311E411C9F
:103D7000511CC00ED11E0130110509F04CCF04C0FA
:103D800089E0682E01C0682E862D90E0009719F416
:103D9000898190E003C09195819591090F90DF9101
:103DA000CF911F910F91FF90EF90DF90CF90BF9038
:103DB000AF909F908F907F906F905F904F903F90CB
:103DC0002F9008953F924F925F926F927F928F92C1
:103DD0009F92AF92BF92CF92DF92EF92FF920F939A
:103DE0001F93CF93DF934B015C017A01890120E29D
:103DF000622E712C332433943BECC32E37E0D32E48
:103E00000115110509F4ADC0409103075091040755
:103E100080910607909107079301281B390B702F9B
:103E2000612F2017310710F4722F632F9A01215050
:103E3000310928213921DA01A21BB30BC72FD62F54
:103E4000AC17BD0708F4ED01B501A401009005070A
:103E500004C076956795579547950A94D2F7409098
:103E6000FF06442A30921903409218031092170358
:103E700010921603029791F4A091FD06B091FE06F0
:103E8000ED91FC91119777276B2D5A2D492D0190BB
:103E9000F081E02DCB01BA01CD0109958091FD069D
:103EA0009091FE06DC01ED91FC910190F081E02DF6
:103EB000682D09958091FD069091FE06DC01ED913B
:103EC000FC910280F381E02DAE01B701099561E01C
:103ED0008091FD069091FE060E949D1A811142C0BC
:103EE00084E6582EC6010197F1F7309219034092EB
:103EF00018031092170310921603809106079091F1
:103F00000707029761F48091FD069091FE06DC019F
:103F1000ED91FC910190F081E02D60E00995809198
:103F2000FD069091FE06DC01ED91FC910190F0817F
:103F3000E02D60E0099561E08091FD069091FE061C
:103F40000E949D1A882321F05A945110CBCF0AC0A9
:103F50008C0E9D1EA11CB11CEC0EFD1E0C1B1D0B1E
:103F60004FCF80E0DF91CF911F910F91FF90EF90A5
:103F7000DF90CF90BF90AF909F908F907F906F9089
:103F80005F904F903F900895CF93DF931F92CDB7EE
:103F9000DEB7698341E050E0BE016F5F7F4F04965A
:103FA0000E94AB0E0F90DF91CF91089504960C9470
:103FB000AB0E04960C94AC0D61E087E00C940718EE
:103FC0009CB5282F23709C7F922B9CBD2DB582FB26
:103FD000992790F9822F8E7F892B8DBD08958CB5FE
:103FE0008F7D8CBD8CB5837F8CBD809114070C9424
:103FF000E01F0E94EF1F60E087E00C9407188EBD61
:1040000000000DB407FEFDCF8EB50895CF93DF936A
:10401000C82F88E00E94DE17892B09F440C08091E8
:10402000630390916403059711F40E94A61B82E03C
:104030000E94DE17892BD9F30E94EF1F60E086E013
:104040000E940718809180020E94E01F83E00E9476
:10405000FF1F8C2F0E94FF1F8FEF0E94FF1FC82F92
:1040600082E00E94DE17892BD9F38FEF0E94FF1F99
:10407000D82F82E00E94DE17892BD9F361E086E019
:104080000E9407188091630390916403059721F4BF
:104090000E94AE1B0E94EC1B8D2F9C2F02C080E063
:1040A00090E0DF91CF9108951F93CF93DF93182F66
:1040B000D62FC42F88E00E94DE17892BA9F18091AA
:1040C000630390916403059711F40E94A61B82E09C
:1040D0000E94DE17892BD9F30E94EF1F60E086E073
:1040E0000E94071882E00E94FF1F812F0E94FF1F7D
:1040F0008D2F0E94FF1F8C2F0E94FF1F82E00E94C5
:10410000DE17892BD9F361E086E00E9407188091C1
:10411000630390916403059739F40E94AE1BDF910D
:10412000CF911F910C94EC1BDF91CF911F910895BB
:10413000462F672F0C9454208EBD0DB407FEFDCF83
:1041400008958FEF8EBD0DB407FEFDCF8EB5089597
:10415000CF93DF93FC012381222361F0EC010180E6
:10416000F281E02D61E082810E9407188FEF0E94AA
:104170009C201B82DF91CF910895CF93DF93FC01A8
:104180002381211110C0EC010180F281E02D90818A
:1041900081819CBD8DBDE981FA8160E082810E94B0
:1041A000071881E08B83DF91CF910895CF92DF9242
:1041B000EF92FF921F93CF93DF9300D000D0CDB743
:1041C000DEB77C01162F29833A834B835C83FC0185
:1041D0008381811103C0C7010E94BD200E94AD18D8
:1041E0006B010E94A1208F3F39F00E94AD186C191D
:1041F0007D0969357240A8F3812F80640E949C205C
:104200008C810E949C208B810E949C208A810E942C
:104210009C2089810E949C20112311F087E801C015
:1042200085E90E949C201C3011F40E94A12010E01E
:104230000E94A120F701848387FF04C01F3F11F073
:104240001F5FF6CF0F900F900F900F90DF91CF91DF
:104250001F91FF90EF90DF90CF9008950F931F93E1
:10426000CF93DF93EC0189018D81833039F089E0B0
:10427000440F551F661F771F8A95D1F79A01AB012E
:1042800068E1CE010E94D620882319F082E388835A
:1042900026C08EEF0E949C20F80180818EBD818116
:1042A00032961E5F0DB407FEFDCF8EBDE017F107FD
:1042B00011F08191F7CF0DB407FEFDCF8FEF0E9473
:1042C0009C208FEF0E949C200E94A1208C838F71E4
:1042D000853051F087E58883CE010E94A820CE0169
:1042E0000E94A82080E004C0CE010E94A82081E0A6
:1042F000DF91CF911F910F910895EF92FF920F934D
:104300001F93CF93DF93EC0179018D81833039F0D6
:1043100089E0440F551F661F771F8A95D1F79A01D0
:10432000AB0161E1CE010E94D620882319F080E321
:10433000888338C00E94AD188B010E94A1208C8315
:104340008F3F49F40E94AD18601B710B6D327140B4
:10435000A0F385E503C08E3F31F080E58883CE0170
:104360000E94A8201FC08FEF8EBDF701D701A1507A
:10437000BE4F9FEF0DB407FEFDCF8EB59EBD81935E
:10438000EA17FB07B9F70DB407FEFDCF8EB58C9386
:104390001C820E94A1200E94A120CE010E94A82080
:1043A00081E004C0CE010E94A82080E0DF91CF917F
:1043B0001F910F91FF90EF900895EF92FF921F933E
:1043C000CF93DF93FC01208120FF32C0EC017C0100
:1043D000F7E0EF0EF11C4B815C816D817E81E981FC
:1043E000FA819701808191810E942E21182F8111DD
:1043F00002C010E01EC0888181FD04C088818E7FCC
:10440000888317C0E981FA8144855585668577855B
:104410008B819C81AD81BE81480F591F6A1F7B1F14
:104420009701808191810E942E218111E7CFE1CFF8
:1044300011E0812FDF91CF911F91FF90EF900895B0
:10444000CF92DF92EF92FF921F93CF93DF93EC0115
:104450006A017B01122F8B819C81AD81BE81841703
:104460009507A607B707F1F0CE010E94DD21811163
:1044700003C080E090E01CC012FF06C01882CB820F
:10448000DC82ED82FE820EC0E981FA819E01295F05
:104490003F4FB701A601808191810E947D2181114A
:1044A000EDCFE7CF13708881182B1883CE010796C4
:1044B000DF91CF911F91FF90EF90DF90CF90089503
:1044C0008F929F92AF92BF92CF92DF92EF92FF9224
:1044D0000F931F936A017B0148015901FC0125815B
:1044E000203251F54489558966897789970186017B
:1044F000E7E03695279517950795EA95D1F7400F90
:10450000511F621F731F23E080960E942022009794
:1045100011F480E02DC0E894C7F8DD24EE24FF24D8
:10452000CC0CDD1CCC0CDD1CFC01EC0DFD1D8082D7
:104530009182A282B3821BC0203159F7FC014489C9
:104540005589668977894D0D511D611D711D23E0C7
:1045500080960E9420220097E1F2DD24EE24FF24C1
:10456000CC0CDD1CFC01EC0DFD1D9182808281E0F4
:104570001F910F91FF90EF90DF90CF90BF90AF9081
:104580009F908F900895CF92DF92EF92FF920F93BA
:104590001F93CF93DF93EC016A017B0189018D8129
:1045A000803251F58C899D89AE89BF89E7E0769587
:1045B000679557954795EA95D1F7480F591F6A1F98
:1045C0007B1F22E0CE0180960E942022009711F4EA
:1045D0008FEF40C0E894C7F8DD24EE24FF24CC0C14
:1045E000DD1CCC0CDD1CFC01EC0DFD1D80819181DE
:1045F000A281B381BF701DC0803151F74C895D89A4
:104600006E897F894D0D511D611D711D22E0CE0106
:1046100080960E9420220097D9F2DD24EE24FF2408
:10462000CC0CDD1CFC01EC0DFD1D80819181A0E016
:10463000B0E0488D598D6A8D7B8D481759076A0700
:104640007B0738F0F80180839183A283B38381E0F4
:1046500001C080E0DF91CF911F910F91FF90EF900B
:10466000DF90CF9008959F92AF92BF92CF92DF924A
:10467000EF92FF920F931F93CF93DF9300D000D060
:10468000CDB7DEB75C016A017B019E012F5F3F4F12
:10469000B701A601C5010E94C322982E87FF02C060
:1046A00080E01EC000E010E09801B701A601C5013E
:1046B0000E9460228823A1F3F5014085518562851F
:1046C0007385C416D506E606F70620F4C086D186A3
:1046D000E286F386C980DA80EB80FC809110D5CF2A
:1046E0000F900F900F900F90DF91CF911F910F912E
:1046F000FF90EF90DF90CF90BF90AF909F90089584
:104700006115710579F0FB0101900020E9F73197FF
:10471000AF01461B570BDC01ED91FC910280F38148
:10472000E02D099480E090E008950895809143027F
:1047300090914402A0914502B09146020196A11DBC
:10474000B11D8093430290934402A0934502B0931D
:1047500046020895CF93DF930597A0F089E094E097
:104760000E94E71680934B02C7E4D2E089E094E010
:104770000E94E716899382E0CB34D807B9F781E02D
:1047800080934C02DF91CF910895CF93DF93EC019A
:104790000E94AC0D1882DF91CF910895CF93DF93E3
:1047A000EC01262F4C895D896E897F898E819F81DE
:1047B00080960E942022009761F02C813D812F700D
:1047C000332745E0220F331F4A95E1F7820F931FED
:1047D00002C080E090E0DF91CF9108953F924F9228
:1047E0005F926F927F928F929F92AF92BF92CF9281
:1047F000DF92EF92FF920F931F93CF93DF93CDB78A
:10480000DEB728970FB6F894DEBF0FBECDBF4C01C0
:10481000DC0112968C911297806812968C931297F5
:104820001C964D905D906D907C901F971696AD9064
:10483000BC901797411451046104710461F4D501CF
:1048400018968D919D910D90BC91A02D8D839E8386
:10485000AF83B88704C04D825E826F827886CD8038
:10486000DE80EF80F884BFEFCB1ADB0AEB0AFB0A8D
:10487000F501808D918DA28DB38D8C159D05AE05B2
:10488000BF0528F482E0C82ED12CE12CF12C9E012A
:104890002F5F3F4FB701A601C5010E94C32287FDCC
:1048A00020C0882341F089819A81AB81BC81892B0A
:1048B0008A2B8B2B51F08D819E81AF81B885C816D4
:1048C000D906EA06FB0679F60CC00FEF1FEF2FEFB3
:1048D0003FE0B701A601C5010E946022382E811178
:1048E00002C0312C1BC0411451046104710451F009
:1048F00097018601B301A201C5010E9460228111C6
:1049000008C0EFCFD5011896CD92DD92ED92FC92C2
:104910001B97F401C486D586E686F786832D2896F4
:104920000FB6F894DEBF0FBECDBFDF91CF911F91C0
:104930000F91FF90EF90DF90CF90BF90AF909F903E
:104940008F907F906F905F904F903F9008958F92DF
:104950009F92AF92BF92EF92FF920F931F93CF93CC
:10496000DF93EC01888185FF02C010E068C0888970
:104970009989AA89BB8981159E4FAF41B105A8F7D6
:10498000CE010E94EE23182F882379F3EE81FF8158
:104990004C855D856E857F8542505109610971099D
:1049A000048004C0440F551F661F771F0A94D2F776
:1049B00080889188A288B388840E951EA61EB71E93
:1049C00025E0B501A401CF0180960E9420227C0140
:1049D000892B59F280E092E0F7019C01119221505D
:1049E0003040E1F701E0EE81FF819281091780F408
:1049F0009701B501A401400F511D611D711D8081FA
:104A000091810E942E21882309F4AFCF0F5FEBCF55
:104A1000492F50E060E070E089E0440F551F661FA9
:104A2000771F8A95D1F788899989AA89BB89480F08
:104A3000591F6A1F7B1F488B598B6A8B7B8B812F79
:104A4000DF91CF911F910F91FF90EF90BF90AF90AA
:104A50009F908F90089580960C94DD2160E078E11E
:104A600087E00E94982060E070E086E00E94982035
:104A700060E070E086E00C949820CF92DF92EF9295
:104A8000FF92CF93DF93C82F80931301282F30E03C
:104A900088EE93E0B9010E94D332CB01880F991FB1
:104AA000680F791F7093130760931207B901330FD2
:104AB000880B990B0E949D319B01AC0160E070E86E
:104AC00081E297E40E94F3306B017C01D0911201E6
:104AD0006D2F70E080E090E00E949D319B01AC0161
:104AE000C701B6010E94F33020E030E040E05FE310
:104AF0000E9452320E946C3170931107609310072C
:104B0000C701B6010E94653170930F0760930E07CD
:104B1000CD9FC0011124880F991F90930D0780939A
:104B20000C07DF91CF91FF90EF90DF90CF90089529
:104B3000CF93DF9300D000D01F92CDB7DEB789832B
:104B40004A835B836C837D8381E08093190387E0D4
:104B500080931803109217031092160341E050E05F
:104B6000BE016F5F7F4F89E094E00E94031744E02D
:104B700050E0BE016E5F7F4F89E094E00E94031712
:104B800061E089E094E00E949D1A0F900F900F90D1
:104B90000F900F90DF91CF910895FC01848583FFE2
:104BA0000DC084A195A1A6A1B7A1448D558D668D98
:104BB000778D841B950BA60BB70B03C080E090E0AC
:104BC000DC01811520E89207A105B10520F08FEFE7
:104BD0009FE7A0E0B0E00895089580E090E0089598
:104BE0000C960C94AB0ECF93DF931F92CDB7DEB72C
:104BF000698341E050E0BE016F5F7F4F0C960E94D9
:104C0000AB0E0F90DF91CF9108950C960C94AC0DE4
:104C1000CF93DF931F92CDB7DEB741E050E0BE01E6
:104C20006F5F7F4F0E94F20F019719F4898190E026
:104C300002C08FEF9FEF0F90DF91CF9108950C96F8
:104C40000C9408268F929F92AF92BF92CF92DF92E0
:104C5000EF92FF92CF93DF93EC018C8C9D8CAE8C06
:104C6000BF8CC88CD98CEA8CFB8C0C960E940826D1
:104C700097FD08C08C8E9D8EAE8EBF8EC88ED98E4D
:104C8000EA8EFB8EDF91CF91FF90EF90DF90CF9077
:104C9000BF90AF909F908F900895CF93DF93CDB743
:104CA000DEB7A5970FB6F894DEBF0FBECDBF7894E0
:104CB00084B5826084BD84B5816084BD85B5826021
:104CC00085BD85B5816085BD80916E0081608093D2
:104CD0006E0010928100809181008260809381003B
:104CE000809181008160809381008091800081604B
:104CF000809380008091B10084608093B1008091A6
:104D0000B00081608093B00080917A0084608093CD
:104D10007A0080917A00826080937A0080917A0094
:104D2000816080937A0080917A00806880937A0015
:104D30001092C1000E94C3028E01045F1F4F188FA2
:104D40000F8B80914C02882309F4EEC2E0914B0254
:104D50008E2F90E0FC013197E830F10520F5EC5CF6
:104D6000FF4F0C94283366EB74E08CE693E00E94CE
:104D7000670C27C06EE974E011C06AE874E00EC0E9
:104D80006EE774E00BC062E774E008C066E674E0AA
:104D900005C064E574E002C063E474E08CE693E06F
:104DA0000E94621704C080914B020E94150C609112
:104DB0004702709148028091490290914A020E94F4
:104DC000510CE0914B028E2F90E0FC013197E830BE
:104DD000F10508F099C2E45CFF4F0C9428338091F0
:104DE0006303909164038D7F059731F488E00E94FE
:104DF000DE17892B09F03DC781E08093010192C243
:104E00008091470290914802A0914902B0914A02D4
:104E100080931201809113010E943D2583C28091ED
:104E2000470290914802A0914902B0914A028093B2
:104E3000000178C260914702709148028091490256
:104E400090914A020E949D31609306017093070180
:104E5000809308019093090165C2609147027091A7
:104E600048028091490290914A020E949D316093CC
:104E70000A0170930B0180930C0190930D0152C2B3
:104E800060914702709148028091490290914A02D4
:104E90000E949D316B017C0160930E0170930F01A4
:104EA000809310019093110140900A0150900B01E2
:104EB00060900C0170900D018090060190900701A8
:104EC000A0900801B09009010091DB061091DC066A
:104ED00020E030E0A901C501B4010E94EE3087FD59
:104EE00021C220E030E0A901C301B2010E94EE30EE
:104EF00087FD18C220E030E0A901C701B6010E9479
:104F0000EE3087FD0FC281E00130110509F080E02D
:104F10008093FC068092C1069092C206A092C306BE
:104F2000B092C4064092C5065092C6066092C7066B
:104F30007092C806C092C906D092CA06E092CB060B
:104F4000F092CC066091EF067091F0068091F10628
:104F50009091F2060E949B3120E030E04AE754E451
:104F60000E94F330698F7A8F8B8F9C8F8092CD0651
:104F70009092CE06A092CF06B092D0069B01AC01D3
:104F8000C301B2010E9452322B013C016093D10651
:104F90007093D2068093D3069093D406298D3A8DD0
:104FA0004B8D5C8DC701B6010E94F3306B017C0113
:104FB0006093D5067093D6068093D7069093D80653
:104FC0008091D9069091DA06019709F0ABC1A5014D
:104FD000940160E070E0CB010E9481306093CD06C7
:104FE0007093CE068093CF069093D006A3019201D2
:104FF00060E070E0CB010E9481306093D106709335
:10500000D2068093D3069093D406A701960160E060
:1050100070E0CB010E9481306093D5067093D60674
:105020008093D7069093D8067DC140914702509156
:1050300048026091490270914A022091120130E0C9
:10504000249FC001259F900D349F900D1124880F3F
:10505000991F90937F0280937E0264C180914702E2
:1050600090914802A0914902B0914A02182F092F4D
:105070007CE0C72ED12CE12CF12CDF92CF920F9344
:105080001F93A2EAB1E0BF93AF93F88DFF932F89EE
:105090002F930E948433CE010C960E94421C0FB6BF
:1050A000F894DEBF0FBECDBF882379F08C2D0E940F
:1050B0003D25BE01645F7F4FCE0101960E946333A0
:1050C000B701A6018BE00E949825BFEFCB1ADB0A3F
:1050D000EB0AFB0AEAE1CE16D104E104F10469F619
:1050E0006CE0C62ED12CE12CF12CDF92CF920F93E5
:1050F0001F93AEEAB1E0BF93AF93F88DFF932F8972
:105100002F930E948433CE010C960E94421C0FB64E
:10511000F894DEBF0FBECDBF882379F08C2D0E949E
:105120003D25BE01645F7F4FCE0101960E9463332F
:10513000B701A6018BE00E949825BFEFCB1ADB0ACE
:10514000EB0AFB0AEAE1CE16D104E104F10469F6A8
:105150000E94BF1D81119EC588E00E94DE17892B29
:1051600009F49AC5609101027091020221E0AE013A
:105170004F5F5F4F89E194E00E949B14882309F4FC
:105180008DC5CE0101960E94773066EB71E00E94DA
:105190006A33892B09F46EC0109265030FEF1FEF7D
:1051A00089E194E00E9408268F3F910509F05EC0D6
:1051B00089E194E00E9408269C01207E3327203E4E
:1051C000310509F053C09C012670332721153105A4
:1051D00009F44CC083FF09C02430310541F022306E
:1051E000310509F043C012E003C013E001C011E033
:1051F00089E194E00E940826992744E095958795D7
:105200004A95E1F726E0289FF001299FF00D11242F
:10521000E10FF11DEE0FFF1FE252FD4F85919491BA
:1052200086958695869580936503409129045091D3
:105230002A0460912B0470912C0443505109610998
:10524000710989E194E00E94E70D80912904909111
:105250002A04A0912B04B0912C04809366039093B0
:105260006703A0936803B093690304C00150110958
:1052700009F096CF05E010E01093640300936303F8
:1052800060E070E084E00E94982064E670E080E0D6
:1052900090E00E9473180E94AE1B0E94EC1B6CEA07
:1052A00073E08CE693E00E94670C83E080936A03CE
:1052B00080936B0343E063E08BE00E9454200E94E4
:1052C000D60B69E07EE187E00E94982060E870E0FC
:1052D00086E00E94982062E973E08CE693E00E94E9
:1052E000670C809163039091640387309105E9F71F
:1052F0000E942E2583E08093010140E050E0BA0136
:1053000082E10E9498250EC080914B020E94150CEC
:1053100060914702709148028091490290914A023F
:105320000E94510C10924C0280910101853009F4C9
:10533000DBC0863009F421C4833009F06AC485E0FB
:105340000E94DE17019709F464C483E00E94DE170F
:105350008093500290914F02891761F020914D0285
:1053600030914E022F5F3F4F30934E0220934D02FB
:1053700080934F028091120190E0880F991F409115
:105380000001489F9001499F300D112480914D02EA
:1053900090914E02821793070CF43BC41092430283
:1053A0001092440210924502109246028091FB0630
:1053B000811102C00E947D0B81E08093FB0680E09A
:1053C00094E6A6E9B7EC8093F3069093F406A093D5
:1053D000F506B093F60600E014E626E937E40093FC
:1053E000F7061093F8062093F9063093FA06009119
:1053F000DF061091E006D801CD90DD90ED90FC9095
:1054000020E034E646E957E4C701B6010E944D3278
:1054100018162CF480E094E6A6E9B7E40EC020E06C
:1054200034E646E957ECC701B6010E94EE3087FF2B
:1054300009C080E094E6A6E9B7ECF8018083918387
:10544000A283B3838090E7069090E806A090E906D7
:10545000B090EA06C090F706D090F806E090F90602
:10546000F090FA06A7019601C501B4010E944D32E1
:10547000181684F0C090F306D090F406E090F5067C
:10548000F090F606A7019601C501B4010E94EE3026
:1054900087FF08C0C092E706D092E806E092E906CE
:1054A000F092EA0686E993E2909305018093040165
:1054B00080916900837F846080936900E99A0E94EB
:1054C000EF0B0E942E2540E050E0BA0183E10E94DC
:1054D000982567ED73E08CE693E00E94670C1092CC
:1054E0004E0210924D0292C3809143029091440269
:1054F000A0914502B091460260917E0270917F02B8
:10550000AB01770F660B770B8A019B01080F191F00
:105510002A1F3B1FC901B80120910C0730910D07CC
:1055200040E050E00E94E732BA01A90140935502E1
:105530005093560260935702709358028091510223
:1055400090915202A0915302B09154028417950792
:10555000A607B70798F48CE00E9498258091550221
:1055600090915602A0915702B09158028093510237
:1055700090935202A0935302B0935402409143027D
:1055800050914402609145027091460280917E02E2
:1055900090917F02092E000CAA0BBB0B840F951F64
:1055A000A61FB71F4091690250916A0260916B0279
:1055B00070916C0284179507A607B70709F44DC2CE
:1055C0000E948E1D6B017C018091430290914402E8
:1055D000A0914502B091460220917E0230917F0257
:1055E000A901330F660B770B9A01AB01280F391F06
:1055F0004A1F5B1FA0911007B09111070E942E3324
:1056000097018601061B170B280B390BB901A8015E
:10561000A0916302B0916402FD01EE0FFF1FEE0F37
:10562000FF1FED5FFD4F0091650210916602209112
:10563000670230916802C080D180E280F3800C194B
:105640001D092E093F094083518362837383CB0177
:10565000BA01600F711F821F931F609365027093E0
:10566000660280936702909368029D012F5F3F4F0F
:10567000203131052CF4309364022093630204C07E
:10568000109264021092630220E130E040E050E0AA
:105690000E94093320935F023093600240936102BD
:1056A00050936202CA01B9010E949D316093BD0608
:1056B0007093BE068093BF069093C0066091B906B2
:1056C0007091BA068091BB069091BC060E9465312C
:1056D0006B017C0167E07EE187E00E949820B601C3
:1056E00086E00E949820B701992777FD9095892F31
:1056F00086E00E9498206CE17BE587E00E9498207C
:1057000060E070E086E00E94982085E00E9406201C
:10571000BC0185E00E9498204091430250914402D0
:10572000609145027091460280917E0290917F02C5
:10573000092E000CAA0BBB0B840F951FA61FB71FC9
:105740008093690290936A02A0936B02B0936C02FB
:105750008091FB06882309F439C10E94AD18698F36
:105760007A8F8B8F9C8F8091E3069091E406A091B5
:10577000E506B091E606498D5A8D6B8D7C8D481BF0
:10578000590B6A0B7B0B8091EF069091F006A0916C
:10579000F106B091F206481759076A077B0708F42B
:1057A00015C1E091DD06F091DE06408051806280F7
:1057B0007380E091E106F091E206A301920160811D
:1057C0007181828193810E9481306B017C012091E3
:1057D000EB063091EC064091ED065091EE06C301C8
:1057E000B2010E9481306D8F7E8F8F8F98A32091A0
:1057F000D1063091D2064091D3065091D406C7010C
:10580000B6010E9452322091E7063091E80640919D
:10581000E9065091EA060E9482304B015C016093D8
:10582000E7067093E8068093E9069093EA061091E4
:10583000FC0619A311111CC02091CD063091CE0693
:105840004091CF065091D0066D8D7E8D8F8D98A1A1
:105850000E9452329B01AC01C501B4010E9481300B
:105860006093E7067093E8068093E9069093EA0652
:105870008091E7069091E806A091E906B091EA06CA
:105880008AA39BA3ACA3BDA32090F7063090F80693
:105890000091F9061091FA069101A801BC01CD0111
:1058A0000E944D3218165CF4C101D8018093E706BE
:1058B0009093E806A093E906B093EA061AC0809098
:1058C000F3069090F406A090F506B090F606A501B8
:1058D00094016AA17BA18CA19DA10E94EE3087FF5B
:1058E00008C08092E7069092E806A092E906B0927E
:1058F000EA0699A1992379F02091CD063091CE0640
:105900004091CF065091D006C701B6010E94523295
:105910006B017C0103C0C12CD12C76012091D506EE
:105920003091D6064091D7065091D8066D8D7E8D68
:105930008F8D98A10E9452329B01AC016091E706C5
:105940007091E8068091E9069091EA060E94813004
:105950009B01AC01C701B6010E9482306B017C0142
:105960009101A8010E944D32181694F02090F30680
:105970003090F4060091F5061091F6069101A80109
:10598000B601C7010E94EE3087FD02C016018701F3
:10599000E091DF06F091E006C101D8018083918398
:1059A000A283B3834092EB065092EC066092ED0620
:1059B0007092EE06098D1A8D2B8D3C8D0093E306B7
:1059C0001093E4062093E5063093E60620910E0737
:1059D00030910F07032E000C440B550B60915F02B2
:1059E0007091600280916102909162020E9409337D
:1059F00069017A01890180915D0290915E02281708
:105A0000390759F0A901330F660B770B80E10E942B
:105A10009825D0925E02C0925D02012BA1F40E94F3
:105A2000AD180091590210915A0220915B023091F9
:105A30005C020854144F2F4F3F4F061717072807D3
:105A4000390708F43DC10E94BF1D811106C040E026
:105A500050E0BA0184E10E949825409143025091A0
:105A60004402609145027091460280917E029091BD
:105A70007F02092E000CAA0BBB0B480F591F6A1F8F
:105A80007B1F00917102109172022091730230917C
:105A900074024017510762077307F9F040914302FF
:105AA000509144026091450270914602840F951F07
:105AB000A61FB71F8093710290937202A093730286
:105AC000B09374020E94AD1860936D0270936E02E1
:105AD00080936F02909370029CC00E94AD18009159
