:020000040000FA
:100000000C9498020C94C5280C949E280C94C00261
:100010000C94C0020C94C0020C94C0020C94C00258
:100020000C94C0020C94C0020C94C0020C94C00248
:100030000C94C0020C94C0020C94C0020C94C00238
:100040000C9454280C94C0020C9422280C94FC2785
:100050000C94C0020C94C0020C94C0020C94C00218
:100060000C94EC280C94C0022C3058005364457258
:10007000726F723A20305800436865636B205344B6
:1000800020666F726D61742E004E6F206361726422
:100090002C2077726F6E6720636869702073656CBF
:1000A0006563742070696E2C206F722077697269A5
:1000B0006E67206572726F723F00446F206E6F74BE
:1000C000207265666F726D61742074686520534498
:1000D0002E00626567696E2829206661696C656417
:1000E00000436865636B20534420666F726D6174D2
:1000F0002E002C30580053644572726F723A2030D3
:1001000058006572726F723A2000687474703A2FEA
:100110002F6D70666C6167612E6769746875622EF9
:10012000636F6D2F537061726B66756E2D4D50331A
:100130002D506C617965722D536869656C642D4131
:10014000726475696E6F2D4C6962726172792F23CA
:1001500054726F75626C6573686F6F74696E670057
:10016000496620796F75206765742074686973200B
:100170006572726F722C20796F75206C696B656C7B
:100180007920646F206E6F7420686176652061202D
:1001900073642E626567696E20696E2074686520DD
:1001A0006D61696E20736B657463682C205365659F
:1001B0002054726F75626C652053686F6F74696E3E
:1001C0006720477569646521004552524F523A20B5
:1001D0004453502070617463682066696C65206EBA
:1001E0006F7420666F756E642100496E20706C61BB
:1001F0007965722E626567696E3A2000446F6E659C
:100200002E00496E6974696E67204453502E2E2E5D
:1002100000436F756C64206E6F742077726974652B
:100220002066696C6520706174636865732E303573
:10023000330052656E616D696E67206661696C6539
:10024000640052656E616D65642073796E6B696ED2
:100250006F2E66697220746F2070617463686573B5
:100260002E3035330000493243206572726F723A86
:10027000200057726F6E6720656541646472657314
:1002800073004932432050726F626C656D3A2000F2
:10029000466F756E64206E65772044535020506120
:1002A000746368205061636B6167652E00436F75EE
:1002B0006C64206E6F742074616C6B20746F2049C5
:1002C000324320454550524F4D2E00496E20534435
:1002D0002E63686469723A2000496E2053442E42AE
:1002E0006567696E3A200000000000240027002A9C
:1002F0000000000000250028002B00000000002363
:100300000026002900040404040404040402020278
:100310000202020303030303030102040810204046
:1003200080010204081020010204081020000000CF
:1003300008000201000003040700000000000000A4
:10034000000000000000000000000000002000206D
:100350000020002000080008004000300028003085
:10036000001000100060003800300038001800183D
:1003700000800040003800400020002000A0005015
:10038000004000500028002800C0006000500060BD
:100390000030003000E0007000600070003800386D
:1003A000000001800070008000400040002001A09B
:1003B0000080009000500050004001C000A000A04C
:1003C00000600045006001E000C000B000700070F7
:1003D0000080010001E000C00080008000A001401A
:1003E000010001E00090009000C001800140010088
:1003F00001A000A00031352F313620726573616D88
:10040000706C696E6720656E61626C65642E005762
:10041000616974696E6720666F72207374617274AB
:10042000206D61726B2E2E2E00506C6179626163BB
:100430006B2D4572726F723A2000343034202D20BB
:1004400046696C65206E6F7420666F756E642E0051
:100450004C6F7320676568742773210046696C656B
:100460002053616D706C696E6720726174653A200B
:10047000002D2D2D20504155534544002D2D2D206C
:10048000504C4159494E47002D2D2D205245534582
:1004900054002D2D2D20545241434B5F4C4F41446D
:1004A00045442E002D2D2D2049444C494E472E0009
:1004B000434D445F4C4F41445F545241434B3A20BB
:1004C00000434D445F53594E435F4F464653455496
:1004D0003A2000434D445F5345545F443A20004363
:1004E0004D445F5345545F493A2000434D445F53A8
:1004F00045545F503A2000434D445F5345545F5389
:10050000544152544D41524B3A2000434D445F53A5
:1005100045545F53485554544552424C4144455309
:100520003A2000434D445F524553455400000B2A86
:1005300011241FBECFEFD8E0DEBFCDBF11E0A0E099
:10054000B1E0EEEEF5E702C005900D92A83AB107D2
:10055000D9F727E0A8EAB1E001C01D92A432B207A2
:10056000E1F712E0C8E9D2E004C02197FE010E9441
:10057000C637C739D107C9F70E940F2C0C94F53A3A
:100580000C940000FF920F931F93CF93DF93FB0116
:10059000EC019E012F5F3F4F88818032A9F0D1830B
:1005A000C08317821682BE01DB019D919D019923B4
:1005B00051F19F3241F190324CF480E0DF91CF91C4
:1005C0001F910F91FF900895E901E3CF892F877F55
:1005D000823299F39A3389F3892F8F7B8C3369F3B5
:1005E00082EC890F823048F39C3539F3BD016C1BD6
:1005F0007D0B9E3231F0903221F077836683B58394
:10060000A483B901D1CF8681978101978F3F91054E
:10061000A0F6262F972FEB018991BE018032C9F3F6
:100620008F32B9F3DA012C9311969C9304811581D2
:1006300020813181DF011A96CF01459640E24D932A
:100640008A179B07E1F781E0E90198819E3209F45E
:1006500080E0D9012F5F3F4F9C919E32D1F39801EA
:1006600021503109A217B30720F4E90198819E3285
:10067000B9F740E067E0C0E050E078E0A017B107CC
:1006800008F044C09C919E3241F42A173B0769F45C
:100690006AE0C8E070E11196F1CF9232A1F09C3788
:1006A00091F0D5EAD90FD33070F0D6EDD90FD6300E
:1006B00010F49D3241F4D6ECD90FD63020F0DFEDA6
:1006C000D90FDE3528F0907C9038B1F580E0E3CF8B
:1006D0006C1740F46A30C9F02A173B07B0F0D90113
:1006E0001197F4CFDFE9D90FDA3150F59052472B4B
:1006F000FF24F394FC0ECE0FDF2FD11D9A87D6E096
:10070000DF1508F0F086CF2DC6CF80E092859032BD
:1007100009F453CF882329F0542309F042E041879C
:100720004DCF81E081876085E60FF11D8EE78287DE
:1007300081E3838781E042CF80E09FE56C1750F230
:10074000DFEBD90FDA31A0F6572BD2CF8F929F92E1
:10075000AF92BF92CF92DF92EF92FF92E091F106BB
:10076000F091F206C080D180E280F380C092F90659
:10077000D092FA06E092FB06F092FC06E091EF06BA
:10078000F091F00680819181A281B3818093FD0672
:100790009093FE06A093FF06B09300078090090790
:1007A00090900A07A0900B07B0900C07A501940148
:1007B000C701B6010E94E63618164CF48092F9067D
:1007C0009092FA06A092FB06B092FC0610C08090B0
:1007D000050790900607A0900707B0900807A501AD
:1007E0009401C701B6010E94873587FDE7CFFF90CE
:1007F000EF90DF90CF90BF90AF909F908F90089533
:100800008091B1029091B202A091B302B091B40272
:100810000196A11DB11D8093B1029093B202A093E5
:10082000B302B093B4020895AF92BF92CF92DF9219
:10083000EF92FF920F931F93CF93DF936C017B0195
:100840008B01040F151FEB015E01AE18BF08C01726
:10085000D10759F06991D601ED91FC910190F08199
:10086000E02DC6010995892B79F7C501DF91CF915C
:100870001F910F91FF90EF90DF90CF90BF90AF90BE
:100880000895FC01538D448D252F30E0842F90E096
:10089000821B930B541710F0CF960895019708957B
:1008A000FC01918D828D981761F0A28DAE0FBF2F44
:1008B000B11D5D968C91928D9F5F9F73928F90E09A
:1008C00008958FEF9FEF0895FC01918D828D981709
:1008D00031F0828DE80FF11D858D90E008958FEF46
:1008E0009FEF0895FC01918D228D892F90E0805C0F
:1008F0009F4F821B91098F739927089585E493E098
:100900000E94720421E0892B09F420E0822F0895CF
:1009100080E090E0892B29F00E947E0481110C94E4
:1009200000000895FC01A48DA80FB92FB11DA35A92
:10093000BF4F2C91848D90E001968F739927848FFF
:10094000A689B7892C93A089B1898C918370806422
:100950008C93938D848D981306C00288F389E02DC3
:1009600080818F7D80830895EF92FF920F931F9374
:10097000CF93DF93EC0181E0888F9B8D8C8D981352
:100980001AC0E889F989808185FF15C09FB7F8945E
:10099000EE89FF896083E889F989808183708064AA
:1009A00080839FBF81E090E0DF91CF911F910F91F5
:1009B000FF90EF900895F62E0B8D10E00F5F1F4F04
:1009C0000F731127E02E8C8D8E110CC00FB607FC13
:1009D000FACFE889F989808185FFF5CFCE010E94A1
:1009E0009204F1CFEB8DEC0FFD2FF11DE35AFF4F79
:1009F000F0829FB7F8940B8FEA89FB89808180622F
:100A0000CFCFEF92FF920F931F93CF93DF938C0181
:100A10007B01D0E0C0E0F701EC0FFD1F649166237D
:100A200039F0C8010E94B404892B11F02196F3CF4C
:100A3000CE01DF91CF911F910F91FF90EF9008951C
:100A4000CF93DF93EC01888D8823B9F0AA89BB8905
:100A5000E889F9898C9185FD03C0808186FD0DC0F0
:100A60000FB607FCF7CF8C9185FFF2CF808185FF11
:100A7000EDCFCE010E949204E9CFDF91CF9108958E
:100A8000833081F028F4813099F08230A9F0089504
:100A90008730A9F08830C9F08430B1F480918000AB
:100AA0008F7D03C0809180008F77809380000895B0
:100AB00084B58F7784BD089584B58F7DFBCF8091F9
:100AC000B0008F778093B00008958091B0008F7D43
:100AD000F9CFCF93DF93282F30E0F901E35DFC4F8E
:100AE0008491F901E75EFC4FD491F901EB5FFC4F73
:100AF000C491CC23A1F081110E944005EC2FF0E0BD
:100B0000EE0FFF1FE550FD4FA591B491EC91ED2341
:100B100081E090E009F480E0DF91CF91089580E0DA
:100B200090E0FACF88E00E946905892B59F0209166
:100B3000EC023091ED022D7F81E02530310519F076
:100B400080E0089583E008951F93CF93DF93282FCB
:100B500030E0F901E35DFC4F8491F901E75EFC4F61
:100B6000D491F901EB5FFC4FC491CC23A9F0162F6F
:100B700081110E944005EC2FF0E0EE0FFF1FEF50B7
:100B8000FD4FA591B4918FB7F894EC91111108C065
:100B9000D095DE23DC938FBFDF91CF911F91089515
:100BA000DE2BF8CFCF93DF9390E0FC01E75EFC4FA4
:100BB00024918B5F9C4FFC0184918823D1F090E0BD
:100BC000880F991FFC01E951FD4FA591B491FC01DB
:100BD000EF50FD4FC591D49161110EC09FB7F894AD
:100BE0008C91E22FE0958E238C932881E223E88379
:100BF0009FBFDF91CF9108958FB7F894EC91E22BCE
:100C0000EC938FBFF6CF3FB7F89480916602909136
:100C10006702A0916802B091690226B5A89B05C041
:100C20002F3F19F00196A11DB11D3FBFBA2FA92F6B
:100C3000982F8827BC01CD01620F711D811D911D68
:100C400042E0660F771F881F991F4A95D1F70895D4
:100C50008F929F92AF92BF92CF92DF92EF92FF92CC
:100C60004B015C010E9403066B017C010E9403069C
:100C70006C197D098E099F09683E734081059105B5
:100C8000A8F321E0821A9108A108B10888EEC80EE5
:100C900083E0D81EE11CF11C81149104A104B1046D
:100CA00029F7FF90EF90DF90CF90BF90AF909F908B
:100CB0008F9008952FB7F89460916202709163024B
:100CC00080916402909165022FBF0895089520914C
:100CD0003C02260F3327331F21323105ECF42091DB
:100CE0001B03FC0190E080E0243069F082E008956D
:100CF000A0913C022191AC01465E5D4FA40FB52F3F
:100D0000B11D2C930196861798F380913C02680FD1
:100D100060933C0280E0089581E0089510921B03E7
:100D200081E080931A031092F50261E082E10E9453
:100D3000A40561E083E10E94A405E9EBF0E0808175
:100D40008E7F808380818D7F808388E48093B8004C
:100D500085E48093BC000895CF93DF9391E0909356
:100D600019028823B9F0C091B800D091BA008091DF
:100D7000BC008A7B8093BC0060E082E10E94A405F5
:100D800060E083E10E94A4050E948E06D093BA0021
:100D9000C093B800DF91CF9108958F929F92AF9248
:100DA000BF92CF92DF92EF92FF920F931F93CF9358
:100DB000DF93D0914403D13208F0D7C0182FC091EF
:100DC00043030E9403066B017C0180911B03811188
:100DD0006BC082E080931B0310931A038FEF809304
:100DE000190310921803D0931703A3E2B3E0E7EFBF
:100DF000F2E080E0D81391C01092F6028091F602E2
:100E0000CC0FC82BC093F6028091F502813009F017
:100E100088C01092F5020E9403066B017C0180914C
:100E2000F6028093BB0080911D0390911E03A09158
:100E30001F03B0912003892B8A2B8B2BA1F00E94DA
:100E4000030600911D0310911E0320911F03309192
:100E500020036C197D098E099F09061717072807BB
:100E6000390708F442C08091BC0083FDD8CF85ECDF
:100E70008093BC000E9403066B017C0180911B03E0
:100E8000823009F450C0809119038F3F09F46FC07C
:100E900080911903803209F46CC08091190380336A
:100EA00009F469C084E026C080911D0390911E035F
:100EB000A0911F03B0912003892B8A2B8B2B09F45F
:100EC00084CF0E94030680901D0390901E03A09083
:100ED0001F03B09020036C197D098E099F098616A7
:100EE0009706A806B90608F070CF80911C030E94EF
:100EF000AC0685E010922203109244031092210365
:100F0000DF91CF911F910F91FF90EF90DF90CF90E5
:100F1000BF90AF909F908F9008959D9191938F5F18
:100F200069CF85EEA5CF80911D0390911E03A091FE
:100F30001F03B0912003892B8A2B8B2B09F49ECFA2
:100F40000E94030600911D0310911E0320911F03B0
:100F5000309120036C197D098E099F090617170728
:100F60002807390708F08ACFC0CF81E0C3CF80E0DF
:100F7000C1CF82E0BFCF83E0BDCF0895CF93DF9391
:100F8000EC01E0911702F09118023097F1F0909186
:100F9000C5028091C4029817C0F090E0292F30E07C
:100FA0002617370754F4DE01A20FB31F4C912A53C2
:100FB0003D4FD9014C939F5FF1CF1092C5026093D2
:100FC000C402CB01DF91CF910994DF91CF910895B5
:100FD0000895E091C5028091C402E81730F4F0E072
:100FE000EA53FD4F808190E008958FEF9FEF0895C1
:100FF0009091C5028091C4022FEF3FEF981748F4FB
:10100000E92FF0E0EA53FD4F208130E09F5F90939D
:10101000C502C90108958091C4029091C502891B3F
:10102000990B0895CF92DF92EF92FF920F931F9347
:10103000CF93DF937C01CB018A01209121032223EE
:1010400089F0EB016B01C40ED51ECC15DD0569F0EE
:101050006991D701ED91FC910190F081E02DC701DC
:101060000995F3CF642F0E946706C801DF91CF91E5
:101070001F910F91FF90EF90DF90CF900895CF9345
:10108000DF931F92CDB7DEB769832091210322231E
:10109000F9F020914403203258F021E030E0FC01C7
:1010A0003383228390E080E00F90DF91CF91089509
:1010B00080912203E82FF0E0ED5DFC4F9981908351
:1010C0008F5F809322038093440381E090E0ECCF14
:1010D00061E0CE0101960E946706F7CF3F924F92E2
:1010E0005F926F927F928F929F92AF92BF92CF92B8
:1010F000DF92EF92FF920F931F93CF93DF932B0119
:101100003C017A01890120E2C22ED12C3324339490
:101110003BECA32E37E0B32EC0911307D0911407F8
:1011200080911607909117079E01215031092421C3
:101130003521C21BD30B9601281B390B021713074D
:1011400008F498012C173D0708F4E90120911507D0
:10115000B301A20104C076956795579547952A95E6
:10116000D2F790900F07942A309221039092430374
:101170001092220310924403029741F49927872D7D
:10118000762D652D82EE93E00E943F08642D82EE5D
:1011900093E00E943F08AE01B70182EE93E00E9407
:1011A000120881E00E94CD06811125C084E6882EB8
:1011B000C5010197F1F730922103909243031092F9
:1011C000220310924403809116079091170702970B
:1011D00029F460E082EE93E00E943F0860E082EE36
:1011E00093E00E943F0881E00E94CD068823A9F089
:1011F0008A948110DDCFDF91CF911F910F91FF90E5
:10120000EF90DF90CF90BF90AF909F908F907F90A6
:101210006F905F904F903F9008954C0E5D1E611C43
:10122000711CEC0EFD1E0C1B1D0B09F075CFE3CFDE
:10123000CF93DF93FC01C081D1810E945A06C61B67
:10124000D70B8D2F881F8827881FDF91CF91089596
:10125000FC019C01255F3F4F80E080FB879587F96B
:101260009191890FE217F307C1F70895E89886E690
:1012700096E09093010180930001089588E00E9418
:101280006905892B41F00E94360987E090E0909330
:10129000ED028093EC02089561E087E00C94A405D0
:1012A0009CB59C7F282F2370922B9CBD9DB582FB03
:1012B000222720F9892F8E7F822B8DBD08958CB532
:1012C0008F7D8CBD8CB5837F8CBD8091E8020C94A2
:1012D00050090E945F0960E087E00C94A4058EBD70
:1012E00000000DB407FEFDCF8EB50895FC0192817C
:1012F00083819CBD8DBD81E0878360E085810E94F4
:10130000A4058FEF0C946F098FEF0C946F090F9366
:101310001F93CF93DF9300D0CDB7DEB78C010E942F
:101320005A06600F711F7A8369830E9484098F3F78
:1013300071F0CE0101960E9418098823B1F380E074
:101340000F900F90DF91CF911F910F91089581E041
:10135000F7CFCF93DF93FC012781222349F0EC01E3
:1013600061E085810E94A4058FEF0E946F091F82B2
:10137000DF91CF9108951F93CF93DF93EC0188E520
:1013800092E00E948709182F882361F08DEF0E9458
:101390006F09CE010E94A9091886812FDF91CF9194
:1013A0001F9108958FE18E83CE010E94A909F5CF88
:1013B0000F931F93CF93DF938C01862FEA010E9436
:1013C0006F09FE0181918EBDDE5FEC17FD0741F0D4
:1013D0008191000000000DB407FEFDCF8EBDF5CF5A
:1013E0000DB407FEFDCF8FEF0E946F098FEF0E94B3
:1013F0006F090E948409F80181878F71853059F047
:1014000081E28683C8010E94A90980E0DF91CF9123
:101410001F910F91089581E0F9CFDF92EF92FF9233
:101420000F931F93CF93DF93EC01162F022FF32E10
:10143000E42ED52E0E944B108823C1F18F8181119B
:1014400003C0CE010E947609111128C0812F80644B
:101450000E946F098D2D0E946F098E2D0E946F09C9
:101460008F2D0E946F09802F0E946F0987E811114C
:1014700001C085E90E946F090E9484091AE00E9458
:101480008409898787FF02C01150C9F7DF91CF9186
:101490001F910F91FF90EF90DF9008951C30B1F2F3
:1014A0008CE291E00E9487098111D0CF8FEFEECFBF
:1014B000AF92BF92CF92DF92EF92FF921F93CF93A2
:1014C000DF93EC016A017B0159011F85112309F4A7
:1014D0005EC08885823049F48B859C85AD85BE854C
:1014E000C816D906EA06FB0649F18A85A7019601C6
:1014F000833039F099E0220F331F441F551F9A950E
:10150000D1F769E1CE010E940D0A882389F08EE0AF
:101510008E83CE010E94A90910E0812FDF91CF9127
:101520001F91FF90EF90DF90CF90BF90AF90089504
:1015300082E08887CB86DC86ED86FE8688E592E0B1
:101540000E948709811102C085E2E2CFA5016CEFFC
:10155000CE010E94D8098823E1F28B859C85AD8558
:10156000BE850196A11DB11D8B879C87AD87BE8767
:101570001F851111D2CFCE01DF91CF911F91FF9026
:10158000EF90DF90CF90BF90AF900C94BB098A850D
:10159000833039F089E0CC0CDD1CEE1CFF1C8A95F1
:1015A000D1F7A701960168E1CE010E940D0A8823B8
:1015B00031F08DE08E83CE010E94A909AECFA50146
:1015C0006EEFCE010E94D8098823A9F388E592E046
:1015D0000E948709F82E84E2FF2061F320E030E0CA
:1015E000A9016DE0CE010E940D0A882311F08AE066
:1015F000E1CF0E9484098111FACFCE010E94A9098E
:101600001F2D8BCFEF92FF921F93CF93DF93FC019F
:10161000208111E020FF12C0EC017C01FBE0EF0E05
:10162000F11C4B815C816D817E81970189819A815A
:101630000E94580A182F811108C010E0812FDF91F5
:10164000CF911F91FF90EF900895888181FD04C094
:1016500088818E7F8883F2CF4B815C816D817E8112
:101660008F819885A985BA85480F591F6A1F7B1FEE
:10167000970189819A810E94580A8111E9CFDDCFB3
:10168000CF93DF93EC01188620E030E0A9016CE0F5
:101690000E940D0A882349F089E08E83CE010E94C2
:1016A000A90980E0DF91CF910895CE010E94A90998
:1016B00081E0F8CFAF92BF92CF92DF92EF92FF928C
:1016C0000F931F93CF93DF9300D0CDB7DEB78C017C
:1016D0006A017B015901FC018085813049F48385D1
:1016E0009485A585B6858C159D05AE05BF0571F160
:1016F000F8018285A7019601833039F089E0220F35
:10170000331F441F551F8A95D1F762E1C8010E941B
:101710000D0A8823A1F08CE0F8018683C8010E949D
:10172000A90980E00F900F90DF91CF911F910F9149
:10173000FF90EF90DF90CF90BF90AF90089581E041
:10174000F8018087C386D486E586F6860E945A060D
:10175000645D7E4F7A8369830E948409F8018187E2
:101760008F3F41F4CE0101960E9418098823A1F30E
:101770008EE1D2CF8E3F11F089E1CECF8FEF8EBDBB
:10178000F501D501A150BE4F9FEFEA17FB0749F0C5
:10179000000000000DB407FEFDCF8EB59EBD819305
:1017A000F4CF0DB407FEFDCF8EB58C93F8011186F2
:1017B0000E9484090E948409F80183859485A58587
:1017C000B6850196A11DB11D83879487A587B6872D
:1017D00087858111A7CFC8010E94400BA3CFCF926C
:1017E000DF92EF92FF921F93CF93DF93DC0111966C
:1017F000ED91FC91EF2B51F490E080E0DF91CF91DF
:101800001F91FF90EF90DF90CF900895122F6A0103
:101810007B01EC018B819C81AD81BE818C159D0586
:10182000AE05BF0561F0CE010E94020B882321F3B3
:1018300012FF0CC01882CB82DC82ED82FE82137014
:101840002881122B1883CE010B96D8CF9E01255FDD
:101850003F4FB701A60189819A810E945A0B8111DD
:10186000E9CFCACF8F929F92AF92BF92CF92DF9271
:10187000EF92FF920F931F93CF9390936B048093FB
:101880006A0410926F0401E010E020E030E0009361
:10189000720410937304209374043093750490932E
:1018A0008C0480938B0410928A048FEF9FEFDC01ED
:1018B00080938D0490938E04A0938F04B093900432
:1018C000662309F44BC020E040E050E0BA018AE80A
:1018D00094E00E94EF0B009769F480E0CF911F9194
:1018E0000F91FF90EF90DF90CF90BF90AF909F90BF
:1018F0008F900895FC01E254FE4F2481222369F366
:1019000020812F7751F78A539E4FFC01C080D180F0
:10191000E280F38020E0B701A6018AE894E00E940B
:10192000EF0BFC01892BC9F280898230B1F68385E7
:1019300094858115924089F6958590936C048FEF7C
:10194000890F80936D04C0E081E0981769F0CF5F44
:10195000C93041F488E080936E04BFCFC12CD12CF4
:101960007601D8CF880FF1CFC0936E04868997890E
:10197000B0E0A0E08093760490937704A09378047D
:10198000B0937904892B8A2B8B2B61F484A195A1C8
:10199000A6A1B7A18093760490937704A0937804CE
:1019A000B093790486859785A7019601280F391F82
:1019B000411D511DDA01C90180937E0490937F047B
:1019C000A0938004B09381042189328930937104FB
:1019D00020937004409176045091770460917804CC
:1019E000709179044A015B01880C991CAA1CBB1CEC
:1019F000880D991DAA1DBB1D8093860490938704B2
:101A0000A0938804B093890405E0220F331F0A9540
:101A1000E1F721503E4F232F33272695820F931F46
:101A2000A11DB11D80937A0490937B04A0937C0444
:101A3000B0937D0483889488B12CA12C81149104E7
:101A4000A104B10421F480A091A0A2A0B3A0C81A5F
:101A5000D90AEA0AFB0AC80CD91CEA1CFB1C04C000
:101A6000F694E794D794C794CA95D2F7D701C601E4
:101A70000196A11DB11D8093820490938304A093CD
:101A80008404B093850435EFC3163FE0D306E10428
:101A9000F10420F48CE080936F041FCF85EFC8160B
:101AA0008FEFD806E104F10468F480E180936F04BD
:101AB0004093910450939204609393047093940420
:101AC00081E00CCF84A595A5A6A5B7A58093860433
:101AD00090938704A0938804B093890480E2E6CFB2
:101AE0008F929F92AF92BF92CF92DF92EF92FF922E
:101AF0000F931F93423051056105710560F480E03A
:101B00001F910F91FF90EF90DF90CF90BF90AF901B
:101B10009F908F900895FC01C08CD18CE28CF38C47
:101B2000C416D506E606F70650F3480159016A01C6
:101B30008581803229F584899589A689B78917E03E
:101B400076956795579547951A95D1F7480F591F80
:101B50006A1F7B1F23E0CF0180960E94EF0B009746
:101B600071F2CC0CDD1CCC0CDD1CF1E0DF228C0D05
:101B70009D1DFC0180829182A282B38281E0C0CF50
:101B8000803109F0BCCF44895589668977894D0D2C
:101B9000511D611D711D23E0CF0180960E94EF0B46
:101BA000009709F4ACCFCC0CDD1CF1E0DF22C80EAD
:101BB000D91EF60111830083E1CFCF92DF92EF921D
:101BC000FF920F931F93CF93DF934230510561052E
:101BD000710550F48FEFDF91CF911F910F91FF901E
:101BE000EF90DF90CF900895FC01C08CD18CE28CF7
:101BF000F38CC416D506E606F70660F389016A0180
:101C0000EC018581803299F584899589A689B78907
:101C1000E7E07695679557954795EA95D1F7480F90
:101C2000591F6A1F7B1F22E0CE0180960E94EF0B96
:101C3000009781F2CC0CDD1CCC0CDD1CF1E0DF2226
:101C40008C0D9D1DFC0180819181A281B381488D05
:101C5000598D6A8D7B8D481759076A077B0730F1CC
:101C6000F80180839183A283B38381E0B4CF803174
:101C700009F0B0CF44895589668977894D0D511D8A
:101C8000611D711D22E0CF0180960E94EF0B00972D
:101C900009F4A0CFCC0CDD1CF1E0DF22C80ED91E68
:101CA000F60180819181B0E0A0E0D1CF80E093CFB8
:101CB0009F92AF92BF92CF92DF92EF92FF920F93DB
:101CC0001F93CF93DF9300D000D0CDB7DEB75C0178
:101CD0006A017B019E012F5F3F4FB701A601C5013D
:101CE0000E94DD0D982E87FD34C000E010E09801C1
:101CF000B701A601C5010E94700D882351F1F501BD
:101D00004085518562857385C416D506E606F706BB
:101D100050F4F1E0CF1AD108E108F108F501C086CE
:101D2000D186E286F386C980DA80EB80FC80911050
:101D3000D1CF0F900F900F900F90DF91CF911F9107
:101D40000F91FF90EF90DF90CF90BF90AF909F905A
:101D5000089580E0EECF4F925F926F927F928F92C4
:101D60009F92AF92BF92CF92DF92EF92FF920F932A
:101D70001F93CF93DF93EC014A015B014C845D8498
:101D80006E847F842881222309F45CC048895989A4
:101D90006A897B89481559056A057B0581F081149C
:101DA0009104A104B10469F41C861D861E861F8659
:101DB000888A998AAA8ABB8A8A818F7D8A8381E0F0
:101DC00046C023FF2CC0888D998DAA8DBB8D8815A8
:101DD0009905AA05BB05B0F1EE81FF813481375F1B
:101DE0007501640181E0C81AD108E108F108032EE9
:101DF00004C0F694E794D794C7940A94D2F78A81E2
:101E000086FF36C08C8D9D8DAE8DBF8D8C0D9D1D3A
:101E1000AE1DBF1D8C879D87AE87BF87C9CF26FFAC
:101E2000DBCFEE81FF818681978125E0880F991FA6
:101E30002A95E1F7B0E0A0E088159905AA05BB0551
:101E400008F0B6CF4C865D866E867F8680E0DF9197
:101E5000CF911F910F91FF90EF90DF90CF90BF90A7
:101E6000AF909F908F907F906F905F904F9008956C
:101E7000DB01CA010197A109B10904C0B695A79574
:101E8000979587953A95D2F7C816D906EA06FB06C4
:101E900020F0452B462B472B49F527FF22C0848D88
:101EA000958DA68DB78D8C879D87AE87BF878E0158
:101EB000045F1F4FC114D104E104F10409F478CF89
:101EC0004C855D856E857F8598018E819F810E94FE
:101ED000DD0D91E0C91AD108E108F108181654F394
:101EE000B1CF8C8D9D8DAE8DBF8DDDCFC81AD90A37
:101EF000EA0AFB0ADCCF3F924F925F926F927F9289
:101F00008F929F92AF92BF92CF92DF92EF92FF9209
:101F10000F931F93CF93DF9300D000D0CDB7DEB7E0
:101F20005C01FC01448455846684778486809780B4
:101F3000F401C084D184E284F384C414D504E6049B
:101F4000F704C0F47301620110E0FFEFCF1ADF0A5B
:101F5000EF0AFF0AF401808D918DA28DB38D8C154F
:101F60009D05AE05BF0540F4111132C0C084D18477
:101F7000E284F38411E0E9CF4C145D046E047F0425
:101F800039F19E012F5F3F4FB701A601C4010E94A6
:101F9000DD0D87FD1DC08823C1F289819A81AB8147
:101FA000BC81892B8A2B8B2B81F6112329F0F4011C
:101FB000C086D186E286F3860FEF1FEF2FEF3FE05A
:101FC000B701A601C4010E94700D382E811118C0FE
:101FD000312C832D0F900F900F900F90DF91CF91A8
:101FE0001F910F91FF90EF90DF90CF90BF90AF9037
:101FF0009F908F907F906F905F904F903F9008954B
:102000004114510461047104B9F4F501C486D58604
:10201000E686F78682814114510461047104B1F0AF
:10202000FFEF4F1A5F0A6F0A7F0A4C145D046E04BB
:102030007F0479F08F7B0BC097018601B301A20169
:10204000C4010E94700D8111E0CFC2CF8064F50100
:102050008283F501828180688283BBCFCF93DF9337
:10206000EC01262F4C895D896E897F898E819F8145
:1020700080960E94EF0B009759F02C813D812F70C4
:10208000332745E0220F331F4A95E1F7820F931F54
:10209000DF91CF910895FC012085223011F40C943A
:1020A000BB09213011F40C94400B81E00895CF93CB
:1020B000DF93EC0180960E94020B882331F0888127
:1020C0009981DF91CF910C944B1080E0DF91CF91FB
:1020D0000895CF93DF93FC012081211104C081E09A
:1020E000DF91CF910895EC01828187FF28C061E0E4
:1020F000CF010E942E10FC01892B29F48981816077
:10210000898380E0EDCF8081853EC1F3888187732C
:102110008387888183FF08C0888D998DAA8DBB8DA8
:10212000848F958FA68FB78F8C8D9D8DAE8DBF8D33
:10213000938F828FB58BA48B8A818F778A838E81D0
:102140009F810E9457108823C9F2C9CFCF93DF9394
:10215000EC010E94691018821A82DF91CF910895D4
:1021600008950C960C946910FC01848583FF17C0B8
:1021700084A195A1A6A1B7A1448D558D668D778DBB
:10218000841B950BA60BB70B811520E89207A105C0
:10219000B10520F08FEF9FE7A0E0B0E0089580E068
:1021A00090E0DC01F1CF059708F182EE93E00E9408
:1021B000F8078093C20282EE93E00E94F8078093B2
:1021C000BE0282EE93E00E94F8078093BF0282EE87
:1021D00093E00E94F8078093C00282EE93E00E9491
:1021E000F8078093C10281E08093C3020895CF92E3
:1021F000DF92EF92FF92CF93DF93C82F8093180165
:10220000282F30E088EE93E0B9010E947137CB01AE
:10221000880F991F680F791F709323076093220717
:1022200081E080930401B901330F880B990B0E9460
:1022300036369B01AC0160911401709115018091BB
:102240001601909117010E948C356B017C01D09191
:1022500013016D2F70E090E080E00E9436369B0104
:10226000AC01C701B6010E948C3520E030E040E0AF
:102270005FE30E94EB360E9405367093210760935E
:102280002007C701B6010E94FE3570931F076093B7
:102290001E07CD9FC0011124880F991F90931D0721
:1022A00080931C07DF91CF91FF90EF90DF90CF904C
:1022B0000895CF93DF9300D000D01F92CDB7DEB743
:1022C00089834A835B836C837D8381E080932103D0
:1022D00087E080934303109222031092440341E06D
:1022E00050E0BE016F5F7F4F82EE93E00E941208C4
:1022F00044E050E0BE016E5F7F4F82EE93E00E94AB
:10230000120881E00E94CD060F900F900F900F9061
:102310000F90DF91CF910895FC011382128288EE15
:1023200093E0A0E0B0E084839583A683B78314860E
:10233000158616868DE191E0918380830895DC01F6
:102340006817790731F090E2FB0101900D929A95A0
:10235000E1F70895CF93DF93EC018A819B819093FD
:102360004104809340048C819D81AE81BF81809324
:10237000420490934304A0934404B0934504888599
:102380009985AA85BB858093460490934704A093C2
:102390004804B0934904BE01645F7F4F84E06A340F
:1023A000780729F08AE494E00E949F111C868EE34E
:1023B00094E0DF91CF91089590E080E008952F920E
:1023C0003F924F925F926F927F928F929F92AF92C5
:1023D000BF92CF92DF92EF92FF920F931F93CF9312
:1023E000DF9300D000D0CDB7DEB76B017C01BC011C
:1023F000A6014F5F5F4F6F4F7F4F809118079091FD
:102400001907A0911A07B0911B0784179507A60713
:10241000B70708F440C19E012F5F3F4F3C832B83D9
:10242000A0901307B0901407150131E0231A31086A
:102430002C203D2085010219130911F001E010E064
:1024400080911507A701960104C0569547953795C9
:1024500027958A95D2F7C90120910F07822E882AE5
:1024600031E03093210380924303109222031092B3
:1024700044038091160790911707029741F499271A
:102480008F2D7E2D6D2D82EE93E00E943F086C2DE6
:1024900082EE93E00E943F0881E00E94CD068A838D
:1024A0008111DBC00E9403062B013C0180911B03BC
:1024B000811168C0902E41E040931B0340931A03A2
:1024C0005FEF50931903109218038FEF800F8093E2
:1024D00017034093F6029091F602882D880F892BFE
:1024E0008093F6028091F502813009F082C010924B
:1024F000F5020E9403062B013C018091F6028093B5
:10250000BB0080911D0390911E03A0911F03B09109
:102510002003892B8A2B8B2BA1F00E94030620918C
:102520001D0330911E0340911F0350912003641935
:10253000750986099709261737074807590708F4C8
:1025400042C08091BC0083FDD8CF85EC8093BC0055
:102550000E9403062B013C0180911B03813009F48A
:102560004CC080911803891510F490901803E7EF80
:10257000F2E0A6ECB2E080E0891551F191919D93D3
:102580008F5FFACF80911D0390911E03A0911F03CE
:10259000B0912003892B8A2B8B2B09F487CF0E94C3
:1025A000030620911D0330911E0340911F0350919B
:1025B0002003641975098609970926173707480704
:1025C000590708F073CF80911C030E94AC06912C30
:1025D0001092C5029092C402712C7016110678F503
:1025E00082EE93E00E94F807EB81FC818083739474
:1025F000F4CF95EE9093BC00ABCF80911D039091EA
:102600001E03A0911F03B0912003892B8A2B8B2BD3
:1026100009F4A2CF0E94030620911D0330911E03EE
:1026200040911F0350912003641975098609970989
:10263000261737074807590708F08ECFC4CFC00EBA
:10264000D11EE11CF11C2B813C81200F311F3C83EA
:102650002B83A214B30409F4E3CE4A81842F90E0C3
:102660000097E1F4898190E00F900F900F900F9008
:10267000DF91CF911F910F91FF90EF90DF90CF905E
:10268000BF90AF909F908F907F906F905F904F9092
:102690003F902F90089539E03A83DFCF919581954F
:1026A0009109E2CF8091EC029091ED02059761F4DF
:1026B00086E898E190930101809300018091690080
:1026C000836080936900E89A0895FB0101900020DF
:1026D000E9F73197AF01461B570B0C9414048F9206
:1026E0009F92AF92BF920F931F93CF93DF93CDB77B
:1026F000DEB7A1970FB6F894DEBF0FBECDBF19A20B
:10270000423008F44AE08E010F5D1F4F842E912C59
:10271000B12CA12CA50194010E948537E62FB901A7
:10272000CA01EA3004F5E05DD801EE938D01232B58
:10273000242B252B79F790E080E0109729F0BD013C
:1027400085E493E00E946513A1960FB6F894DEBF6E
:102750000FBECDBFDF91CF911F910F91BF90AF9072
:102760009F908F900895E95CDFCFCF92DF92EF9238
:10277000FF92CF93DF936B017C01F7FE21C06DE2E6
:1027800085E493E00E94B404EC0166277727CB012F
:102790006C197D098E099F094AE00E946F13C80FCA
:1027A000D91F6BE571E085E493E00E9465138C0FFF
:1027B0009D1FDF91CF91FF90EF90DF90CF90089514
:1027C0004AE00E946F13EC01ECCFCF93DF93462FCA
:1027D000682F70E090E080E00E946F13EC016BE5E1
:1027E00071E085E493E00E9465138C0F9D1FDF91DB
:1027F000CF9108954F925F926F927F928F929F92A6
:10280000AF92BF92CF92DF92EF92FF920F931F93FE
:10281000CF936B017C01742EAC019B010E94583751
:102820006EE571E0811126C046015701E894B7F8C2
:102830002FEF3FEF4FE75FE7C501B4010E94583724
:1028400081110CC02FEF3FEF4FE75FE7C501B401E7
:102850000E94873562E671E0181664F02FEF3FEFB3
:102860004FE75FE4C701B6010E94E6361816ACF4E4
:1028700066E671E085E493E0CF911F910F91FF90A0
:10288000EF90DF90CF90BF90AF909F908F907F9010
:102890006F905F904F900C9465132FEF3FEF4FE7D1
:1028A0005FECC701B6010E94873587FDE1CF20E0CC
:1028B00030E0A901C701B6010E94873510E000E0B1
:1028C00087FF0AC06DE285E493E00E94B4048C01A6
:1028D000F7FAF094F7F8F094C0E060E070E080E080
:1028E0009FE37C1641F020E030E040E251E40E949A
:1028F0008C35CF5FF6CFA70196010E941B352B01C7
:102900003C010E9405364B015C014AE00E946F13B6
:102910007C01E00EF11ECC23C1F1C501B4010E947F
:1029200034369B01AC01C301B2010E941A354B0140
:102930005C016EE285E493E00E94B404E80EF91EA7
:10294000C15018F120E030E040E251E4C501B4018B
:102950000E94EB362B013C010E9405364B01B12C45
:10296000A12C4AE0C501B4010E946F13E80EF91EC4
:10297000C501B4010E9434369B01AC01C301B20110
:102980000E941A354B015C01DBCFC701CF911F912B
:102990000F91FF90EF90DF90CF90BF90AF909F90FE
:1029A0008F907F906F905F904F9008950F931F933B
:1029B000CF93DF93EC010E9401058C016BE571E080
:1029C000CE010E946513800F911FDF91CF911F915F
:1029D0000F91089585ED8093BC0080911D03909127
:1029E0001E03A0911F03B09120030796A11DB11DE6
:1029F00023E0B695A795979587952A95D1F72091CD
:102A0000BC0024FD03C010921B03089540911D03D8
:102A100050911E0360911F0370912003452B462B9C
:102A2000472B69F30097A105B10541F02AE22A95E9
:102A3000F1F700C00197A109B109E1CF80911C0312
:102A40000C94AC062F923F924F925F926F927F92BE
:102A50008F929F92AF92BF92CF92DF92EF92FF92AE
:102A60000F931F93CF93DF93CDB7DEB728970FB6A1
:102A7000F894DEBF0FBECDBF9E838D834B015A01FC
:102A8000DC0112968C9181FF1AC083FD20C0A50144
:102A900070E060E0ED81FE8180899189A289B3892F
:102AA00080959095A095B09565011F01FCE02F0ED3
:102AB000311C84179507A607B70708F0E0C0ED8121
:102AC000FE81818181608183B12CA12C53C0AD81B5
:102AD000BE8158964D915D916D917C915B97CD0132
:102AE0000E94AB0E8111D3CFEACF91018F819885DF
:102AF0000E94DD0D87FDE3CF811103C18D819E8191
:102B00000E947B0F8111FDC0DACFED81FE81848DA3
:102B1000958DA68DB78D0097A105B10581F4CF01E4
:102B20000E947B0F882359F2ED81FE818485958573
:102B3000A685B785848F958FA68FB78FE2C0ED816C
:102B4000FE8184879587A687B787DBC021E069C0AF
:102B5000ED81FE81808D918DA28DB38D84159505BB
:102B6000A605B70538F4408E518E628E738E828131
:102B700080688283C50128960FB6F894DEBF0FBE29
:102B8000CDBFDF91CF911F910F91FF90EF90DF901C
:102B9000CF90BF90AF909F908F907F906F905F90FD
:102BA0004F903F902F900895EF81F8854250510942
:102BB00061097109848104C0440F551F661F771F86
:102BC0008A95D2F780899189A289B389480F591FC4
:102BD0006A1F7B1F80E092E0801B910B76018C15B1
:102BE0009D0508F47C010115110509F0AFCFAD81F9
:102BF000BE8150964D905D906D907C905397589605
:102C00008D919D910D90BC91A02D481659066A0694
:102C10007B0630F4AD81BE8112968C9185FF96CFF4
:102C200025E0CF0180960E94EF0B009709F447CF73
:102C3000A701B401800F911F0E94F3370E0D1F1DD5
:102C40000115124051F4ED81FE81868197818096B5
:102C50000E94020B882309F432CFED81FE81808926
:102C60009189A289B3898E0D9F1DA11DB11D808BF5
:102C7000918BA28BB38B8E0C9F1CCE18DF08ED813D
:102C8000FE814088518862887388C114D10409F498
:102C90005FCF8681978198878F83DC011396FC90A4
:102CA000B301A20199E076956795579547959A9556
:102CB000D1F7F42282011170F11023C044855585AB
:102CC000668577850115110509F06ECF411551050F
:102CD0006105710509F419CF228126FF06CF808D89
:102CE000918DA28DB38D481659066A067B0608F0B1
:102CF000FCCE4F5F5F4F6F4F7F4F4487558766878E
:102D00007787AD81BE811696ED91FC9117971C9641
:102D10004D915D916D917C911F97425051096109D0
:102D20007109848104C0440F551F661F771F8A955F
:102D3000D2F780899189A289B389840F951FA61F34
:102D4000B71FAC01BD014F0D511D611D711D011556
:102D5000110509F03FCFC114B2E0DB0608F43ACF09
:102D600083A194A1A5A1B6A1481759076A077B07BB
:102D700041F410A28FEF9FEFDC0183A394A3A5A3DE
:102D8000B6A3940181A192A10E94580A882309F454
:102D900096CEE12C82E0F82E60CFCF93DF931F9286
:102DA000CDB7DEB7698341E050E0BE016F5F7F4F72
:102DB00004960E9422150F90DF91CF9108950C96F2
:102DC0000C942215CF93DF931F92CDB7DEB76983A2
:102DD00041E050E0BE016F5F7F4F0C960E942215CC
:102DE0000F90DF91CF9108954F925F926F927F92F3
:102DF0008F929F92AF92BF92CF92DF92EF92FF920B
:102E00000F931F93CF93DF93EC015B018A018A81BB
:102E100080FFCDC0888183FF16C0888D998DAA8DD3
:102E2000BB8D488959896A897B89841B950BA60BC0
:102E3000B70BA80170E060E0481759076A077B07E5
:102E4000A0F08C0112C086FF10C0EE81FF81868148
:102E5000978155E0880F991F5A95E1F7288939899C
:102E6000821B930B8017910760F378012E018CE091
:102E7000480E511C612C42E0742EE114F10409F457
:102E8000C3C0488959896A897B89EE81FF814A01DB
:102E900081E098222881DB01CA0139E0B695A79527
:102EA000979587953A95D1F726FF29C0448D558D82
:102EB000668D778D480F591F6A1F7B1FEE81FF813A
:102EC0008114910409F079C0E11482E0F80608F455
:102ED00074C083A194A1A5A1B6A1481759076A0798
:102EE0007B0709F46AC0950181A192A10E945A0B47
:102EF000882309F45CC0C12C82E0D82E74C0D38032
:102F0000D8228114910481F4D1100EC0452B462B98
:102F1000472B81F527FF29C0848D958DA68DB78D10
:102F20008C879D87AE87BF87EE81FF814C855D854D
:102F30006E857F854250510961097109848104C001
:102F4000440F551F661F771F8A95D2F78089918994
:102F5000A289B389840F951FA61FB71FAC01BD01BD
:102F60004D0D511D611D711DA9CF8C8D9D8DAE8D97
:102F7000BF8DD6CF4C855D856E857F8523FF0CC0C8
:102F80008A8186FF09C04F5F5F4F6F4F7F4F4C872D
:102F90005D876E877F87C8CF9201CF010E94DD0DCC
:102FA00087FD05C08111C0CF8881807D69F5898149
:102FB000826089838FEF9FEF2AC0C3018819990926
:102FC00067018E159F0508F46C0120E0CF01809603
:102FD0000E94EF0B009759F3BC01680D791DA60103
:102FE000C5010E94F337AC0CBD1C88899989AA8958
:102FF000BB898C0D9D1DA11DB11D888B998BAA8B42
:10300000BB8BEC18FD0839CFC8018E199F09DF91E1
:10301000CF911F910F91FF90EF90DF90CF90BF90D5
:10302000AF909F908F907F906F905F904F9008959A
:10303000EF92FF920F931F93CF93DF931F92CDB721
:10304000DEB77C01962FF701408951896289738927
:103050008A019B0185E036952795179507958A95F6
:10306000D1F70F7011F091112BC041E050E0BE017B
:103070006F5F7F4FC7010E94F416813051F090E0DE
:1030800080E00F90DF91CF911F910F91FF90EF9013
:103090000895F70180899189A289B3894F96A11D6E
:1030A000B11D808B918BA28BB38BF70186819781A9
:1030B0008B96F0E20F9F90011124820F931FE1CFB6
:1030C000405E5F4F6F4F7F4F408B518B628B738B96
:1030D000ECCFCF93DF93EC01AB0170E060E085E0D3
:1030E000440F551F661F771F8A95D1F7CE010E94A6
:1030F000AB0E882331F060E0CE01DF91CF910C94CC
:10310000181890E080E0DF91CF910895CF93DF937E
:10311000789482E00E946905892B81F140E250E0B9
:1031200067EF71E082EF93E00E94F416892BB9F407
:1031300082EF93E00E94A61084E090E09093ED026D
:103140008093EC02E89886E696E0909301018093E4
:10315000000190E080E0DF91CF910C949E19F894EB
:103160000E946909C7EFD1E089910E946F0982E04E
:10317000C731D807C9F70E944C09CACFDF91CF9158
:1031800008958091EC029091ED02079779F488E020
:103190000E946905892B51F00E94861885E090E015
:1031A0009093ED028093EC020C94521308950F93C8
:1031B0001F93CF93DF93C82F88E00E946905892B66
:1031C00009F442C00091EC021091ED0205301105A6
:1031D00011F40E94360982E00E946905892BD9F317
:1031E0000E945F0960E086E00E94A4058091EA02E7
:1031F0000E94500983E00E946F098C2F0E946F0982
:103200008FEF0E946F09C82F82E00E946905892B09
:10321000D9F38FEF0E946F09D82F82E00E946905D1
:10322000892BD9F361E086E00E94A40505301105E1
:1032300021F40E9486180E9452138D2F9C2FDF913B
:10324000CF911F910F91089580E090E0F8CFFF9209
:103250000F931F93CF93DF93F82E062F142F88E040
:103260000E946905892BA1F1C091EC02D091ED0279
:10327000C530D10511F40E94360982E00E9469052B
:10328000892BD9F30E945F0960E086E00E94A405C3
:1032900082E00E946F098F2D0E946F09802F0E948B
:1032A0006F09812F0E946F0982E00E946905892BB6
:1032B000D9F361E086E00E94A405259749F40E94B5
:1032C0008618DF91CF911F910F91FF900C945213AC
:1032D000DF91CF911F910F91FF900895462F672F97
:1032E0000C9427190F931F93CF93DF9361E078E13C
:1032F00087E00E946E1986E00E94D7188C0160E07A
:1033000078E187E00E946E1986E00E94D718EC01F0
:1033100086E00E94D718D7FF8C0130E020E0C8017A
:10332000772766278E0130E020E06C2B712B822BF3
:10333000932BDF91CF911F910F910895CF92DF9240
:10334000EF92FF920F931F93CF93DF936C010E9434
:103350005F098091EA020E94500966E07EE187E001
:103360000E946E1986E00E94D718EC0166E07EE1AB
:1033700087E00E946E1986E00E94D718C817D90707
:1033800099F066E07EE187E00E946E1986E00E9477
:10339000D718C817D90741F066E07EE187E00E94A0
:1033A0006E1986E00E94D718C114D10489F40E94D6
:1033B000690904E018E082E00E946905892BD9F3CD
:1033C0008C2F0E946F0901501109A9F70E944C0926
:1033D00000E410E080E00E94D718BC01686080E043
:1033E0000E946E190E94690980E2E82EF12C82E0A9
:1033F0000E946905892BD9F38C2F0E946F0981E007
:10340000E81AF108A1F70E944C0980E00E94D71841
:1034100083FD1BC0CD2869F10E94690904E018E012
:1034200082E00E946905892BD9F38C2F0E946F09D5
:1034300001501109A9F7DF91CF911F910F91FF90D2
:10344000EF90DF90CF900C944C090150110909F0D6
:10345000C1CF80E00E94D718BC01646080E0DF919A
:10346000CF911F910F91FF90EF90DF90CF900C9430
:103470006E19DF91CF911F910F91FF90EF90DF9028
:10348000CF90089560E078E187E00E946E1970E0C7
:1034900060E086E00E946E1970E060E086E00C94C7
:1034A0006E19CF93DF931F92CDB7DEB741E050E0A6
:1034B000BE016F5F7F4F0E94F416019731F489813E
:1034C00090E00F90DF91CF9108958FEF9FEFF9CFAC
:1034D0008F929F92AF92BF92CF92DF92EF92FF9224
:1034E000CF93DF93EC018C8C9D8CAE8CBF8CC88C01
:1034F000D98CEA8CFB8C0C960E94511A8C8E9D8E76
:10350000AE8EBF8EC88ED98EEA8EFB8EDF91CF91A4
:10351000FF90EF90DF90CF90BF90AF909F908F90F3
:1035200008950C960C94511AFC01808181110EC0F3
:1035300080E2DF011D928A95E9F777836683DB01DC
:1035400015968C91803121F0803239F080E0089519
:1035500080E4808381E08283089580E8FACFAF928F
:10356000BF92CF92DF92EF92FF920F931F93CF9370
:10357000DF93EC01888186FF0DC010E0812FDF9181
:10358000CF911F910F91FF90EF90DF90CF90BF9060
:10359000AF90089588899989AA89BB8981159E4F22
:1035A000AF41B10550F7CE010E947B0F182F882341
:1035B00021F3EE81FF81CC84DD84EE84FF8432E050
:1035C000C31AD108E108F108848104C0CC0CDD1CC9
:1035D000EE1CFF1C8A95D2F780899189A289B38954
:1035E000C80ED91EEA1EFB1E00E0A12C82E0B82EF8
:1035F000EE81FF8182810817B0F425E0B701A601B2
:10360000400F511D611D711DCF0180960E94EF0B6F
:10361000009709F4B2CFFC0195011192215030407E
:10362000E1F70F5FE5CF848120E032E002C0220F96
:10363000331F8A95E2F788899989AA89BB89820F05
:10364000931FA11DB11D888B998BAA8BBB8B96CF25
:103650002F923F924F925F926F927F928F929F92A2
:10366000AF92BF92CF92DF92EF92FF920F931F9390
:10367000CF93DF93CDB7DEB7AC970FB6F894DEBF2C
:103680000FBECDBF8C016B01FA01DB018C91807DF7
:1036900011F480E08AC2D8018C918111FACF868121
:1036A00097810C966DE070E00E945D3768A7818578
:1036B0008370772473948111760E622E7F01F60158
:1036C0000680F781E02DFAA3E9A340E050E0BA01BB
:1036D000C6010E94AB0E19A61AA6812C912CA12C12
:1036E000B12C412C9701265F3F4F3CA72BA7F60139
:1036F00080899189A289B3899C01AD01E5E0569545
:10370000479537952795EA95D1F72BA33CA34DA371
:103710005EA32BA03CA060E0C6010E941818FC012B
:10372000892BB1F5D60111968C918111B2CF64FE2F
:10373000B0CF862D83708150823008F0AACFAA20A6
:1037400011F029A43AA4A71458F460E0C6010E941D
:103750001818892B09F016C1F6018181811199CFC2
:10376000B12C872C912CA814B90408F00DC1C60106
:103770000E94AF1A882309F48CCFA9A1BAA112968E
:103780008C91B0E18B9FC0011124A80EB91EEBCF24
:103790009081953E11F0911110C0A11004C0BBA101
:1037A000B9A72CA12AA7A71408F4A394992309F474
:1037B000BECF953E29F4B12C9ACFA71408F448C087
:1037C0009E32C9F383858F3009F079C0B11042C0B1
:1037D000392F3F71932E48A5431389CF96FF87CF8A
:1037E0008584B42E51E0951282CF19821A821B82F1
:1037F000B601CE0101960E949F11D7018D919C9137
:10380000119713969C938E93129755245394B51445
:1038100008F46DCFB101CE0101960E94691800979E
:1038200051F2F70144815581FC0160E06530D0F42C
:1038300021813281D70112960D90BC91A02DBCA39D
:10384000ABA3A417B507B1F4232B09F450CFB3CF22
:10385000A12CB6CF9A949911AECF8585881509F41D
:10386000C1CFA9CF6B3018F424813581E3CF2681F5
:103870003781E0CF2038310508F09DCF8FE9820FE6
:103880008A3108F420528BA19CA10196D70113968E
:103890009C938E931297ABA1BCA18C919FE9980F3A
:1038A0009A3108F48052821386CF6F5F32966D3062
:1038B00009F0BCCF5394B1E02B1A3108A8CF83FD97
:1038C0007ACFBB2009F44CC021E09212E2CECF01A6
:1038D0000E9428098811DDCE66FCDBCE80E2F8016B
:1038E00011928A95E9F7D60116962D913C9117977A
:1038F000F80137832683358224825C964D915D9151
:103900006D917C915F97D80140875187628773875B
:10391000C9018B96F101EF70FF2745E0EE0FFF1F05
:103920004A95E1F7E80FF91F838583FD14C087737B
:103930008C939385987111F488608C93D8011396B9
:10394000BC92862D8370813009F44AC108F4ECC022
:10395000823009F443C1D8011C9212961C9299CE70
:103960004BE050E06BA57CA5CF010E94E637892B88
:1039700009F0BDCED70119968C9180FFADCF4424BC
:103980004394B5CEA394DFCE442009F43EC0F701A2
:10399000508472E6472EB12CA12C4701FAE08F0E1D
:1039A000911C0E945A06A60EB71E23E0251510F49E
:1039B00063E0562E94E0950D8A2D8F708A3008F0C2
:1039C00083C0805DF701E90FF11D828754E0B69452
:1039D000A7945A95E1F79150591670F3F701E50D48
:1039E000F11D3EE7328740E050E0BA01C6010E9477
:1039F000AB0E61E0C6010E941818009709F066C07E
:103A0000D60111968C91811144CEBB24BA94B70C87
:103A10002B0C311C19821A821B82B601CE01019631
:103A20000E949F114701FAE08F0E911CC4010E9471
:103A30002809582ED7018D919C91119713969C932C
:103A40008E931297AA24A394712C4B2C689446F859
:103A5000B101BA1408F4CDC06A197109CE010196FA
:103A60000E946918FC01892B09F413CEAF81B88537
:103A700090968C919097816090968C93842DBA103B
:103A80008A2D8083BFE0B38714865586138E128EED
:103A9000D70114964D915C9160E0D70112962D915B
:103AA0003C9113972417350731F5772081F17394F2
:103AB0002FEF3FEF653080F5328321836F5F3296C1
:103AC0006D3059F7A394C4CF895C7CCFFC01208171
:103AD000222309F49ACF238523FD8BCF4BE050E0BE
:103AE000BC01C4010E94E637892B09F082CF4A94B9
:103AF000411057CFCECDC901019613969C938E935A
:103B00001297D9012C91022E000C330BD3CF30E049
:103B100020E077247394CECF6B3018F43583248360
:103B2000CDCF37832683CACF81E0D80112968C93FC
:103B3000129712968C91129781FF07C08C91982F43
:103B4000917109F008CF80628C93D90193964D91C1
:103B50005D916D917C919697D80154964D935D93AC
:103B60006D937C93579784899589B0E0A0E0DC0140
:103B700099278827428D538D70E060E0482B592BA0
:103B80006A2B7B2BD8015C964D935D936D937C9350
:103B90005F97448D558D668D778DF801408F518FDD
:103BA000628F738F62FC1EC081E0AC960FB6F894F2
:103BB000DEBF0FBECDBFDF91CF911F910F91FF9060
:103BC000EF90DF90CF90BF90AF909F908F907F90BD
:103BD0006F905F904F903F902F90089583E0A5CF16
:103BE00082E0A3CFC8010E94AB0E882309F4B3CEB4
:103BF000DBCFC6010E946918009709F44ACD20E284
:103C0000FC0111922A95E9F72BE0F401DC01019007
:103C10000D922A95E1F7D70119962C912871FC0194
:103C2000248721E238E5318B208B318F208F338B35
:103C3000228BA9A1BAA190968C91909781609096C1
:103C40008C934CCEDF92EF92FF920F931F93CF9302
:103C5000DF93CDB7DEB7E7970FB6F894DEBF0FBEA0
:103C6000CDBF7C018B015FAB4EABD22E19821A8285
:103C70001B82FC018081882379F080E0E7960FB6F3
:103C8000F894DEBF0FBECDBFDF91CF911F910F9192
:103C9000FF90EF90DF900895FB018081807D69F3B4
:103CA000EEA9FFA980818F32D9F4EEA9FFA9808106
:103CB0008F3221F43196FFABEEABF7CFF80166817E
:103CC0007781811104C0C7010E94941AD7CFCE0119
:103CD00001960E94941A882381F28E010F5F1F4F74
:103CE000AE014A5C5F4FBE016F5D7F4F8EA99FA9F9
:103CF0000E94C202882309F4C0CFEEA9FFA98081E7
:103D00008823A1F020E0AE014F5D5F4FB801C701ED
:103D10000E94281B882309F4B0CFB701CE01019679
:103D20000E949F11C7010E94A610D7CF2D2DAE0172
:103D30004F5D5F4FB801C7010E94281B9FCF1F93A3
:103D4000CF93DF9300D000D000D0CDB7DEB764E6CC
:103D500070E080E090E00E94280660E088E00E9429
:103D6000A40564E670E080E090E00E94280661E02F
:103D700088E00E94A40581E090E09093EB0280939C
:103D8000EA029093E9028093E8026AE070E080E042
:103D900090E00E94280680E00E94D71814E0811568
:103DA000984461F560E070E683E00E946E1910921D
:103DB000EB021092EA0284E090E09093E902809393
:103DC000E8026AE070E080E090E00E94280683E06C
:103DD0000E94D71815E08115904681F488E28093FF
:103DE000F3028093F40248E268E28BE00E94271914
:103DF00088E00E946905892B61F416E0812F2696E0
:103E00000FB6F894DEBF0FBECDBFDF91CF911F91EB
:103E100008950E949205182F8111EFCF88E00E942B
:103E20006905892B51F36091E6027091E7026115F3
:103E3000710519F3655D7D4F20E04AE651E082EFA0
:103E400093E00E94221E8823C1F242E050E0BE01AE
:103E50006D5F7F4F82EF93E00E94F416892B09F487
:103E600048C042E050E0BE016F5F7F4F82EF93E0B9
:103E70000E94F416892BE9F189819A8197FF1DC070
:103E80009F779A83898342E050E0BE016B5F7F4F4A
:103E900082EF93E00E94F416892B59F189819A816F
:103EA0009C01215031093A832983892B71F26D815C
:103EB0007E818B810E946E19F1CF89819A819C014C
:103EC000215031093A832983892B09F4BECF42E07E
:103ED00050E0BE016B5F7F4F82EF93E00E94F416CB
:103EE000892B09F4B2CF6D817E818B810E946E197E
:103EF000E4CF82EF93E00E94A61064E670E080E0D9
:103F000090E00E9428067ACFE99886E696E09093A2
:103F100003018093020110926D0210926E021092C2
:103F20006F0210927002109271021092720210923F
:103F30007302109274021092A9021092AA021092B7
:103F4000AB021092AC021092A5021092A60210923F
:103F5000A7021092A80281E080930401EFE7F2E04B
:103F6000119211921192119282E0E739F807C1F78C
:103F70001092BA021092BB021092BC021092BD02C3
:103F80001092B1021092B2021092B3021092B402D7
:103F90001092990210929A0210929B0210929C0227
:103FA00010927B0210927C0210927D0210927E028F
:103FB00010929802109297021092CF061092D0069B
:103FC0001092D1061092D2061092CB061092CC0617
:103FD0001092CD061092CE061092C7061092C80617
:103FE0001092C9061092CA0640E050E0BA0185E17D
:103FF0000E94591164E670E080E090E00E9428067B
:104000008091EC029091ED028D7F0597D1F488E0CC
:104010000E946905892BA9F0E89886E696E09093BE
:1040200001018093000184E090E09093ED02809381
:10403000EC0282EF93E00E94A61081E090E00E94E3
:104040009E1981E0809305010C949F1EBF92CF9230
:10405000DF92EF92FF920F931F93CF93DF93CDB731
:10406000DEB7C55ED1090FB6F894DEBF0FBECDBF77
:10407000EFE7F2E0119211921192119222E0E739EA
:10408000F207C1F760E083E00E94D20560E085E0BE
:104090000E94D2051092C7061092C8061092C90657
:1040A0001092CA06E0915503F091560382E0808396
:1040B000E0915103F09152031082E0915303F0918B
:1040C000540310E1108310925D03E0915903F091C5
:1040D0005A0386E08083E0915703F0915803808172
:1040E00080618083E0915703F0915803808188605C
:1040F0008083E0915703F09158038081806880832A
:10410000E0915703F091580380818F7D8083109256
:10411000C5021092C40210922203109244030E941E
:104120008E068DEB97E090933B0280933A028EEBE4
:1041300097E090933F0280933E021093BA008CE088
:104140008093B80083ED90E190931802809317025A
:104150001092BB061092BE061092BF061092C006C7
:104160001092C1061092BD0689E08093BC0661E002
:104170000E94D20561E08091BC060E94A40582E500
:104180008093B9061092BA061FB7F8948091B001D7
:10419000811127C0EFE0F3E08491E3E2F3E0949132
:1041A000E82FF0E0EE0FFF1FE951FD4FA591B4910C
:1041B000EC91E92321F461E08AE00E94A40561E02A
:1041C0008AE00E94D2058CB580618CBD8CB580647C
:1041D0008CBD61E08DE00E94D20561E08BE00E9421
:1041E000D2058091B0018F5F8093B0011FBF81E045
:1041F0008093BB068091BE06811104C087EB96E0D8
:104200000E94760961E08091BC060E94A4051AE034
:104210000E9484091150E1F760E08091BC060E9481
:10422000A4050E945A066053784F7A83698320E080
:1042300030E0A90160E087EB96E00E940D0A082FAC
:10424000813009F47AC0CE0101960E9418098823B2
:1042500071F381E08093BD0687EB96E00E94A90987
:104260001092B6061092B50644E150E060E070E0AE
:1042700081E10E94591169ED72E085E493E00E94AA
:1042800001056AE070E080E00E94E51362ED70E0F5
:1042900085E493E00E94D614E091B506F091B6064D
:1042A000309721F08681882309F4A1C66AEB70E07B
:1042B00085E493E00E94D614E091B506F091B6062D
:1042C0003097A1F08681813009F091C669E870E0ED
:1042D00085E493E00E94D614E091B506F091B6060D
:1042E000309721F08681882309F42FC16CE670E0B5
:1042F00085E493E00E940105E091B506F091B606D1
:104300006BE2309709F0668170E090E080E040E178
:104310000E946F1368E670E085E493E00E94010557
:10432000E091B506F091B60680E0309709F08185FE
:1043300060E170E00E94E513FFCF2AEA31E040E03F
:1043400050E068E087EB96E00E940D0A82FD11C004
:1043500014E00E9484098093C0061150D1F78A3A74
:1043600029F1CE0101960E941809882331F386E0D5
:1043700071CF11E0C12CD12C760120E030E0A901F1
:1043800067E387EB96E00E940D0AA701960169E2B8
:1043900087EB96E00E940D0A882379F0CE01019602
:1043A0000E941809882349F387E154CF12E0C12CF9
:1043B000D12CE12C90E4F92EE0CF1230C9F420E0AA
:1043C00030E0A9016AE387EB96E00E940D0A88239A
:1043D00011F082E13FCF0E948409807C803C09F487
:1043E00013E00E9484090E9484090E948409012F1D
:1043F00087EB96E00E94A90980E58093B90681E0E9
:104400008093BA060093C1061092C60687EB96E029
:104410009093B6068093B5061091BD06111124CF76
:1044200061E087EB96E00E94320C882309F476C0A5
:1044300085E996E00E94A6106AE674E085E996E0B8
:104440000E94941A882309F469C08AE694E0909344
:10445000E7028093E60219821A821B8220E046E777
:1044600051E065E976E0CE0101960E94221E81119D
:1044700077C04EE150E060E070E081E10E945911A8
:104480006BEC72E085E493E00E9401056AE070E065
:1044900080E00E94E51362E071E085E493E00E9411
:1044A000010568E771E085E493E00E9465136BE520
:1044B00071E085E493E00E946513E091B506F09108
:1044C000B606309721F08681882309F487C166EF0C
:1044D00070E085E493E00E940105E091B506F0915B
:1044E000B6066BE2309709F0668170E090E080E0FC
:1044F00040E10E946F1362EF70E085E493E00E9458
:104500000105E091B506F091B606309709F01185E6
:1045100060E170E0812F0E94E513FFCF60E08091A1
:10452000B5069091B6060E94320C882309F49CCE01
:1045300085E996E00E94A6106AE674E085E996E0B7
:104540000E94941A811181CF8FCE80916F048111C6
:10455000F3CE68E770E085E493E00E94D614ECCED9
:104560008981807D09F485CFBE016F5F7F4F85E92A
:1045700096E00E949F111092C5021092C4020E9400
:104580008E068DEB97E090933B0280933A028EEB80
:1045900097E090933F0280933E028CE08093B800B6
:1045A00080910F0791E09093210380934303109231
:1045B00022031092440380911607909117070297E7
:1045C00029F460E082EE93E00E943F0860E082EE12
:1045D00093E00E943F0881E00E94CD06882331F0DD
:1045E0006DEA72E085E493E00E94D614CE01019654
:1045F0000E948C1120E041E851E065E976E0CE01AF
:104600000D960E94221ECE0101960E94AA11809151
:104610004A04882309F493C360E972E085E493E0D7
:104620000E94D61420916204909163042093F501B6
:104630009093F6016091F1017091F2018091F30184
:104640009091F401CC51DF4F2883C45ED0406B01C0
:104650007C013FEFC31AD30AE30AF30A009118075B
:104660001091190720911A0730911B070C151D0591
:104670002E053F0538F021E030E0AE014C515F4F90
:104680000E946E088091F1019091F201A091F301D6
:10469000B091F4012091F601CB51DF4F2883C55E24
:1046A000D0406C017D01E2E0CE0ED11CE11CF11C7A
:1046B000009118071091190720911A0730911B07D4
:1046C0000C151D052E053F0568F0BC01CD016F5F7F
:1046D0007F4F8F4F9F4F21E030E0AE014B515F4F36
:1046E0000E946E0880E490E0A0E0B0E08093F101C9
:1046F0009093F201A093F301B093F40180914A04E6
:1047000083FF77C08091620490916304A091640458
:10471000B091650440915A0450915B0460915C042F
:1047200070915D04841B950BA60BB70B8115F0E807
:104730009F07A105B10520F08FEF9FE7A0E0B0E053
:10474000892B09F469C040E450E061EB71E08AE430
:1047500094E00E94F4166091F1017091F201809151
:10476000F3019091F4016B017C0120E4C20ED11C95
:10477000E11CF11C009118071091190720911A07EC
:1047800030911B070C151D052E053F05B0F120E4E7
:1047900030E041EB51E00E946E08182F882379F138
:1047A00062E872E085E493E00E94010562E772E04E
:1047B000193079F066E672E085E493E00E94010525
:1047C000612F70E090E080E04AE00E946F1365E6A0
:1047D00072E085E493E00E94D61490CF80916F043C
:1047E00081119BCE61EE70E085E493E00E94D614C7
:1047F00094CE80E090E0DC0199CF19E0D1CF809198
:10480000F1019091F201A091F301B091F401805C6B
:104810009F4FAF4FBF4F6ACF19821A821B8220E091
:104820004DE851E065E976E0CE0101960E94221E36
:10483000811185C2CE0101960E948C1120E046E7CD
:1048400051E065E976E0CE010D960E94221EC35725
:10485000DF4F1882CD58D040C257DF4F1882CE5854
:10486000D040C157DF4F1882CF58D040AE961FAE10
:10487000AE97AF961FAEAF97E0961FAEE0978091D0
:104880004A048871C1F120915004309151048B8900
:104890009C892817390779F58AE494E00E94691009
:1048A0006AE474E0CE0183599F4F0E949F1160E03B
:1048B0008AE494E00E942E10FC01892BE1F090E242
:1048C000DE01A355BF4F01900D929A95E1F78091BB
:1048D0004A0483FF13C021E54AE651E0BE01635F4D
:1048E0007F4FCE0183579F4F0E94221EC12CD12C97
:1048F0007601811119C162E372E01DC28AE691E07E
:10490000CE51DF4F99838883C25ED0402E961FAE72
:104910002E972F961FAE2F9760961FAE6097C357A6
:10492000DF4F8881CD58D0408111E5CF8D85807DC6
:1049300011F3CE010D967C01AE014E515F4FBE01C9
:1049400063537F4FCE51DF4F88819981C25ED04043
:104950000E94C202882379F2CE51DF4FE881F981AB
:10496000C25ED04080818823F9F020E0AE0143533D
:104970005F4FB701CE0183579F4F0E94281B8823AA
:1049800009F4B9CFBE0163577F4FCE01835B9F4FC0
:104990000E949F11CE0183579F4F0E94A610FE01D7
:1049A000E35BFF4F7F01C8CFF7018081807D09F471
:1049B000A2CF22E5AE0143535F4FB701CE0183572B
:1049C0009F4F0E94281B882309F495CF81E0C1578F
:1049D000DF4F8883CF58D04010E1C357DF4F188393
:1049E000CD58D040CE0183579F4F0E94AF1A8823E5
:1049F00009F481CFC756DF4F88819981AA81BB8195
:104A0000C959D040C755DF4F88839983AA83BB8398
:104A1000C95AD04040E050E0BA01CE0183579F4FC1
:104A20000E94AB0ECE0183579F4F0E9469108823CE
:104A300009F461CF61E0CE0183579F4F0E942E1091
:104A4000FC01892B09F457CF138780E2DE019D9684
:104A500001900D928A95E1F78EE28DA7FE01BE9638
:104A6000CE01C89620E221938E179F07E1F7CD561D
:104A7000DF4FE881F981C359D040C755DF4F4881E6
:104A800059816A817B81C95AD040425051096109DC
:104A90007109848104C0440F551F661F771F8A95D2
:104AA000D2F780899189A289B389480F591F6A1F5B
:104AB0007B1F21E0CF0180960E94EF0B009709F445
:104AC0001ACF20E2FE01BD96DC0101900D922A95DD
:104AD000E1F72EE22EA7F701448D558D668D778D77
:104AE00023967FAF6EAF239729965FAF4EAF29977E
:104AF00020E2FE01BD96DC01909601900D922A9570
:104B0000E1F7CD56DF4F88819981C359D0400E948B
:104B10005710882309F4EFCEC755DF4FC880D980DE
:104B2000EA80FB80C95AD040CF55DF4F88819981F8
:104B3000AA81BB81C15AD04080935E0490935F04E8
:104B4000A0936004B0936104CF56DF4F88819981B0
:104B5000C159D04090934F0480934E04C057DF4F0B
:104B60008881C059D04080934D04CB56DF4F888157
:104B70009981AA81BB81C559D040809352049093FA
:104B80005304A0935404B0935504C357DF4F1882C5
:104B9000CD58D040C157DF4F1882CF58D04061E088
:104BA0008AE494E00E942E10009709F4A4CEDC0160
:104BB0001D9623E1EDEAF0E0EC0FFD1F3D9601901C
:104BC0000D922A95E1F7C854DF4F2881C85BD04089
:104BD000FC012387C114D104E104F10409F469C084
:104BE000E0915004F09151048481B701A601425034
:104BF00051096109710904C0440F551F661F771FD1
:104C00008A95D2F780899189A289B389480F591F63
:104C10006A1F7B1F20E0CF0180960E94EF0BFC01F2
:104C2000892B09F468CE90E2B096DE01A355BF4F00
:104C300001900D929A95E1F7B701A6018091500479
:104C4000909151040E94580E882309F454CEE091AB
:104C50005004F091510440916604509167046091B2
:104C60006804709169044250510961097109848195
:104C700004C0440F551F661F771F8A95D2F780899D
:104C80009189A289B389480F591F6A1F7B1F21E0B0
:104C9000CF0180960E94EF0BDC01892B09F42BCE0B
:104CA00090E2FE01E355FF4F909601900D929A9588
:104CB000E1F7C757DF4F188219821A821B82C95841
:104CC000D04082E0E0968FAFE09788E0AE968FAF5D
:104CD000AE971DA61EA61FA661E0CE0183599F4F69
:104CE0000E942E108C01009709F405CE0E9428091D
:104CF000D82E85EEF8018083AE961FAEAE97E09673
:104D00001FAEE097E5968EAD9FADE5970E945710D8
:104D1000882309F4F0CDE1968FADE19781118BC026
:104D200080915004909151040E94571062E472E007
:104D3000882309F4E0CD85E493E00E94D6148AE448
:104D400094E00E94A610CE0101960E948C1120E0F2
:104D50004AE651E065E976E0CE010D960E94221EFA
:104D6000CE0101960E94AA1180914A048111C9C006
:104D700060E070E0CB010E94DF118C0161E070E027
:104D800080E090E00E94DF1120E0382F200F311FDB
:104D90003093F6012093F50180E490E0A0E0B0E0CC
:104DA0008093F1019093F201A093F301B093F40189
:104DB000CE0101960E948C1126E14AE651E065E998
:104DC00076E0CE010D960E94221ECE0101960E9431
:104DD000AA1180914A04882309F48DC0C090F10182
:104DE000D090F201E090F301F090F4018091F50190
:104DF0009091F601805C9F4FB0E0A0E0C816D90604
:104E0000EA06FB0608F07DC0C701B6010E94DF116B
:104E1000682F8EE394E00E94E216FFEFCF1ADF0ABC
:104E2000EF0AFF0AC092F101D092F201E092F30181
:104E3000F092F401D3CFE9968CAD9DADAEADBFAD90
:104E4000E997E5966EAD7FADE5979E01235D3F4FF7
:104E500079010097A105B105E1F5C9010E94941AF5
:104E6000882309F448CD01E010E085EEC82EE196D4
:104E70008FADE197801708F43ECDE3966EAD7FAD20
:104E8000E397601B710BC7010E946918FC01892B15
:104E900009F431CD83858F3009F02DCD3081832FFA
:104EA0008F71081328CD8585D81225CDC082E5964F
:104EB0008EAD9FADE597FC0120A1216020A30F5F7F
:104EC0001F4F36FFD4CF0E945710882309F413CD0B
:104ED00027CF2CE1F70111922A95E9F720E12DA7C0
:104EE00021E02FA77CAB6BAB2D968CAF9DAFAEAF07
:104EF000BFAF2D97B8CF61E172E085E493E00E94E7
:104F0000D6148AE494E00E94A61062E072E085E480
:104F100093E00E94D61480916F0481110CC060E66A
:104F200071E085E493E00E94D6146AE071E085E4C4
:104F300093E00E94D61460E082E00E94D20561E016
:104F400086E00E94D20561E087E00E94D20561E020
:104F500088E00E94D20561E086E00E94A4050E94DC
:104F60004C0960E088E00E94A40581E090E0909305
:104F7000ED028093EC020E949F1E182F6CEF71E0EF
:104F800085E493E00E94D614112301F1412F50E0F3
:104F9000465F5F4F052E000C660B770B81E10E9488
:104FA00059116AEE71E085E493E00E940105612FDA
:104FB00070E090E080E04AE00E946F13163031F418
:104FC00069EC71E085E493E00E94D614CB51DF4F89
:104FD0000FB6F894DEBF0FBECDBFDF91CF911F910A
:104FE0000F91FF90EF90DF90CF90BF900895E091E8
:104FF000B506F091B60676C91F920F920FB60F92C2
:1050000011242F933F934F935F936F937F938F93CD
:105010009F93AF93BF93EF93FF9385E493E00E9438
:105020009204FF91EF91BF91AF919F918F917F91EA
:105030006F915F914F913F912F910F900FBE0F9005
:105040001F9018951F920F920FB60F9211242F9355
:105050008F939F93EF93FF93E0915503F091560345
:105060008081E0915B03F0915C0382FD1BC0908125
:1050700080915E038F5F8F7320915F03821741F0F1
:10508000E0915E03F0E0EB5BFC4F958F80935E0355
:10509000FF91EF919F918F912F910F900FBE0F90E5
:1050A0001F9018958081F4CF1F920F920FB60F9228
:1050B00011242F933F938F939F93AF93BF9380912E
:1050C000620290916302A0916402B09165023091F6
:1050D000610223E0230F2D3758F50196A11DB11D64
:1050E000209361028093620290936302A093640212
:1050F000B09365028091660290916702A091680268
:10510000B09169020196A11DB11D80936602909332
:105110006702A0936802B0936902BF91AF919F911B
:105120008F913F912F910F900FBE0F901F90189568
:1051300026E8230F0296A11DB11DD2CF1F920F9218
:105140000FB60F9211242F933F934F935F936F935A
:105150007F938F939F93AF93BF93EF93FF93E091D0
:105160000201F09103010995FF91EF91BF91AF9179
:105170009F918F917F916F915F914F913F912F916F
:105180000F900FBE0F901F9018951F920F920FB6A1
:105190000F9211242F933F934F935F936F937F93BD
:1051A0008F939F93AF93BF93EF93FF93E091000191
:1051B000F09101010995FF91EF91BF91AF919F91FE
:1051C0008F917F916F915F914F913F912F910F90B0
:1051D0000FBE0F901F9018951F920F920FB60F924F
:1051E00011242F933F934F935F936F937F938F93EC
:1051F0009F93AF93BF93EF93FF938091B900887F04
:10520000803609F44AC0F0F5883209F4A7C018F5D1
:10521000803109F49BC0B8F4882309F4F9C08830C0
:1052200009F494C0FF91EF91BF91AF919F918F913D
:105230007F916F915F914F913F912F910F900FBE92
:105240000F901F901895883109F488C0803251F76B
:105250008093190314C0803409F49DC040F4803356
:10526000B9F38833F9F68093190385ECB0C0803523
:1052700009F485C0883509F496C0883499F60E94EF
:10528000EA14D0CF883909F48CC038F5883729F072
:1052900050F4883611F0803729F683E080931B03A1
:1052A0001092600257C0883809F47BC0803919F029
:1052B000803809F0B7CF80916002803208F071C069
:1052C000E091600281E08E0F809360028091BB00CC
:1052D000F0E0E05CFD4F80833DC0803B39F0E0F4BE
:1052E000803A09F479C0883A09F09CCF84E0809331
:1052F0001B0310923D0210923C02E0913A02F091A1
:105300003B02099580913C0281110FC081E080939E
:105310003C0210921A0209C0803C09F4A6CF883CD6
:1053200009F4A3CF883B09F07DCFE0913D0281E0F5
:105330008E0F80933D02F0E0E65EFD4F808180930A
:10534000BB0090913D0280913C0229C08091F60201
:105350008093BB0085EC8093BC0064CF90911803D0
:1053600080911703981758F5E091180381E08E0F8C
:1053700080931803F0E0E950FD4F8081E9CFE09180
:10538000180381E08E0F809318038091BB00F0E03A
:10539000E950FD4F8083909118038091170398176F
:1053A000C8F285E8D8CFE091180381E08E0F809392
:1053B00018038091BB00F0E0E950FD4F808380919D
:1053C0001A0381115CCF81E08093F50284EA809317
:1053D000BC0010921B0326CF85EC8093BC0010927A
:1053E0001B0380916002803230F4E0916002F0E0B3
:1053F000E05CFD4F10826091600270E0E0913E023F
:10540000F0913F0280E492E00995109260020ACF89
:105410001092190334CF4F925F926F927F928F92C6
:105420009F92AF92BF92CF92DF92EF92FF92CF9373
:10543000109248031092470388EE93E0A0E0B0E09A
:105440008093490390934A03A0934B03B0934C037A
:105450002FE231E0309346032093450325EC30E002
:10546000309352032093510324EC30E030935403E3
:105470002093530320EC30E03093560320935503E0
:1054800021EC30E0309358032093570322EC30E0B6
:1054900030935A032093590326EC30E030935C0399
:1054A00020935B0310925E0310925F0310926003DF
:1054B000109261031092E5031092E4038093E603D7
:1054C0009093E703A093E803B093E90381E491E0AC
:1054D0009093E3038093E2031092F1031092F003A0
:1054E0001092F2031092F3031092F40383E591E01B
:1054F0009093EF038093EE03C09118012C2F30E0BE
:1055000088EE93E0B9010E947137CB01880F991F93
:10551000680F791F7093230760932207B901330F37
:10552000880B990B0E9436369B01AC0160911401E7
:105530007091150180911601909117010E948C3590
:105540004B015C01F09013016F2D70E090E080E062
:105550000E9436369B01AC01C501B4010E948C3516
:1055600020E030E040E05FE30E94EB360E94053629
:105570007093210760932007C501B4010E94FE3596
:1055800070931F0760931E07CF9DC0011124880FE1
:10559000991F90931D0780931C0780E091E09093E2
:1055A00011078093100781E08093120780E490E058
:1055B000909314078093130780E580930F0780E092
:1055C00090E8A0E0B0E08093180790931907A093AB
:1055D0001A07B0931B0782E090E09093170780931F
:1055E00016078FE080931507C0900F01D09010012F
:1055F000E0901101F090120180900B0190900C014D
:10560000A0900D01B0900E0140900701509008014C
:105610006090090170900A018BEC96E09093F2067D
:105620008093F1068FEC96E09093F0068093EF065E
:1056300087EC96E09093F4068093F30610920D07A2
:10564000109205071092060710920707109208079C
:1056500080E090E0AFE7B3E48093090790930A07F6
:10566000A0930B07B0930C0784E690E0A0E0B0E0B5
:105670008093010790930207A0930307B093040758
:105680001092EC061092EB0620E030E0A901C30175
:10569000B2010E94873587FD58C020E030E0A901A3
:1056A000C501B4010E94873587FD4FC020E030E07E
:1056B000A901C701B6010E94873587FD46C0109237
:1056C000EE061092ED0610920E074092D30650920D
:1056D000D4066092D5067092D6068092D706909234
:1056E000D806A092D906B092DA06C092DB06D09214
:1056F000DC06E092DD06F092DE064092DF06509274
:10570000E0066092E1067092E2062DEC3CEC4CEC77
:105710005DE3C501B4010E94EB366093E30670932C
:10572000E4068093E5069093E6062DEC3CEC4CEC09
:105730005DE3C701B6010E948C356093E706709364
:10574000E8068093E9069093EA060E945A06C09004
:105750000107D0900207E0900307F09004076C194E
:105760007D098E099F096093F5067093F606809374
:10577000F7069093F80610926F0410928C04109222
:105780008B0410928A048FEF9FEFDC0180938D04CD
:1057900090938E04A0938F04B0939004109295067A
:1057A00010929606109297061092B6061092B506C1
:1057B0001092B8061092B70680E58093B906109251
:1057C000BA061092BB061092BC068AE28093BD0610
:1057D0001092BE061092BF061092C0061092C1062B
:1057E0001092C2061092C3061092C4061092C5060B
:1057F0001092C6068EE394E00E948C1182E194E040
:10580000CF91FF90EF90DF90CF90BF90AF909F909F
:105810008F907F906F905F904F900C948C11CF93EE
:10582000DF93CDB7DEB7C554D1090FB6F894DEBF0C
:105830000FBECDBF789484B5826084BD84B581608D
:1058400084BD85B5826085BD85B5816085BD80914B
:105850006E00816080936E001092810080918100C3
:1058600082608093810080918100816080938100BB
:10587000809180008160809380008091B10084607D
:105880008093B1008091B00081608093B0008091DE
:105890007A00846080937A0080917A00826080939D
:1058A0007A0080917A00816080937A0080917A00FA
:1058B000806880937A001092C1000E9426208E0199
:1058C000045D1F4F18AF0FAB8091C302882309F40A
:1058D0005AC0E091C202E150E83008F049C0F0E05F
:1058E000EC58F34D0C94C6377C2C952CA62CA92C87
:1058F000AC2CAF2CB22CB52C63E275E085E493E0C0
:105900000E94D614E091C202E150E83008F002C4CF
:10591000F0E0E357F34D0C94C637BF2CD22DE12DA8
:10592000EC2DFF2D122EE72E012F6BE075E085E4A4
:1059300093E00E9401056091BE027091BF028091C8
:10594000C0029091C1020E94B513DCCF67EF74E0F2
:10595000EECF6BEE74E0EBCF6FED74E0E8CF63ED6C
:1059600074E0E5CF61EC74E0E2CF60EB74E0DFCF90
:105970008091C2026AE070E00E94E513DCCF0E94D1
:10598000841F1092C302809105019091B90289177A
:1059900089F0843009F4DEC308F0CDC3813009F406
:1059A000D6C362E974E0833009F4CCC38091050169
:1059B0008093B90280910501853009F439C486309D
:1059C00009F4D7C7833009F047C785E00E9469050D
:1059D000019709F441C783E00E94690590916C0228
:1059E000891761F020916A0230916B022F5F3F4F5F
:1059F00030936B0220936A0280936C0280911301B2
:105A000090E0880F991F40910601489F9001499F9F
:105A1000300D112480916A0290916B0282179307D6
:105A20000CF41AC71092B1021092B2021092B30293
:105A30001092B40280910D07811102C00E94A6034A
:105A400031E030930D076CE574E085E493E00E944B
:105A500001056091140170911501809116019091DA
:105A6000170142E00E94FA136BE571E085E493E0D0
:105A70000E946513C0901401D0901501E0901601AA
:105A8000F090170120E034E44CEA56E4C701B60177
:105A90000E948735882309F463C320E030E04AEF91
:105AA00056E4C701B6010E948735882309F45DC317
:105AB00020E034E44CE257E4C701B6010E94873588
:105AC000882309F457C320E030E84BE357E4C701CB
:105AD000B6010E94873581114DC368E471E780E00B
